{
  "_format": "hh-sol-artifact-1",
  "contractName": "Payout",
  "sourceName": "contracts/Payout.sol",
  "abi": [
    {
      "inputs": [
        {
          "internalType": "address",
          "name": "_policyMakerAddress",
          "type": "address"
        }
      ],
      "stateMutability": "nonpayable",
      "type": "constructor"
    },
    {
      "anonymous": false,
      "inputs": [
        {
          "indexed": true,
          "internalType": "uint32",
          "name": "policyId",
          "type": "uint32"
        },
        {
          "indexed": true,
          "internalType": "address",
          "name": "policyHolder",
          "type": "address"
        },
        {
          "indexed": false,
          "internalType": "uint256",
          "name": "amount",
          "type": "uint256"
        },
        {
          "indexed": false,
          "internalType": "bool",
          "name": "approved",
          "type": "bool"
        }
      ],
      "name": "ClaimProcessed",
      "type": "event"
    },
    {
      "inputs": [
        {
          "internalType": "uint32",
          "name": "_policyId",
          "type": "uint32"
        },
        {
          "internalType": "address",
          "name": "_policyHolder",
          "type": "address"
        },
        {
          "internalType": "uint256",
          "name": "_claimAmount",
          "type": "uint256"
        }
      ],
      "name": "processClaim",
      "outputs": [],
      "stateMutability": "nonpayable",
      "type": "function"
    }
  ],
  "bytecode": "0x6080604052348015610019576000806100166100ac565b50505b50604051610ba1380380610ba183398181016040526020811015610045576000806100426100ac565b50505b8101908080519060200190929190505050806000806101000a8161006761011a565b8173ffffffffffffffffffffffffffffffffffffffff021916908373ffffffffffffffffffffffffffffffffffffffff160217906100a361017d565b505050506101e2565b632a2a7adb598160e01b8152600481016020815285602082015260005b868110156100e75780860151816040840101526020810190506100c9565b506020828760640184336000905af158600e01573d6000803e3d6000fd5b3d6001141558600a015760016000f35b505050565b6303daa959598160e01b8152836004820152602081602483336000905af158600e01573d6000803e3d6000fd5b3d6001141558600a015760016000f35b8051935060005b60408110156101785760008183015260208101905061015e565b505050565b6322bd64c0598160e01b8152836004820152846024820152600081604483336000905af158600e01573d6000803e3d6000fd5b3d6001141558600a015760016000f35b60005b60408110156101dd576000818301526020810190506101c3565b505050565b6109b0806101f16000396000f3fe60806040523480156100195760008061001661067c565b50505b50600436106100345760003560e01c80636610f23714610042575b60008061003f61067c565b50505b6100a7600480360360608110156100615760008061005e61067c565b50505b81019080803563ffffffff169060200190929190803573ffffffffffffffffffffffffffffffffffffffff169060200190929190803590602001909291905050506100a9565b005b6000806100b46106ea565b906101000a900473ffffffffffffffffffffffffffffffffffffffff1673ffffffffffffffffffffffffffffffffffffffff1663ec2e866f84846040518363ffffffff1660e01b8152600401808363ffffffff1681526020018273ffffffffffffffffffffffffffffffffffffffff16815260200192505050602060405180830381868061014061074d565b1580156101555760008061015261067c565b50505b505a61015f6107b0565b505050505015801561017e573d6000803e3d600061017b61067c565b50505b505050506040513d602081101561019d5760008061019a61067c565b50505b8101908080519060200190929190505050610229576040517f08c379a00000000000000000000000000000000000000000000000000000000081526004018080602001828103825260128152602001807f4e6f74206120706f6c696379206f776e657200000000000000000000000000008152506020019150506040518091039061022661067c565b50505b6000806102346106ea565b906101000a900473ffffffffffffffffffffffffffffffffffffffff1673ffffffffffffffffffffffffffffffffffffffff16635e19b305846040518263ffffffff1660e01b8152600401808263ffffffff16815260200191505060206040518083038186806102a261074d565b1580156102b7576000806102b461067c565b50505b505a6102c16107b0565b50505050501580156102e0573d6000803e3d60006102dd61067c565b50505b505050506040513d60208110156102ff576000806102fc61067c565b50505b810190808051906020019092919050505061038b576040517f08c379a00000000000000000000000000000000000000000000000000000000081526004018080602001828103825260148152602001807f506f6c696379206973206e6f74206163746976650000000000000000000000008152506020019150506040518091039061038861067c565b50505b600061039884848461066f565b90508015610608576000806000906103ae6106ea565b906101000a900473ffffffffffffffffffffffffffffffffffffffff1673ffffffffffffffffffffffffffffffffffffffff16635bb67c6786866040518363ffffffff1660e01b8152600401808363ffffffff1681526020018273ffffffffffffffffffffffffffffffffffffffff16815260200192505050602060405180830381868061043a61074d565b15801561044f5760008061044c61067c565b50505b505a6104596107b0565b5050505050158015610478573d6000803e3d600061047561067c565b50505b505050506040513d60208110156104975760008061049461067c565b50505b8101908080519060200190929190505050905060008184116104b957836104bb565b815b90506000806104c86106ea565b906101000a900473ffffffffffffffffffffffffffffffffffffffff1673ffffffffffffffffffffffffffffffffffffffff1663cd8ee73a8787846040518463ffffffff1660e01b8152600401808463ffffffff1681526020018373ffffffffffffffffffffffffffffffffffffffff16815260200182815260200193505050506000604051808303816000878061055e61074d565b1580156105735760008061057061067c565b50505b505a61057d6108b0565b50505050505015801561059d573d6000803e3d600061059a61067c565b50505b505050508473ffffffffffffffffffffffffffffffffffffffff168663ffffffff167f3d51e2a8e9334b8ed71b9a5ec58aefb141f4550c731d1dee2c8635856556cade8360016040518083815260200182151581526020019250505060405180910390a35050610669565b8273ffffffffffffffffffffffffffffffffffffffff168463ffffffff167f3d51e2a8e9334b8ed71b9a5ec58aefb141f4550c731d1dee2c8635856556cade6000806040518083815260200182151581526020019250505060405180910390a35b50505050565b6000600190509392505050565b632a2a7adb598160e01b8152600481016020815285602082015260005b868110156106b7578086015181604084010152602081019050610699565b506020828760640184336000905af158600e01573d6000803e3d6000fd5b3d6001141558600a015760016000f35b505050565b6303daa959598160e01b8152836004820152602081602483336000905af158600e01573d6000803e3d6000fd5b3d6001141558600a015760016000f35b8051935060005b60408110156107485760008183015260208101905061072e565b505050565b638435035b598160e01b8152836004820152602081602483336000905af158600e01573d6000803e3d6000fd5b3d6001141558600a015760016000f35b8051935060005b60408110156107ab57600081830152602081019050610791565b505050565b638540661f598160e01b81526107ef565b6000819050818311156107d2578290505b92915050565b6000819050818310156107e9578290505b92915050565b836004820152846024820152606060448201528660648201526084810160005b8881101561082a57808801518183015260208101905061080f565b506060828960a40184336000905af158600e01573d6000803e3d6000fd5b3d6001141558600a015760016000f35b815160408301513d6000853e8b8b82606087013350600060045af1505961087f8d3d6107d8565b8c0161088b81876107c1565b5b828110156108a3576000815260208101905061088c565b50839d5050505050505050565b6385979f76598160e01b81526108ef565b6000819050818311156108d2578290505b92915050565b6000819050818310156108e9578290505b92915050565b836004820152846024820152606060448201528760648201526084810160005b8981101561092a57808901518183015260208101905061090f565b506060828a60a40184336000905af158600e01573d6000803e3d6000fd5b3d6001141558600a015760016000f35b815160408301513d6000853e8c8c82606087013350600060045af1505961097f8e3d6108d8565b8d0161098b81876108c1565b5b828110156109a3576000815260208101905061098c565b50839e505050505050505056",
  "linkReferences": {},
  "deployedLinkReferences": {}
}