{
  "_format": "hh-sol-artifact-1",
  "contractName": "PolicyMaker",
  "sourceName": "contracts/PolicyMaker.sol",
  "abi": [
    {
      "inputs": [
        {
          "internalType": "address",
          "name": "initialOwner",
          "type": "address"
        },
        {
          "internalType": "address",
          "name": "_addressesProvider",
          "type": "address"
        }
      ],
      "stateMutability": "nonpayable",
      "type": "constructor"
    },
    {
      "inputs": [
        {
          "internalType": "address",
          "name": "owner",
          "type": "address"
        }
      ],
      "name": "OwnableInvalidOwner",
      "type": "error"
    },
    {
      "inputs": [
        {
          "internalType": "address",
          "name": "account",
          "type": "address"
        }
      ],
      "name": "OwnableUnauthorizedAccount",
      "type": "error"
    },
    {
      "inputs": [],
      "name": "ReentrancyGuardReentrantCall",
      "type": "error"
    },
    {
      "anonymous": false,
      "inputs": [
        {
          "indexed": true,
          "internalType": "address",
          "name": "previousOwner",
          "type": "address"
        },
        {
          "indexed": true,
          "internalType": "address",
          "name": "newOwner",
          "type": "address"
        }
      ],
      "name": "OwnershipTransferred",
      "type": "event"
    },
    {
      "anonymous": false,
      "inputs": [
        {
          "indexed": false,
          "internalType": "uint32",
          "name": "policyId",
          "type": "uint32"
        },
        {
          "indexed": false,
          "internalType": "uint256",
          "name": "coverageAmount",
          "type": "uint256"
        },
        {
          "indexed": false,
          "internalType": "uint256",
          "name": "initialPremiumFee",
          "type": "uint256"
        },
        {
          "indexed": false,
          "internalType": "uint32",
          "name": "duration",
          "type": "uint32"
        }
      ],
      "name": "PolicyCreated",
      "type": "event"
    },
    {
      "anonymous": false,
      "inputs": [
        {
          "indexed": false,
          "internalType": "uint32",
          "name": "policyId",
          "type": "uint32"
        }
      ],
      "name": "PolicyDeactivated",
      "type": "event"
    },
    {
      "anonymous": false,
      "inputs": [
        {
          "indexed": false,
          "internalType": "uint32",
          "name": "policyId",
          "type": "uint32"
        },
        {
          "indexed": false,
          "internalType": "uint256",
          "name": "coverageAmount",
          "type": "uint256"
        },
        {
          "indexed": false,
          "internalType": "uint256",
          "name": "initialPremiumFee",
          "type": "uint256"
        },
        {
          "indexed": false,
          "internalType": "uint32",
          "name": "duration",
          "type": "uint32"
        }
      ],
      "name": "PolicyUpdated",
      "type": "event"
    },
    {
      "anonymous": false,
      "inputs": [
        {
          "indexed": true,
          "internalType": "uint32",
          "name": "policyId",
          "type": "uint32"
        },
        {
          "indexed": true,
          "internalType": "address",
          "name": "claimant",
          "type": "address"
        },
        {
          "indexed": false,
          "internalType": "uint256",
          "name": "amount",
          "type": "uint256"
        },
        {
          "indexed": false,
          "internalType": "bool",
          "name": "isPremium",
          "type": "bool"
        }
      ],
      "name": "PremiumPaid",
      "type": "event"
    },
    {
      "inputs": [],
      "name": "AWETH_ADDRESS",
      "outputs": [
        {
          "internalType": "address",
          "name": "",
          "type": "address"
        }
      ],
      "stateMutability": "view",
      "type": "function"
    },
    {
      "inputs": [],
      "name": "WETH_ADDRESS",
      "outputs": [
        {
          "internalType": "address",
          "name": "",
          "type": "address"
        }
      ],
      "stateMutability": "view",
      "type": "function"
    },
    {
      "inputs": [],
      "name": "aWeth",
      "outputs": [
        {
          "internalType": "contract IERC20",
          "name": "",
          "type": "address"
        }
      ],
      "stateMutability": "view",
      "type": "function"
    },
    {
      "inputs": [
        {
          "internalType": "uint32",
          "name": "",
          "type": "uint32"
        },
        {
          "internalType": "address",
          "name": "",
          "type": "address"
        }
      ],
      "name": "amountClaimed",
      "outputs": [
        {
          "internalType": "uint256",
          "name": "",
          "type": "uint256"
        }
      ],
      "stateMutability": "view",
      "type": "function"
    },
    {
      "inputs": [
        {
          "internalType": "uint32",
          "name": "_policyId",
          "type": "uint32"
        },
        {
          "internalType": "address",
          "name": "_policyHolder",
          "type": "address"
        },
        {
          "internalType": "uint256",
          "name": "_amount",
          "type": "uint256"
        }
      ],
      "name": "calculatePotentialCoverage",
      "outputs": [
        {
          "internalType": "uint256",
          "name": "",
          "type": "uint256"
        }
      ],
      "stateMutability": "view",
      "type": "function"
    },
    {
      "inputs": [
        {
          "internalType": "uint32",
          "name": "_policyId",
          "type": "uint32"
        },
        {
          "internalType": "address",
          "name": "_policyHolder",
          "type": "address"
        }
      ],
      "name": "calculatePremium",
      "outputs": [
        {
          "internalType": "uint256",
          "name": "",
          "type": "uint256"
        }
      ],
      "stateMutability": "view",
      "type": "function"
    },
    {
      "inputs": [
        {
          "internalType": "uint32",
          "name": "_policyId",
          "type": "uint32"
        },
        {
          "internalType": "uint256",
          "name": "_premiumAmount",
          "type": "uint256"
        }
      ],
      "name": "calculatePremiumAllocation",
      "outputs": [
        {
          "internalType": "uint256",
          "name": "",
          "type": "uint256"
        },
        {
          "internalType": "uint256",
          "name": "",
          "type": "uint256"
        }
      ],
      "stateMutability": "view",
      "type": "function"
    },
    {
      "inputs": [
        {
          "internalType": "uint32",
          "name": "_policyId",
          "type": "uint32"
        },
        {
          "internalType": "uint256",
          "name": "premium",
          "type": "uint256"
        },
        {
          "internalType": "uint256",
          "name": "remainingCoverageNeeded",
          "type": "uint256"
        }
      ],
      "name": "calculatePremiumForCoverageFund",
      "outputs": [
        {
          "internalType": "uint256",
          "name": "",
          "type": "uint256"
        }
      ],
      "stateMutability": "view",
      "type": "function"
    },
    {
      "inputs": [
        {
          "internalType": "uint32",
          "name": "policyId",
          "type": "uint32"
        }
      ],
      "name": "calculateRewards",
      "outputs": [
        {
          "components": [
            {
              "internalType": "address",
              "name": "policyOwner",
              "type": "address"
            },
            {
              "internalType": "uint256",
              "name": "reward",
              "type": "uint256"
            }
          ],
          "internalType": "struct PolicyMaker.RewardInfo[]",
          "name": "",
          "type": "tuple[]"
        }
      ],
      "stateMutability": "view",
      "type": "function"
    },
    {
      "inputs": [
        {
          "internalType": "uint32",
          "name": "policyId",
          "type": "uint32"
        }
      ],
      "name": "calculateTotalAccrued",
      "outputs": [
        {
          "internalType": "uint256",
          "name": "",
          "type": "uint256"
        }
      ],
      "stateMutability": "view",
      "type": "function"
    },
    {
      "inputs": [
        {
          "internalType": "uint32",
          "name": "_policyId",
          "type": "uint32"
        },
        {
          "internalType": "address",
          "name": "_policyHolder",
          "type": "address"
        }
      ],
      "name": "calculateTotalCoverage",
      "outputs": [
        {
          "internalType": "uint256",
          "name": "",
          "type": "uint256"
        }
      ],
      "stateMutability": "view",
      "type": "function"
    },
    {
      "inputs": [],
      "name": "convertEthToWeth",
      "outputs": [],
      "stateMutability": "payable",
      "type": "function"
    },
    {
      "inputs": [
        {
          "internalType": "uint32",
          "name": "",
          "type": "uint32"
        }
      ],
      "name": "coverageFundBalance",
      "outputs": [
        {
          "internalType": "uint256",
          "name": "",
          "type": "uint256"
        }
      ],
      "stateMutability": "view",
      "type": "function"
    },
    {
      "inputs": [
        {
          "internalType": "uint32",
          "name": "",
          "type": "uint32"
        },
        {
          "internalType": "address",
          "name": "",
          "type": "address"
        }
      ],
      "name": "coverageFundTokenBalance",
      "outputs": [
        {
          "internalType": "uint256",
          "name": "",
          "type": "uint256"
        }
      ],
      "stateMutability": "view",
      "type": "function"
    },
    {
      "inputs": [
        {
          "internalType": "uint32",
          "name": "",
          "type": "uint32"
        },
        {
          "internalType": "address",
          "name": "",
          "type": "address"
        }
      ],
      "name": "coverageFunded",
      "outputs": [
        {
          "internalType": "uint256",
          "name": "",
          "type": "uint256"
        }
      ],
      "stateMutability": "view",
      "type": "function"
    },
    {
      "inputs": [
        {
          "internalType": "uint256",
          "name": "_coverageAmount",
          "type": "uint256"
        },
        {
          "internalType": "uint256",
          "name": "_initialPremiumFee",
          "type": "uint256"
        },
        {
          "internalType": "uint256",
          "name": "_initialCoveragePercentage",
          "type": "uint256"
        },
        {
          "internalType": "uint256",
          "name": "_premiumRate",
          "type": "uint256"
        },
        {
          "internalType": "uint32",
          "name": "_duration",
          "type": "uint32"
        },
        {
          "internalType": "uint32",
          "name": "_penaltyRate",
          "type": "uint32"
        },
        {
          "internalType": "uint32",
          "name": "_monthsGracePeriod",
          "type": "uint32"
        },
        {
          "internalType": "uint32",
          "name": "_coverageFundPercentage",
          "type": "uint32"
        },
        {
          "internalType": "uint32",
          "name": "_investmentFundPercentage",
          "type": "uint32"
        }
      ],
      "name": "createPolicy",
      "outputs": [],
      "stateMutability": "nonpayable",
      "type": "function"
    },
    {
      "inputs": [
        {
          "internalType": "uint32",
          "name": "_policyId",
          "type": "uint32"
        }
      ],
      "name": "deactivatePolicy",
      "outputs": [],
      "stateMutability": "nonpayable",
      "type": "function"
    },
    {
      "inputs": [
        {
          "internalType": "uint32",
          "name": "policyId",
          "type": "uint32"
        },
        {
          "internalType": "uint256",
          "name": "claimAmount",
          "type": "uint256"
        }
      ],
      "name": "handlePayout",
      "outputs": [],
      "stateMutability": "nonpayable",
      "type": "function"
    },
    {
      "inputs": [
        {
          "internalType": "uint32",
          "name": "policyId",
          "type": "uint32"
        },
        {
          "internalType": "uint256",
          "name": "amount",
          "type": "uint256"
        }
      ],
      "name": "investInAavePool",
      "outputs": [],
      "stateMutability": "nonpayable",
      "type": "function"
    },
    {
      "inputs": [
        {
          "internalType": "uint32",
          "name": "",
          "type": "uint32"
        }
      ],
      "name": "investmentFundBalance",
      "outputs": [
        {
          "internalType": "uint256",
          "name": "",
          "type": "uint256"
        }
      ],
      "stateMutability": "view",
      "type": "function"
    },
    {
      "inputs": [
        {
          "internalType": "uint32",
          "name": "",
          "type": "uint32"
        },
        {
          "internalType": "address",
          "name": "",
          "type": "address"
        }
      ],
      "name": "investmentFundTokenBalance",
      "outputs": [
        {
          "internalType": "uint256",
          "name": "",
          "type": "uint256"
        }
      ],
      "stateMutability": "view",
      "type": "function"
    },
    {
      "inputs": [
        {
          "internalType": "uint32",
          "name": "",
          "type": "uint32"
        },
        {
          "internalType": "address",
          "name": "",
          "type": "address"
        }
      ],
      "name": "investmentFunded",
      "outputs": [
        {
          "internalType": "uint256",
          "name": "",
          "type": "uint256"
        }
      ],
      "stateMutability": "view",
      "type": "function"
    },
    {
      "inputs": [
        {
          "internalType": "uint32",
          "name": "",
          "type": "uint32"
        },
        {
          "internalType": "address",
          "name": "",
          "type": "address"
        }
      ],
      "name": "lastPremiumPaidTime",
      "outputs": [
        {
          "internalType": "uint256",
          "name": "",
          "type": "uint256"
        }
      ],
      "stateMutability": "view",
      "type": "function"
    },
    {
      "inputs": [],
      "name": "nextPolicyId",
      "outputs": [
        {
          "internalType": "uint32",
          "name": "",
          "type": "uint32"
        }
      ],
      "stateMutability": "view",
      "type": "function"
    },
    {
      "inputs": [],
      "name": "owner",
      "outputs": [
        {
          "internalType": "address",
          "name": "",
          "type": "address"
        }
      ],
      "stateMutability": "view",
      "type": "function"
    },
    {
      "inputs": [
        {
          "internalType": "uint32",
          "name": "_policyId",
          "type": "uint32"
        },
        {
          "internalType": "uint256",
          "name": "investmentFundPercentage",
          "type": "uint256"
        },
        {
          "internalType": "uint256",
          "name": "amount",
          "type": "uint256"
        }
      ],
      "name": "payCustomPremium",
      "outputs": [],
      "stateMutability": "payable",
      "type": "function"
    },
    {
      "inputs": [
        {
          "internalType": "uint32",
          "name": "_policyId",
          "type": "uint32"
        }
      ],
      "name": "payInitialPremium",
      "outputs": [],
      "stateMutability": "nonpayable",
      "type": "function"
    },
    {
      "inputs": [
        {
          "internalType": "uint32",
          "name": "_policyId",
          "type": "uint32"
        },
        {
          "internalType": "uint256",
          "name": "amount",
          "type": "uint256"
        }
      ],
      "name": "payPremium",
      "outputs": [],
      "stateMutability": "payable",
      "type": "function"
    },
    {
      "inputs": [
        {
          "internalType": "uint32",
          "name": "",
          "type": "uint32"
        }
      ],
      "name": "policies",
      "outputs": [
        {
          "internalType": "uint256",
          "name": "coverageAmount",
          "type": "uint256"
        },
        {
          "internalType": "uint256",
          "name": "initialPremiumFee",
          "type": "uint256"
        },
        {
          "internalType": "uint256",
          "name": "initialCoveragePercentage",
          "type": "uint256"
        },
        {
          "internalType": "uint256",
          "name": "premiumRate",
          "type": "uint256"
        },
        {
          "internalType": "uint32",
          "name": "duration",
          "type": "uint32"
        },
        {
          "internalType": "bool",
          "name": "isActive",
          "type": "bool"
        },
        {
          "internalType": "uint32",
          "name": "penaltyRate",
          "type": "uint32"
        },
        {
          "internalType": "uint32",
          "name": "monthsGracePeriod",
          "type": "uint32"
        },
        {
          "internalType": "uint32",
          "name": "coverageFundPercentage",
          "type": "uint32"
        },
        {
          "internalType": "uint32",
          "name": "investmentFundPercentage",
          "type": "uint32"
        },
        {
          "internalType": "uint256",
          "name": "startTime",
          "type": "uint256"
        },
        {
          "internalType": "address",
          "name": "creator",
          "type": "address"
        }
      ],
      "stateMutability": "view",
      "type": "function"
    },
    {
      "inputs": [
        {
          "internalType": "uint32",
          "name": "",
          "type": "uint32"
        },
        {
          "internalType": "uint256",
          "name": "",
          "type": "uint256"
        }
      ],
      "name": "policyOwnerAddresses",
      "outputs": [
        {
          "internalType": "address",
          "name": "",
          "type": "address"
        }
      ],
      "stateMutability": "view",
      "type": "function"
    },
    {
      "inputs": [
        {
          "internalType": "uint32",
          "name": "",
          "type": "uint32"
        },
        {
          "internalType": "address",
          "name": "",
          "type": "address"
        }
      ],
      "name": "policyOwners",
      "outputs": [
        {
          "internalType": "bool",
          "name": "",
          "type": "bool"
        }
      ],
      "stateMutability": "view",
      "type": "function"
    },
    {
      "inputs": [
        {
          "internalType": "uint32",
          "name": "",
          "type": "uint32"
        },
        {
          "internalType": "address",
          "name": "",
          "type": "address"
        }
      ],
      "name": "premiumsPaid",
      "outputs": [
        {
          "internalType": "uint256",
          "name": "",
          "type": "uint256"
        }
      ],
      "stateMutability": "view",
      "type": "function"
    },
    {
      "inputs": [],
      "name": "renounceOwnership",
      "outputs": [],
      "stateMutability": "nonpayable",
      "type": "function"
    },
    {
      "inputs": [
        {
          "internalType": "uint32",
          "name": "",
          "type": "uint32"
        },
        {
          "internalType": "address",
          "name": "",
          "type": "address"
        }
      ],
      "name": "rewards",
      "outputs": [
        {
          "internalType": "uint256",
          "name": "",
          "type": "uint256"
        }
      ],
      "stateMutability": "view",
      "type": "function"
    },
    {
      "inputs": [
        {
          "internalType": "address",
          "name": "_payoutContract",
          "type": "address"
        }
      ],
      "name": "setPayoutContract",
      "outputs": [],
      "stateMutability": "nonpayable",
      "type": "function"
    },
    {
      "inputs": [
        {
          "internalType": "uint32",
          "name": "",
          "type": "uint32"
        },
        {
          "internalType": "address",
          "name": "",
          "type": "address"
        }
      ],
      "name": "timesPaid",
      "outputs": [
        {
          "internalType": "uint32",
          "name": "",
          "type": "uint32"
        }
      ],
      "stateMutability": "view",
      "type": "function"
    },
    {
      "inputs": [
        {
          "internalType": "uint32",
          "name": "",
          "type": "uint32"
        }
      ],
      "name": "totalSupplied",
      "outputs": [
        {
          "internalType": "uint256",
          "name": "",
          "type": "uint256"
        }
      ],
      "stateMutability": "view",
      "type": "function"
    },
    {
      "inputs": [
        {
          "internalType": "address",
          "name": "newOwner",
          "type": "address"
        }
      ],
      "name": "transferOwnership",
      "outputs": [],
      "stateMutability": "nonpayable",
      "type": "function"
    },
    {
      "inputs": [
        {
          "internalType": "uint32",
          "name": "_policyId",
          "type": "uint32"
        },
        {
          "internalType": "uint256",
          "name": "_coverageAmount",
          "type": "uint256"
        },
        {
          "internalType": "uint256",
          "name": "_initialPremiumFee",
          "type": "uint256"
        },
        {
          "internalType": "uint32",
          "name": "_duration",
          "type": "uint32"
        },
        {
          "internalType": "uint32",
          "name": "_monthsGracePeriod",
          "type": "uint32"
        },
        {
          "internalType": "uint32",
          "name": "_penaltyRate",
          "type": "uint32"
        }
      ],
      "name": "updatePolicy",
      "outputs": [],
      "stateMutability": "nonpayable",
      "type": "function"
    },
    {
      "inputs": [],
      "name": "weth",
      "outputs": [
        {
          "internalType": "contract IWETH",
          "name": "",
          "type": "address"
        }
      ],
      "stateMutability": "view",
      "type": "function"
    },
    {
      "inputs": [
        {
          "internalType": "uint32",
          "name": "policyId",
          "type": "uint32"
        },
        {
          "internalType": "address",
          "name": "asset",
          "type": "address"
        },
        {
          "internalType": "uint256",
          "name": "amount",
          "type": "uint256"
        }
      ],
      "name": "withdrawFromAavePool",
      "outputs": [],
      "stateMutability": "nonpayable",
      "type": "function"
    },
    {
      "inputs": [
        {
          "internalType": "uint32",
          "name": "policyId",
          "type": "uint32"
        },
        {
          "internalType": "uint256",
          "name": "amount",
          "type": "uint256"
        }
      ],
      "name": "withdrawReward",
      "outputs": [],
      "stateMutability": "nonpayable",
      "type": "function"
    },
    {
      "inputs": [
        {
          "internalType": "uint256",
          "name": "amount",
          "type": "uint256"
        }
      ],
      "name": "withdrawWethAsEth",
      "outputs": [],
      "stateMutability": "nonpayable",
      "type": "function"
    }
  ],
  "bytecode": "0x60806040526014805463ffffffff191660011790553480156200002157600080fd5b5060405162003df538038062003df58339810160408190526200004491620001eb565b816001600160a01b0381166200007457604051631e4fbdf760e01b81526000600482015260240160405180910390fd5b6200007f816200017e565b506001805560148054600160201b600160c01b0319166401000000006001600160a01b03848116820292909217928390556040805163026b1d5f60e01b81529051919093049091169163026b1d5f9160048083019260209291908290030181865afa158015620000f3573d6000803e3d6000fd5b505050506040513d601f19601f8201168201806040525081019062000119919062000223565b601580546001600160a01b03929092166001600160a01b031992831617905560028054821673c02aaa39b223fe8d0a0e5c4f27ead9083c756cc217905560038054909116734d5f47fa6a74757f35c14fd3a6ef8e3c9bc514e817905550620002489050565b600080546001600160a01b038381166001600160a01b0319831681178455604051919092169283917f8be0079c531659141344cd1fd0a4f28419497f9722a3daafe3b4186f6b6457e09190a35050565b80516001600160a01b0381168114620001e657600080fd5b919050565b60008060408385031215620001ff57600080fd5b6200020a83620001ce565b91506200021a60208401620001ce565b90509250929050565b6000602082840312156200023657600080fd5b6200024182620001ce565b9392505050565b613b9d80620002586000396000f3fe60806040526004361061021c5760003560e01c80636562f86f11610124578063a5e2f5cf116100a6578063a5e2f5cf14610810578063b5bd6c051461083d578063b92b2dc71461085d578063bb0ab3cd1461087d578063cad0b8db146108a5578063daa984fe146108c2578063e20600d9146108e2578063ee43ff941461090f578063f2fde38b1461092f578063f352ac941461094f578063f720b5581461099a57600080fd5b80636562f86f146106b257806366f79e76146106c5578063709d8a08146106e5578063715018a61461071257806383027b5a1461072757806387095de91461075f5780638da5cb5b146107975780639949f0c8146107b55780639b592232146107bd578063a1ed5ec9146107dd578063a325694f146107fd57600080fd5b806334896469116101ad578063348964691461050a5780633a7e870d1461052a5780633fc8cef3146105625780634153cd3a14610582578063444d7680146105a25780634e8d11c3146105c25780634eecc909146105e25780635afa553a1461061a5780635bb67c671461063a5780635cd9ce3e1461065a5780635f6d607d1461067a57600080fd5b8063040141e5146102215780630dce26511461025f578063159117ee1461028d578063160f71c1146102af5780631e7192ae146102cf57806327b05d87146103da57806328ab58fb146104125780632ac887e71461044a5780632d68fd361461047f5780633292cfc7146104b7575b600080fd5b34801561022d57600080fd5b5061024973c02aaa39b223fe8d0a0e5c4f27ead9083c756cc281565b604051610256919061358f565b60405180910390f35b34801561026b57600080fd5b5061027f61027a3660046135d3565b6109c7565b604051908152602001610256565b34801561029957600080fd5b506102ad6102a8366004613606565b610c69565b005b3480156102bb57600080fd5b506102ad6102ca366004613630565b610f39565b3480156102db57600080fd5b5061036b6102ea366004613630565b60056020819052600091825260409091208054600182015460028301546003840154600485015495850154600690950154939592949193909263ffffffff8082169360ff600160201b84041693600160281b8404831693600160481b8104841693600160681b8204811693600160881b90920416916001600160a01b03168c565b604080519c8d5260208d019b909b52998b019890985260608a019690965263ffffffff94851660808a015292151560a089015290831660c0880152821660e08701528116610100860152166101208401526101408301526001600160a01b031661016082015261018001610256565b3480156103e657600080fd5b5061027f6103f53660046135d3565b600b60209081526000928352604080842090915290825290205481565b34801561041e57600080fd5b5061027f61042d3660046135d3565b601260209081526000928352604080842090915290825290205481565b34801561045657600080fd5b5061046a610465366004613606565b611200565b60408051928352602083019190915201610256565b34801561048b57600080fd5b5061027f61049a3660046135d3565b600e60209081526000928352604080842090915290825290205481565b3480156104c357600080fd5b506104f56104d23660046135d3565b601160209081526000928352604080842090915290825290205463ffffffff1681565b60405163ffffffff9091168152602001610256565b34801561051657600080fd5b506102ad610525366004613606565b61128c565b34801561053657600080fd5b5061027f6105453660046135d3565b600a60209081526000928352604080842090915290825290205481565b34801561056e57600080fd5b50600254610249906001600160a01b031681565b34801561058e57600080fd5b506102ad61059d36600461364b565b611458565b3480156105ae57600080fd5b5061027f6105bd366004613630565b611506565b3480156105ce57600080fd5b506102ad6105dd366004613606565b6115ed565b3480156105ee57600080fd5b5061027f6105fd3660046135d3565b600f60209081526000928352604080842090915290825290205481565b34801561062657600080fd5b50610249610635366004613606565b6117ca565b34801561064657600080fd5b5061027f6106553660046135d3565b611802565b34801561066657600080fd5b50600354610249906001600160a01b031681565b34801561068657600080fd5b5061027f6106953660046135d3565b601060209081526000928352604080842090915290825290205481565b6102ad6106c0366004613606565b611b9d565b3480156106d157600080fd5b506102ad6106e03660046136b1565b611f48565b3480156106f157600080fd5b5061027f610700366004613630565b60066020526000908152604090205481565b34801561071e57600080fd5b506102ad6121d3565b34801561073357600080fd5b5061027f6107423660046135d3565b600960209081526000928352604080842090915290825290205481565b34801561076b57600080fd5b5061027f61077a3660046135d3565b601360209081526000928352604080842090915290825290205481565b3480156107a357600080fd5b506000546001600160a01b0316610249565b6102ad6121e7565b3480156107c957600080fd5b506102ad6107d836600461373d565b61229d565b3480156107e957600080fd5b5061027f6107f8366004613756565b6122e3565b6102ad61080b366004613792565b61255a565b34801561081c57600080fd5b5061083061082b366004613630565b61295b565b60405161025691906137c5565b34801561084957600080fd5b506102ad610858366004613630565b612b3a565b34801561086957600080fd5b506102ad61087836600461381d565b612c09565b34801561088957600080fd5b50610249734d5f47fa6a74757f35c14fd3a6ef8e3c9bc514e881565b3480156108b157600080fd5b506014546104f59063ffffffff1681565b3480156108ce57600080fd5b5061027f6108dd366004613792565b612c33565b3480156108ee57600080fd5b5061027f6108fd366004613630565b60086020526000908152604090205481565b34801561091b57600080fd5b506102ad61092a366004613756565b612cef565b34801561093b57600080fd5b506102ad61094a36600461381d565b6130bc565b34801561095b57600080fd5b5061098a61096a3660046135d3565b600c60209081526000928352604080842090915290825290205460ff1681565b6040519015158152602001610256565b3480156109a657600080fd5b5061027f6109b5366004613630565b60076020526000908152604090205481565b63ffffffff8216600090815260056020526040812060040154600160201b900460ff16610a325760405162461bcd60e51b8152602060048201526014602482015273506f6c6963792069736e2774206163746976652160601b60448201526064015b60405180910390fd5b63ffffffff831660009081526012602090815260408083206001600160a01b0386168452909152902054610aa45760405162461bcd60e51b8152602060048201526019602482015278139bc81c1c995d9a5bdd5cc81c185e5b595b9d08199bdd5b99603a1b6044820152606401610a29565b63ffffffff831660009081526012602090815260408083206001600160a01b0386168452909152812054610ad8904261384e565b905060006018603c610aea8185613861565b610af49190613861565b610afe9190613861565b63ffffffff861660009081526005602052604081206003015491925090610b2790601e90613861565b90506000610b358284613883565b63ffffffff8816600090815260056020526040902060030154909150610b5b828261389a565b90506000610b6a601e86613861565b63ffffffff808b16600090815260056020526040902060040154919250600160481b90910416811115610bff5763ffffffff808a16600090815260056020526040812060040154600160281b8104831692610bcd91600160481b9004168461384e565b9050606481610bdc8487613883565b610be69190613883565b610bf09190613861565b610bfa908561389a565b935050505b63ffffffff8916600090815260056020908152604080832060010154600e83528184206001600160a01b038d168552909252822054610c3e919061384e565b9050828111610c5657610c51818461384e565b610c59565b60005b9750505050505050505b92915050565b63ffffffff821660009081526005602052604090206006015482906001600160a01b03163314610cab5760405162461bcd60e51b8152600401610a29906138ad565b6040516370a0823160e01b8152829073c02aaa39b223fe8d0a0e5c4f27ead9083c756cc2906370a0823190610ce490309060040161358f565b602060405180830381865afa158015610d01573d6000803e3d6000fd5b505050506040513d601f19601f82011682018060405250810190610d2591906138d7565b1015610d6f5760405162461bcd60e51b8152602060048201526019602482015278496e73756666696369656e7420574554482062616c616e636560381b6044820152606401610a29565b63ffffffff83166000908152600760205260409020548210610dd35760405162461bcd60e51b815260206004820152601e60248201527f496e73756666696369656e7420696e766573746d656e742066756e64732100006044820152606401610a29565b60155460405163095ea7b360e01b815273c02aaa39b223fe8d0a0e5c4f27ead9083c756cc29163095ea7b391610e17916001600160a01b03169086906004016138f0565b6020604051808303816000875af1158015610e36573d6000803e3d6000fd5b505050506040513d601f19601f82011682018060405250810190610e5a9190613909565b5060155460405163e8eda9df60e01b815273c02aaa39b223fe8d0a0e5c4f27ead9083c756cc2600482015260248101849052336044820152600060648201526001600160a01b039091169063e8eda9df90608401600060405180830381600087803b158015610ec857600080fd5b505af1158015610edc573d6000803e3d6000fd5b5050505063ffffffff831660009081526007602052604081208054849290610f0590849061384e565b909155505063ffffffff831660009081526008602052604081208054849290610f2f90849061389a565b9091555050505050565b63ffffffff81166000908152600560205260409020600401548190600160201b900460ff161515600114610f7f5760405162461bcd60e51b8152600401610a299061392b565b63ffffffff82166000908152600c6020908152604080832033845290915290205460ff1615610ffa5760405162461bcd60e51b815260206004820152602160248201527f416c7265616479206120636c61696d616e74206f66207468697320706f6c69636044820152607960f81b6064820152608401610a29565b63ffffffff8216600090815260056020526040908190206001015460025491516370a0823160e01b815290916001600160a01b0316906370a082319061104490339060040161358f565b602060405180830381865afa158015611061573d6000803e3d6000fd5b505050506040513d601f19601f8201168201806040525081019061108591906138d7565b116110c85760405162461bcd60e51b8152602060048201526013602482015272496e73756666696369656e742066756e64732160681b6044820152606401610a29565b60025463ffffffff8316600090815260056020526040908190206001015490516323b872dd60e01b81526001600160a01b03909216916323b872dd916111149133913091600401613962565b6020604051808303816000875af1158015611133573d6000803e3d6000fd5b505050506040513d601f19601f820116820180604052508101906111579190613909565b6111735760405162461bcd60e51b8152600401610a2990613986565b63ffffffff82166000818152600c602090815260408083203384528252808320805460ff191660019081179091559383526005909152902001546111b89083906130fa565b63ffffffff8216600081815260056020908152604091829020600190810154835190815291820152339291600080516020613b48833981519152910160405180910390a35050565b63ffffffff8083166000908152600560205260408120600481015491928392839160649161123791600160681b9091041687613883565b6112419190613861565b63ffffffff8088166000908152600560205260408120600401549293509160649161127491600160881b90041688613883565b61127e9190613861565b919791965090945050505050565b6112946132c7565b63ffffffff8216600090815260056020526040902060040154600160201b900460ff166112d35760405162461bcd60e51b8152600401610a29906139b4565b63ffffffff82166000908152600c6020908152604080832033845290915290205460ff166113385760405162461bcd60e51b81526020600482015260126024820152712737ba1030903837b634b1bc9037bbb732b960711b6044820152606401610a29565b63ffffffff821660009081526006602052604090205481111561136d5760405162461bcd60e51b8152600401610a29906139e2565b6113778233611802565b8111156113965760405162461bcd60e51b8152600401610a29906139e2565b60006113a28333611802565b82116113ae57816113b8565b6113b88333611802565b63ffffffff84166000908152600660205260408120805492935083929091906113e290849061384e565b909155505063ffffffff831660009081526013602090815260408083203384529091528120805483929061141790849061389a565b9091555050604051339082156108fc029083906000818181858888f19350505050158015611449573d6000803e3d6000fd5b505061145460018055565b5050565b6114606132f1565b63ffffffff868116600090815260056020526040908190208781556001810187905560048101805487851668ffffffff00ffffffff1990911617600160281b868616021763ffffffff60481b1916600160481b9487169490940293909317909255517fbe829975d2c0d9995edbd0abc0cbd073add0fde193595b70af3c8e9094c00ac8906114f5908990899089908990613a16565b60405180910390a150505050505050565b60035463ffffffff82166000908152600560205260408082206006015490516370a0823160e01b8152919283926001600160a01b03918216926370a08231926115549291169060040161358f565b602060405180830381865afa158015611571573d6000803e3d6000fd5b505050506040513d601f19601f8201168201806040525081019061159591906138d7565b63ffffffff8416600090815260086020526040812054919250906115b9908361384e565b10156115c65760006115e6565b63ffffffff83166000908152600860205260409020546115e6908261384e565b9392505050565b63ffffffff82166000908152600c60209081526040808320338452909152902054829060ff1615156001146116345760405162461bcd60e51b8152600401610a2990613a3e565b63ffffffff831660009081526009602090815260408083203384529091529020548211156116a15760405162461bcd60e51b815260206004820152601a6024820152794e6f7420656e6f75676820726577617264732062616c616e636560301b6044820152606401610a29565b60025460405163095ea7b360e01b81526001600160a01b039091169063095ea7b3906116d390339086906004016138f0565b6020604051808303816000875af11580156116f2573d6000803e3d6000fd5b505050506040513d601f19601f820116820180604052508101906117169190613909565b506002546040516323b872dd60e01b81526001600160a01b03909116906323b872dd9061174b90309033908790600401613962565b6020604051808303816000875af115801561176a573d6000803e3d6000fd5b505050506040513d601f19601f8201168201806040525081019061178e9190613909565b5063ffffffff8316600090815260096020908152604080832033845290915281208054918491906117bf838561384e565b909155505050505050565b600d60205281600052604060002081815481106117e657600080fd5b6000918252602090912001546001600160a01b03169150829050565b63ffffffff8216600090815260056020526040812060040154600160201b900460ff166118415760405162461bcd60e51b8152600401610a29906139b4565b63ffffffff808416600090815260056020818152604080842081516101808101835281548152600182015493810193909352600281015491830191909152600381015460608301526004810154808616608084015260ff600160201b820416151560a0840152600160281b8104861660c0840152600160481b8104861660e0840152600160681b81048616610100840152600160881b90049094166101208201529083015461014082015260068301546001600160a01b03166101608201526119099061331e565b63ffffffff8087166000908152600560205260409020600481015460019091015492935060649261194592600160681b90920490911690613883565b61194f9190613861565b63ffffffff86166000908152600f602090815260408083206001600160a01b038916845290915290205403611987579150610c639050565b63ffffffff808616600090815260056020526040812060048101546001909101549192611adb9288926064926119c692600160681b9092041690613883565b6119d09190613861565b63ffffffff89166000908152600f602090815260408083206001600160a01b038c168452909152902054611a04919061384e565b63ffffffff808a1660009081526012602090815260408083206001600160a01b03808e16855290835292819020548151610180810183528b54815260018c01549381019390935260028b01549183019190915260038a0154606083015260048a0154808516608084015260ff600160201b820416151560a0840152600160281b8104851660c0840152600160481b8104851660e0840152600160681b81048516610100840152600160881b9004841661012083015260058a015461014083015260068a015490921661016082015293929161334016565b90506000611ae9828461389a565b63ffffffff881660009081526013602090815260408083206001600160a01b038b168452909152902054909150811015611b2a576000945050505050610c63565b63ffffffff871660009081526013602090815260408083206001600160a01b038a168452909152812054611b5e908361384e565b63ffffffff891660009081526005602052604081205491925090611b83906002613883565b905080821115611b91578091505b50979650505050505050565b63ffffffff82166000908152600c60209081526040808320338452909152902054829060ff161515600114611be45760405162461bcd60e51b8152600401610a2990613a3e565b63ffffffff83166000908152600560205260409020600401548390600160201b900460ff161515600114611c2a5760405162461bcd60e51b8152600401610a299061392b565b63ffffffff8416600090815260056020526040902054611c4a8533611802565b10611cac5760405162461bcd60e51b815260206004820152602c60248201527f46756c6c20636f7665726167652061636869657665642c20757365207061794360448201526b7573746f6d5072656d69756d60a01b6064820152608401610a29565b611cb684336109c7565b831015611cd55760405162461bcd60e51b8152600401610a2990613a69565b6002546040516323b872dd60e01b81526001600160a01b03909116906323b872dd90611d0990339030908890600401613962565b6020604051808303816000875af1158015611d28573d6000803e3d6000fd5b505050506040513d601f19601f82011682018060405250810190611d4c9190613909565b611d685760405162461bcd60e51b8152600401610a2990613986565b6000611d748533611802565b63ffffffff8616600090815260056020526040812054919250828211611d9b576000611da5565b611da5838361384e565b63ffffffff808916600090815260056020526040812060040154929350918291606491611ddb91600160681b909104168a613883565b611de59190613861565b9150611df1828961384e565b63ffffffff8a16600090815260066020526040812080549293508492909190611e1b90849061389a565b909155505063ffffffff891660009081526007602052604081208054839290611e4590849061389a565b909155505063ffffffff89166000908152600e60209081526040808320338452909152812080548a9290611e7a90849061389a565b909155505063ffffffff89166000908152600f6020908152604080832033845290915281208054849290611eaf90849061389a565b909155505063ffffffff8916600090815260106020908152604080832033845290915281208054839290611ee490849061389a565b909155505063ffffffff8916600081815260126020908152604080832033808552925280832042905551909291600080516020613b4883398151915291611f35918d82521515602082015260400190565b60405180910390a3505050505050505050565b60006040518061018001604052808b81526020018a81526020018981526020018881526020018763ffffffff1681526020016001151581526020018663ffffffff1681526020018563ffffffff1681526020018463ffffffff1681526020018363ffffffff168152602001428152602001336001600160a01b031681525090508060056000601460009054906101000a900463ffffffff1663ffffffff1663ffffffff1681526020019081526020016000206000820151816000015560208201518160010155604082015181600201556060820151816003015560808201518160040160006101000a81548163ffffffff021916908363ffffffff16021790555060a08201518160040160046101000a81548160ff02191690831515021790555060c08201518160040160056101000a81548163ffffffff021916908363ffffffff16021790555060e08201518160040160096101000a81548163ffffffff021916908363ffffffff16021790555061010082015181600401600d6101000a81548163ffffffff021916908363ffffffff1602179055506101208201518160040160116101000a81548163ffffffff021916908363ffffffff16021790555061014082015181600501556101608201518160060160006101000a8154816001600160a01b0302191690836001600160a01b031602179055509050507f19bb034335e290edb4dfdd4b94706d99fb766d7512bd8836347f261943bd98e2601460009054906101000a900463ffffffff168b8b8960405161218a9493929190613a16565b60405180910390a16014805463ffffffff169060006121a883613abf565b91906101000a81548163ffffffff021916908363ffffffff1602179055505050505050505050505050565b6121db6132f1565b6121e56000613374565b565b600034116122325760405162461bcd60e51b8152602060048201526018602482015277496e73756666696369656e74204554482062616c616e636560401b6044820152606401610a29565b600260009054906101000a90046001600160a01b03166001600160a01b031663d0e30db0346040518263ffffffff1660e01b81526004016000604051808303818588803b15801561228257600080fd5b505af1158015612296573d6000803e3d6000fd5b5050505050565b600254604051632e1a7d4d60e01b8152600481018390526001600160a01b0390911690632e1a7d4d90602401600060405180830381600087803b15801561228257600080fd5b63ffffffff8316600090815260056020526040812060040154600160201b900460ff166123225760405162461bcd60e51b8152600401610a29906139b4565b600061232e8585611802565b63ffffffff86166000908152600560205260408120805492935091612354906002613883565b90508083106123675792506115e6915050565b600482015460009061253390889060649061238f90600160681b900463ffffffff168a613883565b6123999190613861565b601260008c63ffffffff1663ffffffff16815260200190815260200160002060008b6001600160a01b03166001600160a01b03168152602001908152602001600020548660405180610180016040529081600082015481526020016001820154815260200160028201548152602001600382015481526020016004820160009054906101000a900463ffffffff1663ffffffff1663ffffffff1681526020016004820160049054906101000a900460ff161515151581526020016004820160059054906101000a900463ffffffff1663ffffffff1663ffffffff1681526020016004820160099054906101000a900463ffffffff1663ffffffff1663ffffffff16815260200160048201600d9054906101000a900463ffffffff1663ffffffff1663ffffffff1681526020016004820160119054906101000a900463ffffffff1663ffffffff1663ffffffff168152602001600582015481526020016006820160009054906101000a90046001600160a01b03166001600160a01b03166001600160a01b031681525050613340909392919063ffffffff16565b90506000612541828661389a565b90508281111561254e5750815b98975050505050505050565b63ffffffff83166000908152600c60209081526040808320338452909152902054839060ff1615156001146125a15760405162461bcd60e51b8152600401610a2990613a3e565b63ffffffff84166000908152600560205260409020600401548490600160201b900460ff1615156001146125e75760405162461bcd60e51b8152600401610a299061392b565b60648411156126335760405162461bcd60e51b8152602060048201526018602482015277496e76616c69642070657263656e746167652076616c756560401b6044820152606401610a29565b63ffffffff85166000908152600560205260409020546126538633611802565b10156126a15760405162461bcd60e51b815260206004820152601f60248201527f4e65656420746f2062652066756c6c7920636f76657265642066697273742e006044820152606401610a29565b6002546040516323b872dd60e01b81526001600160a01b03909116906323b872dd906126d590339030908890600401613962565b6020604051808303816000875af11580156126f4573d6000803e3d6000fd5b505050506040513d601f19601f820116820180604052508101906127189190613909565b6127345760405162461bcd60e51b8152600401610a2990613986565b61273e85336109c7565b83101561275d5760405162461bcd60e51b8152600401610a2990613a69565b63ffffffff851660009081526005602052604081205461277e906002613883565b6127888733611802565b1061279357836127a9565b606461279f8686613883565b6127a99190613861565b63ffffffff8716600090815260056020526040812054919250906127ce906002613883565b6127d88833611802565b106127e45760006127ee565b6127ee828661384e565b90508482116127fd57816127ff565b845b915084811161280e5780612811565b60005b63ffffffff881660009081526006602052604081208054929350839290919061283b90849061389a565b909155505063ffffffff87166000908152600f602090815260408083203384529091528120805483929061287090849061389a565b909155505063ffffffff87166000908152600760205260408120805484929061289a90849061389a565b909155505063ffffffff87166000908152601060209081526040808320338452909152812080548492906128cf90849061389a565b909155505063ffffffff8716600081815260126020908152604080832033808552908352818420429055938352600e8252808320938352929052908120805487929061291c90849061389a565b90915550506040805186815260006020820152339163ffffffff8a1691600080516020613b48833981519152910160405180910390a350505050505050565b63ffffffff81166000908152600860209081526040808320546007909252822054606092916129899161389a565b9050600061299684611506565b905060608215612b325763ffffffff85166000908152600d602052604090205467ffffffffffffffff8111156129ce576129ce613ae2565b604051908082528060200260200182016040528015612a1357816020015b60408051808201909152600080825260208201528152602001906001900390816129ec5790505b50905060005b63ffffffff86166000908152600d6020526040902054811015612b305763ffffffff86166000908152600d60205260408120805483908110612a5d57612a5d613af8565b600091825260208083209091015463ffffffff8a1683526010825260408084206001600160a01b03909216808552919092529120549091508015612b1b57600086612ab083670de0b6b3a7640000613883565b612aba9190613861565b90506000670de0b6b3a7640000612ad18884613883565b612adb9190613861565b90506040518060400160405280856001600160a01b0316815260200182815250868681518110612b0d57612b0d613af8565b602002602001018190525050505b50508080612b2890613b0e565b915050612a19565b505b949350505050565b612b426132f1565b63ffffffff8116600090815260056020526040902060040154600160201b900460ff16612bae5760405162461bcd60e51b815260206004820152601a602482015279506f6c69637920697320616c726561647920696e61637469766560301b6044820152606401610a29565b63ffffffff8116600081815260056020908152604091829020600401805464ff000000001916905590519182527fc5dfab0962c70e9a4416c78094b25bf915c7d3198f89974c6ddc52306e4df424910160405180910390a150565b612c116132f1565b600480546001600160a01b0319166001600160a01b0392909216919091179055565b63ffffffff831660009081526005602052604081205480841180612c55575083155b15612c645760009150506115e6565b600081612c72866064613883565b612c7c9190613861565b90506000600a821015612c9157506001612cc8565b6019821015612ca257506002612cc8565b6032821015612cb357506003612cc8565b604b821015612cc457506004612cc8565b5060055b6000612cd48288613883565b9050858111612ce3578061254e565b50939695505050505050565b63ffffffff831660009081526005602052604090206006015483906001600160a01b03163314612d315760405162461bcd60e51b8152600401610a29906138ad565b60008211612d955760405162461bcd60e51b815260206004820152602b60248201527f5769746864726177616c20616d6f756e74206d7573742062652067726561746560448201526a72207468616e207a65726f60a81b6064820152608401610a29565b81612d9f85611506565b1015612de95760405162461bcd60e51b815260206004820152601960248201527843616e27742077697468647261772074686174206d7563682160381b6044820152606401610a29565b63ffffffff8416600090815260056020526040902060040154600160201b900460ff16612e285760405162461bcd60e51b8152600401610a29906139b4565b6003546040516323b872dd60e01b81526001600160a01b03909116906323b872dd90612e5c90339030908790600401613962565b6020604051808303816000875af1158015612e7b573d6000803e3d6000fd5b505050506040513d601f19601f82011682018060405250810190612e9f9190613909565b612ee35760405162461bcd60e51b81526020600482015260156024820152741855d15512081d1c985b9cd9995c8819985a5b1959605a1b6044820152606401610a29565b601554604051631a4ca37b60e21b81526001600160a01b03858116600483015260248201859052306044830152909116906369328dec906064016020604051808303816000875af1158015612f3c573d6000803e3d6000fd5b505050506040513d601f19601f82011682018060405250810190612f6091906138d7565b5063ffffffff84166000908152600860209081526040808320546007909252822054612f8c919061389a565b905080156122965760005b63ffffffff86166000908152600d60205260409020548110156130b45763ffffffff86166000908152600d60205260408120805483908110612fdb57612fdb613af8565b600091825260208083209091015463ffffffff8a1683526010825260408084206001600160a01b0390921680855291909252912054909150801561309f5760008461302e83670de0b6b3a7640000613883565b6130389190613861565b90506000670de0b6b3a764000061304f8984613883565b6130599190613861565b63ffffffff8b1660009081526009602090815260408083206001600160a01b038916845290915281208054929350839290919061309790849061389a565b909155505050505b505080806130ac90613b0e565b915050612f97565b505050505050565b6130c46132f1565b6001600160a01b0381166130ee576000604051631e4fbdf760e01b8152600401610a29919061358f565b6130f781613374565b50565b63ffffffff82166000908152600e602090815260408083203384529091528120805483929061312a90849061389a565b909155505063ffffffff8083166000818152600c6020908152604080832033808552908352818420805460ff19166001908117909155858552600d84528285208054918201815585528385200180546001600160a01b03191682179055848452601283528184209084528252808320429055928252600590529081206004015490916064916131c291600160681b9091041684613883565b6131cc9190613861565b63ffffffff808516600090815260056020526040812060040154929350916064916131ff91600160881b90041685613883565b6132099190613861565b63ffffffff851660009081526006602052604081208054929350849290919061323390849061389a565b909155505063ffffffff84166000908152600760205260408120805483929061325d90849061389a565b909155505063ffffffff84166000908152600f602090815260408083203384529091528120805484929061329290849061389a565b909155505063ffffffff84166000908152601060209081526040808320338452909152812080548392906117bf90849061389a565b6002600154036132ea57604051633ee5aeb560e01b815260040160405180910390fd5b6002600155565b6000546001600160a01b031633146121e5573360405163118cdaa760e01b8152600401610a29919061358f565b60006064826040015183600001516133369190613883565b610c639190613861565b60008460200151831161335557506000612b32565b613361858585856133c4565b61336b9084613883565b95945050505050565b600080546001600160a01b038381166001600160a01b0319831681178455604051919092169283917f8be0079c531659141344cd1fd0a4f28419497f9722a3daafe3b4186f6b6457e09190a35050565b6000806133d1834261384e565b905060006133df8786613443565b9050801580156133ef5750600085115b6133f957806133fc565b60015b9050600061340a88846134e0565b90506000670de0b6b3a764000061342283600161389a565b61342c9085613883565b6134369190613861565b9998505050505050505050565b815160009080831180613454575082155b15613463576000915050610c63565b600081613471856064613883565b61347b9190613861565b9050600a81101561349157600192505050610c63565b60328110156134a557600292505050610c63565b60328110156134b957600292505050610c63565b604b8110156134cd57600392505050610c63565b600392505050610c63565b505092915050565b6000808360e0015162278d006134f69190613b27565b63ffffffff16905060008161350c856005613883565b6135169190613861565b9050600181101561353357670de0b6b3a764000092505050610c63565b600281101561354e57670b1a2bc2ec50000092505050610c63565b600381101561356957670853a0d2313c000092505050610c63565b60048110156135845767058d15e17628000092505050610c63565b600092505050610c63565b6001600160a01b0391909116815260200190565b803563ffffffff811681146135b757600080fd5b919050565b80356001600160a01b03811681146135b757600080fd5b600080604083850312156135e657600080fd5b6135ef836135a3565b91506135fd602084016135bc565b90509250929050565b6000806040838503121561361957600080fd5b613622836135a3565b946020939093013593505050565b60006020828403121561364257600080fd5b6115e6826135a3565b60008060008060008060c0878903121561366457600080fd5b61366d876135a3565b95506020870135945060408701359350613689606088016135a3565b9250613697608088016135a3565b91506136a560a088016135a3565b90509295509295509295565b60008060008060008060008060006101208a8c0312156136d057600080fd5b8935985060208a0135975060408a0135965060608a013595506136f560808b016135a3565b945061370360a08b016135a3565b935061371160c08b016135a3565b925061371f60e08b016135a3565b915061372e6101008b016135a3565b90509295985092959850929598565b60006020828403121561374f57600080fd5b5035919050565b60008060006060848603121561376b57600080fd5b613774846135a3565b9250613782602085016135bc565b9150604084013590509250925092565b6000806000606084860312156137a757600080fd5b6137b0846135a3565b95602085013595506040909401359392505050565b602080825282518282018190526000919060409081850190868401855b8281101561381057815180516001600160a01b031685528601518685015292840192908501906001016137e2565b5091979650505050505050565b60006020828403121561382f57600080fd5b6115e6826135bc565b634e487b7160e01b600052601160045260246000fd5b81810381811115610c6357610c63613838565b60008261387e57634e487b7160e01b600052601260045260246000fd5b500490565b8082028115828204841417610c6357610c63613838565b80820180821115610c6357610c63613838565b60208082526010908201526f4e6f74207468652063726561746f722160801b604082015260600190565b6000602082840312156138e957600080fd5b5051919050565b6001600160a01b03929092168252602082015260400190565b60006020828403121561391b57600080fd5b815180151581146115e657600080fd5b6020808252601c908201527f506f6c696379206d757374206265206163746976652066697273742100000000604082015260600190565b6001600160a01b039384168152919092166020820152604081019190915260600190565b60208082526014908201527315d15512081d1c985b9cd9995c8819985a5b195960621b604082015260600190565b602080825260149082015273506f6c696379206973206e6f742061637469766560601b604082015260600190565b6020808252601a9082015279125b9cdd59999a58da595b9d0818dbdd995c9859d948199d5b9960321b604082015260600190565b63ffffffff948516815260208101939093526040830191909152909116606082015260800190565b6020808252601190820152704e6f7420706f6c696379206f776e65722160781b604082015260600190565b60208082526036908201527f416d6f756e74206e6565647320746f20626520686967686572207468616e207460408201527568652063616c63756c61746564207072656d69756d2160501b606082015260800190565b600063ffffffff808316818103613ad857613ad8613838565b6001019392505050565b634e487b7160e01b600052604160045260246000fd5b634e487b7160e01b600052603260045260246000fd5b600060018201613b2057613b20613838565b5060010190565b63ffffffff8181168382160280821691908281146134d8576134d861383856fecb56b790741c56fe9689db9a11c7acfbbe5aa3e1eafa48a4eedb496986881437a2646970667358221220d99c62e59e72c9e38384c8015218ffedfd8277da209538b14a82882bab9ad81264736f6c63430008140033",
  "linkReferences": {},
  "deployedLinkReferences": {}
}