{
  "_format": "hh-sol-artifact-1",
  "contractName": "PolicyMaker",
  "sourceName": "contracts/PolicyMaker.sol",
  "abi": [
    {
      "inputs": [
        {
          "internalType": "address",
          "name": "initialOwner",
          "type": "address"
        }
      ],
      "stateMutability": "nonpayable",
      "type": "constructor"
    },
    {
      "inputs": [
        {
          "internalType": "address",
          "name": "owner",
          "type": "address"
        }
      ],
      "name": "OwnableInvalidOwner",
      "type": "error"
    },
    {
      "inputs": [
        {
          "internalType": "address",
          "name": "account",
          "type": "address"
        }
      ],
      "name": "OwnableUnauthorizedAccount",
      "type": "error"
    },
    {
      "inputs": [],
      "name": "ReentrancyGuardReentrantCall",
      "type": "error"
    },
    {
      "anonymous": false,
      "inputs": [
        {
          "indexed": true,
          "internalType": "address",
          "name": "previousOwner",
          "type": "address"
        },
        {
          "indexed": true,
          "internalType": "address",
          "name": "newOwner",
          "type": "address"
        }
      ],
      "name": "OwnershipTransferred",
      "type": "event"
    },
    {
      "anonymous": false,
      "inputs": [
        {
          "indexed": false,
          "internalType": "uint32",
          "name": "policyId",
          "type": "uint32"
        },
        {
          "indexed": false,
          "internalType": "uint256",
          "name": "coverageAmount",
          "type": "uint256"
        },
        {
          "indexed": false,
          "internalType": "uint256",
          "name": "initialPremiumFee",
          "type": "uint256"
        },
        {
          "indexed": false,
          "internalType": "uint32",
          "name": "duration",
          "type": "uint32"
        }
      ],
      "name": "PolicyCreated",
      "type": "event"
    },
    {
      "anonymous": false,
      "inputs": [
        {
          "indexed": false,
          "internalType": "uint32",
          "name": "policyId",
          "type": "uint32"
        }
      ],
      "name": "PolicyDeactivated",
      "type": "event"
    },
    {
      "anonymous": false,
      "inputs": [
        {
          "indexed": false,
          "internalType": "uint32",
          "name": "policyId",
          "type": "uint32"
        },
        {
          "indexed": false,
          "internalType": "uint256",
          "name": "coverageAmount",
          "type": "uint256"
        },
        {
          "indexed": false,
          "internalType": "uint256",
          "name": "initialPremiumFee",
          "type": "uint256"
        },
        {
          "indexed": false,
          "internalType": "uint32",
          "name": "duration",
          "type": "uint32"
        }
      ],
      "name": "PolicyUpdated",
      "type": "event"
    },
    {
      "anonymous": false,
      "inputs": [
        {
          "indexed": true,
          "internalType": "uint32",
          "name": "policyId",
          "type": "uint32"
        },
        {
          "indexed": true,
          "internalType": "address",
          "name": "claimant",
          "type": "address"
        },
        {
          "indexed": false,
          "internalType": "uint256",
          "name": "amount",
          "type": "uint256"
        },
        {
          "indexed": false,
          "internalType": "bool",
          "name": "isPremium",
          "type": "bool"
        }
      ],
      "name": "PremiumPaid",
      "type": "event"
    },
    {
      "inputs": [],
      "name": "calculateCoverageFactor",
      "outputs": [
        {
          "internalType": "uint256",
          "name": "",
          "type": "uint256"
        }
      ],
      "stateMutability": "pure",
      "type": "function"
    },
    {
      "inputs": [
        {
          "internalType": "uint32",
          "name": "_policyId",
          "type": "uint32"
        },
        {
          "internalType": "address",
          "name": "_policyHolder",
          "type": "address"
        }
      ],
      "name": "calculatePremium",
      "outputs": [
        {
          "internalType": "uint256",
          "name": "",
          "type": "uint256"
        }
      ],
      "stateMutability": "view",
      "type": "function"
    },
    {
      "inputs": [
        {
          "internalType": "uint32",
          "name": "_policyId",
          "type": "uint32"
        },
        {
          "internalType": "address",
          "name": "_policyHolder",
          "type": "address"
        }
      ],
      "name": "calculateTotalCoverage",
      "outputs": [
        {
          "internalType": "uint256",
          "name": "",
          "type": "uint256"
        }
      ],
      "stateMutability": "view",
      "type": "function"
    },
    {
      "inputs": [
        {
          "internalType": "uint256",
          "name": "_coverageAmount",
          "type": "uint256"
        },
        {
          "internalType": "uint256",
          "name": "_initialPremiumFee",
          "type": "uint256"
        },
        {
          "internalType": "uint256",
          "name": "_initialCoveragePercentage",
          "type": "uint256"
        },
        {
          "internalType": "uint256",
          "name": "_premiumRate",
          "type": "uint256"
        },
        {
          "internalType": "uint32",
          "name": "_duration",
          "type": "uint32"
        },
        {
          "internalType": "uint32",
          "name": "_penaltyRate",
          "type": "uint32"
        },
        {
          "internalType": "uint32",
          "name": "_monthsGracePeriod",
          "type": "uint32"
        }
      ],
      "name": "createPolicy",
      "outputs": [],
      "stateMutability": "nonpayable",
      "type": "function"
    },
    {
      "inputs": [
        {
          "internalType": "uint32",
          "name": "_policyId",
          "type": "uint32"
        }
      ],
      "name": "deactivatePolicy",
      "outputs": [],
      "stateMutability": "nonpayable",
      "type": "function"
    },
    {
      "inputs": [
        {
          "internalType": "uint32",
          "name": "policyId",
          "type": "uint32"
        },
        {
          "internalType": "address",
          "name": "policyHolder",
          "type": "address"
        },
        {
          "internalType": "uint256",
          "name": "payoutAmount",
          "type": "uint256"
        }
      ],
      "name": "handlePayout",
      "outputs": [],
      "stateMutability": "nonpayable",
      "type": "function"
    },
    {
      "inputs": [
        {
          "internalType": "uint32",
          "name": "_policyId",
          "type": "uint32"
        }
      ],
      "name": "isActive",
      "outputs": [
        {
          "internalType": "bool",
          "name": "",
          "type": "bool"
        }
      ],
      "stateMutability": "view",
      "type": "function"
    },
    {
      "inputs": [
        {
          "internalType": "uint32",
          "name": "_policyId",
          "type": "uint32"
        },
        {
          "internalType": "address",
          "name": "_claimant",
          "type": "address"
        }
      ],
      "name": "isPolicyOwner",
      "outputs": [
        {
          "internalType": "bool",
          "name": "",
          "type": "bool"
        }
      ],
      "stateMutability": "view",
      "type": "function"
    },
    {
      "inputs": [
        {
          "internalType": "uint32",
          "name": "",
          "type": "uint32"
        },
        {
          "internalType": "address",
          "name": "",
          "type": "address"
        }
      ],
      "name": "lastPremiumPaidTime",
      "outputs": [
        {
          "internalType": "uint256",
          "name": "",
          "type": "uint256"
        }
      ],
      "stateMutability": "view",
      "type": "function"
    },
    {
      "inputs": [],
      "name": "nextPolicyId",
      "outputs": [
        {
          "internalType": "uint32",
          "name": "",
          "type": "uint32"
        }
      ],
      "stateMutability": "view",
      "type": "function"
    },
    {
      "inputs": [],
      "name": "owner",
      "outputs": [
        {
          "internalType": "address",
          "name": "",
          "type": "address"
        }
      ],
      "stateMutability": "view",
      "type": "function"
    },
    {
      "inputs": [
        {
          "internalType": "uint32",
          "name": "_policyId",
          "type": "uint32"
        }
      ],
      "name": "payInitialPremium",
      "outputs": [],
      "stateMutability": "payable",
      "type": "function"
    },
    {
      "inputs": [
        {
          "internalType": "uint32",
          "name": "_policyId",
          "type": "uint32"
        }
      ],
      "name": "payPremium",
      "outputs": [],
      "stateMutability": "payable",
      "type": "function"
    },
    {
      "inputs": [
        {
          "internalType": "uint32",
          "name": "",
          "type": "uint32"
        }
      ],
      "name": "policies",
      "outputs": [
        {
          "internalType": "uint256",
          "name": "coverageAmount",
          "type": "uint256"
        },
        {
          "internalType": "uint256",
          "name": "initialPremiumFee",
          "type": "uint256"
        },
        {
          "internalType": "uint256",
          "name": "initialCoveragePercentage",
          "type": "uint256"
        },
        {
          "internalType": "uint256",
          "name": "premiumRate",
          "type": "uint256"
        },
        {
          "internalType": "uint32",
          "name": "duration",
          "type": "uint32"
        },
        {
          "internalType": "bool",
          "name": "isActive",
          "type": "bool"
        },
        {
          "internalType": "uint32",
          "name": "penaltyRate",
          "type": "uint32"
        },
        {
          "internalType": "uint32",
          "name": "monthsGracePeriod",
          "type": "uint32"
        }
      ],
      "stateMutability": "view",
      "type": "function"
    },
    {
      "inputs": [
        {
          "internalType": "uint32",
          "name": "",
          "type": "uint32"
        },
        {
          "internalType": "address",
          "name": "",
          "type": "address"
        }
      ],
      "name": "policyOwners",
      "outputs": [
        {
          "internalType": "bool",
          "name": "",
          "type": "bool"
        }
      ],
      "stateMutability": "view",
      "type": "function"
    },
    {
      "inputs": [
        {
          "internalType": "uint32",
          "name": "",
          "type": "uint32"
        },
        {
          "internalType": "address",
          "name": "",
          "type": "address"
        }
      ],
      "name": "premiumsPaid",
      "outputs": [
        {
          "internalType": "uint256",
          "name": "",
          "type": "uint256"
        }
      ],
      "stateMutability": "view",
      "type": "function"
    },
    {
      "inputs": [],
      "name": "renounceOwnership",
      "outputs": [],
      "stateMutability": "nonpayable",
      "type": "function"
    },
    {
      "inputs": [
        {
          "internalType": "address",
          "name": "_payoutContract",
          "type": "address"
        }
      ],
      "name": "setPayoutContract",
      "outputs": [],
      "stateMutability": "nonpayable",
      "type": "function"
    },
    {
      "inputs": [
        {
          "internalType": "address",
          "name": "newOwner",
          "type": "address"
        }
      ],
      "name": "transferOwnership",
      "outputs": [],
      "stateMutability": "nonpayable",
      "type": "function"
    },
    {
      "inputs": [
        {
          "internalType": "uint32",
          "name": "_policyId",
          "type": "uint32"
        },
        {
          "internalType": "uint256",
          "name": "_coverageAmount",
          "type": "uint256"
        },
        {
          "internalType": "uint256",
          "name": "_initialPremiumFee",
          "type": "uint256"
        },
        {
          "internalType": "uint32",
          "name": "_duration",
          "type": "uint32"
        },
        {
          "internalType": "uint32",
          "name": "_monthsGracePeriod",
          "type": "uint32"
        },
        {
          "internalType": "uint32",
          "name": "_penaltyRate",
          "type": "uint32"
        }
      ],
      "name": "updatePolicy",
      "outputs": [],
      "stateMutability": "nonpayable",
      "type": "function"
    }
  ],
  "bytecode": "0x60806040526001600760006101000a81548163ffffffff021916908363ffffffff1602179055503480156200003357600080fd5b50604051620026ec380380620026ec83398181016040528101906200005991906200021d565b80600073ffffffffffffffffffffffffffffffffffffffff168173ffffffffffffffffffffffffffffffffffffffff1603620000cf5760006040517f1e4fbdf7000000000000000000000000000000000000000000000000000000008152600401620000c6919062000260565b60405180910390fd5b620000e081620000ef60201b60201c565b5060018081905550506200027d565b60008060009054906101000a900473ffffffffffffffffffffffffffffffffffffffff169050816000806101000a81548173ffffffffffffffffffffffffffffffffffffffff021916908373ffffffffffffffffffffffffffffffffffffffff1602179055508173ffffffffffffffffffffffffffffffffffffffff168173ffffffffffffffffffffffffffffffffffffffff167f8be0079c531659141344cd1fd0a4f28419497f9722a3daafe3b4186f6b6457e060405160405180910390a35050565b600080fd5b600073ffffffffffffffffffffffffffffffffffffffff82169050919050565b6000620001e582620001b8565b9050919050565b620001f781620001d8565b81146200020357600080fd5b50565b6000815190506200021781620001ec565b92915050565b600060208284031215620002365762000235620001b3565b5b6000620002468482850162000206565b91505092915050565b6200025a81620001d8565b82525050565b60006020820190506200027760008301846200024f565b92915050565b61245f806200028d6000396000f3fe60806040526004361061011f5760003560e01c80638da5cb5b116100a0578063cd8ee73a11610064578063cd8ee73a146103e2578063ec2e866f1461040b578063f207aa1014610448578063f2fde38b14610473578063f352ac941461049c5761011f565b80638da5cb5b146103115780639f4d27221461033c578063b5bd6c0514610365578063b92b2dc71461038e578063cad0b8db146103b75761011f565b80632d68fd36116100e75780632d68fd361461021a5780634153cd3a146102575780635bb67c67146102805780635e19b305146102bd578063715018a6146102fa5761011f565b80630c32b25a146101245780630dce265114610140578063160f71c11461017d5780631e7192ae1461019957806328ab58fb146101dd575b600080fd5b61013e600480360381019061013991906119df565b6104d9565b005b34801561014c57600080fd5b5061016760048036038101906101629190611a6a565b61070c565b6040516101749190611ac3565b60405180910390f35b610197600480360381019061019291906119df565b610a89565b005b3480156101a557600080fd5b506101c060048036038101906101bb91906119df565b610d01565b6040516101d4989796959493929190611b08565b60405180910390f35b3480156101e957600080fd5b5061020460048036038101906101ff9190611a6a565b610d86565b6040516102119190611ac3565b60405180910390f35b34801561022657600080fd5b50610241600480360381019061023c9190611a6a565b610dab565b60405161024e9190611ac3565b60405180910390f35b34801561026357600080fd5b5061027e60048036038101906102799190611bb2565b610dd0565b005b34801561028c57600080fd5b506102a760048036038101906102a29190611a6a565b610f2e565b6040516102b49190611ac3565b60405180910390f35b3480156102c957600080fd5b506102e460048036038101906102df91906119df565b611129565b6040516102f19190611c3f565b60405180910390f35b34801561030657600080fd5b5061030f611162565b005b34801561031d57600080fd5b50610326611176565b6040516103339190611c69565b60405180910390f35b34801561034857600080fd5b50610363600480360381019061035e9190611c84565b61119f565b005b34801561037157600080fd5b5061038c600480360381019061038791906119df565b611380565b005b34801561039a57600080fd5b506103b560048036038101906103b09190611d26565b6113fd565b005b3480156103c357600080fd5b506103cc611449565b6040516103d99190611d53565b60405180910390f35b3480156103ee57600080fd5b5061040960048036038101906104049190611d6e565b61145f565b005b34801561041757600080fd5b50610432600480360381019061042d9190611a6a565b6116bf565b60405161043f9190611c3f565b60405180910390f35b34801561045457600080fd5b5061045d611733565b60405161046a9190611ac3565b60405180910390f35b34801561047f57600080fd5b5061049a60048036038101906104959190611d26565b611747565b005b3480156104a857600080fd5b506104c360048036038101906104be9190611a6a565b6117cd565b6040516104d09190611c3f565b60405180910390f35b600360008263ffffffff1663ffffffff16815260200190815260200160002060040160049054906101000a900460ff16610548576040517f08c379a000000000000000000000000000000000000000000000000000000000815260040161053f90611e44565b60405180910390fd5b610552813361070c565b341015610594576040517f08c379a000000000000000000000000000000000000000000000000000000000815260040161058b90611eb0565b60405180910390fd5b61059e81336116bf565b6105dd576040517f08c379a00000000000000000000000000000000000000000000000000000000081526004016105d490611f1c565b60405180910390fd5b34600560008363ffffffff1663ffffffff16815260200190815260200160002060003373ffffffffffffffffffffffffffffffffffffffff1673ffffffffffffffffffffffffffffffffffffffff16815260200190815260200160002060008282546106499190611f6b565b9250508190555042600660008363ffffffff1663ffffffff16815260200190815260200160002060003373ffffffffffffffffffffffffffffffffffffffff1673ffffffffffffffffffffffffffffffffffffffff168152602001908152602001600020819055503373ffffffffffffffffffffffffffffffffffffffff168163ffffffff167fcb56b790741c56fe9689db9a11c7acfbbe5aa3e1eafa48a4eedb496986881437346000604051610701929190611f9f565b60405180910390a350565b600061071883336116bf565b610757576040517f08c379a000000000000000000000000000000000000000000000000000000000815260040161074e90612014565b60405180910390fd5b600360008463ffffffff1663ffffffff16815260200190815260200160002060040160049054906101000a900460ff166107c6576040517f08c379a00000000000000000000000000000000000000000000000000000000081526004016107bd90612080565b60405180910390fd5b6000600660008563ffffffff1663ffffffff16815260200190815260200160002060008473ffffffffffffffffffffffffffffffffffffffff1673ffffffffffffffffffffffffffffffffffffffff1681526020019081526020016000205411610865576040517f08c379a000000000000000000000000000000000000000000000000000000000815260040161085c906120ec565b60405180910390fd5b6000600660008563ffffffff1663ffffffff16815260200190815260200160002060008473ffffffffffffffffffffffffffffffffffffffff1673ffffffffffffffffffffffffffffffffffffffff16815260200190815260200160002054426108cf919061210c565b905060006018603c80846108e3919061216f565b6108ed919061216f565b6108f7919061216f565b90506000601e600360008863ffffffff1663ffffffff1681526020019081526020016000206003015461092a919061216f565b90506000818361093a91906121a0565b90506000600360008963ffffffff1663ffffffff168152602001908152602001600020600301549050818161096f9190611f6b565b90506000601e85610980919061216f565b9050600360008a63ffffffff1663ffffffff16815260200190815260200160002060040160099054906101000a900463ffffffff1663ffffffff16811115610a7a576000600360008b63ffffffff1663ffffffff16815260200190815260200160002060040160059054906101000a900463ffffffff1663ffffffff1690506000600360008c63ffffffff1663ffffffff16815260200190815260200160002060040160099054906101000a900463ffffffff1663ffffffff1683610a45919061210c565b90506064818386610a5691906121a0565b610a6091906121a0565b610a6a919061216f565b84610a759190611f6b565b935050505b81965050505050505092915050565b600360008263ffffffff1663ffffffff16815260200190815260200160002060040160049054906101000a900460ff16610af8576040517f08c379a0000000000000000000000000000000000000000000000000000000008152600401610aef9061222e565b60405180910390fd5b600360008263ffffffff1663ffffffff16815260200190815260200160002060010154341015610b5d576040517f08c379a0000000000000000000000000000000000000000000000000000000008152600401610b549061229a565b60405180910390fd5b34600560008363ffffffff1663ffffffff16815260200190815260200160002060003373ffffffffffffffffffffffffffffffffffffffff1673ffffffffffffffffffffffffffffffffffffffff1681526020019081526020016000206000828254610bc99190611f6b565b925050819055506001600460008363ffffffff1663ffffffff16815260200190815260200160002060003373ffffffffffffffffffffffffffffffffffffffff1673ffffffffffffffffffffffffffffffffffffffff16815260200190815260200160002060006101000a81548160ff02191690831515021790555042600660008363ffffffff1663ffffffff16815260200190815260200160002060003373ffffffffffffffffffffffffffffffffffffffff1673ffffffffffffffffffffffffffffffffffffffff168152602001908152602001600020819055503373ffffffffffffffffffffffffffffffffffffffff168163ffffffff167fcb56b790741c56fe9689db9a11c7acfbbe5aa3e1eafa48a4eedb496986881437346001604051610cf6929190611f9f565b60405180910390a350565b60036020528060005260406000206000915090508060000154908060010154908060020154908060030154908060040160009054906101000a900463ffffffff16908060040160049054906101000a900460ff16908060040160059054906101000a900463ffffffff16908060040160099054906101000a900463ffffffff16905088565b6006602052816000526040600020602052806000526040600020600091509150505481565b6005602052816000526040600020602052806000526040600020600091509150505481565b610dd86117fc565b84600360008863ffffffff1663ffffffff1681526020019081526020016000206000018190555083600360008863ffffffff1663ffffffff1681526020019081526020016000206001018190555082600360008863ffffffff1663ffffffff16815260200190815260200160002060040160006101000a81548163ffffffff021916908363ffffffff16021790555080600360008863ffffffff1663ffffffff16815260200190815260200160002060040160056101000a81548163ffffffff021916908363ffffffff16021790555081600360008863ffffffff1663ffffffff16815260200190815260200160002060040160096101000a81548163ffffffff021916908363ffffffff1602179055507fbe829975d2c0d9995edbd0abc0cbd073add0fde193595b70af3c8e9094c00ac886868686604051610f1e94939291906122ba565b60405180910390a1505050505050565b600080600360008563ffffffff1663ffffffff16815260200190815260200160002060405180610100016040529081600082015481526020016001820154815260200160028201548152602001600382015481526020016004820160009054906101000a900463ffffffff1663ffffffff1663ffffffff1681526020016004820160049054906101000a900460ff161515151581526020016004820160059054906101000a900463ffffffff1663ffffffff1663ffffffff1681526020016004820160099054906101000a900463ffffffff1663ffffffff1663ffffffff168152505090508060a00151611057576040517f08c379a000000000000000000000000000000000000000000000000000000000815260040161104e9061222e565b60405180910390fd5b600081604001518260200151836000015161107291906121a0565b61107c919061216f565b90506000600560008763ffffffff1663ffffffff16815260200190815260200160002060008673ffffffffffffffffffffffffffffffffffffffff1673ffffffffffffffffffffffffffffffffffffffff16815260200190815260200160002054905060006110e9611733565b90506000818560200151846110fe919061210c565b61110891906121a0565b9050600081856111189190611f6b565b905080965050505050505092915050565b6000600360008363ffffffff1663ffffffff16815260200190815260200160002060040160049054906101000a900460ff169050919050565b61116a6117fc565b6111746000611883565b565b60008060009054906101000a900473ffffffffffffffffffffffffffffffffffffffff16905090565b6111a76117fc565b6040518061010001604052808881526020018781526020018681526020018581526020018463ffffffff1681526020016001151581526020018363ffffffff1681526020018263ffffffff1681525060036000600760009054906101000a900463ffffffff1663ffffffff1663ffffffff1681526020019081526020016000206000820151816000015560208201518160010155604082015181600201556060820151816003015560808201518160040160006101000a81548163ffffffff021916908363ffffffff16021790555060a08201518160040160046101000a81548160ff02191690831515021790555060c08201518160040160056101000a81548163ffffffff021916908363ffffffff16021790555060e08201518160040160096101000a81548163ffffffff021916908363ffffffff1602179055509050507f19bb034335e290edb4dfdd4b94706d99fb766d7512bd8836347f261943bd98e2600760009054906101000a900463ffffffff1688888660405161132e94939291906122ba565b60405180910390a16007600081819054906101000a900463ffffffff1680929190611358906122ff565b91906101000a81548163ffffffff021916908363ffffffff1602179055505050505050505050565b6113886117fc565b6000600360008363ffffffff1663ffffffff16815260200190815260200160002060040160046101000a81548160ff0219169083151502179055507fc5dfab0962c70e9a4416c78094b25bf915c7d3198f89974c6ddc52306e4df424816040516113f29190611d53565b60405180910390a150565b6114056117fc565b80600260006101000a81548173ffffffffffffffffffffffffffffffffffffffff021916908373ffffffffffffffffffffffffffffffffffffffff16021790555050565b600760009054906101000a900463ffffffff1681565b611467611947565b600260009054906101000a900473ffffffffffffffffffffffffffffffffffffffff1673ffffffffffffffffffffffffffffffffffffffff163373ffffffffffffffffffffffffffffffffffffffff16146114f7576040517f08c379a00000000000000000000000000000000000000000000000000000000081526004016114ee9061239d565b60405180910390fd5b600360008463ffffffff1663ffffffff16815260200190815260200160002060040160049054906101000a900460ff16611566576040517f08c379a000000000000000000000000000000000000000000000000000000000815260040161155d9061222e565b60405180910390fd5b600460008463ffffffff1663ffffffff16815260200190815260200160002060008373ffffffffffffffffffffffffffffffffffffffff1673ffffffffffffffffffffffffffffffffffffffff16815260200190815260200160002060009054906101000a900460ff1661160f576040517f08c379a000000000000000000000000000000000000000000000000000000000815260040161160690612409565b60405180910390fd5b8173ffffffffffffffffffffffffffffffffffffffff166108fc600560008663ffffffff1663ffffffff16815260200190815260200160002060008573ffffffffffffffffffffffffffffffffffffffff1673ffffffffffffffffffffffffffffffffffffffff168152602001908152602001600020549081150290604051600060405180830381858888f193505050501580156116b1573d6000803e3d6000fd5b506116ba61198d565b505050565b6000600460008463ffffffff1663ffffffff16815260200190815260200160002060008373ffffffffffffffffffffffffffffffffffffffff1673ffffffffffffffffffffffffffffffffffffffff16815260200190815260200160002060009054906101000a900460ff16905092915050565b600080600290506000819050809250505090565b61174f6117fc565b600073ffffffffffffffffffffffffffffffffffffffff168173ffffffffffffffffffffffffffffffffffffffff16036117c15760006040517f1e4fbdf70000000000000000000000000000000000000000000000000000000081526004016117b89190611c69565b60405180910390fd5b6117ca81611883565b50565b60046020528160005260406000206020528060005260406000206000915091509054906101000a900460ff1681565b611804611996565b73ffffffffffffffffffffffffffffffffffffffff16611822611176565b73ffffffffffffffffffffffffffffffffffffffff161461188157611845611996565b6040517f118cdaa70000000000000000000000000000000000000000000000000000000081526004016118789190611c69565b60405180910390fd5b565b60008060009054906101000a900473ffffffffffffffffffffffffffffffffffffffff169050816000806101000a81548173ffffffffffffffffffffffffffffffffffffffff021916908373ffffffffffffffffffffffffffffffffffffffff1602179055508173ffffffffffffffffffffffffffffffffffffffff168173ffffffffffffffffffffffffffffffffffffffff167f8be0079c531659141344cd1fd0a4f28419497f9722a3daafe3b4186f6b6457e060405160405180910390a35050565b600260015403611983576040517f3ee5aeb500000000000000000000000000000000000000000000000000000000815260040160405180910390fd5b6002600181905550565b60018081905550565b600033905090565b600080fd5b600063ffffffff82169050919050565b6119bc816119a3565b81146119c757600080fd5b50565b6000813590506119d9816119b3565b92915050565b6000602082840312156119f5576119f461199e565b5b6000611a03848285016119ca565b91505092915050565b600073ffffffffffffffffffffffffffffffffffffffff82169050919050565b6000611a3782611a0c565b9050919050565b611a4781611a2c565b8114611a5257600080fd5b50565b600081359050611a6481611a3e565b92915050565b60008060408385031215611a8157611a8061199e565b5b6000611a8f858286016119ca565b9250506020611aa085828601611a55565b9150509250929050565b6000819050919050565b611abd81611aaa565b82525050565b6000602082019050611ad86000830184611ab4565b92915050565b611ae7816119a3565b82525050565b60008115159050919050565b611b0281611aed565b82525050565b600061010082019050611b1e600083018b611ab4565b611b2b602083018a611ab4565b611b386040830189611ab4565b611b456060830188611ab4565b611b526080830187611ade565b611b5f60a0830186611af9565b611b6c60c0830185611ade565b611b7960e0830184611ade565b9998505050505050505050565b611b8f81611aaa565b8114611b9a57600080fd5b50565b600081359050611bac81611b86565b92915050565b60008060008060008060c08789031215611bcf57611bce61199e565b5b6000611bdd89828a016119ca565b9650506020611bee89828a01611b9d565b9550506040611bff89828a01611b9d565b9450506060611c1089828a016119ca565b9350506080611c2189828a016119ca565b92505060a0611c3289828a016119ca565b9150509295509295509295565b6000602082019050611c546000830184611af9565b92915050565b611c6381611a2c565b82525050565b6000602082019050611c7e6000830184611c5a565b92915050565b600080600080600080600060e0888a031215611ca357611ca261199e565b5b6000611cb18a828b01611b9d565b9750506020611cc28a828b01611b9d565b9650506040611cd38a828b01611b9d565b9550506060611ce48a828b01611b9d565b9450506080611cf58a828b016119ca565b93505060a0611d068a828b016119ca565b92505060c0611d178a828b016119ca565b91505092959891949750929550565b600060208284031215611d3c57611d3b61199e565b5b6000611d4a84828501611a55565b91505092915050565b6000602082019050611d686000830184611ade565b92915050565b600080600060608486031215611d8757611d8661199e565b5b6000611d95868287016119ca565b9350506020611da686828701611a55565b9250506040611db786828701611b9d565b9150509250925092565b600082825260208201905092915050565b7f506f6c69637920646f6573206e6f74206578697374206f72206973206e6f742060008201527f6163746976650000000000000000000000000000000000000000000000000000602082015250565b6000611e2e602683611dc1565b9150611e3982611dd2565b604082019050919050565b60006020820190508181036000830152611e5d81611e21565b9050919050565b7f496e73756666696369656e74207072656d69756d20616d6f756e740000000000600082015250565b6000611e9a601b83611dc1565b9150611ea582611e64565b602082019050919050565b60006020820190508181036000830152611ec981611e8d565b9050919050565b7f4e6f74206120636c61696d616e74206f66207468697320706f6c696379000000600082015250565b6000611f06601d83611dc1565b9150611f1182611ed0565b602082019050919050565b60006020820190508181036000830152611f3581611ef9565b9050919050565b7f4e487b7100000000000000000000000000000000000000000000000000000000600052601160045260246000fd5b6000611f7682611aaa565b9150611f8183611aaa565b9250828201905080821115611f9957611f98611f3c565b5b92915050565b6000604082019050611fb46000830185611ab4565b611fc16020830184611af9565b9392505050565b7f4e6f74206120706f6c696379206f776e65722100000000000000000000000000600082015250565b6000611ffe601383611dc1565b915061200982611fc8565b602082019050919050565b6000602082019050818103600083015261202d81611ff1565b9050919050565b7f506f6c6963792069736e27742061637469766521000000000000000000000000600082015250565b600061206a601483611dc1565b915061207582612034565b602082019050919050565b600060208201905081810360008301526120998161205d565b9050919050565b7f4e6f2070726576696f7573207061796d656e7420666f756e6400000000000000600082015250565b60006120d6601983611dc1565b91506120e1826120a0565b602082019050919050565b60006020820190508181036000830152612105816120c9565b9050919050565b600061211782611aaa565b915061212283611aaa565b925082820390508181111561213a57612139611f3c565b5b92915050565b7f4e487b7100000000000000000000000000000000000000000000000000000000600052601260045260246000fd5b600061217a82611aaa565b915061218583611aaa565b92508261219557612194612140565b5b828204905092915050565b60006121ab82611aaa565b91506121b683611aaa565b92508282026121c481611aaa565b915082820484148315176121db576121da611f3c565b5b5092915050565b7f506f6c696379206973206e6f7420616374697665000000000000000000000000600082015250565b6000612218601483611dc1565b9150612223826121e2565b602082019050919050565b600060208201905081810360008301526122478161220b565b9050919050565b7f43616e2774206166666f72642074686520726174652100000000000000000000600082015250565b6000612284601683611dc1565b915061228f8261224e565b602082019050919050565b600060208201905081810360008301526122b381612277565b9050919050565b60006080820190506122cf6000830187611ade565b6122dc6020830186611ab4565b6122e96040830185611ab4565b6122f66060830184611ade565b95945050505050565b600061230a826119a3565b915063ffffffff82036123205761231f611f3c565b5b600182019050919050565b7f43616c6c6572206973206e6f7420746865205061796f757420636f6e7472616360008201527f7400000000000000000000000000000000000000000000000000000000000000602082015250565b6000612387602183611dc1565b91506123928261232b565b604082019050919050565b600060208201905081810360008301526123b68161237a565b9050919050565b7f4e6f74206120706f6c696379206f776e65720000000000000000000000000000600082015250565b60006123f3601283611dc1565b91506123fe826123bd565b602082019050919050565b60006020820190508181036000830152612422816123e6565b905091905056fea2646970667358221220863587302dc999bb2f83752e248d0766ffd3618b83d48de9520f07904a19574164736f6c63430008140033",
  "linkReferences": {},
  "deployedLinkReferences": {}
}