{
  "_format": "hh-sol-artifact-1",
  "contractName": "PolicyMaker",
  "sourceName": "contracts/PolicyMaker.sol",
  "abi": [
    {
      "inputs": [
        {
          "internalType": "address",
          "name": "initialOwner",
          "type": "address"
        },
        {
          "internalType": "address",
          "name": "_addressesProvider",
          "type": "address"
        }
      ],
      "stateMutability": "nonpayable",
      "type": "constructor"
    },
    {
      "inputs": [
        {
          "internalType": "address",
          "name": "owner",
          "type": "address"
        }
      ],
      "name": "OwnableInvalidOwner",
      "type": "error"
    },
    {
      "inputs": [
        {
          "internalType": "address",
          "name": "account",
          "type": "address"
        }
      ],
      "name": "OwnableUnauthorizedAccount",
      "type": "error"
    },
    {
      "inputs": [],
      "name": "ReentrancyGuardReentrantCall",
      "type": "error"
    },
    {
      "anonymous": false,
      "inputs": [
        {
          "indexed": true,
          "internalType": "address",
          "name": "previousOwner",
          "type": "address"
        },
        {
          "indexed": true,
          "internalType": "address",
          "name": "newOwner",
          "type": "address"
        }
      ],
      "name": "OwnershipTransferred",
      "type": "event"
    },
    {
      "anonymous": false,
      "inputs": [
        {
          "indexed": false,
          "internalType": "uint32",
          "name": "policyId",
          "type": "uint32"
        },
        {
          "indexed": false,
          "internalType": "uint256",
          "name": "coverageAmount",
          "type": "uint256"
        },
        {
          "indexed": false,
          "internalType": "uint256",
          "name": "initialPremiumFee",
          "type": "uint256"
        },
        {
          "indexed": false,
          "internalType": "uint32",
          "name": "duration",
          "type": "uint32"
        }
      ],
      "name": "PolicyCreated",
      "type": "event"
    },
    {
      "anonymous": false,
      "inputs": [
        {
          "indexed": false,
          "internalType": "uint32",
          "name": "policyId",
          "type": "uint32"
        }
      ],
      "name": "PolicyDeactivated",
      "type": "event"
    },
    {
      "anonymous": false,
      "inputs": [
        {
          "indexed": false,
          "internalType": "uint32",
          "name": "policyId",
          "type": "uint32"
        },
        {
          "indexed": false,
          "internalType": "uint256",
          "name": "coverageAmount",
          "type": "uint256"
        },
        {
          "indexed": false,
          "internalType": "uint256",
          "name": "initialPremiumFee",
          "type": "uint256"
        },
        {
          "indexed": false,
          "internalType": "uint32",
          "name": "duration",
          "type": "uint32"
        }
      ],
      "name": "PolicyUpdated",
      "type": "event"
    },
    {
      "anonymous": false,
      "inputs": [
        {
          "indexed": true,
          "internalType": "uint32",
          "name": "policyId",
          "type": "uint32"
        },
        {
          "indexed": true,
          "internalType": "address",
          "name": "claimant",
          "type": "address"
        },
        {
          "indexed": false,
          "internalType": "uint256",
          "name": "amount",
          "type": "uint256"
        },
        {
          "indexed": false,
          "internalType": "bool",
          "name": "isPremium",
          "type": "bool"
        }
      ],
      "name": "PremiumPaid",
      "type": "event"
    },
    {
      "inputs": [],
      "name": "AWETH_ADDRESS",
      "outputs": [
        {
          "internalType": "address",
          "name": "",
          "type": "address"
        }
      ],
      "stateMutability": "view",
      "type": "function"
    },
    {
      "inputs": [],
      "name": "WETH_ADDRESS",
      "outputs": [
        {
          "internalType": "address",
          "name": "",
          "type": "address"
        }
      ],
      "stateMutability": "view",
      "type": "function"
    },
    {
      "inputs": [],
      "name": "aWeth",
      "outputs": [
        {
          "internalType": "contract IERC20",
          "name": "",
          "type": "address"
        }
      ],
      "stateMutability": "view",
      "type": "function"
    },
    {
      "inputs": [
        {
          "internalType": "uint32",
          "name": "",
          "type": "uint32"
        },
        {
          "internalType": "address",
          "name": "",
          "type": "address"
        }
      ],
      "name": "amountClaimed",
      "outputs": [
        {
          "internalType": "uint256",
          "name": "",
          "type": "uint256"
        }
      ],
      "stateMutability": "view",
      "type": "function"
    },
    {
      "inputs": [
        {
          "internalType": "uint32",
          "name": "_policyId",
          "type": "uint32"
        },
        {
          "internalType": "address",
          "name": "_policyHolder",
          "type": "address"
        },
        {
          "internalType": "uint256",
          "name": "_amount",
          "type": "uint256"
        }
      ],
      "name": "calculateAdditionalCoverage",
      "outputs": [
        {
          "internalType": "uint256",
          "name": "",
          "type": "uint256"
        }
      ],
      "stateMutability": "view",
      "type": "function"
    },
    {
      "inputs": [
        {
          "internalType": "uint32",
          "name": "policyId",
          "type": "uint32"
        },
        {
          "internalType": "uint256",
          "name": "timeSinceLastPayment",
          "type": "uint256"
        }
      ],
      "name": "calculateDecayFactor",
      "outputs": [
        {
          "internalType": "uint256",
          "name": "",
          "type": "uint256"
        }
      ],
      "stateMutability": "view",
      "type": "function"
    },
    {
      "inputs": [
        {
          "internalType": "uint32",
          "name": "_policyId",
          "type": "uint32"
        },
        {
          "internalType": "address",
          "name": "_policyHolder",
          "type": "address"
        },
        {
          "internalType": "uint256",
          "name": "inputPremium",
          "type": "uint256"
        }
      ],
      "name": "calculateDynamicCoverageFactor",
      "outputs": [
        {
          "internalType": "uint256",
          "name": "",
          "type": "uint256"
        }
      ],
      "stateMutability": "view",
      "type": "function"
    },
    {
      "inputs": [
        {
          "internalType": "uint32",
          "name": "_policyId",
          "type": "uint32"
        }
      ],
      "name": "calculateInitialCoverage",
      "outputs": [
        {
          "internalType": "uint256",
          "name": "",
          "type": "uint256"
        }
      ],
      "stateMutability": "view",
      "type": "function"
    },
    {
      "inputs": [
        {
          "internalType": "uint32",
          "name": "_policyId",
          "type": "uint32"
        },
        {
          "internalType": "address",
          "name": "_policyHolder",
          "type": "address"
        },
        {
          "internalType": "uint256",
          "name": "_amount",
          "type": "uint256"
        }
      ],
      "name": "calculatePotentialCoverage",
      "outputs": [
        {
          "internalType": "uint256",
          "name": "",
          "type": "uint256"
        }
      ],
      "stateMutability": "view",
      "type": "function"
    },
    {
      "inputs": [
        {
          "internalType": "uint32",
          "name": "_policyId",
          "type": "uint32"
        },
        {
          "internalType": "address",
          "name": "_policyHolder",
          "type": "address"
        }
      ],
      "name": "calculatePremium",
      "outputs": [
        {
          "internalType": "uint256",
          "name": "",
          "type": "uint256"
        }
      ],
      "stateMutability": "view",
      "type": "function"
    },
    {
      "inputs": [
        {
          "internalType": "uint32",
          "name": "_policyId",
          "type": "uint32"
        },
        {
          "internalType": "uint256",
          "name": "_premiumAmount",
          "type": "uint256"
        }
      ],
      "name": "calculatePremiumAllocation",
      "outputs": [
        {
          "internalType": "uint256",
          "name": "",
          "type": "uint256"
        },
        {
          "internalType": "uint256",
          "name": "",
          "type": "uint256"
        }
      ],
      "stateMutability": "view",
      "type": "function"
    },
    {
      "inputs": [
        {
          "internalType": "uint32",
          "name": "_policyId",
          "type": "uint32"
        },
        {
          "internalType": "uint256",
          "name": "premium",
          "type": "uint256"
        },
        {
          "internalType": "uint256",
          "name": "remainingCoverageNeeded",
          "type": "uint256"
        }
      ],
      "name": "calculatePremiumForCoverageFund",
      "outputs": [
        {
          "internalType": "uint256",
          "name": "",
          "type": "uint256"
        }
      ],
      "stateMutability": "view",
      "type": "function"
    },
    {
      "inputs": [
        {
          "internalType": "uint32",
          "name": "_policyId",
          "type": "uint32"
        },
        {
          "internalType": "uint256",
          "name": "inputPremium",
          "type": "uint256"
        }
      ],
      "name": "calculatePremiumSizeFactor",
      "outputs": [
        {
          "internalType": "uint256",
          "name": "",
          "type": "uint256"
        }
      ],
      "stateMutability": "view",
      "type": "function"
    },
    {
      "inputs": [
        {
          "internalType": "uint32",
          "name": "policyId",
          "type": "uint32"
        }
      ],
      "name": "calculateRewards",
      "outputs": [
        {
          "components": [
            {
              "internalType": "address",
              "name": "policyOwner",
              "type": "address"
            },
            {
              "internalType": "uint256",
              "name": "reward",
              "type": "uint256"
            }
          ],
          "internalType": "struct PolicyMaker.RewardInfo[]",
          "name": "",
          "type": "tuple[]"
        }
      ],
      "stateMutability": "view",
      "type": "function"
    },
    {
      "inputs": [
        {
          "internalType": "uint32",
          "name": "policyId",
          "type": "uint32"
        }
      ],
      "name": "calculateTotalAccrued",
      "outputs": [
        {
          "internalType": "uint256",
          "name": "",
          "type": "uint256"
        }
      ],
      "stateMutability": "view",
      "type": "function"
    },
    {
      "inputs": [
        {
          "internalType": "uint32",
          "name": "_policyId",
          "type": "uint32"
        },
        {
          "internalType": "address",
          "name": "_policyHolder",
          "type": "address"
        }
      ],
      "name": "calculateTotalCoverage",
      "outputs": [
        {
          "internalType": "uint256",
          "name": "",
          "type": "uint256"
        }
      ],
      "stateMutability": "view",
      "type": "function"
    },
    {
      "inputs": [],
      "name": "convertEthToWeth",
      "outputs": [],
      "stateMutability": "payable",
      "type": "function"
    },
    {
      "inputs": [
        {
          "internalType": "uint32",
          "name": "",
          "type": "uint32"
        }
      ],
      "name": "coverageFundBalance",
      "outputs": [
        {
          "internalType": "uint256",
          "name": "",
          "type": "uint256"
        }
      ],
      "stateMutability": "view",
      "type": "function"
    },
    {
      "inputs": [
        {
          "internalType": "uint32",
          "name": "",
          "type": "uint32"
        },
        {
          "internalType": "address",
          "name": "",
          "type": "address"
        }
      ],
      "name": "coverageFundTokenBalance",
      "outputs": [
        {
          "internalType": "uint256",
          "name": "",
          "type": "uint256"
        }
      ],
      "stateMutability": "view",
      "type": "function"
    },
    {
      "inputs": [
        {
          "internalType": "uint32",
          "name": "",
          "type": "uint32"
        },
        {
          "internalType": "address",
          "name": "",
          "type": "address"
        }
      ],
      "name": "coverageFunded",
      "outputs": [
        {
          "internalType": "uint256",
          "name": "",
          "type": "uint256"
        }
      ],
      "stateMutability": "view",
      "type": "function"
    },
    {
      "inputs": [
        {
          "internalType": "uint256",
          "name": "_coverageAmount",
          "type": "uint256"
        },
        {
          "internalType": "uint256",
          "name": "_initialPremiumFee",
          "type": "uint256"
        },
        {
          "internalType": "uint256",
          "name": "_initialCoveragePercentage",
          "type": "uint256"
        },
        {
          "internalType": "uint256",
          "name": "_premiumRate",
          "type": "uint256"
        },
        {
          "internalType": "uint32",
          "name": "_duration",
          "type": "uint32"
        },
        {
          "internalType": "uint32",
          "name": "_penaltyRate",
          "type": "uint32"
        },
        {
          "internalType": "uint32",
          "name": "_monthsGracePeriod",
          "type": "uint32"
        },
        {
          "internalType": "uint32",
          "name": "_coverageFundPercentage",
          "type": "uint32"
        },
        {
          "internalType": "uint32",
          "name": "_investmentFundPercentage",
          "type": "uint32"
        }
      ],
      "name": "createPolicy",
      "outputs": [],
      "stateMutability": "nonpayable",
      "type": "function"
    },
    {
      "inputs": [
        {
          "internalType": "uint32",
          "name": "_policyId",
          "type": "uint32"
        }
      ],
      "name": "deactivatePolicy",
      "outputs": [],
      "stateMutability": "nonpayable",
      "type": "function"
    },
    {
      "inputs": [
        {
          "internalType": "uint32",
          "name": "policyId",
          "type": "uint32"
        },
        {
          "internalType": "uint256",
          "name": "claimAmount",
          "type": "uint256"
        }
      ],
      "name": "handlePayout",
      "outputs": [],
      "stateMutability": "nonpayable",
      "type": "function"
    },
    {
      "inputs": [
        {
          "internalType": "uint32",
          "name": "policyId",
          "type": "uint32"
        },
        {
          "internalType": "uint256",
          "name": "amount",
          "type": "uint256"
        }
      ],
      "name": "investInAavePool",
      "outputs": [],
      "stateMutability": "nonpayable",
      "type": "function"
    },
    {
      "inputs": [
        {
          "internalType": "uint32",
          "name": "",
          "type": "uint32"
        }
      ],
      "name": "investmentFundBalance",
      "outputs": [
        {
          "internalType": "uint256",
          "name": "",
          "type": "uint256"
        }
      ],
      "stateMutability": "view",
      "type": "function"
    },
    {
      "inputs": [
        {
          "internalType": "uint32",
          "name": "",
          "type": "uint32"
        },
        {
          "internalType": "address",
          "name": "",
          "type": "address"
        }
      ],
      "name": "investmentFundTokenBalance",
      "outputs": [
        {
          "internalType": "uint256",
          "name": "",
          "type": "uint256"
        }
      ],
      "stateMutability": "view",
      "type": "function"
    },
    {
      "inputs": [
        {
          "internalType": "uint32",
          "name": "",
          "type": "uint32"
        },
        {
          "internalType": "address",
          "name": "",
          "type": "address"
        }
      ],
      "name": "investmentFunded",
      "outputs": [
        {
          "internalType": "uint256",
          "name": "",
          "type": "uint256"
        }
      ],
      "stateMutability": "view",
      "type": "function"
    },
    {
      "inputs": [
        {
          "internalType": "uint32",
          "name": "_policyId",
          "type": "uint32"
        }
      ],
      "name": "isActive",
      "outputs": [
        {
          "internalType": "bool",
          "name": "",
          "type": "bool"
        }
      ],
      "stateMutability": "view",
      "type": "function"
    },
    {
      "inputs": [
        {
          "internalType": "uint32",
          "name": "_policyId",
          "type": "uint32"
        },
        {
          "internalType": "address",
          "name": "_claimant",
          "type": "address"
        }
      ],
      "name": "isPolicyOwner",
      "outputs": [
        {
          "internalType": "bool",
          "name": "",
          "type": "bool"
        }
      ],
      "stateMutability": "view",
      "type": "function"
    },
    {
      "inputs": [
        {
          "internalType": "uint32",
          "name": "",
          "type": "uint32"
        },
        {
          "internalType": "address",
          "name": "",
          "type": "address"
        }
      ],
      "name": "lastPremiumPaidTime",
      "outputs": [
        {
          "internalType": "uint256",
          "name": "",
          "type": "uint256"
        }
      ],
      "stateMutability": "view",
      "type": "function"
    },
    {
      "inputs": [],
      "name": "nextPolicyId",
      "outputs": [
        {
          "internalType": "uint32",
          "name": "",
          "type": "uint32"
        }
      ],
      "stateMutability": "view",
      "type": "function"
    },
    {
      "inputs": [],
      "name": "owner",
      "outputs": [
        {
          "internalType": "address",
          "name": "",
          "type": "address"
        }
      ],
      "stateMutability": "view",
      "type": "function"
    },
    {
      "inputs": [
        {
          "internalType": "uint32",
          "name": "_policyId",
          "type": "uint32"
        },
        {
          "internalType": "uint256",
          "name": "investmentFundPercentage",
          "type": "uint256"
        },
        {
          "internalType": "uint256",
          "name": "amount",
          "type": "uint256"
        }
      ],
      "name": "payCustomPremium",
      "outputs": [],
      "stateMutability": "payable",
      "type": "function"
    },
    {
      "inputs": [
        {
          "internalType": "uint32",
          "name": "_policyId",
          "type": "uint32"
        }
      ],
      "name": "payInitialPremium",
      "outputs": [],
      "stateMutability": "nonpayable",
      "type": "function"
    },
    {
      "inputs": [
        {
          "internalType": "uint32",
          "name": "_policyId",
          "type": "uint32"
        },
        {
          "internalType": "uint256",
          "name": "amount",
          "type": "uint256"
        }
      ],
      "name": "payPremium",
      "outputs": [],
      "stateMutability": "payable",
      "type": "function"
    },
    {
      "inputs": [
        {
          "internalType": "uint32",
          "name": "",
          "type": "uint32"
        }
      ],
      "name": "policies",
      "outputs": [
        {
          "internalType": "uint256",
          "name": "coverageAmount",
          "type": "uint256"
        },
        {
          "internalType": "uint256",
          "name": "initialPremiumFee",
          "type": "uint256"
        },
        {
          "internalType": "uint256",
          "name": "initialCoveragePercentage",
          "type": "uint256"
        },
        {
          "internalType": "uint256",
          "name": "premiumRate",
          "type": "uint256"
        },
        {
          "internalType": "uint32",
          "name": "duration",
          "type": "uint32"
        },
        {
          "internalType": "bool",
          "name": "isActive",
          "type": "bool"
        },
        {
          "internalType": "uint32",
          "name": "penaltyRate",
          "type": "uint32"
        },
        {
          "internalType": "uint32",
          "name": "monthsGracePeriod",
          "type": "uint32"
        },
        {
          "internalType": "uint32",
          "name": "coverageFundPercentage",
          "type": "uint32"
        },
        {
          "internalType": "uint32",
          "name": "investmentFundPercentage",
          "type": "uint32"
        },
        {
          "internalType": "uint256",
          "name": "startTime",
          "type": "uint256"
        },
        {
          "internalType": "address",
          "name": "creator",
          "type": "address"
        }
      ],
      "stateMutability": "view",
      "type": "function"
    },
    {
      "inputs": [
        {
          "internalType": "uint32",
          "name": "",
          "type": "uint32"
        },
        {
          "internalType": "uint256",
          "name": "",
          "type": "uint256"
        }
      ],
      "name": "policyOwnerAddresses",
      "outputs": [
        {
          "internalType": "address",
          "name": "",
          "type": "address"
        }
      ],
      "stateMutability": "view",
      "type": "function"
    },
    {
      "inputs": [
        {
          "internalType": "uint32",
          "name": "",
          "type": "uint32"
        },
        {
          "internalType": "address",
          "name": "",
          "type": "address"
        }
      ],
      "name": "policyOwners",
      "outputs": [
        {
          "internalType": "bool",
          "name": "",
          "type": "bool"
        }
      ],
      "stateMutability": "view",
      "type": "function"
    },
    {
      "inputs": [
        {
          "internalType": "uint32",
          "name": "",
          "type": "uint32"
        },
        {
          "internalType": "address",
          "name": "",
          "type": "address"
        }
      ],
      "name": "premiumsPaid",
      "outputs": [
        {
          "internalType": "uint256",
          "name": "",
          "type": "uint256"
        }
      ],
      "stateMutability": "view",
      "type": "function"
    },
    {
      "inputs": [],
      "name": "renounceOwnership",
      "outputs": [],
      "stateMutability": "nonpayable",
      "type": "function"
    },
    {
      "inputs": [
        {
          "internalType": "uint32",
          "name": "",
          "type": "uint32"
        }
      ],
      "name": "rewards",
      "outputs": [
        {
          "internalType": "uint256",
          "name": "",
          "type": "uint256"
        }
      ],
      "stateMutability": "view",
      "type": "function"
    },
    {
      "inputs": [
        {
          "internalType": "address",
          "name": "_payoutContract",
          "type": "address"
        }
      ],
      "name": "setPayoutContract",
      "outputs": [],
      "stateMutability": "nonpayable",
      "type": "function"
    },
    {
      "inputs": [
        {
          "internalType": "uint32",
          "name": "",
          "type": "uint32"
        },
        {
          "internalType": "address",
          "name": "",
          "type": "address"
        }
      ],
      "name": "timesPaid",
      "outputs": [
        {
          "internalType": "uint32",
          "name": "",
          "type": "uint32"
        }
      ],
      "stateMutability": "view",
      "type": "function"
    },
    {
      "inputs": [
        {
          "internalType": "uint32",
          "name": "",
          "type": "uint32"
        }
      ],
      "name": "totalSupplied",
      "outputs": [
        {
          "internalType": "uint256",
          "name": "",
          "type": "uint256"
        }
      ],
      "stateMutability": "view",
      "type": "function"
    },
    {
      "inputs": [
        {
          "internalType": "address",
          "name": "newOwner",
          "type": "address"
        }
      ],
      "name": "transferOwnership",
      "outputs": [],
      "stateMutability": "nonpayable",
      "type": "function"
    },
    {
      "inputs": [
        {
          "internalType": "uint32",
          "name": "_policyId",
          "type": "uint32"
        },
        {
          "internalType": "uint256",
          "name": "_coverageAmount",
          "type": "uint256"
        },
        {
          "internalType": "uint256",
          "name": "_initialPremiumFee",
          "type": "uint256"
        },
        {
          "internalType": "uint32",
          "name": "_duration",
          "type": "uint32"
        },
        {
          "internalType": "uint32",
          "name": "_monthsGracePeriod",
          "type": "uint32"
        },
        {
          "internalType": "uint32",
          "name": "_penaltyRate",
          "type": "uint32"
        }
      ],
      "name": "updatePolicy",
      "outputs": [],
      "stateMutability": "nonpayable",
      "type": "function"
    },
    {
      "inputs": [],
      "name": "weth",
      "outputs": [
        {
          "internalType": "contract IWETH",
          "name": "",
          "type": "address"
        }
      ],
      "stateMutability": "view",
      "type": "function"
    },
    {
      "inputs": [
        {
          "internalType": "uint32",
          "name": "policyId",
          "type": "uint32"
        },
        {
          "internalType": "address",
          "name": "asset",
          "type": "address"
        },
        {
          "internalType": "uint256",
          "name": "amount",
          "type": "uint256"
        }
      ],
      "name": "withdrawFromAavePool",
      "outputs": [],
      "stateMutability": "nonpayable",
      "type": "function"
    },
    {
      "inputs": [
        {
          "internalType": "uint256",
          "name": "amount",
          "type": "uint256"
        }
      ],
      "name": "withdrawWethAsEth",
      "outputs": [],
      "stateMutability": "nonpayable",
      "type": "function"
    }
  ],
  "bytecode": "0x60806040526001601460006101000a81548163ffffffff021916908363ffffffff1602179055503480156200003357600080fd5b50604051620060bf380380620060bf8339818101604052810190620000599190620003dd565b81600073ffffffffffffffffffffffffffffffffffffffff168173ffffffffffffffffffffffffffffffffffffffff1603620000cf5760006040517f1e4fbdf7000000000000000000000000000000000000000000000000000000008152600401620000c6919062000435565b60405180910390fd5b620000e081620002af60201b60201c565b506001808190555080601460046101000a81548173ffffffffffffffffffffffffffffffffffffffff021916908373ffffffffffffffffffffffffffffffffffffffff160217905550601460049054906101000a900473ffffffffffffffffffffffffffffffffffffffff1673ffffffffffffffffffffffffffffffffffffffff1663026b1d5f6040518163ffffffff1660e01b8152600401602060405180830381865afa15801562000197573d6000803e3d6000fd5b505050506040513d601f19601f82011682018060405250810190620001bd919062000452565b601560006101000a81548173ffffffffffffffffffffffffffffffffffffffff021916908373ffffffffffffffffffffffffffffffffffffffff16021790555073c02aaa39b223fe8d0a0e5c4f27ead9083c756cc2600260006101000a81548173ffffffffffffffffffffffffffffffffffffffff021916908373ffffffffffffffffffffffffffffffffffffffff160217905550734d5f47fa6a74757f35c14fd3a6ef8e3c9bc514e8600360006101000a81548173ffffffffffffffffffffffffffffffffffffffff021916908373ffffffffffffffffffffffffffffffffffffffff160217905550505062000484565b60008060009054906101000a900473ffffffffffffffffffffffffffffffffffffffff169050816000806101000a81548173ffffffffffffffffffffffffffffffffffffffff021916908373ffffffffffffffffffffffffffffffffffffffff1602179055508173ffffffffffffffffffffffffffffffffffffffff168173ffffffffffffffffffffffffffffffffffffffff167f8be0079c531659141344cd1fd0a4f28419497f9722a3daafe3b4186f6b6457e060405160405180910390a35050565b600080fd5b600073ffffffffffffffffffffffffffffffffffffffff82169050919050565b6000620003a58262000378565b9050919050565b620003b78162000398565b8114620003c357600080fd5b50565b600081519050620003d781620003ac565b92915050565b60008060408385031215620003f757620003f662000373565b5b60006200040785828601620003c6565b92505060206200041a85828601620003c6565b9150509250929050565b6200042f8162000398565b82525050565b60006020820190506200044c600083018462000424565b92915050565b6000602082840312156200046b576200046a62000373565b5b60006200047b84828501620003c6565b91505092915050565b615c2b80620004946000396000f3fe6080604052600436106102ae5760003560e01c806366f79e7611610175578063b92b2dc7116100dc578063e20600d911610095578063ee43ff941161006f578063ee43ff9414610bd1578063f2fde38b14610bfa578063f352ac9414610c23578063f720b55814610c60576102ae565b8063e20600d914610b1a578063ec2e866f14610b57578063ee259d9c14610b94576102ae565b8063b92b2dc7146109e4578063bb0ab3cd14610a0d578063cad0b8db14610a38578063d2a1d33914610a63578063d995a25f14610aa0578063daa984fe14610add576102ae565b80639949f0c81161012e5780639949f0c8146108f25780639b592232146108fc578063a1ed5ec914610925578063a325694f14610962578063a5e2f5cf1461097e578063b5bd6c05146109bb576102ae565b806366f79e76146107d0578063709d8a08146107f9578063715018a61461083657806387095de91461084d5780638da5cb5b1461088a5780638f7c0c76146108b5576102ae565b80633a7e870d116102195780635afa553a116101d25780635afa553a146106955780635bb67c67146106d25780635cd9ce3e1461070f5780635e19b3051461073a5780635f6d607d146107775780636562f86f146107b4576102ae565b80633a7e870d1461054d5780633fc8cef31461058a5780634153cd3a146105b5578063444d7680146105de57806344a045951461061b5780634eecc90914610658576102ae565b806327b05d871161026b57806327b05d87146103f257806328ab58fb1461042f5780632ac887e71461046c5780632d68fd36146104aa5780633292cfc7146104e75780633489646914610524576102ae565b8063040141e5146102b35780630dbadfb8146102de5780630dce26511461031b578063159117ee14610358578063160f71c1146103815780631e7192ae146103aa575b600080fd5b3480156102bf57600080fd5b506102c8610c9d565b6040516102d591906148cd565b60405180910390f35b3480156102ea57600080fd5b506103056004803603810190610300919061495f565b610cb5565b60405161031291906149ae565b60405180910390f35b34801561032757600080fd5b50610342600480360381019061033d91906149f5565b610d73565b60405161034f91906149ae565b60405180910390f35b34801561036457600080fd5b5061037f600480360381019061037a919061495f565b611199565b005b34801561038d57600080fd5b506103a860048036038101906103a39190614a35565b611549565b005b3480156103b657600080fd5b506103d160048036038101906103cc9190614a35565b611d82565b6040516103e99c9b9a99989796959493929190614a8c565b60405180910390f35b3480156103fe57600080fd5b50610419600480360381019061041491906149f5565b611e5f565b60405161042691906149ae565b60405180910390f35b34801561043b57600080fd5b50610456600480360381019061045191906149f5565b611e84565b60405161046391906149ae565b60405180910390f35b34801561047857600080fd5b50610493600480360381019061048e919061495f565b611ea9565b6040516104a1929190614b46565b60405180910390f35b3480156104b657600080fd5b506104d160048036038101906104cc91906149f5565b611f87565b6040516104de91906149ae565b60405180910390f35b3480156104f357600080fd5b5061050e600480360381019061050991906149f5565b611fac565b60405161051b9190614b6f565b60405180910390f35b34801561053057600080fd5b5061054b6004803603810190610546919061495f565b611fde565b005b34801561055957600080fd5b50610574600480360381019061056f91906149f5565b6122ce565b60405161058191906149ae565b60405180910390f35b34801561059657600080fd5b5061059f6122f3565b6040516105ac9190614be9565b60405180910390f35b3480156105c157600080fd5b506105dc60048036038101906105d79190614c04565b612319565b005b3480156105ea57600080fd5b5061060560048036038101906106009190614a35565b612477565b60405161061291906149ae565b60405180910390f35b34801561062757600080fd5b50610642600480360381019061063d9190614c91565b6125c8565b60405161064f91906149ae565b60405180910390f35b34801561066457600080fd5b5061067f600480360381019061067a91906149f5565b612622565b60405161068c91906149ae565b60405180910390f35b3480156106a157600080fd5b506106bc60048036038101906106b7919061495f565b612647565b6040516106c991906148cd565b60405180910390f35b3480156106de57600080fd5b506106f960048036038101906106f491906149f5565b612695565b60405161070691906149ae565b60405180910390f35b34801561071b57600080fd5b50610724612a11565b6040516107319190614d05565b60405180910390f35b34801561074657600080fd5b50610761600480360381019061075c9190614a35565b612a37565b60405161076e9190614d20565b60405180910390f35b34801561078357600080fd5b5061079e600480360381019061079991906149f5565b612a70565b6040516107ab91906149ae565b60405180910390f35b6107ce60048036038101906107c9919061495f565b612a95565b005b3480156107dc57600080fd5b506107f760048036038101906107f29190614d3b565b613025565b005b34801561080557600080fd5b50610820600480360381019061081b9190614a35565b6132dd565b60405161082d91906149ae565b60405180910390f35b34801561084257600080fd5b5061084b6132f5565b005b34801561085957600080fd5b50610874600480360381019061086f91906149f5565b613309565b60405161088191906149ae565b60405180910390f35b34801561089657600080fd5b5061089f61332e565b6040516108ac91906148cd565b60405180910390f35b3480156108c157600080fd5b506108dc60048036038101906108d79190614a35565b613357565b6040516108e991906149ae565b60405180910390f35b6108fa61336f565b005b34801561090857600080fd5b50610923600480360381019061091e9190614e05565b613437565b005b34801561093157600080fd5b5061094c60048036038101906109479190614c91565b6134c7565b60405161095991906149ae565b60405180910390f35b61097c60048036038101906109779190614e32565b613613565b005b34801561098a57600080fd5b506109a560048036038101906109a09190614a35565b613c09565b6040516109b29190614f81565b60405180910390f35b3480156109c757600080fd5b506109e260048036038101906109dd9190614a35565b613e6a565b005b3480156109f057600080fd5b50610a0b6004803603810190610a069190614fa3565b613ee7565b005b348015610a1957600080fd5b50610a22613f33565b604051610a2f91906148cd565b60405180910390f35b348015610a4457600080fd5b50610a4d613f4b565b604051610a5a9190614b6f565b60405180910390f35b348015610a6f57600080fd5b50610a8a6004803603810190610a859190614a35565b613f61565b604051610a9791906149ae565b60405180910390f35b348015610aac57600080fd5b50610ac76004803603810190610ac2919061495f565b613fc6565b604051610ad491906149ae565b60405180910390f35b348015610ae957600080fd5b50610b046004803603810190610aff9190614e32565b6140b1565b604051610b1191906149ae565b60405180910390f35b348015610b2657600080fd5b50610b416004803603810190610b3c9190614a35565b614191565b604051610b4e91906149ae565b60405180910390f35b348015610b6357600080fd5b50610b7e6004803603810190610b7991906149f5565b6141a9565b604051610b8b9190614d20565b60405180910390f35b348015610ba057600080fd5b50610bbb6004803603810190610bb69190614c91565b61421d565b604051610bc891906149ae565b60405180910390f35b348015610bdd57600080fd5b50610bf86004803603810190610bf39190614c91565b614493565b005b348015610c0657600080fd5b50610c216004803603810190610c1c9190614fa3565b6145ed565b005b348015610c2f57600080fd5b50610c4a6004803603810190610c4591906149f5565b614673565b604051610c579190614d20565b60405180910390f35b348015610c6c57600080fd5b50610c876004803603810190610c829190614a35565b6146a2565b604051610c9491906149ae565b60405180910390f35b73c02aaa39b223fe8d0a0e5c4f27ead9083c756cc281565b600080600560008563ffffffff1663ffffffff16815260200190815260200160002060000154905080831180610ceb5750600083145b15610cfa576000915050610d6d565b600081606485610d0a9190614fff565b610d149190615070565b9050600a811015610d2a57600192505050610d6d565b6032811015610d3e57600292505050610d6d565b6032811015610d5257600292505050610d6d565b604b811015610d6657600392505050610d6d565b6003925050505b92915050565b6000610d7f83336141a9565b610dbe576040517f08c379a0000000000000000000000000000000000000000000000000000000008152600401610db5906150fe565b60405180910390fd5b600560008463ffffffff1663ffffffff16815260200190815260200160002060040160049054906101000a900460ff16610e2d576040517f08c379a0000000000000000000000000000000000000000000000000000000008152600401610e249061516a565b60405180910390fd5b6000601260008563ffffffff1663ffffffff16815260200190815260200160002060008473ffffffffffffffffffffffffffffffffffffffff1673ffffffffffffffffffffffffffffffffffffffff1681526020019081526020016000205411610ecc576040517f08c379a0000000000000000000000000000000000000000000000000000000008152600401610ec3906151d6565b60405180910390fd5b6000601260008563ffffffff1663ffffffff16815260200190815260200160002060008473ffffffffffffffffffffffffffffffffffffffff1673ffffffffffffffffffffffffffffffffffffffff1681526020019081526020016000205442610f3691906151f6565b905060006018603c8084610f4a9190615070565b610f549190615070565b610f5e9190615070565b90506000601e600560008863ffffffff1663ffffffff16815260200190815260200160002060030154610f919190615070565b905060008183610fa19190614fff565b90506000600560008963ffffffff1663ffffffff1681526020019081526020016000206003015490508181610fd6919061522a565b90506000601e85610fe79190615070565b9050600560008a63ffffffff1663ffffffff16815260200190815260200160002060040160099054906101000a900463ffffffff1663ffffffff168111156110e1576000600560008b63ffffffff1663ffffffff16815260200190815260200160002060040160059054906101000a900463ffffffff1663ffffffff1690506000600560008c63ffffffff1663ffffffff16815260200190815260200160002060040160099054906101000a900463ffffffff1663ffffffff16836110ac91906151f6565b905060648183866110bd9190614fff565b6110c79190614fff565b6110d19190615070565b846110dc919061522a565b935050505b6000600560008b63ffffffff1663ffffffff16815260200190815260200160002060010154600e60008c63ffffffff1663ffffffff16815260200190815260200160002060008b73ffffffffffffffffffffffffffffffffffffffff1673ffffffffffffffffffffffffffffffffffffffff1681526020019081526020016000205461116d91906151f6565b905082811161118757808361118291906151f6565b61118a565b60005b97505050505050505092915050565b81600560008263ffffffff1663ffffffff16815260200190815260200160002060060160009054906101000a900473ffffffffffffffffffffffffffffffffffffffff1673ffffffffffffffffffffffffffffffffffffffff163373ffffffffffffffffffffffffffffffffffffffff161461124a576040517f08c379a0000000000000000000000000000000000000000000000000000000008152600401611241906152aa565b60405180910390fd5b8173c02aaa39b223fe8d0a0e5c4f27ead9083c756cc273ffffffffffffffffffffffffffffffffffffffff166370a08231306040518263ffffffff1660e01b815260040161129891906148cd565b602060405180830381865afa1580156112b5573d6000803e3d6000fd5b505050506040513d601f19601f820116820180604052508101906112d991906152df565b101561131a576040517f08c379a000000000000000000000000000000000000000000000000000000000815260040161131190615358565b60405180910390fd5b81600760008563ffffffff1663ffffffff168152602001908152602001600020541161137b576040517f08c379a0000000000000000000000000000000000000000000000000000000008152600401611372906153c4565b60405180910390fd5b73c02aaa39b223fe8d0a0e5c4f27ead9083c756cc273ffffffffffffffffffffffffffffffffffffffff1663095ea7b3601560009054906101000a900473ffffffffffffffffffffffffffffffffffffffff16846040518363ffffffff1660e01b81526004016113ec9291906153e4565b6020604051808303816000875af115801561140b573d6000803e3d6000fd5b505050506040513d601f19601f8201168201806040525081019061142f9190615439565b50601560009054906101000a900473ffffffffffffffffffffffffffffffffffffffff1673ffffffffffffffffffffffffffffffffffffffff1663e8eda9df73c02aaa39b223fe8d0a0e5c4f27ead9083c756cc2843360006040518563ffffffff1660e01b81526004016114a694939291906154af565b600060405180830381600087803b1580156114c057600080fd5b505af11580156114d4573d6000803e3d6000fd5b5050505081600760008563ffffffff1663ffffffff168152602001908152602001600020600082825461150791906151f6565b9250508190555081600860008563ffffffff1663ffffffff168152602001908152602001600020600082825461153d919061522a565b92505081905550505050565b61155381336141a9565b15611593576040517f08c379a000000000000000000000000000000000000000000000000000000000815260040161158a90615566565b60405180910390fd5b600560008263ffffffff1663ffffffff16815260200190815260200160002060040160049054906101000a900460ff16611602576040517f08c379a00000000000000000000000000000000000000000000000000000000081526004016115f9906155d2565b60405180910390fd5b600560008263ffffffff1663ffffffff16815260200190815260200160002060010154600260009054906101000a900473ffffffffffffffffffffffffffffffffffffffff1673ffffffffffffffffffffffffffffffffffffffff166370a08231336040518263ffffffff1660e01b815260040161168091906148cd565b602060405180830381865afa15801561169d573d6000803e3d6000fd5b505050506040513d601f19601f820116820180604052508101906116c191906152df565b11611701576040517f08c379a00000000000000000000000000000000000000000000000000000000081526004016116f89061563e565b60405180910390fd5b600260009054906101000a900473ffffffffffffffffffffffffffffffffffffffff1673ffffffffffffffffffffffffffffffffffffffff166323b872dd3330600560008663ffffffff1663ffffffff168152602001908152602001600020600101546040518463ffffffff1660e01b81526004016117829392919061565e565b6020604051808303816000875af11580156117a1573d6000803e3d6000fd5b505050506040513d601f19601f820116820180604052508101906117c59190615439565b611804576040517f08c379a00000000000000000000000000000000000000000000000000000000081526004016117fb906156e1565b60405180910390fd5b600560008263ffffffff1663ffffffff16815260200190815260200160002060010154600e60008363ffffffff1663ffffffff16815260200190815260200160002060003373ffffffffffffffffffffffffffffffffffffffff1673ffffffffffffffffffffffffffffffffffffffff1681526020019081526020016000206000828254611892919061522a565b925050819055506001600c60008363ffffffff1663ffffffff16815260200190815260200160002060003373ffffffffffffffffffffffffffffffffffffffff1673ffffffffffffffffffffffffffffffffffffffff16815260200190815260200160002060006101000a81548160ff021916908315150217905550600d60008263ffffffff1663ffffffff168152602001908152602001600020339080600181540180825580915050600190039060005260206000200160009091909190916101000a81548173ffffffffffffffffffffffffffffffffffffffff021916908373ffffffffffffffffffffffffffffffffffffffff16021790555042601260008363ffffffff1663ffffffff16815260200190815260200160002060003373ffffffffffffffffffffffffffffffffffffffff1673ffffffffffffffffffffffffffffffffffffffff168152602001908152602001600020819055506064600560008363ffffffff1663ffffffff168152602001908152602001600020600401600d9054906101000a900463ffffffff1663ffffffff16600560008463ffffffff1663ffffffff16815260200190815260200160002060010154611a579190614fff565b611a619190615070565b600660008363ffffffff1663ffffffff1681526020019081526020016000206000828254611a8f919061522a565b925050819055506064600560008363ffffffff1663ffffffff16815260200190815260200160002060040160119054906101000a900463ffffffff1663ffffffff16600560008463ffffffff1663ffffffff16815260200190815260200160002060010154611afe9190614fff565b611b089190615070565b600760008363ffffffff1663ffffffff1681526020019081526020016000206000828254611b36919061522a565b925050819055506064600560008363ffffffff1663ffffffff168152602001908152602001600020600401600d9054906101000a900463ffffffff1663ffffffff16600560008463ffffffff1663ffffffff16815260200190815260200160002060010154611ba59190614fff565b611baf9190615070565b600f60008363ffffffff1663ffffffff16815260200190815260200160002060003373ffffffffffffffffffffffffffffffffffffffff1673ffffffffffffffffffffffffffffffffffffffff1681526020019081526020016000206000828254611c1a919061522a565b925050819055506064600560008363ffffffff1663ffffffff16815260200190815260200160002060040160119054906101000a900463ffffffff1663ffffffff16600560008463ffffffff1663ffffffff16815260200190815260200160002060010154611c899190614fff565b611c939190615070565b601060008363ffffffff1663ffffffff16815260200190815260200160002060003373ffffffffffffffffffffffffffffffffffffffff1673ffffffffffffffffffffffffffffffffffffffff1681526020019081526020016000206000828254611cfe919061522a565b925050819055503373ffffffffffffffffffffffffffffffffffffffff168163ffffffff167fcb56b790741c56fe9689db9a11c7acfbbe5aa3e1eafa48a4eedb496986881437600560008563ffffffff1663ffffffff168152602001908152602001600020600101546001604051611d77929190615701565b60405180910390a350565b60056020528060005260406000206000915090508060000154908060010154908060020154908060030154908060040160009054906101000a900463ffffffff16908060040160049054906101000a900460ff16908060040160059054906101000a900463ffffffff16908060040160099054906101000a900463ffffffff169080600401600d9054906101000a900463ffffffff16908060040160119054906101000a900463ffffffff16908060050154908060060160009054906101000a900473ffffffffffffffffffffffffffffffffffffffff1690508c565b600b602052816000526040600020602052806000526040600020600091509150505481565b6012602052816000526040600020602052806000526040600020600091509150505481565b6000806000600560008663ffffffff1663ffffffff168152602001908152602001600020905060006064600560008863ffffffff1663ffffffff168152602001908152602001600020600401600d9054906101000a900463ffffffff1663ffffffff1686611f179190614fff565b611f219190615070565b905060006064600560008963ffffffff1663ffffffff16815260200190815260200160002060040160119054906101000a900463ffffffff1663ffffffff1687611f6b9190614fff565b611f759190615070565b90508181945094505050509250929050565b600e602052816000526040600020602052806000526040600020600091509150505481565b60116020528160005260406000206020528060005260406000206000915091509054906101000a900463ffffffff1681565b611fe66146ba565b600560008363ffffffff1663ffffffff16815260200190815260200160002060040160049054906101000a900460ff16612055576040517f08c379a000000000000000000000000000000000000000000000000000000000815260040161204c906155d2565b60405180910390fd5b600c60008363ffffffff1663ffffffff16815260200190815260200160002060003373ffffffffffffffffffffffffffffffffffffffff1673ffffffffffffffffffffffffffffffffffffffff16815260200190815260200160002060009054906101000a900460ff166120fe576040517f08c379a00000000000000000000000000000000000000000000000000000000081526004016120f590615776565b60405180910390fd5b600660008363ffffffff1663ffffffff16815260200190815260200160002054811115612160576040517f08c379a0000000000000000000000000000000000000000000000000000000008152600401612157906157e2565b60405180910390fd5b61216a8233612695565b8111156121ac576040517f08c379a00000000000000000000000000000000000000000000000000000000081526004016121a3906157e2565b60405180910390fd5b60006121b88333612695565b82116121c457816121cf565b6121ce8333612695565b5b905080600660008563ffffffff1663ffffffff168152602001908152602001600020600082825461220091906151f6565b9250508190555080601360008563ffffffff1663ffffffff16815260200190815260200160002060003373ffffffffffffffffffffffffffffffffffffffff1673ffffffffffffffffffffffffffffffffffffffff1681526020019081526020016000206000828254612273919061522a565b925050819055503373ffffffffffffffffffffffffffffffffffffffff166108fc829081150290604051600060405180830381858888f193505050501580156122c0573d6000803e3d6000fd5b50506122ca614700565b5050565b600a602052816000526040600020602052806000526040600020600091509150505481565b600260009054906101000a900473ffffffffffffffffffffffffffffffffffffffff1681565b612321614709565b84600560008863ffffffff1663ffffffff1681526020019081526020016000206000018190555083600560008863ffffffff1663ffffffff1681526020019081526020016000206001018190555082600560008863ffffffff1663ffffffff16815260200190815260200160002060040160006101000a81548163ffffffff021916908363ffffffff16021790555080600560008863ffffffff1663ffffffff16815260200190815260200160002060040160056101000a81548163ffffffff021916908363ffffffff16021790555081600560008863ffffffff1663ffffffff16815260200190815260200160002060040160096101000a81548163ffffffff021916908363ffffffff1602179055507fbe829975d2c0d9995edbd0abc0cbd073add0fde193595b70af3c8e9094c00ac8868686866040516124679493929190615802565b60405180910390a1505050505050565b600080600360009054906101000a900473ffffffffffffffffffffffffffffffffffffffff1673ffffffffffffffffffffffffffffffffffffffff166370a08231600560008663ffffffff1663ffffffff16815260200190815260200160002060060160009054906101000a900473ffffffffffffffffffffffffffffffffffffffff166040518263ffffffff1660e01b815260040161251791906148cd565b602060405180830381865afa158015612534573d6000803e3d6000fd5b505050506040513d601f19601f8201168201806040525081019061255891906152df565b90506000600860008563ffffffff1663ffffffff168152602001908152602001600020548261258791906151f6565b10156125945760006125c0565b600860008463ffffffff1663ffffffff16815260200190815260200160002054816125bf91906151f6565b5b915050919050565b6000600560008563ffffffff1663ffffffff1681526020019081526020016000206001015482116125fc576000905061261b565b600061260985858561421d565b836126149190614fff565b9050809150505b9392505050565b600f602052816000526040600020602052806000526040600020600091509150505481565b600d602052816000526040600020818154811061266357600080fd5b906000526020600020016000915091509054906101000a900473ffffffffffffffffffffffffffffffffffffffff1681565b6000600560008463ffffffff1663ffffffff16815260200190815260200160002060040160049054906101000a900460ff16612706576040517f08c379a00000000000000000000000000000000000000000000000000000000081526004016126fd906155d2565b60405180910390fd5b600061271184613f61565b90506064600560008663ffffffff1663ffffffff168152602001908152602001600020600401600d9054906101000a900463ffffffff1663ffffffff16600560008763ffffffff1663ffffffff1681526020019081526020016000206001015461277b9190614fff565b6127859190615070565b600f60008663ffffffff1663ffffffff16815260200190815260200160002060008573ffffffffffffffffffffffffffffffffffffffff1673ffffffffffffffffffffffffffffffffffffffff16815260200190815260200160002054036127f05780915050612a0b565b60006128d585856064600560008a63ffffffff1663ffffffff168152602001908152602001600020600401600d9054906101000a900463ffffffff1663ffffffff16600560008b63ffffffff1663ffffffff1681526020019081526020016000206001015461285f9190614fff565b6128699190615070565b600f60008a63ffffffff1663ffffffff16815260200190815260200160002060008973ffffffffffffffffffffffffffffffffffffffff1673ffffffffffffffffffffffffffffffffffffffff168152602001908152602001600020546128d091906151f6565b6125c8565b9050600081836128e5919061522a565b905080601360008863ffffffff1663ffffffff16815260200190815260200160002060008773ffffffffffffffffffffffffffffffffffffffff1673ffffffffffffffffffffffffffffffffffffffff1681526020019081526020016000205411156129575760009350505050612a0b565b6000601360008863ffffffff1663ffffffff16815260200190815260200160002060008773ffffffffffffffffffffffffffffffffffffffff1673ffffffffffffffffffffffffffffffffffffffff16815260200190815260200160002054826129c191906151f6565b905060006002600560008a63ffffffff1663ffffffff168152602001908152602001600020600001546129f49190614fff565b905080821115612a02578091505b81955050505050505b92915050565b600360009054906101000a900473ffffffffffffffffffffffffffffffffffffffff1681565b6000600560008363ffffffff1663ffffffff16815260200190815260200160002060040160049054906101000a900460ff169050919050565b6010602052816000526040600020602052806000526040600020600091509150505481565b612a9f82336141a9565b612ade576040517f08c379a0000000000000000000000000000000000000000000000000000000008152600401612ad590615776565b60405180910390fd5b600560008363ffffffff1663ffffffff16815260200190815260200160002060040160049054906101000a900460ff16612b4d576040517f08c379a0000000000000000000000000000000000000000000000000000000008152600401612b44906155d2565b60405180910390fd5b600560008363ffffffff1663ffffffff16815260200190815260200160002060000154612b7a8333612695565b10612bba576040517f08c379a0000000000000000000000000000000000000000000000000000000008152600401612bb1906158b9565b60405180910390fd5b612bc48233610d73565b811015612c06576040517f08c379a0000000000000000000000000000000000000000000000000000000008152600401612bfd9061594b565b60405180910390fd5b600260009054906101000a900473ffffffffffffffffffffffffffffffffffffffff1673ffffffffffffffffffffffffffffffffffffffff166323b872dd3330846040518463ffffffff1660e01b8152600401612c659392919061565e565b6020604051808303816000875af1158015612c84573d6000803e3d6000fd5b505050506040513d601f19601f82011682018060405250810190612ca89190615439565b612ce7576040517f08c379a0000000000000000000000000000000000000000000000000000000008152600401612cde906156e1565b60405180910390fd5b6000612cf38333612695565b90506000600560008563ffffffff1663ffffffff1681526020019081526020016000206000015490506000828211612d2c576000612d39565b8282612d3891906151f6565b5b90506000806064600560008963ffffffff1663ffffffff168152602001908152602001600020600401600d9054906101000a900463ffffffff1663ffffffff1687612d849190614fff565b612d8e9190615070565b91508186612d9c91906151f6565b905081600660008963ffffffff1663ffffffff1681526020019081526020016000206000828254612dcd919061522a565b9250508190555080600760008963ffffffff1663ffffffff1681526020019081526020016000206000828254612e03919061522a565b9250508190555085600e60008963ffffffff1663ffffffff16815260200190815260200160002060003373ffffffffffffffffffffffffffffffffffffffff1673ffffffffffffffffffffffffffffffffffffffff1681526020019081526020016000206000828254612e76919061522a565b9250508190555081600f60008963ffffffff1663ffffffff16815260200190815260200160002060003373ffffffffffffffffffffffffffffffffffffffff1673ffffffffffffffffffffffffffffffffffffffff1681526020019081526020016000206000828254612ee9919061522a565b9250508190555080601060008963ffffffff1663ffffffff16815260200190815260200160002060003373ffffffffffffffffffffffffffffffffffffffff1673ffffffffffffffffffffffffffffffffffffffff1681526020019081526020016000206000828254612f5c919061522a565b9250508190555042601260008963ffffffff1663ffffffff16815260200190815260200160002060003373ffffffffffffffffffffffffffffffffffffffff1673ffffffffffffffffffffffffffffffffffffffff168152602001908152602001600020819055503373ffffffffffffffffffffffffffffffffffffffff168763ffffffff167fcb56b790741c56fe9689db9a11c7acfbbe5aa3e1eafa48a4eedb496986881437886000604051613014929190615701565b60405180910390a350505050505050565b6040518061018001604052808a81526020018981526020018881526020018781526020018663ffffffff1681526020016001151581526020018563ffffffff1681526020018463ffffffff1681526020018363ffffffff1681526020018263ffffffff1681526020014281526020013373ffffffffffffffffffffffffffffffffffffffff1681525060056000601460009054906101000a900463ffffffff1663ffffffff1663ffffffff1681526020019081526020016000206000820151816000015560208201518160010155604082015181600201556060820151816003015560808201518160040160006101000a81548163ffffffff021916908363ffffffff16021790555060a08201518160040160046101000a81548160ff02191690831515021790555060c08201518160040160056101000a81548163ffffffff021916908363ffffffff16021790555060e08201518160040160096101000a81548163ffffffff021916908363ffffffff16021790555061010082015181600401600d6101000a81548163ffffffff021916908363ffffffff1602179055506101208201518160040160116101000a81548163ffffffff021916908363ffffffff16021790555061014082015181600501556101608201518160060160006101000a81548173ffffffffffffffffffffffffffffffffffffffff021916908373ffffffffffffffffffffffffffffffffffffffff1602179055509050507f19bb034335e290edb4dfdd4b94706d99fb766d7512bd8836347f261943bd98e2601460009054906101000a900463ffffffff168a8a886040516132899493929190615802565b60405180910390a16014600081819054906101000a900463ffffffff16809291906132b39061596b565b91906101000a81548163ffffffff021916908363ffffffff16021790555050505050505050505050565b60066020528060005260406000206000915090505481565b6132fd614709565b6133076000614790565b565b6013602052816000526040600020602052806000526040600020600091509150505481565b60008060009054906101000a900473ffffffffffffffffffffffffffffffffffffffff16905090565b60096020528060005260406000206000915090505481565b600034116133b2576040517f08c379a00000000000000000000000000000000000000000000000000000000081526004016133a9906159e3565b60405180910390fd5b600260009054906101000a900473ffffffffffffffffffffffffffffffffffffffff1673ffffffffffffffffffffffffffffffffffffffff1663d0e30db0346040518263ffffffff1660e01b81526004016000604051808303818588803b15801561341c57600080fd5b505af1158015613430573d6000803e3d6000fd5b5050505050565b600260009054906101000a900473ffffffffffffffffffffffffffffffffffffffff1673ffffffffffffffffffffffffffffffffffffffff16632e1a7d4d826040518263ffffffff1660e01b815260040161349291906149ae565b600060405180830381600087803b1580156134ac57600080fd5b505af11580156134c0573d6000803e3d6000fd5b5050505050565b6000600560008563ffffffff1663ffffffff16815260200190815260200160002060040160049054906101000a900460ff16613538576040517f08c379a000000000000000000000000000000000000000000000000000000000815260040161352f906155d2565b60405180910390fd5b60006135448585612695565b905060006002600560008863ffffffff1663ffffffff168152602001908152602001600020600001546135779190614fff565b905080821061358a57809250505061360c565b60006135e687876064600560008c63ffffffff1663ffffffff168152602001908152602001600020600401600d9054906101000a900463ffffffff1663ffffffff16896135d79190614fff565b6135e19190615070565b6125c8565b9050600081846135f6919061522a565b905082811115613604578290505b809450505050505b9392505050565b61361d83336141a9565b61365c576040517f08c379a000000000000000000000000000000000000000000000000000000000815260040161365390615776565b60405180910390fd5b600560008463ffffffff1663ffffffff16815260200190815260200160002060040160049054906101000a900460ff166136cb576040517f08c379a00000000000000000000000000000000000000000000000000000000081526004016136c2906155d2565b60405180910390fd5b606482111561370f576040517f08c379a000000000000000000000000000000000000000000000000000000000815260040161370690615a4f565b60405180910390fd5b600560008463ffffffff1663ffffffff1681526020019081526020016000206000015461373c8433612695565b101561377d576040517f08c379a000000000000000000000000000000000000000000000000000000000815260040161377490615abb565b60405180910390fd5b600260009054906101000a900473ffffffffffffffffffffffffffffffffffffffff1673ffffffffffffffffffffffffffffffffffffffff166323b872dd3330846040518463ffffffff1660e01b81526004016137dc9392919061565e565b6020604051808303816000875af11580156137fb573d6000803e3d6000fd5b505050506040513d601f19601f8201168201806040525081019061381f9190615439565b61385e576040517f08c379a0000000000000000000000000000000000000000000000000000000008152600401613855906156e1565b60405180910390fd5b6138688333610d73565b8110156138aa576040517f08c379a00000000000000000000000000000000000000000000000000000000081526004016138a19061594b565b60405180910390fd5b60006002600560008663ffffffff1663ffffffff168152602001908152602001600020600001546138db9190614fff565b6138e58533612695565b106138f05781613909565b606483836138fe9190614fff565b6139089190615070565b5b905060006002600560008763ffffffff1663ffffffff1681526020019081526020016000206000015461393c9190614fff565b6139468633612695565b1061395257600061395f565b818361395e91906151f6565b5b905082821161396e5781613970565b825b915082811161397f5780613982565b60005b905080600660008763ffffffff1663ffffffff16815260200190815260200160002060008282546139b3919061522a565b9250508190555080600f60008763ffffffff1663ffffffff16815260200190815260200160002060003373ffffffffffffffffffffffffffffffffffffffff1673ffffffffffffffffffffffffffffffffffffffff1681526020019081526020016000206000828254613a26919061522a565b9250508190555081600760008763ffffffff1663ffffffff1681526020019081526020016000206000828254613a5c919061522a565b9250508190555081601060008763ffffffff1663ffffffff16815260200190815260200160002060003373ffffffffffffffffffffffffffffffffffffffff1673ffffffffffffffffffffffffffffffffffffffff1681526020019081526020016000206000828254613acf919061522a565b9250508190555042601260008763ffffffff1663ffffffff16815260200190815260200160002060003373ffffffffffffffffffffffffffffffffffffffff1673ffffffffffffffffffffffffffffffffffffffff1681526020019081526020016000208190555082600e60008763ffffffff1663ffffffff16815260200190815260200160002060003373ffffffffffffffffffffffffffffffffffffffff1673ffffffffffffffffffffffffffffffffffffffff1681526020019081526020016000206000828254613ba3919061522a565b925050819055503373ffffffffffffffffffffffffffffffffffffffff168563ffffffff167fcb56b790741c56fe9689db9a11c7acfbbe5aa3e1eafa48a4eedb496986881437856000604051613bfa929190615701565b60405180910390a35050505050565b60606000600760008463ffffffff1663ffffffff1681526020019081526020016000205490506000613c3a84612477565b905060606000831115613e5f57600d60008663ffffffff1663ffffffff1681526020019081526020016000208054905067ffffffffffffffff811115613c8357613c82615adb565b5b604051908082528060200260200182016040528015613cbc57816020015b613ca961485c565b815260200190600190039081613ca15790505b50905060005b600d60008763ffffffff1663ffffffff16815260200190815260200160002080549050811015613e5d576000600d60008863ffffffff1663ffffffff1681526020019081526020016000208281548110613d1f57613d1e615b0a565b5b9060005260206000200160009054906101000a900473ffffffffffffffffffffffffffffffffffffffff1690506000601060008963ffffffff1663ffffffff16815260200190815260200160002060008373ffffffffffffffffffffffffffffffffffffffff1673ffffffffffffffffffffffffffffffffffffffff1681526020019081526020016000205490506000811115613e4857600086670de0b6b3a764000083613dcd9190614fff565b613dd79190615070565b90506000670de0b6b3a76400008783613df09190614fff565b613dfa9190615070565b905060405180604001604052808573ffffffffffffffffffffffffffffffffffffffff16815260200182815250868681518110613e3a57613e39615b0a565b5b602002602001018190525050505b50508080613e5590615b39565b915050613cc2565b505b809350505050919050565b613e72614709565b6000600560008363ffffffff1663ffffffff16815260200190815260200160002060040160046101000a81548160ff0219169083151502179055507fc5dfab0962c70e9a4416c78094b25bf915c7d3198f89974c6ddc52306e4df42481604051613edc9190614b6f565b60405180910390a150565b613eef614709565b80600460006101000a81548173ffffffffffffffffffffffffffffffffffffffff021916908373ffffffffffffffffffffffffffffffffffffffff16021790555050565b734d5f47fa6a74757f35c14fd3a6ef8e3c9bc514e881565b601460009054906101000a900463ffffffff1681565b60006064600560008463ffffffff1663ffffffff16815260200190815260200160002060020154600560008563ffffffff1663ffffffff16815260200190815260200160002060000154613fb59190614fff565b613fbf9190615070565b9050919050565b600080600560008563ffffffff1663ffffffff1681526020019081526020016000209050600062278d008260040160099054906101000a900463ffffffff1661400f9190615b81565b63ffffffff1690506000816005866140279190614fff565b6140319190615070565b9050600181101561404f57670de0b6b3a764000093505050506140ab565b600281101561406b57670b1a2bc2ec50000093505050506140ab565b600381101561408757670853a0d2313c000093505050506140ab565b60048110156140a35767058d15e17628000093505050506140ab565b600093505050505b92915050565b600080600560008663ffffffff1663ffffffff168152602001908152602001600020600001549050808411806140e75750600084145b156140f657600091505061418a565b6000816064866141069190614fff565b6141109190615070565b90506000600a8210156141265760019050614164565b60198210156141385760029050614163565b603282101561414a5760039050614162565b604b82101561415c5760049050614161565b600590505b5b5b5b600081876141729190614fff565b90508581116141815780614183565b855b9450505050505b9392505050565b60086020528060005260406000206000915090505481565b6000600c60008463ffffffff1663ffffffff16815260200190815260200160002060008373ffffffffffffffffffffffffffffffffffffffff1673ffffffffffffffffffffffffffffffffffffffff16815260200190815260200160002060009054906101000a900460ff16905092915050565b600080600560008663ffffffff1663ffffffff16815260200190815260200160002060405180610180016040529081600082015481526020016001820154815260200160028201548152602001600382015481526020016004820160009054906101000a900463ffffffff1663ffffffff1663ffffffff1681526020016004820160049054906101000a900460ff161515151581526020016004820160059054906101000a900463ffffffff1663ffffffff1663ffffffff1681526020016004820160099054906101000a900463ffffffff1663ffffffff1663ffffffff16815260200160048201600d9054906101000a900463ffffffff1663ffffffff1663ffffffff1681526020016004820160119054906101000a900463ffffffff1663ffffffff1663ffffffff168152602001600582015481526020016006820160009054906101000a900473ffffffffffffffffffffffffffffffffffffffff1673ffffffffffffffffffffffffffffffffffffffff1673ffffffffffffffffffffffffffffffffffffffff168152505090506000601260008763ffffffff1663ffffffff16815260200190815260200160002060008673ffffffffffffffffffffffffffffffffffffffff1673ffffffffffffffffffffffffffffffffffffffff168152602001908152602001600020544261441891906151f6565b905060006144268786610cb5565b90506000811480156144385750600085115b6144425780614445565b60015b905060006144538884613fc6565b90506000670de0b6b3a764000082600161446d919061522a565b846144789190614fff565b6144829190615070565b905080955050505050509392505050565b82600560008263ffffffff1663ffffffff16815260200190815260200160002060060160009054906101000a900473ffffffffffffffffffffffffffffffffffffffff1673ffffffffffffffffffffffffffffffffffffffff163373ffffffffffffffffffffffffffffffffffffffff1614614544576040517f08c379a000000000000000000000000000000000000000000000000000000000815260040161453b906152aa565b60405180910390fd5b601560009054906101000a900473ffffffffffffffffffffffffffffffffffffffff1673ffffffffffffffffffffffffffffffffffffffff166369328dec8484306040518463ffffffff1660e01b81526004016145a393929190615bbe565b6020604051808303816000875af11580156145c2573d6000803e3d6000fd5b505050506040513d601f19601f820116820180604052508101906145e691906152df565b5050505050565b6145f5614709565b600073ffffffffffffffffffffffffffffffffffffffff168173ffffffffffffffffffffffffffffffffffffffff16036146675760006040517f1e4fbdf700000000000000000000000000000000000000000000000000000000815260040161465e91906148cd565b60405180910390fd5b61467081614790565b50565b600c6020528160005260406000206020528060005260406000206000915091509054906101000a900460ff1681565b60076020528060005260406000206000915090505481565b6002600154036146f6576040517f3ee5aeb500000000000000000000000000000000000000000000000000000000815260040160405180910390fd5b6002600181905550565b60018081905550565b614711614854565b73ffffffffffffffffffffffffffffffffffffffff1661472f61332e565b73ffffffffffffffffffffffffffffffffffffffff161461478e57614752614854565b6040517f118cdaa700000000000000000000000000000000000000000000000000000000815260040161478591906148cd565b60405180910390fd5b565b60008060009054906101000a900473ffffffffffffffffffffffffffffffffffffffff169050816000806101000a81548173ffffffffffffffffffffffffffffffffffffffff021916908373ffffffffffffffffffffffffffffffffffffffff1602179055508173ffffffffffffffffffffffffffffffffffffffff168173ffffffffffffffffffffffffffffffffffffffff167f8be0079c531659141344cd1fd0a4f28419497f9722a3daafe3b4186f6b6457e060405160405180910390a35050565b600033905090565b6040518060400160405280600073ffffffffffffffffffffffffffffffffffffffff168152602001600081525090565b600073ffffffffffffffffffffffffffffffffffffffff82169050919050565b60006148b78261488c565b9050919050565b6148c7816148ac565b82525050565b60006020820190506148e260008301846148be565b92915050565b600080fd5b600063ffffffff82169050919050565b614906816148ed565b811461491157600080fd5b50565b600081359050614923816148fd565b92915050565b6000819050919050565b61493c81614929565b811461494757600080fd5b50565b60008135905061495981614933565b92915050565b60008060408385031215614976576149756148e8565b5b600061498485828601614914565b92505060206149958582860161494a565b9150509250929050565b6149a881614929565b82525050565b60006020820190506149c3600083018461499f565b92915050565b6149d2816148ac565b81146149dd57600080fd5b50565b6000813590506149ef816149c9565b92915050565b60008060408385031215614a0c57614a0b6148e8565b5b6000614a1a85828601614914565b9250506020614a2b858286016149e0565b9150509250929050565b600060208284031215614a4b57614a4a6148e8565b5b6000614a5984828501614914565b91505092915050565b614a6b816148ed565b82525050565b60008115159050919050565b614a8681614a71565b82525050565b600061018082019050614aa2600083018f61499f565b614aaf602083018e61499f565b614abc604083018d61499f565b614ac9606083018c61499f565b614ad6608083018b614a62565b614ae360a083018a614a7d565b614af060c0830189614a62565b614afd60e0830188614a62565b614b0b610100830187614a62565b614b19610120830186614a62565b614b2761014083018561499f565b614b356101608301846148be565b9d9c50505050505050505050505050565b6000604082019050614b5b600083018561499f565b614b68602083018461499f565b9392505050565b6000602082019050614b846000830184614a62565b92915050565b6000819050919050565b6000614baf614baa614ba58461488c565b614b8a565b61488c565b9050919050565b6000614bc182614b94565b9050919050565b6000614bd382614bb6565b9050919050565b614be381614bc8565b82525050565b6000602082019050614bfe6000830184614bda565b92915050565b60008060008060008060c08789031215614c2157614c206148e8565b5b6000614c2f89828a01614914565b9650506020614c4089828a0161494a565b9550506040614c5189828a0161494a565b9450506060614c6289828a01614914565b9350506080614c7389828a01614914565b92505060a0614c8489828a01614914565b9150509295509295509295565b600080600060608486031215614caa57614ca96148e8565b5b6000614cb886828701614914565b9350506020614cc9868287016149e0565b9250506040614cda8682870161494a565b9150509250925092565b6000614cef82614bb6565b9050919050565b614cff81614ce4565b82525050565b6000602082019050614d1a6000830184614cf6565b92915050565b6000602082019050614d356000830184614a7d565b92915050565b60008060008060008060008060006101208a8c031215614d5e57614d5d6148e8565b5b6000614d6c8c828d0161494a565b9950506020614d7d8c828d0161494a565b9850506040614d8e8c828d0161494a565b9750506060614d9f8c828d0161494a565b9650506080614db08c828d01614914565b95505060a0614dc18c828d01614914565b94505060c0614dd28c828d01614914565b93505060e0614de38c828d01614914565b925050610100614df58c828d01614914565b9150509295985092959850929598565b600060208284031215614e1b57614e1a6148e8565b5b6000614e298482850161494a565b91505092915050565b600080600060608486031215614e4b57614e4a6148e8565b5b6000614e5986828701614914565b9350506020614e6a8682870161494a565b9250506040614e7b8682870161494a565b9150509250925092565b600081519050919050565b600082825260208201905092915050565b6000819050602082019050919050565b614eba816148ac565b82525050565b614ec981614929565b82525050565b604082016000820151614ee56000850182614eb1565b506020820151614ef86020850182614ec0565b50505050565b6000614f0a8383614ecf565b60408301905092915050565b6000602082019050919050565b6000614f2e82614e85565b614f388185614e90565b9350614f4383614ea1565b8060005b83811015614f74578151614f5b8882614efe565b9750614f6683614f16565b925050600181019050614f47565b5085935050505092915050565b60006020820190508181036000830152614f9b8184614f23565b905092915050565b600060208284031215614fb957614fb86148e8565b5b6000614fc7848285016149e0565b91505092915050565b7f4e487b7100000000000000000000000000000000000000000000000000000000600052601160045260246000fd5b600061500a82614929565b915061501583614929565b925082820261502381614929565b9150828204841483151761503a57615039614fd0565b5b5092915050565b7f4e487b7100000000000000000000000000000000000000000000000000000000600052601260045260246000fd5b600061507b82614929565b915061508683614929565b92508261509657615095615041565b5b828204905092915050565b600082825260208201905092915050565b7f4e6f74206120706f6c696379206f776e65722100000000000000000000000000600082015250565b60006150e86013836150a1565b91506150f3826150b2565b602082019050919050565b60006020820190508181036000830152615117816150db565b9050919050565b7f506f6c6963792069736e27742061637469766521000000000000000000000000600082015250565b60006151546014836150a1565b915061515f8261511e565b602082019050919050565b6000602082019050818103600083015261518381615147565b9050919050565b7f4e6f2070726576696f7573207061796d656e7420666f756e6400000000000000600082015250565b60006151c06019836150a1565b91506151cb8261518a565b602082019050919050565b600060208201905081810360008301526151ef816151b3565b9050919050565b600061520182614929565b915061520c83614929565b925082820390508181111561522457615223614fd0565b5b92915050565b600061523582614929565b915061524083614929565b925082820190508082111561525857615257614fd0565b5b92915050565b7f4e6f74207468652063726561746f722100000000000000000000000000000000600082015250565b60006152946010836150a1565b915061529f8261525e565b602082019050919050565b600060208201905081810360008301526152c381615287565b9050919050565b6000815190506152d981614933565b92915050565b6000602082840312156152f5576152f46148e8565b5b6000615303848285016152ca565b91505092915050565b7f496e73756666696369656e7420574554482062616c616e636500000000000000600082015250565b60006153426019836150a1565b915061534d8261530c565b602082019050919050565b6000602082019050818103600083015261537181615335565b9050919050565b7f496e73756666696369656e7420696e766573746d656e742066756e6473210000600082015250565b60006153ae601e836150a1565b91506153b982615378565b602082019050919050565b600060208201905081810360008301526153dd816153a1565b9050919050565b60006040820190506153f960008301856148be565b615406602083018461499f565b9392505050565b61541681614a71565b811461542157600080fd5b50565b6000815190506154338161540d565b92915050565b60006020828403121561544f5761544e6148e8565b5b600061545d84828501615424565b91505092915050565b6000819050919050565b600061ffff82169050919050565b600061549961549461548f84615466565b614b8a565b615470565b9050919050565b6154a98161547e565b82525050565b60006080820190506154c460008301876148be565b6154d1602083018661499f565b6154de60408301856148be565b6154eb60608301846154a0565b95945050505050565b7f416c7265616479206120636c61696d616e74206f66207468697320706f6c696360008201527f7900000000000000000000000000000000000000000000000000000000000000602082015250565b60006155506021836150a1565b915061555b826154f4565b604082019050919050565b6000602082019050818103600083015261557f81615543565b9050919050565b7f506f6c696379206973206e6f7420616374697665000000000000000000000000600082015250565b60006155bc6014836150a1565b91506155c782615586565b602082019050919050565b600060208201905081810360008301526155eb816155af565b9050919050565b7f496e73756666696369656e742066756e64732100000000000000000000000000600082015250565b60006156286013836150a1565b9150615633826155f2565b602082019050919050565b600060208201905081810360008301526156578161561b565b9050919050565b600060608201905061567360008301866148be565b61568060208301856148be565b61568d604083018461499f565b949350505050565b7f57455448207472616e73666572206661696c6564000000000000000000000000600082015250565b60006156cb6014836150a1565b91506156d682615695565b602082019050919050565b600060208201905081810360008301526156fa816156be565b9050919050565b6000604082019050615716600083018561499f565b6157236020830184614a7d565b9392505050565b7f4e6f74206120706f6c696379206f776e65720000000000000000000000000000600082015250565b60006157606012836150a1565b915061576b8261572a565b602082019050919050565b6000602082019050818103600083015261578f81615753565b9050919050565b7f496e73756666696369656e7420636f7665726167652066756e64000000000000600082015250565b60006157cc601a836150a1565b91506157d782615796565b602082019050919050565b600060208201905081810360008301526157fb816157bf565b9050919050565b60006080820190506158176000830187614a62565b615824602083018661499f565b615831604083018561499f565b61583e6060830184614a62565b95945050505050565b7f46756c6c20636f7665726167652061636869657665642c20757365207061794360008201527f7573746f6d5072656d69756d0000000000000000000000000000000000000000602082015250565b60006158a3602c836150a1565b91506158ae82615847565b604082019050919050565b600060208201905081810360008301526158d281615896565b9050919050565b7f416d6f756e74206e6565647320746f20626520686967686572207468616e207460008201527f68652063616c63756c61746564207072656d69756d2100000000000000000000602082015250565b60006159356036836150a1565b9150615940826158d9565b604082019050919050565b6000602082019050818103600083015261596481615928565b9050919050565b6000615976826148ed565b915063ffffffff820361598c5761598b614fd0565b5b600182019050919050565b7f496e73756666696369656e74204554482062616c616e63650000000000000000600082015250565b60006159cd6018836150a1565b91506159d882615997565b602082019050919050565b600060208201905081810360008301526159fc816159c0565b9050919050565b7f496e76616c69642070657263656e746167652076616c75650000000000000000600082015250565b6000615a396018836150a1565b9150615a4482615a03565b602082019050919050565b60006020820190508181036000830152615a6881615a2c565b9050919050565b7f4e65656420746f2062652066756c6c7920636f76657265642066697273742e00600082015250565b6000615aa5601f836150a1565b9150615ab082615a6f565b602082019050919050565b60006020820190508181036000830152615ad481615a98565b9050919050565b7f4e487b7100000000000000000000000000000000000000000000000000000000600052604160045260246000fd5b7f4e487b7100000000000000000000000000000000000000000000000000000000600052603260045260246000fd5b6000615b4482614929565b91507fffffffffffffffffffffffffffffffffffffffffffffffffffffffffffffffff8203615b7657615b75614fd0565b5b600182019050919050565b6000615b8c826148ed565b9150615b97836148ed565b9250828202615ba5816148ed565b9150808214615bb757615bb6614fd0565b5b5092915050565b6000606082019050615bd360008301866148be565b615be0602083018561499f565b615bed60408301846148be565b94935050505056fea2646970667358221220bce36155c6503e70f5c061e29e60e9c4884d20703f1720a93d5f20ae7a3e644a64736f6c63430008140033",
  "linkReferences": {},
  "deployedLinkReferences": {}
}