{
  "_format": "hh-sol-artifact-1",
  "contractName": "PolicyMaker",
  "sourceName": "contracts/PolicyMaker.sol",
  "abi": [
    {
      "inputs": [
        {
          "internalType": "address",
          "name": "initialOwner",
          "type": "address"
        },
        {
          "internalType": "address",
          "name": "_addressesProvider",
          "type": "address"
        }
      ],
      "stateMutability": "nonpayable",
      "type": "constructor"
    },
    {
      "inputs": [
        {
          "internalType": "address",
          "name": "owner",
          "type": "address"
        }
      ],
      "name": "OwnableInvalidOwner",
      "type": "error"
    },
    {
      "inputs": [
        {
          "internalType": "address",
          "name": "account",
          "type": "address"
        }
      ],
      "name": "OwnableUnauthorizedAccount",
      "type": "error"
    },
    {
      "inputs": [],
      "name": "ReentrancyGuardReentrantCall",
      "type": "error"
    },
    {
      "anonymous": false,
      "inputs": [
        {
          "indexed": true,
          "internalType": "address",
          "name": "previousOwner",
          "type": "address"
        },
        {
          "indexed": true,
          "internalType": "address",
          "name": "newOwner",
          "type": "address"
        }
      ],
      "name": "OwnershipTransferred",
      "type": "event"
    },
    {
      "anonymous": false,
      "inputs": [
        {
          "indexed": false,
          "internalType": "uint32",
          "name": "policyId",
          "type": "uint32"
        },
        {
          "indexed": false,
          "internalType": "uint256",
          "name": "coverageAmount",
          "type": "uint256"
        },
        {
          "indexed": false,
          "internalType": "uint256",
          "name": "initialPremiumFee",
          "type": "uint256"
        },
        {
          "indexed": false,
          "internalType": "uint32",
          "name": "duration",
          "type": "uint32"
        }
      ],
      "name": "PolicyCreated",
      "type": "event"
    },
    {
      "anonymous": false,
      "inputs": [
        {
          "indexed": false,
          "internalType": "uint32",
          "name": "policyId",
          "type": "uint32"
        }
      ],
      "name": "PolicyDeactivated",
      "type": "event"
    },
    {
      "anonymous": false,
      "inputs": [
        {
          "indexed": false,
          "internalType": "uint32",
          "name": "policyId",
          "type": "uint32"
        },
        {
          "indexed": false,
          "internalType": "uint256",
          "name": "coverageAmount",
          "type": "uint256"
        },
        {
          "indexed": false,
          "internalType": "uint256",
          "name": "initialPremiumFee",
          "type": "uint256"
        },
        {
          "indexed": false,
          "internalType": "uint32",
          "name": "duration",
          "type": "uint32"
        }
      ],
      "name": "PolicyUpdated",
      "type": "event"
    },
    {
      "anonymous": false,
      "inputs": [
        {
          "indexed": true,
          "internalType": "uint32",
          "name": "policyId",
          "type": "uint32"
        },
        {
          "indexed": true,
          "internalType": "address",
          "name": "claimant",
          "type": "address"
        },
        {
          "indexed": false,
          "internalType": "uint256",
          "name": "amount",
          "type": "uint256"
        },
        {
          "indexed": false,
          "internalType": "bool",
          "name": "isPremium",
          "type": "bool"
        }
      ],
      "name": "PremiumPaid",
      "type": "event"
    },
    {
      "inputs": [],
      "name": "AWETH_ADDRESS",
      "outputs": [
        {
          "internalType": "address",
          "name": "",
          "type": "address"
        }
      ],
      "stateMutability": "view",
      "type": "function"
    },
    {
      "inputs": [],
      "name": "WETH_ADDRESS",
      "outputs": [
        {
          "internalType": "address",
          "name": "",
          "type": "address"
        }
      ],
      "stateMutability": "view",
      "type": "function"
    },
    {
      "inputs": [],
      "name": "aWeth",
      "outputs": [
        {
          "internalType": "contract IERC20",
          "name": "",
          "type": "address"
        }
      ],
      "stateMutability": "view",
      "type": "function"
    },
    {
      "inputs": [
        {
          "internalType": "uint32",
          "name": "",
          "type": "uint32"
        },
        {
          "internalType": "address",
          "name": "",
          "type": "address"
        }
      ],
      "name": "amountClaimed",
      "outputs": [
        {
          "internalType": "uint256",
          "name": "",
          "type": "uint256"
        }
      ],
      "stateMutability": "view",
      "type": "function"
    },
    {
      "inputs": [
        {
          "internalType": "uint32",
          "name": "_policyId",
          "type": "uint32"
        },
        {
          "internalType": "address",
          "name": "_policyHolder",
          "type": "address"
        },
        {
          "internalType": "uint256",
          "name": "_amount",
          "type": "uint256"
        }
      ],
      "name": "calculatePotentialCoverage",
      "outputs": [
        {
          "internalType": "uint256",
          "name": "",
          "type": "uint256"
        }
      ],
      "stateMutability": "view",
      "type": "function"
    },
    {
      "inputs": [
        {
          "internalType": "uint32",
          "name": "_policyId",
          "type": "uint32"
        },
        {
          "internalType": "address",
          "name": "_policyHolder",
          "type": "address"
        }
      ],
      "name": "calculatePremium",
      "outputs": [
        {
          "internalType": "uint256",
          "name": "",
          "type": "uint256"
        }
      ],
      "stateMutability": "view",
      "type": "function"
    },
    {
      "inputs": [
        {
          "internalType": "uint32",
          "name": "_policyId",
          "type": "uint32"
        },
        {
          "internalType": "uint256",
          "name": "_premiumAmount",
          "type": "uint256"
        }
      ],
      "name": "calculatePremiumAllocation",
      "outputs": [
        {
          "internalType": "uint256",
          "name": "",
          "type": "uint256"
        },
        {
          "internalType": "uint256",
          "name": "",
          "type": "uint256"
        }
      ],
      "stateMutability": "view",
      "type": "function"
    },
    {
      "inputs": [
        {
          "internalType": "uint32",
          "name": "_policyId",
          "type": "uint32"
        },
        {
          "internalType": "uint256",
          "name": "premium",
          "type": "uint256"
        },
        {
          "internalType": "uint256",
          "name": "remainingCoverageNeeded",
          "type": "uint256"
        }
      ],
      "name": "calculatePremiumForCoverageFund",
      "outputs": [
        {
          "internalType": "uint256",
          "name": "",
          "type": "uint256"
        }
      ],
      "stateMutability": "view",
      "type": "function"
    },
    {
      "inputs": [
        {
          "internalType": "uint32",
          "name": "policyId",
          "type": "uint32"
        }
      ],
      "name": "calculateRewards",
      "outputs": [
        {
          "components": [
            {
              "internalType": "address",
              "name": "policyOwner",
              "type": "address"
            },
            {
              "internalType": "uint256",
              "name": "reward",
              "type": "uint256"
            }
          ],
          "internalType": "struct PolicyMaker.RewardInfo[]",
          "name": "",
          "type": "tuple[]"
        }
      ],
      "stateMutability": "view",
      "type": "function"
    },
    {
      "inputs": [
        {
          "internalType": "uint32",
          "name": "policyId",
          "type": "uint32"
        }
      ],
      "name": "calculateTotalAccrued",
      "outputs": [
        {
          "internalType": "uint256",
          "name": "",
          "type": "uint256"
        }
      ],
      "stateMutability": "view",
      "type": "function"
    },
    {
      "inputs": [
        {
          "internalType": "uint32",
          "name": "_policyId",
          "type": "uint32"
        },
        {
          "internalType": "address",
          "name": "_policyHolder",
          "type": "address"
        }
      ],
      "name": "calculateTotalCoverage",
      "outputs": [
        {
          "internalType": "uint256",
          "name": "",
          "type": "uint256"
        }
      ],
      "stateMutability": "view",
      "type": "function"
    },
    {
      "inputs": [],
      "name": "convertEthToWeth",
      "outputs": [],
      "stateMutability": "payable",
      "type": "function"
    },
    {
      "inputs": [
        {
          "internalType": "uint32",
          "name": "",
          "type": "uint32"
        }
      ],
      "name": "coverageFundBalance",
      "outputs": [
        {
          "internalType": "uint256",
          "name": "",
          "type": "uint256"
        }
      ],
      "stateMutability": "view",
      "type": "function"
    },
    {
      "inputs": [
        {
          "internalType": "uint32",
          "name": "",
          "type": "uint32"
        },
        {
          "internalType": "address",
          "name": "",
          "type": "address"
        }
      ],
      "name": "coverageFundTokenBalance",
      "outputs": [
        {
          "internalType": "uint256",
          "name": "",
          "type": "uint256"
        }
      ],
      "stateMutability": "view",
      "type": "function"
    },
    {
      "inputs": [
        {
          "internalType": "uint32",
          "name": "",
          "type": "uint32"
        },
        {
          "internalType": "address",
          "name": "",
          "type": "address"
        }
      ],
      "name": "coverageFunded",
      "outputs": [
        {
          "internalType": "uint256",
          "name": "",
          "type": "uint256"
        }
      ],
      "stateMutability": "view",
      "type": "function"
    },
    {
      "inputs": [
        {
          "internalType": "uint256",
          "name": "_coverageAmount",
          "type": "uint256"
        },
        {
          "internalType": "uint256",
          "name": "_initialPremiumFee",
          "type": "uint256"
        },
        {
          "internalType": "uint256",
          "name": "_initialCoveragePercentage",
          "type": "uint256"
        },
        {
          "internalType": "uint256",
          "name": "_premiumRate",
          "type": "uint256"
        },
        {
          "internalType": "uint32",
          "name": "_duration",
          "type": "uint32"
        },
        {
          "internalType": "uint32",
          "name": "_penaltyRate",
          "type": "uint32"
        },
        {
          "internalType": "uint32",
          "name": "_monthsGracePeriod",
          "type": "uint32"
        },
        {
          "internalType": "uint32",
          "name": "_coverageFundPercentage",
          "type": "uint32"
        },
        {
          "internalType": "uint32",
          "name": "_investmentFundPercentage",
          "type": "uint32"
        }
      ],
      "name": "createPolicy",
      "outputs": [],
      "stateMutability": "nonpayable",
      "type": "function"
    },
    {
      "inputs": [
        {
          "internalType": "uint32",
          "name": "_policyId",
          "type": "uint32"
        }
      ],
      "name": "deactivatePolicy",
      "outputs": [],
      "stateMutability": "nonpayable",
      "type": "function"
    },
    {
      "inputs": [
        {
          "internalType": "uint32",
          "name": "policyId",
          "type": "uint32"
        },
        {
          "internalType": "uint256",
          "name": "claimAmount",
          "type": "uint256"
        }
      ],
      "name": "handlePayout",
      "outputs": [],
      "stateMutability": "nonpayable",
      "type": "function"
    },
    {
      "inputs": [
        {
          "internalType": "uint32",
          "name": "policyId",
          "type": "uint32"
        },
        {
          "internalType": "uint256",
          "name": "amount",
          "type": "uint256"
        }
      ],
      "name": "investInAavePool",
      "outputs": [],
      "stateMutability": "nonpayable",
      "type": "function"
    },
    {
      "inputs": [
        {
          "internalType": "uint32",
          "name": "",
          "type": "uint32"
        }
      ],
      "name": "investmentFundBalance",
      "outputs": [
        {
          "internalType": "uint256",
          "name": "",
          "type": "uint256"
        }
      ],
      "stateMutability": "view",
      "type": "function"
    },
    {
      "inputs": [
        {
          "internalType": "uint32",
          "name": "",
          "type": "uint32"
        },
        {
          "internalType": "address",
          "name": "",
          "type": "address"
        }
      ],
      "name": "investmentFundTokenBalance",
      "outputs": [
        {
          "internalType": "uint256",
          "name": "",
          "type": "uint256"
        }
      ],
      "stateMutability": "view",
      "type": "function"
    },
    {
      "inputs": [
        {
          "internalType": "uint32",
          "name": "",
          "type": "uint32"
        },
        {
          "internalType": "address",
          "name": "",
          "type": "address"
        }
      ],
      "name": "investmentFunded",
      "outputs": [
        {
          "internalType": "uint256",
          "name": "",
          "type": "uint256"
        }
      ],
      "stateMutability": "view",
      "type": "function"
    },
    {
      "inputs": [
        {
          "internalType": "uint32",
          "name": "",
          "type": "uint32"
        },
        {
          "internalType": "address",
          "name": "",
          "type": "address"
        }
      ],
      "name": "lastPremiumPaidTime",
      "outputs": [
        {
          "internalType": "uint256",
          "name": "",
          "type": "uint256"
        }
      ],
      "stateMutability": "view",
      "type": "function"
    },
    {
      "inputs": [],
      "name": "nextPolicyId",
      "outputs": [
        {
          "internalType": "uint32",
          "name": "",
          "type": "uint32"
        }
      ],
      "stateMutability": "view",
      "type": "function"
    },
    {
      "inputs": [],
      "name": "owner",
      "outputs": [
        {
          "internalType": "address",
          "name": "",
          "type": "address"
        }
      ],
      "stateMutability": "view",
      "type": "function"
    },
    {
      "inputs": [
        {
          "internalType": "uint32",
          "name": "_policyId",
          "type": "uint32"
        },
        {
          "internalType": "uint256",
          "name": "investmentFundPercentage",
          "type": "uint256"
        },
        {
          "internalType": "uint256",
          "name": "amount",
          "type": "uint256"
        }
      ],
      "name": "payCustomPremium",
      "outputs": [],
      "stateMutability": "payable",
      "type": "function"
    },
    {
      "inputs": [
        {
          "internalType": "uint32",
          "name": "_policyId",
          "type": "uint32"
        }
      ],
      "name": "payInitialPremium",
      "outputs": [],
      "stateMutability": "nonpayable",
      "type": "function"
    },
    {
      "inputs": [
        {
          "internalType": "uint32",
          "name": "_policyId",
          "type": "uint32"
        },
        {
          "internalType": "uint256",
          "name": "amount",
          "type": "uint256"
        }
      ],
      "name": "payPremium",
      "outputs": [],
      "stateMutability": "payable",
      "type": "function"
    },
    {
      "inputs": [
        {
          "internalType": "uint32",
          "name": "",
          "type": "uint32"
        }
      ],
      "name": "policies",
      "outputs": [
        {
          "internalType": "uint256",
          "name": "coverageAmount",
          "type": "uint256"
        },
        {
          "internalType": "uint256",
          "name": "initialPremiumFee",
          "type": "uint256"
        },
        {
          "internalType": "uint256",
          "name": "initialCoveragePercentage",
          "type": "uint256"
        },
        {
          "internalType": "uint256",
          "name": "premiumRate",
          "type": "uint256"
        },
        {
          "internalType": "uint32",
          "name": "duration",
          "type": "uint32"
        },
        {
          "internalType": "bool",
          "name": "isActive",
          "type": "bool"
        },
        {
          "internalType": "uint32",
          "name": "penaltyRate",
          "type": "uint32"
        },
        {
          "internalType": "uint32",
          "name": "monthsGracePeriod",
          "type": "uint32"
        },
        {
          "internalType": "uint32",
          "name": "coverageFundPercentage",
          "type": "uint32"
        },
        {
          "internalType": "uint32",
          "name": "investmentFundPercentage",
          "type": "uint32"
        },
        {
          "internalType": "uint256",
          "name": "startTime",
          "type": "uint256"
        },
        {
          "internalType": "address",
          "name": "creator",
          "type": "address"
        }
      ],
      "stateMutability": "view",
      "type": "function"
    },
    {
      "inputs": [
        {
          "internalType": "uint32",
          "name": "",
          "type": "uint32"
        },
        {
          "internalType": "uint256",
          "name": "",
          "type": "uint256"
        }
      ],
      "name": "policyOwnerAddresses",
      "outputs": [
        {
          "internalType": "address",
          "name": "",
          "type": "address"
        }
      ],
      "stateMutability": "view",
      "type": "function"
    },
    {
      "inputs": [
        {
          "internalType": "uint32",
          "name": "",
          "type": "uint32"
        },
        {
          "internalType": "address",
          "name": "",
          "type": "address"
        }
      ],
      "name": "policyOwners",
      "outputs": [
        {
          "internalType": "bool",
          "name": "",
          "type": "bool"
        }
      ],
      "stateMutability": "view",
      "type": "function"
    },
    {
      "inputs": [
        {
          "internalType": "uint32",
          "name": "",
          "type": "uint32"
        },
        {
          "internalType": "address",
          "name": "",
          "type": "address"
        }
      ],
      "name": "premiumsPaid",
      "outputs": [
        {
          "internalType": "uint256",
          "name": "",
          "type": "uint256"
        }
      ],
      "stateMutability": "view",
      "type": "function"
    },
    {
      "inputs": [],
      "name": "renounceOwnership",
      "outputs": [],
      "stateMutability": "nonpayable",
      "type": "function"
    },
    {
      "inputs": [
        {
          "internalType": "uint32",
          "name": "",
          "type": "uint32"
        },
        {
          "internalType": "address",
          "name": "",
          "type": "address"
        }
      ],
      "name": "rewards",
      "outputs": [
        {
          "internalType": "uint256",
          "name": "",
          "type": "uint256"
        }
      ],
      "stateMutability": "view",
      "type": "function"
    },
    {
      "inputs": [
        {
          "internalType": "address",
          "name": "_payoutContract",
          "type": "address"
        }
      ],
      "name": "setPayoutContract",
      "outputs": [],
      "stateMutability": "nonpayable",
      "type": "function"
    },
    {
      "inputs": [
        {
          "internalType": "uint32",
          "name": "",
          "type": "uint32"
        },
        {
          "internalType": "address",
          "name": "",
          "type": "address"
        }
      ],
      "name": "timesPaid",
      "outputs": [
        {
          "internalType": "uint32",
          "name": "",
          "type": "uint32"
        }
      ],
      "stateMutability": "view",
      "type": "function"
    },
    {
      "inputs": [
        {
          "internalType": "uint32",
          "name": "",
          "type": "uint32"
        }
      ],
      "name": "totalSupplied",
      "outputs": [
        {
          "internalType": "uint256",
          "name": "",
          "type": "uint256"
        }
      ],
      "stateMutability": "view",
      "type": "function"
    },
    {
      "inputs": [
        {
          "internalType": "address",
          "name": "newOwner",
          "type": "address"
        }
      ],
      "name": "transferOwnership",
      "outputs": [],
      "stateMutability": "nonpayable",
      "type": "function"
    },
    {
      "inputs": [
        {
          "internalType": "uint32",
          "name": "_policyId",
          "type": "uint32"
        },
        {
          "internalType": "uint256",
          "name": "_coverageAmount",
          "type": "uint256"
        },
        {
          "internalType": "uint256",
          "name": "_initialPremiumFee",
          "type": "uint256"
        },
        {
          "internalType": "uint32",
          "name": "_duration",
          "type": "uint32"
        },
        {
          "internalType": "uint32",
          "name": "_monthsGracePeriod",
          "type": "uint32"
        },
        {
          "internalType": "uint32",
          "name": "_penaltyRate",
          "type": "uint32"
        }
      ],
      "name": "updatePolicy",
      "outputs": [],
      "stateMutability": "nonpayable",
      "type": "function"
    },
    {
      "inputs": [],
      "name": "weth",
      "outputs": [
        {
          "internalType": "contract IWETH",
          "name": "",
          "type": "address"
        }
      ],
      "stateMutability": "view",
      "type": "function"
    },
    {
      "inputs": [
        {
          "internalType": "uint32",
          "name": "policyId",
          "type": "uint32"
        },
        {
          "internalType": "address",
          "name": "asset",
          "type": "address"
        },
        {
          "internalType": "uint256",
          "name": "amount",
          "type": "uint256"
        }
      ],
      "name": "withdrawFromAavePool",
      "outputs": [],
      "stateMutability": "nonpayable",
      "type": "function"
    },
    {
      "inputs": [
        {
          "internalType": "uint256",
          "name": "amount",
          "type": "uint256"
        }
      ],
      "name": "withdrawWethAsEth",
      "outputs": [],
      "stateMutability": "nonpayable",
      "type": "function"
    }
  ],
  "bytecode": "0x60806040526014805463ffffffff191660011790553480156200002157600080fd5b5060405162003bab38038062003bab8339810160408190526200004491620001eb565b816001600160a01b0381166200007457604051631e4fbdf760e01b81526000600482015260240160405180910390fd5b6200007f816200017e565b506001805560148054600160201b600160c01b0319166401000000006001600160a01b03848116820292909217928390556040805163026b1d5f60e01b81529051919093049091169163026b1d5f9160048083019260209291908290030181865afa158015620000f3573d6000803e3d6000fd5b505050506040513d601f19601f8201168201806040525081019062000119919062000223565b601580546001600160a01b03929092166001600160a01b031992831617905560028054821673c02aaa39b223fe8d0a0e5c4f27ead9083c756cc217905560038054909116734d5f47fa6a74757f35c14fd3a6ef8e3c9bc514e817905550620002489050565b600080546001600160a01b038381166001600160a01b0319831681178455604051919092169283917f8be0079c531659141344cd1fd0a4f28419497f9722a3daafe3b4186f6b6457e09190a35050565b80516001600160a01b0381168114620001e657600080fd5b919050565b60008060408385031215620001ff57600080fd5b6200020a83620001ce565b91506200021a60208401620001ce565b90509250929050565b6000602082840312156200023657600080fd5b6200024182620001ce565b9392505050565b61395380620002586000396000f3fe6080604052600436106102115760003560e01c806366f79e7611610119578063a5e2f5cf116100a6578063a5e2f5cf146107e5578063b5bd6c0514610812578063b92b2dc714610832578063bb0ab3cd14610852578063cad0b8db1461087a578063daa984fe14610897578063e20600d9146108b7578063ee43ff94146108e4578063f2fde38b14610904578063f352ac9414610924578063f720b5581461096f57600080fd5b806366f79e761461069a578063709d8a08146106ba578063715018a6146106e757806383027b5a146106fc57806387095de9146107345780638da5cb5b1461076c5780639949f0c81461078a5780639b59223214610792578063a1ed5ec9146107b2578063a325694f146107d257600080fd5b806334896469116101a257806334896469146104ff5780633a7e870d1461051f5780633fc8cef3146105575780634153cd3a14610577578063444d7680146105975780634eecc909146105b75780635afa553a146105ef5780635bb67c671461060f5780635cd9ce3e1461062f5780635f6d607d1461064f5780636562f86f1461068757600080fd5b8063040141e5146102165780630dce265114610254578063159117ee14610282578063160f71c1146102a45780631e7192ae146102c457806327b05d87146103cf57806328ab58fb146104075780632ac887e71461043f5780632d68fd36146104745780633292cfc7146104ac575b600080fd5b34801561022257600080fd5b5061023e73c02aaa39b223fe8d0a0e5c4f27ead9083c756cc281565b60405161024b919061335e565b60405180910390f35b34801561026057600080fd5b5061027461026f3660046133a2565b61099c565b60405190815260200161024b565b34801561028e57600080fd5b506102a261029d3660046133d5565b610c3e565b005b3480156102b057600080fd5b506102a26102bf3660046133ff565b610f10565b3480156102d057600080fd5b506103606102df3660046133ff565b60056020819052600091825260409091208054600182015460028301546003840154600485015495850154600690950154939592949193909263ffffffff8082169360ff600160201b84041693600160281b8404831693600160481b8104841693600160681b8204811693600160881b90920416916001600160a01b03168c565b604080519c8d5260208d019b909b52998b019890985260608a019690965263ffffffff94851660808a015292151560a089015290831660c0880152821660e08701528116610100860152166101208401526101408301526001600160a01b03166101608201526101800161024b565b3480156103db57600080fd5b506102746103ea3660046133a2565b600b60209081526000928352604080842090915290825290205481565b34801561041357600080fd5b506102746104223660046133a2565b601260209081526000928352604080842090915290825290205481565b34801561044b57600080fd5b5061045f61045a3660046133d5565b6111d7565b6040805192835260208301919091520161024b565b34801561048057600080fd5b5061027461048f3660046133a2565b600e60209081526000928352604080842090915290825290205481565b3480156104b857600080fd5b506104ea6104c73660046133a2565b601160209081526000928352604080842090915290825290205463ffffffff1681565b60405163ffffffff909116815260200161024b565b34801561050b57600080fd5b506102a261051a3660046133d5565b611263565b34801561052b57600080fd5b5061027461053a3660046133a2565b600a60209081526000928352604080842090915290825290205481565b34801561056357600080fd5b5060025461023e906001600160a01b031681565b34801561058357600080fd5b506102a261059236600461341a565b61142f565b3480156105a357600080fd5b506102746105b23660046133ff565b6114dd565b3480156105c357600080fd5b506102746105d23660046133a2565b600f60209081526000928352604080842090915290825290205481565b3480156105fb57600080fd5b5061023e61060a3660046133d5565b6115c4565b34801561061b57600080fd5b5061027461062a3660046133a2565b6115fc565b34801561063b57600080fd5b5060035461023e906001600160a01b031681565b34801561065b57600080fd5b5061027461066a3660046133a2565b601060209081526000928352604080842090915290825290205481565b6102a26106953660046133d5565b611997565b3480156106a657600080fd5b506102a26106b5366004613480565b611d42565b3480156106c657600080fd5b506102746106d53660046133ff565b60066020526000908152604090205481565b3480156106f357600080fd5b506102a2611fcd565b34801561070857600080fd5b506102746107173660046133a2565b600960209081526000928352604080842090915290825290205481565b34801561074057600080fd5b5061027461074f3660046133a2565b601360209081526000928352604080842090915290825290205481565b34801561077857600080fd5b506000546001600160a01b031661023e565b6102a2611fe1565b34801561079e57600080fd5b506102a26107ad36600461350c565b612097565b3480156107be57600080fd5b506102746107cd366004613525565b6120dd565b6102a26107e0366004613561565b612354565b3480156107f157600080fd5b506108056108003660046133ff565b612755565b60405161024b9190613594565b34801561081e57600080fd5b506102a261082d3660046133ff565b612934565b34801561083e57600080fd5b506102a261084d3660046135ec565b612a03565b34801561085e57600080fd5b5061023e734d5f47fa6a74757f35c14fd3a6ef8e3c9bc514e881565b34801561088657600080fd5b506014546104ea9063ffffffff1681565b3480156108a357600080fd5b506102746108b2366004613561565b612a2d565b3480156108c357600080fd5b506102746108d23660046133ff565b60086020526000908152604090205481565b3480156108f057600080fd5b506102a26108ff366004613525565b612ae9565b34801561091057600080fd5b506102a261091f3660046135ec565b612e80565b34801561093057600080fd5b5061095f61093f3660046133a2565b600c60209081526000928352604080842090915290825290205460ff1681565b604051901515815260200161024b565b34801561097b57600080fd5b5061027461098a3660046133ff565b60076020526000908152604090205481565b63ffffffff8216600090815260056020526040812060040154600160201b900460ff16610a075760405162461bcd60e51b8152602060048201526014602482015273506f6c6963792069736e2774206163746976652160601b60448201526064015b60405180910390fd5b63ffffffff831660009081526012602090815260408083206001600160a01b0386168452909152902054610a795760405162461bcd60e51b8152602060048201526019602482015278139bc81c1c995d9a5bdd5cc81c185e5b595b9d08199bdd5b99603a1b60448201526064016109fe565b63ffffffff831660009081526012602090815260408083206001600160a01b0386168452909152812054610aad904261361d565b905060006018603c610abf8185613630565b610ac99190613630565b610ad39190613630565b63ffffffff861660009081526005602052604081206003015491925090610afc90601e90613630565b90506000610b0a8284613652565b63ffffffff8816600090815260056020526040902060030154909150610b308282613669565b90506000610b3f601e86613630565b63ffffffff808b16600090815260056020526040902060040154919250600160481b90910416811115610bd45763ffffffff808a16600090815260056020526040812060040154600160281b8104831692610ba291600160481b9004168461361d565b9050606481610bb18487613652565b610bbb9190613652565b610bc59190613630565b610bcf9085613669565b935050505b63ffffffff8916600090815260056020908152604080832060010154600e83528184206001600160a01b038d168552909252822054610c13919061361d565b9050828111610c2b57610c26818461361d565b610c2e565b60005b9750505050505050505b92915050565b63ffffffff821660009081526005602052604090206006015482906001600160a01b03163314610c805760405162461bcd60e51b81526004016109fe9061367c565b6040516370a0823160e01b8152829073c02aaa39b223fe8d0a0e5c4f27ead9083c756cc2906370a0823190610cb990309060040161335e565b602060405180830381865afa158015610cd6573d6000803e3d6000fd5b505050506040513d601f19601f82011682018060405250810190610cfa91906136a6565b1015610d445760405162461bcd60e51b8152602060048201526019602482015278496e73756666696369656e7420574554482062616c616e636560381b60448201526064016109fe565b63ffffffff83166000908152600760205260409020548210610da85760405162461bcd60e51b815260206004820152601e60248201527f496e73756666696369656e7420696e766573746d656e742066756e647321000060448201526064016109fe565b60155460405163095ea7b360e01b81526001600160a01b0390911660048201526024810183905273c02aaa39b223fe8d0a0e5c4f27ead9083c756cc29063095ea7b3906044016020604051808303816000875af1158015610e0d573d6000803e3d6000fd5b505050506040513d601f19601f82011682018060405250810190610e3191906136bf565b5060155460405163e8eda9df60e01b815273c02aaa39b223fe8d0a0e5c4f27ead9083c756cc2600482015260248101849052336044820152600060648201526001600160a01b039091169063e8eda9df90608401600060405180830381600087803b158015610e9f57600080fd5b505af1158015610eb3573d6000803e3d6000fd5b5050505063ffffffff831660009081526007602052604081208054849290610edc90849061361d565b909155505063ffffffff831660009081526008602052604081208054849290610f06908490613669565b9091555050505050565b63ffffffff81166000908152600560205260409020600401548190600160201b900460ff161515600114610f565760405162461bcd60e51b81526004016109fe906136e1565b63ffffffff82166000908152600c6020908152604080832033845290915290205460ff1615610fd15760405162461bcd60e51b815260206004820152602160248201527f416c7265616479206120636c61696d616e74206f66207468697320706f6c69636044820152607960f81b60648201526084016109fe565b63ffffffff8216600090815260056020526040908190206001015460025491516370a0823160e01b815290916001600160a01b0316906370a082319061101b90339060040161335e565b602060405180830381865afa158015611038573d6000803e3d6000fd5b505050506040513d601f19601f8201168201806040525081019061105c91906136a6565b1161109f5760405162461bcd60e51b8152602060048201526013602482015272496e73756666696369656e742066756e64732160681b60448201526064016109fe565b60025463ffffffff8316600090815260056020526040908190206001015490516323b872dd60e01b81526001600160a01b03909216916323b872dd916110eb9133913091600401613718565b6020604051808303816000875af115801561110a573d6000803e3d6000fd5b505050506040513d601f19601f8201168201806040525081019061112e91906136bf565b61114a5760405162461bcd60e51b81526004016109fe9061373c565b63ffffffff82166000818152600c602090815260408083203384528252808320805460ff1916600190811790915593835260059091529020015461118f908390612ebe565b63ffffffff82166000818152600560209081526040918290206001908101548351908152918201523392916000805160206138fe833981519152910160405180910390a35050565b63ffffffff8083166000908152600560205260408120600481015491928392839160649161120e91600160681b9091041687613652565b6112189190613630565b63ffffffff8088166000908152600560205260408120600401549293509160649161124b91600160881b90041688613652565b6112559190613630565b919791965090945050505050565b61126b613096565b63ffffffff8216600090815260056020526040902060040154600160201b900460ff166112aa5760405162461bcd60e51b81526004016109fe9061376a565b63ffffffff82166000908152600c6020908152604080832033845290915290205460ff1661130f5760405162461bcd60e51b81526020600482015260126024820152712737ba1030903837b634b1bc9037bbb732b960711b60448201526064016109fe565b63ffffffff82166000908152600660205260409020548111156113445760405162461bcd60e51b81526004016109fe90613798565b61134e82336115fc565b81111561136d5760405162461bcd60e51b81526004016109fe90613798565b600061137983336115fc565b8211611385578161138f565b61138f83336115fc565b63ffffffff84166000908152600660205260408120805492935083929091906113b990849061361d565b909155505063ffffffff83166000908152601360209081526040808320338452909152812080548392906113ee908490613669565b9091555050604051339082156108fc029083906000818181858888f19350505050158015611420573d6000803e3d6000fd5b505061142b60018055565b5050565b6114376130c0565b63ffffffff868116600090815260056020526040908190208781556001810187905560048101805487851668ffffffff00ffffffff1990911617600160281b868616021763ffffffff60481b1916600160481b9487169490940293909317909255517fbe829975d2c0d9995edbd0abc0cbd073add0fde193595b70af3c8e9094c00ac8906114cc9089908990899089906137cc565b60405180910390a150505050505050565b60035463ffffffff82166000908152600560205260408082206006015490516370a0823160e01b8152919283926001600160a01b03918216926370a082319261152b9291169060040161335e565b602060405180830381865afa158015611548573d6000803e3d6000fd5b505050506040513d601f19601f8201168201806040525081019061156c91906136a6565b63ffffffff841660009081526008602052604081205491925090611590908361361d565b101561159d5760006115bd565b63ffffffff83166000908152600860205260409020546115bd908261361d565b9392505050565b600d60205281600052604060002081815481106115e057600080fd5b6000918252602090912001546001600160a01b03169150829050565b63ffffffff8216600090815260056020526040812060040154600160201b900460ff1661163b5760405162461bcd60e51b81526004016109fe9061376a565b63ffffffff808416600090815260056020818152604080842081516101808101835281548152600182015493810193909352600281015491830191909152600381015460608301526004810154808616608084015260ff600160201b820416151560a0840152600160281b8104861660c0840152600160481b8104861660e0840152600160681b81048616610100840152600160881b90049094166101208201529083015461014082015260068301546001600160a01b0316610160820152611703906130ed565b63ffffffff8087166000908152600560205260409020600481015460019091015492935060649261173f92600160681b90920490911690613652565b6117499190613630565b63ffffffff86166000908152600f602090815260408083206001600160a01b038916845290915290205403611781579150610c389050565b63ffffffff8086166000908152600560205260408120600481015460019091015491926118d59288926064926117c092600160681b9092041690613652565b6117ca9190613630565b63ffffffff89166000908152600f602090815260408083206001600160a01b038c1684529091529020546117fe919061361d565b63ffffffff808a1660009081526012602090815260408083206001600160a01b03808e16855290835292819020548151610180810183528b54815260018c01549381019390935260028b01549183019190915260038a0154606083015260048a0154808516608084015260ff600160201b820416151560a0840152600160281b8104851660c0840152600160481b8104851660e0840152600160681b81048516610100840152600160881b9004841661012083015260058a015461014083015260068a015490921661016082015293929161310f16565b905060006118e38284613669565b63ffffffff881660009081526013602090815260408083206001600160a01b038b168452909152902054909150811015611924576000945050505050610c38565b63ffffffff871660009081526013602090815260408083206001600160a01b038a168452909152812054611958908361361d565b63ffffffff89166000908152600560205260408120549192509061197d906002613652565b90508082111561198b578091505b50979650505050505050565b63ffffffff82166000908152600c60209081526040808320338452909152902054829060ff1615156001146119de5760405162461bcd60e51b81526004016109fe906137f4565b63ffffffff83166000908152600560205260409020600401548390600160201b900460ff161515600114611a245760405162461bcd60e51b81526004016109fe906136e1565b63ffffffff8416600090815260056020526040902054611a4485336115fc565b10611aa65760405162461bcd60e51b815260206004820152602c60248201527f46756c6c20636f7665726167652061636869657665642c20757365207061794360448201526b7573746f6d5072656d69756d60a01b60648201526084016109fe565b611ab0843361099c565b831015611acf5760405162461bcd60e51b81526004016109fe9061381f565b6002546040516323b872dd60e01b81526001600160a01b03909116906323b872dd90611b0390339030908890600401613718565b6020604051808303816000875af1158015611b22573d6000803e3d6000fd5b505050506040513d601f19601f82011682018060405250810190611b4691906136bf565b611b625760405162461bcd60e51b81526004016109fe9061373c565b6000611b6e85336115fc565b63ffffffff8616600090815260056020526040812054919250828211611b95576000611b9f565b611b9f838361361d565b63ffffffff808916600090815260056020526040812060040154929350918291606491611bd591600160681b909104168a613652565b611bdf9190613630565b9150611beb828961361d565b63ffffffff8a16600090815260066020526040812080549293508492909190611c15908490613669565b909155505063ffffffff891660009081526007602052604081208054839290611c3f908490613669565b909155505063ffffffff89166000908152600e60209081526040808320338452909152812080548a9290611c74908490613669565b909155505063ffffffff89166000908152600f6020908152604080832033845290915281208054849290611ca9908490613669565b909155505063ffffffff8916600090815260106020908152604080832033845290915281208054839290611cde908490613669565b909155505063ffffffff89166000818152601260209081526040808320338085529252808320429055519092916000805160206138fe83398151915291611d2f918d82521515602082015260400190565b60405180910390a3505050505050505050565b60006040518061018001604052808b81526020018a81526020018981526020018881526020018763ffffffff1681526020016001151581526020018663ffffffff1681526020018563ffffffff1681526020018463ffffffff1681526020018363ffffffff168152602001428152602001336001600160a01b031681525090508060056000601460009054906101000a900463ffffffff1663ffffffff1663ffffffff1681526020019081526020016000206000820151816000015560208201518160010155604082015181600201556060820151816003015560808201518160040160006101000a81548163ffffffff021916908363ffffffff16021790555060a08201518160040160046101000a81548160ff02191690831515021790555060c08201518160040160056101000a81548163ffffffff021916908363ffffffff16021790555060e08201518160040160096101000a81548163ffffffff021916908363ffffffff16021790555061010082015181600401600d6101000a81548163ffffffff021916908363ffffffff1602179055506101208201518160040160116101000a81548163ffffffff021916908363ffffffff16021790555061014082015181600501556101608201518160060160006101000a8154816001600160a01b0302191690836001600160a01b031602179055509050507f19bb034335e290edb4dfdd4b94706d99fb766d7512bd8836347f261943bd98e2601460009054906101000a900463ffffffff168b8b89604051611f8494939291906137cc565b60405180910390a16014805463ffffffff16906000611fa283613875565b91906101000a81548163ffffffff021916908363ffffffff1602179055505050505050505050505050565b611fd56130c0565b611fdf6000613143565b565b6000341161202c5760405162461bcd60e51b8152602060048201526018602482015277496e73756666696369656e74204554482062616c616e636560401b60448201526064016109fe565b600260009054906101000a90046001600160a01b03166001600160a01b031663d0e30db0346040518263ffffffff1660e01b81526004016000604051808303818588803b15801561207c57600080fd5b505af1158015612090573d6000803e3d6000fd5b5050505050565b600254604051632e1a7d4d60e01b8152600481018390526001600160a01b0390911690632e1a7d4d90602401600060405180830381600087803b15801561207c57600080fd5b63ffffffff8316600090815260056020526040812060040154600160201b900460ff1661211c5760405162461bcd60e51b81526004016109fe9061376a565b600061212885856115fc565b63ffffffff8616600090815260056020526040812080549293509161214e906002613652565b90508083106121615792506115bd915050565b600482015460009061232d90889060649061218990600160681b900463ffffffff168a613652565b6121939190613630565b601260008c63ffffffff1663ffffffff16815260200190815260200160002060008b6001600160a01b03166001600160a01b03168152602001908152602001600020548660405180610180016040529081600082015481526020016001820154815260200160028201548152602001600382015481526020016004820160009054906101000a900463ffffffff1663ffffffff1663ffffffff1681526020016004820160049054906101000a900460ff161515151581526020016004820160059054906101000a900463ffffffff1663ffffffff1663ffffffff1681526020016004820160099054906101000a900463ffffffff1663ffffffff1663ffffffff16815260200160048201600d9054906101000a900463ffffffff1663ffffffff1663ffffffff1681526020016004820160119054906101000a900463ffffffff1663ffffffff1663ffffffff168152602001600582015481526020016006820160009054906101000a90046001600160a01b03166001600160a01b03166001600160a01b03168152505061310f909392919063ffffffff16565b9050600061233b8286613669565b9050828111156123485750815b98975050505050505050565b63ffffffff83166000908152600c60209081526040808320338452909152902054839060ff16151560011461239b5760405162461bcd60e51b81526004016109fe906137f4565b63ffffffff84166000908152600560205260409020600401548490600160201b900460ff1615156001146123e15760405162461bcd60e51b81526004016109fe906136e1565b606484111561242d5760405162461bcd60e51b8152602060048201526018602482015277496e76616c69642070657263656e746167652076616c756560401b60448201526064016109fe565b63ffffffff851660009081526005602052604090205461244d86336115fc565b101561249b5760405162461bcd60e51b815260206004820152601f60248201527f4e65656420746f2062652066756c6c7920636f76657265642066697273742e0060448201526064016109fe565b6002546040516323b872dd60e01b81526001600160a01b03909116906323b872dd906124cf90339030908890600401613718565b6020604051808303816000875af11580156124ee573d6000803e3d6000fd5b505050506040513d601f19601f8201168201806040525081019061251291906136bf565b61252e5760405162461bcd60e51b81526004016109fe9061373c565b612538853361099c565b8310156125575760405162461bcd60e51b81526004016109fe9061381f565b63ffffffff8516600090815260056020526040812054612578906002613652565b61258287336115fc565b1061258d57836125a3565b60646125998686613652565b6125a39190613630565b63ffffffff8716600090815260056020526040812054919250906125c8906002613652565b6125d288336115fc565b106125de5760006125e8565b6125e8828661361d565b90508482116125f757816125f9565b845b9150848111612608578061260b565b60005b63ffffffff8816600090815260066020526040812080549293508392909190612635908490613669565b909155505063ffffffff87166000908152600f602090815260408083203384529091528120805483929061266a908490613669565b909155505063ffffffff871660009081526007602052604081208054849290612694908490613669565b909155505063ffffffff87166000908152601060209081526040808320338452909152812080548492906126c9908490613669565b909155505063ffffffff8716600081815260126020908152604080832033808552908352818420429055938352600e82528083209383529290529081208054879290612716908490613669565b90915550506040805186815260006020820152339163ffffffff8a16916000805160206138fe833981519152910160405180910390a350505050505050565b63ffffffff811660009081526008602090815260408083205460079092528220546060929161278391613669565b90506000612790846114dd565b90506060821561292c5763ffffffff85166000908152600d602052604090205467ffffffffffffffff8111156127c8576127c8613898565b60405190808252806020026020018201604052801561280d57816020015b60408051808201909152600080825260208201528152602001906001900390816127e65790505b50905060005b63ffffffff86166000908152600d602052604090205481101561292a5763ffffffff86166000908152600d60205260408120805483908110612857576128576138ae565b600091825260208083209091015463ffffffff8a1683526010825260408084206001600160a01b03909216808552919092529120549091508015612915576000866128aa83670de0b6b3a7640000613652565b6128b49190613630565b90506000670de0b6b3a76400006128cb8884613652565b6128d59190613630565b90506040518060400160405280856001600160a01b0316815260200182815250868681518110612907576129076138ae565b602002602001018190525050505b50508080612922906138c4565b915050612813565b505b949350505050565b61293c6130c0565b63ffffffff8116600090815260056020526040902060040154600160201b900460ff166129a85760405162461bcd60e51b815260206004820152601a602482015279506f6c69637920697320616c726561647920696e61637469766560301b60448201526064016109fe565b63ffffffff8116600081815260056020908152604091829020600401805464ff000000001916905590519182527fc5dfab0962c70e9a4416c78094b25bf915c7d3198f89974c6ddc52306e4df424910160405180910390a150565b612a0b6130c0565b600480546001600160a01b0319166001600160a01b0392909216919091179055565b63ffffffff831660009081526005602052604081205480841180612a4f575083155b15612a5e5760009150506115bd565b600081612a6c866064613652565b612a769190613630565b90506000600a821015612a8b57506001612ac2565b6019821015612a9c57506002612ac2565b6032821015612aad57506003612ac2565b604b821015612abe57506004612ac2565b5060055b6000612ace8288613652565b9050858111612add5780612348565b50939695505050505050565b63ffffffff831660009081526005602052604090206006015483906001600160a01b03163314612b2b5760405162461bcd60e51b81526004016109fe9061367c565b60008211612b8f5760405162461bcd60e51b815260206004820152602b60248201527f5769746864726177616c20616d6f756e74206d7573742062652067726561746560448201526a72207468616e207a65726f60a81b60648201526084016109fe565b81612b99856114dd565b1015612bf55760405162461bcd60e51b815260206004820152602560248201527f496e73756666696369656e742066756e647320696e20696e766573746d656e7460448201526408199d5b9960da1b60648201526084016109fe565b63ffffffff8416600090815260056020526040902060040154600160201b900460ff16612c345760405162461bcd60e51b81526004016109fe9061376a565b601554604051631a4ca37b60e21b81526001600160a01b0385811660048301526024820185905230604483015260009216906369328dec906064016020604051808303816000875af1158015612c8e573d6000803e3d6000fd5b505050506040513d601f19601f82011682018060405250810190612cb291906136a6565b9050828114612d235760405162461bcd60e51b815260206004820152603760248201527f5769746864726177616c2066726f6d204161766520706f6f6c206661696c6564604482015276081bdc881c185c9d1a585b1b1e4818dbdb5c1b195d1959604a1b60648201526084016109fe565b63ffffffff85166000908152600860209081526040808320546007909252822054612d4e9190613669565b90508015612e785760005b63ffffffff87166000908152600d6020526040902054811015612e765763ffffffff87166000908152600d60205260408120805483908110612d9d57612d9d6138ae565b600091825260208083209091015463ffffffff8b1683526010825260408084206001600160a01b03909216808552919092529120549091508015612e6157600084612df083670de0b6b3a7640000613652565b612dfa9190613630565b90506000670de0b6b3a7640000612e118a84613652565b612e1b9190613630565b63ffffffff8c1660009081526009602090815260408083206001600160a01b0389168452909152812080549293508392909190612e59908490613669565b909155505050505b50508080612e6e906138c4565b915050612d59565b505b505050505050565b612e886130c0565b6001600160a01b038116612eb2576000604051631e4fbdf760e01b81526004016109fe919061335e565b612ebb81613143565b50565b63ffffffff82166000908152600e6020908152604080832033845290915281208054839290612eee908490613669565b909155505063ffffffff8083166000818152600c6020908152604080832033808552908352818420805460ff19166001908117909155858552600d84528285208054918201815585528385200180546001600160a01b0319168217905584845260128352818420908452825280832042905592825260059052908120600401549091606491612f8691600160681b9091041684613652565b612f909190613630565b63ffffffff80851660009081526005602052604081206004015492935091606491612fc391600160881b90041685613652565b612fcd9190613630565b63ffffffff8516600090815260066020526040812080549293508492909190612ff7908490613669565b909155505063ffffffff841660009081526007602052604081208054839290613021908490613669565b909155505063ffffffff84166000908152600f6020908152604080832033845290915281208054849290613056908490613669565b909155505063ffffffff841660009081526010602090815260408083203384529091528120805483929061308b908490613669565b909155505050505050565b6002600154036130b957604051633ee5aeb560e01b815260040160405180910390fd5b6002600155565b6000546001600160a01b03163314611fdf573360405163118cdaa760e01b81526004016109fe919061335e565b60006064826040015183600001516131059190613652565b610c389190613630565b6000846020015183116131245750600061292c565b61313085858585613193565b61313a9084613652565b95945050505050565b600080546001600160a01b038381166001600160a01b0319831681178455604051919092169283917f8be0079c531659141344cd1fd0a4f28419497f9722a3daafe3b4186f6b6457e09190a35050565b6000806131a0834261361d565b905060006131ae8786613212565b9050801580156131be5750600085115b6131c857806131cb565b60015b905060006131d988846132af565b90506000670de0b6b3a76400006131f1836001613669565b6131fb9085613652565b6132059190613630565b9998505050505050505050565b815160009080831180613223575082155b15613232576000915050610c38565b600081613240856064613652565b61324a9190613630565b9050600a81101561326057600192505050610c38565b603281101561327457600292505050610c38565b603281101561328857600292505050610c38565b604b81101561329c57600392505050610c38565b600392505050610c38565b505092915050565b6000808360e0015162278d006132c591906138dd565b63ffffffff1690506000816132db856005613652565b6132e59190613630565b9050600181101561330257670de0b6b3a764000092505050610c38565b600281101561331d57670b1a2bc2ec50000092505050610c38565b600381101561333857670853a0d2313c000092505050610c38565b60048110156133535767058d15e17628000092505050610c38565b600092505050610c38565b6001600160a01b0391909116815260200190565b803563ffffffff8116811461338657600080fd5b919050565b80356001600160a01b038116811461338657600080fd5b600080604083850312156133b557600080fd5b6133be83613372565b91506133cc6020840161338b565b90509250929050565b600080604083850312156133e857600080fd5b6133f183613372565b946020939093013593505050565b60006020828403121561341157600080fd5b6115bd82613372565b60008060008060008060c0878903121561343357600080fd5b61343c87613372565b9550602087013594506040870135935061345860608801613372565b925061346660808801613372565b915061347460a08801613372565b90509295509295509295565b60008060008060008060008060006101208a8c03121561349f57600080fd5b8935985060208a0135975060408a0135965060608a013595506134c460808b01613372565b94506134d260a08b01613372565b93506134e060c08b01613372565b92506134ee60e08b01613372565b91506134fd6101008b01613372565b90509295985092959850929598565b60006020828403121561351e57600080fd5b5035919050565b60008060006060848603121561353a57600080fd5b61354384613372565b92506135516020850161338b565b9150604084013590509250925092565b60008060006060848603121561357657600080fd5b61357f84613372565b95602085013595506040909401359392505050565b602080825282518282018190526000919060409081850190868401855b828110156135df57815180516001600160a01b031685528601518685015292840192908501906001016135b1565b5091979650505050505050565b6000602082840312156135fe57600080fd5b6115bd8261338b565b634e487b7160e01b600052601160045260246000fd5b81810381811115610c3857610c38613607565b60008261364d57634e487b7160e01b600052601260045260246000fd5b500490565b8082028115828204841417610c3857610c38613607565b80820180821115610c3857610c38613607565b60208082526010908201526f4e6f74207468652063726561746f722160801b604082015260600190565b6000602082840312156136b857600080fd5b5051919050565b6000602082840312156136d157600080fd5b815180151581146115bd57600080fd5b6020808252601c908201527f506f6c696379206d757374206265206163746976652066697273742100000000604082015260600190565b6001600160a01b039384168152919092166020820152604081019190915260600190565b60208082526014908201527315d15512081d1c985b9cd9995c8819985a5b195960621b604082015260600190565b602080825260149082015273506f6c696379206973206e6f742061637469766560601b604082015260600190565b6020808252601a9082015279125b9cdd59999a58da595b9d0818dbdd995c9859d948199d5b9960321b604082015260600190565b63ffffffff948516815260208101939093526040830191909152909116606082015260800190565b6020808252601190820152704e6f7420706f6c696379206f776e65722160781b604082015260600190565b60208082526036908201527f416d6f756e74206e6565647320746f20626520686967686572207468616e207460408201527568652063616c63756c61746564207072656d69756d2160501b606082015260800190565b600063ffffffff80831681810361388e5761388e613607565b6001019392505050565b634e487b7160e01b600052604160045260246000fd5b634e487b7160e01b600052603260045260246000fd5b6000600182016138d6576138d6613607565b5060010190565b63ffffffff8181168382160280821691908281146132a7576132a761360756fecb56b790741c56fe9689db9a11c7acfbbe5aa3e1eafa48a4eedb496986881437a2646970667358221220a74eff8ad85a24e76705b461ee81dd7986b20672ff1fe7cb33e4b17f806ab32964736f6c63430008140033",
  "linkReferences": {},
  "deployedLinkReferences": {}
}