{
  "_format": "hh-sol-artifact-1",
  "contractName": "PolicyMaker",
  "sourceName": "contracts/PolicyMaker.sol",
  "abi": [
    {
      "inputs": [
        {
          "internalType": "address",
          "name": "initialOwner",
          "type": "address"
        }
      ],
      "stateMutability": "nonpayable",
      "type": "constructor"
    },
    {
      "anonymous": false,
      "inputs": [
        {
          "indexed": true,
          "internalType": "address",
          "name": "previousOwner",
          "type": "address"
        },
        {
          "indexed": true,
          "internalType": "address",
          "name": "newOwner",
          "type": "address"
        }
      ],
      "name": "OwnershipTransferred",
      "type": "event"
    },
    {
      "anonymous": false,
      "inputs": [
        {
          "indexed": false,
          "internalType": "uint32",
          "name": "policyId",
          "type": "uint32"
        },
        {
          "indexed": false,
          "internalType": "uint256",
          "name": "coverageAmount",
          "type": "uint256"
        },
        {
          "indexed": false,
          "internalType": "uint256",
          "name": "initialPremiumFee",
          "type": "uint256"
        },
        {
          "indexed": false,
          "internalType": "uint32",
          "name": "duration",
          "type": "uint32"
        }
      ],
      "name": "PolicyCreated",
      "type": "event"
    },
    {
      "anonymous": false,
      "inputs": [
        {
          "indexed": false,
          "internalType": "uint32",
          "name": "policyId",
          "type": "uint32"
        }
      ],
      "name": "PolicyDeactivated",
      "type": "event"
    },
    {
      "anonymous": false,
      "inputs": [
        {
          "indexed": false,
          "internalType": "uint32",
          "name": "policyId",
          "type": "uint32"
        },
        {
          "indexed": false,
          "internalType": "uint256",
          "name": "coverageAmount",
          "type": "uint256"
        },
        {
          "indexed": false,
          "internalType": "uint256",
          "name": "initialPremiumFee",
          "type": "uint256"
        },
        {
          "indexed": false,
          "internalType": "uint32",
          "name": "duration",
          "type": "uint32"
        }
      ],
      "name": "PolicyUpdated",
      "type": "event"
    },
    {
      "anonymous": false,
      "inputs": [
        {
          "indexed": true,
          "internalType": "uint32",
          "name": "policyId",
          "type": "uint32"
        },
        {
          "indexed": true,
          "internalType": "address",
          "name": "claimant",
          "type": "address"
        },
        {
          "indexed": false,
          "internalType": "uint256",
          "name": "amount",
          "type": "uint256"
        },
        {
          "indexed": false,
          "internalType": "bool",
          "name": "isPremium",
          "type": "bool"
        }
      ],
      "name": "PremiumPaid",
      "type": "event"
    },
    {
      "inputs": [
        {
          "internalType": "uint32",
          "name": "",
          "type": "uint32"
        },
        {
          "internalType": "address",
          "name": "",
          "type": "address"
        }
      ],
      "name": "amountClaimed",
      "outputs": [
        {
          "internalType": "uint256",
          "name": "",
          "type": "uint256"
        }
      ],
      "stateMutability": "view",
      "type": "function"
    },
    {
      "inputs": [
        {
          "internalType": "uint32",
          "name": "_policyId",
          "type": "uint32"
        },
        {
          "internalType": "address",
          "name": "_policyHolder",
          "type": "address"
        },
        {
          "internalType": "uint256",
          "name": "inputPremium",
          "type": "uint256"
        }
      ],
      "name": "calculateDynamicCoverageFactor",
      "outputs": [
        {
          "internalType": "uint256",
          "name": "",
          "type": "uint256"
        }
      ],
      "stateMutability": "view",
      "type": "function"
    },
    {
      "inputs": [
        {
          "internalType": "uint32",
          "name": "_policyId",
          "type": "uint32"
        },
        {
          "internalType": "address",
          "name": "_policyHolder",
          "type": "address"
        },
        {
          "internalType": "uint256",
          "name": "_inputPremium",
          "type": "uint256"
        }
      ],
      "name": "calculatePotentialCoverage",
      "outputs": [
        {
          "internalType": "uint256",
          "name": "",
          "type": "uint256"
        }
      ],
      "stateMutability": "view",
      "type": "function"
    },
    {
      "inputs": [
        {
          "internalType": "uint32",
          "name": "_policyId",
          "type": "uint32"
        },
        {
          "internalType": "address",
          "name": "_policyHolder",
          "type": "address"
        }
      ],
      "name": "calculatePremium",
      "outputs": [
        {
          "internalType": "uint256",
          "name": "",
          "type": "uint256"
        }
      ],
      "stateMutability": "view",
      "type": "function"
    },
    {
      "inputs": [
        {
          "internalType": "uint32",
          "name": "_policyId",
          "type": "uint32"
        },
        {
          "internalType": "address",
          "name": "_policyHolder",
          "type": "address"
        }
      ],
      "name": "calculateTotalCoverage",
      "outputs": [
        {
          "internalType": "uint256",
          "name": "",
          "type": "uint256"
        }
      ],
      "stateMutability": "view",
      "type": "function"
    },
    {
      "inputs": [
        {
          "internalType": "uint32",
          "name": "",
          "type": "uint32"
        }
      ],
      "name": "coverageFundBalance",
      "outputs": [
        {
          "internalType": "uint256",
          "name": "",
          "type": "uint256"
        }
      ],
      "stateMutability": "view",
      "type": "function"
    },
    {
      "inputs": [
        {
          "internalType": "uint256",
          "name": "_coverageAmount",
          "type": "uint256"
        },
        {
          "internalType": "uint256",
          "name": "_initialPremiumFee",
          "type": "uint256"
        },
        {
          "internalType": "uint256",
          "name": "_initialCoveragePercentage",
          "type": "uint256"
        },
        {
          "internalType": "uint256",
          "name": "_premiumRate",
          "type": "uint256"
        },
        {
          "internalType": "uint32",
          "name": "_duration",
          "type": "uint32"
        },
        {
          "internalType": "uint32",
          "name": "_penaltyRate",
          "type": "uint32"
        },
        {
          "internalType": "uint32",
          "name": "_monthsGracePeriod",
          "type": "uint32"
        },
        {
          "internalType": "uint32",
          "name": "_coverageFundPercentage",
          "type": "uint32"
        },
        {
          "internalType": "uint32",
          "name": "_investmentFundPercentage",
          "type": "uint32"
        }
      ],
      "name": "createPolicy",
      "outputs": [],
      "stateMutability": "nonpayable",
      "type": "function"
    },
    {
      "inputs": [
        {
          "internalType": "uint32",
          "name": "_policyId",
          "type": "uint32"
        }
      ],
      "name": "deactivatePolicy",
      "outputs": [],
      "stateMutability": "nonpayable",
      "type": "function"
    },
    {
      "inputs": [
        {
          "internalType": "uint32",
          "name": "policyId",
          "type": "uint32"
        },
        {
          "internalType": "uint256",
          "name": "claimAmount",
          "type": "uint256"
        }
      ],
      "name": "handlePayout",
      "outputs": [],
      "stateMutability": "nonpayable",
      "type": "function"
    },
    {
      "inputs": [
        {
          "internalType": "uint32",
          "name": "",
          "type": "uint32"
        }
      ],
      "name": "investmentFundBalance",
      "outputs": [
        {
          "internalType": "uint256",
          "name": "",
          "type": "uint256"
        }
      ],
      "stateMutability": "view",
      "type": "function"
    },
    {
      "inputs": [
        {
          "internalType": "uint32",
          "name": "_policyId",
          "type": "uint32"
        }
      ],
      "name": "isActive",
      "outputs": [
        {
          "internalType": "bool",
          "name": "",
          "type": "bool"
        }
      ],
      "stateMutability": "view",
      "type": "function"
    },
    {
      "inputs": [
        {
          "internalType": "uint32",
          "name": "_policyId",
          "type": "uint32"
        },
        {
          "internalType": "address",
          "name": "_claimant",
          "type": "address"
        }
      ],
      "name": "isPolicyOwner",
      "outputs": [
        {
          "internalType": "bool",
          "name": "",
          "type": "bool"
        }
      ],
      "stateMutability": "view",
      "type": "function"
    },
    {
      "inputs": [
        {
          "internalType": "uint32",
          "name": "",
          "type": "uint32"
        },
        {
          "internalType": "address",
          "name": "",
          "type": "address"
        }
      ],
      "name": "lastPremiumPaidTime",
      "outputs": [
        {
          "internalType": "uint256",
          "name": "",
          "type": "uint256"
        }
      ],
      "stateMutability": "view",
      "type": "function"
    },
    {
      "inputs": [],
      "name": "nextPolicyId",
      "outputs": [
        {
          "internalType": "uint32",
          "name": "",
          "type": "uint32"
        }
      ],
      "stateMutability": "view",
      "type": "function"
    },
    {
      "inputs": [],
      "name": "owner",
      "outputs": [
        {
          "internalType": "address",
          "name": "",
          "type": "address"
        }
      ],
      "stateMutability": "view",
      "type": "function"
    },
    {
      "inputs": [
        {
          "internalType": "uint32",
          "name": "_policyId",
          "type": "uint32"
        }
      ],
      "name": "payInitialPremium",
      "outputs": [],
      "stateMutability": "payable",
      "type": "function"
    },
    {
      "inputs": [
        {
          "internalType": "uint32",
          "name": "_policyId",
          "type": "uint32"
        }
      ],
      "name": "payPremium",
      "outputs": [],
      "stateMutability": "payable",
      "type": "function"
    },
    {
      "inputs": [
        {
          "internalType": "uint32",
          "name": "",
          "type": "uint32"
        }
      ],
      "name": "policies",
      "outputs": [
        {
          "internalType": "uint256",
          "name": "coverageAmount",
          "type": "uint256"
        },
        {
          "internalType": "uint256",
          "name": "initialPremiumFee",
          "type": "uint256"
        },
        {
          "internalType": "uint256",
          "name": "initialCoveragePercentage",
          "type": "uint256"
        },
        {
          "internalType": "uint256",
          "name": "premiumRate",
          "type": "uint256"
        },
        {
          "internalType": "uint32",
          "name": "duration",
          "type": "uint32"
        },
        {
          "internalType": "bool",
          "name": "isActive",
          "type": "bool"
        },
        {
          "internalType": "uint32",
          "name": "penaltyRate",
          "type": "uint32"
        },
        {
          "internalType": "uint32",
          "name": "monthsGracePeriod",
          "type": "uint32"
        },
        {
          "internalType": "uint32",
          "name": "coverageFundPercentage",
          "type": "uint32"
        },
        {
          "internalType": "uint32",
          "name": "investmentFundPercentage",
          "type": "uint32"
        },
        {
          "internalType": "uint256",
          "name": "startTime",
          "type": "uint256"
        }
      ],
      "stateMutability": "view",
      "type": "function"
    },
    {
      "inputs": [
        {
          "internalType": "uint32",
          "name": "",
          "type": "uint32"
        },
        {
          "internalType": "address",
          "name": "",
          "type": "address"
        }
      ],
      "name": "policyOwners",
      "outputs": [
        {
          "internalType": "bool",
          "name": "",
          "type": "bool"
        }
      ],
      "stateMutability": "view",
      "type": "function"
    },
    {
      "inputs": [
        {
          "internalType": "uint32",
          "name": "",
          "type": "uint32"
        },
        {
          "internalType": "address",
          "name": "",
          "type": "address"
        }
      ],
      "name": "premiumsPaid",
      "outputs": [
        {
          "internalType": "uint256",
          "name": "",
          "type": "uint256"
        }
      ],
      "stateMutability": "view",
      "type": "function"
    },
    {
      "inputs": [],
      "name": "renounceOwnership",
      "outputs": [],
      "stateMutability": "nonpayable",
      "type": "function"
    },
    {
      "inputs": [
        {
          "internalType": "address",
          "name": "_payoutContract",
          "type": "address"
        }
      ],
      "name": "setPayoutContract",
      "outputs": [],
      "stateMutability": "nonpayable",
      "type": "function"
    },
    {
      "inputs": [
        {
          "internalType": "uint32",
          "name": "",
          "type": "uint32"
        },
        {
          "internalType": "address",
          "name": "",
          "type": "address"
        }
      ],
      "name": "timesPaid",
      "outputs": [
        {
          "internalType": "uint32",
          "name": "",
          "type": "uint32"
        }
      ],
      "stateMutability": "view",
      "type": "function"
    },
    {
      "inputs": [
        {
          "internalType": "address",
          "name": "newOwner",
          "type": "address"
        }
      ],
      "name": "transferOwnership",
      "outputs": [],
      "stateMutability": "nonpayable",
      "type": "function"
    },
    {
      "inputs": [
        {
          "internalType": "uint32",
          "name": "_policyId",
          "type": "uint32"
        },
        {
          "internalType": "uint256",
          "name": "_coverageAmount",
          "type": "uint256"
        },
        {
          "internalType": "uint256",
          "name": "_initialPremiumFee",
          "type": "uint256"
        },
        {
          "internalType": "uint32",
          "name": "_duration",
          "type": "uint32"
        },
        {
          "internalType": "uint32",
          "name": "_monthsGracePeriod",
          "type": "uint32"
        },
        {
          "internalType": "uint32",
          "name": "_penaltyRate",
          "type": "uint32"
        }
      ],
      "name": "updatePolicy",
      "outputs": [],
      "stateMutability": "nonpayable",
      "type": "function"
    }
  ],
  "bytecode": "0x60806040526001600960006101000a81548163ffffffff021916908363ffffffff1602179055503480156200003357600080fd5b50604051620030f5380380620030f5833981810160405260208110156200005957600080fd5b810190808051906020019092919050505060006200007c6200012860201b60201c565b9050806000806101000a81548173ffffffffffffffffffffffffffffffffffffffff021916908373ffffffffffffffffffffffffffffffffffffffff1602179055508073ffffffffffffffffffffffffffffffffffffffff16600073ffffffffffffffffffffffffffffffffffffffff167f8be0079c531659141344cd1fd0a4f28419497f9722a3daafe3b4186f6b6457e060405160405180910390a350600180819055505062000130565b600033905090565b612fb580620001406000396000f3fe6080604052600436106101665760003560e01c8063709d8a08116100d1578063b92b2dc71161008a578063ee259d9c11610064578063ee259d9c14610989578063f2fde38b14610a08578063f352ac9414610a59578063f720b55814610ad057610166565b8063b92b2dc714610890578063cad0b8db146108e1578063ec2e866f1461091257610166565b8063709d8a08146106ae578063715018a61461070357806387095de91461071a5780638da5cb5b1461078f578063a1ed5ec9146107d0578063b5bd6c051461084f57610166565b80633292cfc7116101235780633292cfc7146103ed57806334896469146104685780634153cd3a146104b35780635bb67c67146105385780635e19b305146105ad57806366f79e761461060457610166565b80630c32b25a1461016b5780630dce26511461019f578063160f71c1146102145780631e7192ae1461024857806328ab58fb146103035780632d68fd3614610378575b600080fd5b61019d6004803603602081101561018157600080fd5b81019080803563ffffffff169060200190929190505050610b25565b005b3480156101ab57600080fd5b506101fe600480360360408110156101c257600080fd5b81019080803563ffffffff169060200190929190803573ffffffffffffffffffffffffffffffffffffffff169060200190929190505050610f46565b6040518082815260200191505060405180910390f35b6102466004803603602081101561022a57600080fd5b81019080803563ffffffff169060200190929190505050611311565b005b34801561025457600080fd5b506102876004803603602081101561026b57600080fd5b81019080803563ffffffff169060200190929190505050611730565b604051808c81526020018b81526020018a81526020018981526020018863ffffffff16815260200187151581526020018663ffffffff1681526020018563ffffffff1681526020018463ffffffff1681526020018363ffffffff1681526020018281526020019b50505050505050505050505060405180910390f35b34801561030f57600080fd5b506103626004803603604081101561032657600080fd5b81019080803563ffffffff169060200190929190803573ffffffffffffffffffffffffffffffffffffffff1690602001909291905050506117e7565b6040518082815260200191505060405180910390f35b34801561038457600080fd5b506103d76004803603604081101561039b57600080fd5b81019080803563ffffffff169060200190929190803573ffffffffffffffffffffffffffffffffffffffff16906020019092919050505061180c565b6040518082815260200191505060405180910390f35b3480156103f957600080fd5b5061044c6004803603604081101561041057600080fd5b81019080803563ffffffff169060200190929190803573ffffffffffffffffffffffffffffffffffffffff169060200190929190505050611831565b604051808263ffffffff16815260200191505060405180910390f35b34801561047457600080fd5b506104b16004803603604081101561048b57600080fd5b81019080803563ffffffff16906020019092919080359060200190929190505050611863565b005b3480156104bf57600080fd5b50610536600480360360c08110156104d657600080fd5b81019080803563ffffffff1690602001909291908035906020019092919080359060200190929190803563ffffffff169060200190929190803563ffffffff169060200190929190803563ffffffff169060200190929190505050611c85565b005b34801561054457600080fd5b506105976004803603604081101561055b57600080fd5b81019080803563ffffffff169060200190929190803573ffffffffffffffffffffffffffffffffffffffff169060200190929190505050611ec1565b6040518082815260200191505060405180910390f35b3480156105b957600080fd5b506105ec600480360360208110156105d057600080fd5b81019080803563ffffffff1690602001909291905050506120a0565b60405180821515815260200191505060405180910390f35b34801561061057600080fd5b506106ac600480360361012081101561062857600080fd5b8101908080359060200190929190803590602001909291908035906020019092919080359060200190929190803563ffffffff169060200190929190803563ffffffff169060200190929190803563ffffffff169060200190929190803563ffffffff169060200190929190803563ffffffff1690602001909291905050506120d9565b005b3480156106ba57600080fd5b506106ed600480360360208110156106d157600080fd5b81019080803563ffffffff16906020019092919050505061240d565b6040518082815260200191505060405180910390f35b34801561070f57600080fd5b50610718612425565b005b34801561072657600080fd5b506107796004803603604081101561073d57600080fd5b81019080803563ffffffff169060200190929190803573ffffffffffffffffffffffffffffffffffffffff1690602001909291905050506125ab565b6040518082815260200191505060405180910390f35b34801561079b57600080fd5b506107a46125d0565b604051808273ffffffffffffffffffffffffffffffffffffffff16815260200191505060405180910390f35b3480156107dc57600080fd5b50610839600480360360608110156107f357600080fd5b81019080803563ffffffff169060200190929190803573ffffffffffffffffffffffffffffffffffffffff169060200190929190803590602001909291905050506125f9565b6040518082815260200191505060405180910390f35b34801561085b57600080fd5b5061088e6004803603602081101561087257600080fd5b81019080803563ffffffff169060200190929190505050612722565b005b34801561089c57600080fd5b506108df600480360360208110156108b357600080fd5b81019080803573ffffffffffffffffffffffffffffffffffffffff169060200190929190505050612865565b005b3480156108ed57600080fd5b506108f6612971565b604051808263ffffffff16815260200191505060405180910390f35b34801561091e57600080fd5b506109716004803603604081101561093557600080fd5b81019080803563ffffffff169060200190929190803573ffffffffffffffffffffffffffffffffffffffff169060200190929190505050612987565b60405180821515815260200191505060405180910390f35b34801561099557600080fd5b506109f2600480360360608110156109ac57600080fd5b81019080803563ffffffff169060200190929190803573ffffffffffffffffffffffffffffffffffffffff169060200190929190803590602001909291905050506129fb565b6040518082815260200191505060405180910390f35b348015610a1457600080fd5b50610a5760048036036020811015610a2b57600080fd5b81019080803573ffffffffffffffffffffffffffffffffffffffff169060200190929190505050612b6a565b005b348015610a6557600080fd5b50610ab860048036036040811015610a7c57600080fd5b81019080803563ffffffff169060200190929190803573ffffffffffffffffffffffffffffffffffffffff169060200190929190505050612d75565b60405180821515815260200191505060405180910390f35b348015610adc57600080fd5b50610b0f60048036036020811015610af357600080fd5b81019080803563ffffffff169060200190929190505050612da4565b6040518082815260200191505060405180910390f35b610b2f8133612987565b610ba1576040517f08c379a000000000000000000000000000000000000000000000000000000000815260040180806020018281038252601d8152602001807f4e6f74206120636c61696d616e74206f66207468697320706f6c69637900000081525060200191505060405180910390fd5b600360008263ffffffff1663ffffffff16815260200190815260200160002060040160049054906101000a900460ff16610c26576040517f08c379a0000000000000000000000000000000000000000000000000000000008152600401808060200182810382526026815260200180612f136026913960400191505060405180910390fd5b610c308133610f46565b341015610ca5576040517f08c379a000000000000000000000000000000000000000000000000000000000815260040180806020018281038252601b8152602001807f496e73756666696369656e74207072656d69756d20616d6f756e74000000000081525060200191505060405180910390fd5b34600560008363ffffffff1663ffffffff16815260200190815260200160002060003373ffffffffffffffffffffffffffffffffffffffff1673ffffffffffffffffffffffffffffffffffffffff168152602001908152602001600020600082825401925050819055506001600660008363ffffffff1663ffffffff16815260200190815260200160002060003373ffffffffffffffffffffffffffffffffffffffff1673ffffffffffffffffffffffffffffffffffffffff16815260200190815260200160002060008282829054906101000a900463ffffffff160192506101000a81548163ffffffff021916908363ffffffff16021790555042600760008363ffffffff1663ffffffff16815260200190815260200160002060003373ffffffffffffffffffffffffffffffffffffffff1673ffffffffffffffffffffffffffffffffffffffff168152602001908152602001600020819055506064600360008363ffffffff1663ffffffff168152602001908152602001600020600401600d9054906101000a900463ffffffff1663ffffffff16340281610e4557fe5b04600a60008363ffffffff1663ffffffff168152602001908152602001600020600082825401925050819055506064600360008363ffffffff1663ffffffff16815260200190815260200160002060040160119054906101000a900463ffffffff1663ffffffff16340281610eb657fe5b04600b60008363ffffffff1663ffffffff168152602001908152602001600020600082825401925050819055503373ffffffffffffffffffffffffffffffffffffffff168163ffffffff167fcb56b790741c56fe9689db9a11c7acfbbe5aa3e1eafa48a4eedb4969868814373460006040518083815260200182151581526020019250505060405180910390a350565b6000610f528333612987565b610fc4576040517f08c379a00000000000000000000000000000000000000000000000000000000081526004018080602001828103825260138152602001807f4e6f74206120706f6c696379206f776e6572210000000000000000000000000081525060200191505060405180910390fd5b600360008463ffffffff1663ffffffff16815260200190815260200160002060040160049054906101000a900460ff16611066576040517f08c379a00000000000000000000000000000000000000000000000000000000081526004018080602001828103825260148152602001807f506f6c6963792069736e2774206163746976652100000000000000000000000081525060200191505060405180910390fd5b6000600760008563ffffffff1663ffffffff16815260200190815260200160002060008473ffffffffffffffffffffffffffffffffffffffff1673ffffffffffffffffffffffffffffffffffffffff1681526020019081526020016000205411611138576040517f08c379a00000000000000000000000000000000000000000000000000000000081526004018080602001828103825260198152602001807f4e6f2070726576696f7573207061796d656e7420666f756e640000000000000081525060200191505060405180910390fd5b6000600760008563ffffffff1663ffffffff16815260200190815260200160002060008473ffffffffffffffffffffffffffffffffffffffff1673ffffffffffffffffffffffffffffffffffffffff168152602001908152602001600020544203905060006018603c8084816111aa57fe5b04816111b257fe5b04816111ba57fe5b0490506000601e600360008863ffffffff1663ffffffff16815260200190815260200160002060030154816111eb57fe5b049050600081830290506000600360008963ffffffff1663ffffffff16815260200190815260200160002060030154905081810190506000601e858161122d57fe5b049050600360008a63ffffffff1663ffffffff16815260200190815260200160002060040160099054906101000a900463ffffffff1663ffffffff16811115611302576000600360008b63ffffffff1663ffffffff16815260200190815260200160002060040160059054906101000a900463ffffffff1663ffffffff1690506000600360008c63ffffffff1663ffffffff16815260200190815260200160002060040160099054906101000a900463ffffffff1663ffffffff168303905060648183860202816112fa57fe5b048401935050505b81965050505050505092915050565b61131b8133612987565b15611371576040517f08c379a0000000000000000000000000000000000000000000000000000000008152600401808060200182810382526021815260200180612f5f6021913960400191505060405180910390fd5b600360008263ffffffff1663ffffffff16815260200190815260200160002060040160049054906101000a900460ff16611413576040517f08c379a00000000000000000000000000000000000000000000000000000000081526004018080602001828103825260148152602001807f506f6c696379206973206e6f742061637469766500000000000000000000000081525060200191505060405180910390fd5b600360008263ffffffff1663ffffffff168152602001908152602001600020600101543410156114ab576040517f08c379a00000000000000000000000000000000000000000000000000000000081526004018080602001828103825260168152602001807f43616e2774206166666f7264207468652072617465210000000000000000000081525060200191505060405180910390fd5b34600560008363ffffffff1663ffffffff16815260200190815260200160002060003373ffffffffffffffffffffffffffffffffffffffff1673ffffffffffffffffffffffffffffffffffffffff168152602001908152602001600020600082825401925050819055506001600460008363ffffffff1663ffffffff16815260200190815260200160002060003373ffffffffffffffffffffffffffffffffffffffff1673ffffffffffffffffffffffffffffffffffffffff16815260200190815260200160002060006101000a81548160ff02191690831515021790555042600760008363ffffffff1663ffffffff16815260200190815260200160002060003373ffffffffffffffffffffffffffffffffffffffff1673ffffffffffffffffffffffffffffffffffffffff168152602001908152602001600020819055506064600360008363ffffffff1663ffffffff168152602001908152602001600020600401600d9054906101000a900463ffffffff1663ffffffff1634028161162f57fe5b04600a60008363ffffffff1663ffffffff168152602001908152602001600020600082825401925050819055506064600360008363ffffffff1663ffffffff16815260200190815260200160002060040160119054906101000a900463ffffffff1663ffffffff163402816116a057fe5b04600b60008363ffffffff1663ffffffff168152602001908152602001600020600082825401925050819055503373ffffffffffffffffffffffffffffffffffffffff168163ffffffff167fcb56b790741c56fe9689db9a11c7acfbbe5aa3e1eafa48a4eedb4969868814373460016040518083815260200182151581526020019250505060405180910390a350565b60036020528060005260406000206000915090508060000154908060010154908060020154908060030154908060040160009054906101000a900463ffffffff16908060040160049054906101000a900460ff16908060040160059054906101000a900463ffffffff16908060040160099054906101000a900463ffffffff169080600401600d9054906101000a900463ffffffff16908060040160119054906101000a900463ffffffff1690806005015490508b565b6007602052816000526040600020602052806000526040600020600091509150505481565b6005602052816000526040600020602052806000526040600020600091509150505481565b60066020528160005260406000206020528060005260406000206000915091509054906101000a900463ffffffff1681565b600260015414156118dc576040517f08c379a000000000000000000000000000000000000000000000000000000000815260040180806020018281038252601f8152602001807f5265656e7472616e637947756172643a207265656e7472616e742063616c6c0081525060200191505060405180910390fd5b6002600181905550600360008363ffffffff1663ffffffff16815260200190815260200160002060040160049054906101000a900460ff16611986576040517f08c379a00000000000000000000000000000000000000000000000000000000081526004018080602001828103825260148152602001807f506f6c696379206973206e6f742061637469766500000000000000000000000081525060200191505060405180910390fd5b600460008363ffffffff1663ffffffff16815260200190815260200160002060003373ffffffffffffffffffffffffffffffffffffffff1673ffffffffffffffffffffffffffffffffffffffff16815260200190815260200160002060009054906101000a900460ff16611a62576040517f08c379a00000000000000000000000000000000000000000000000000000000081526004018080602001828103825260128152602001807f4e6f74206120706f6c696379206f776e6572000000000000000000000000000081525060200191505060405180910390fd5b600a60008363ffffffff1663ffffffff16815260200190815260200160002054811115611af7576040517f08c379a000000000000000000000000000000000000000000000000000000000815260040180806020018281038252601a8152602001807f496e73756666696369656e7420636f7665726167652066756e6400000000000081525060200191505060405180910390fd5b611b018233611ec1565b811115611b76576040517f08c379a000000000000000000000000000000000000000000000000000000000815260040180806020018281038252601a8152602001807f496e73756666696369656e7420636f7665726167652066756e6400000000000081525060200191505060405180910390fd5b6000611b828333611ec1565b8211611b8e5781611b99565b611b988333611ec1565b5b905080600a60008563ffffffff1663ffffffff1681526020019081526020016000206000828254039250508190555080600860008563ffffffff1663ffffffff16815260200190815260200160002060003373ffffffffffffffffffffffffffffffffffffffff1673ffffffffffffffffffffffffffffffffffffffff168152602001908152602001600020600082825401925050819055503373ffffffffffffffffffffffffffffffffffffffff166108fc829081150290604051600060405180830381858888f19350505050158015611c78573d6000803e3d6000fd5b5050600180819055505050565b611c8d612dbc565b73ffffffffffffffffffffffffffffffffffffffff1660008054906101000a900473ffffffffffffffffffffffffffffffffffffffff1673ffffffffffffffffffffffffffffffffffffffff1614611d4d576040517f08c379a00000000000000000000000000000000000000000000000000000000081526004018080602001828103825260208152602001807f4f776e61626c653a2063616c6c6572206973206e6f7420746865206f776e657281525060200191505060405180910390fd5b84600360008863ffffffff1663ffffffff1681526020019081526020016000206000018190555083600360008863ffffffff1663ffffffff1681526020019081526020016000206001018190555082600360008863ffffffff1663ffffffff16815260200190815260200160002060040160006101000a81548163ffffffff021916908363ffffffff16021790555080600360008863ffffffff1663ffffffff16815260200190815260200160002060040160056101000a81548163ffffffff021916908363ffffffff16021790555081600360008863ffffffff1663ffffffff16815260200190815260200160002060040160096101000a81548163ffffffff021916908363ffffffff1602179055507fbe829975d2c0d9995edbd0abc0cbd073add0fde193595b70af3c8e9094c00ac886868686604051808563ffffffff1681526020018481526020018381526020018263ffffffff16815260200194505050505060405180910390a1505050505050565b6000600360008463ffffffff1663ffffffff16815260200190815260200160002060040160049054906101000a900460ff16611f65576040517f08c379a00000000000000000000000000000000000000000000000000000000081526004018080602001828103825260148152602001807f506f6c696379206973206e6f742061637469766500000000000000000000000081525060200191505060405180910390fd5b6000611f7084612dc4565b90506000611fdb8585600560008963ffffffff1663ffffffff16815260200190815260200160002060008873ffffffffffffffffffffffffffffffffffffffff1673ffffffffffffffffffffffffffffffffffffffff16815260200190815260200160002054612e1e565b90506000600860008763ffffffff1663ffffffff16815260200190815260200160002060008673ffffffffffffffffffffffffffffffffffffffff1673ffffffffffffffffffffffffffffffffffffffff16815260200190815260200160002054828401039050600360008763ffffffff1663ffffffff1681526020019081526020016000206000015481116120715780612095565b600360008763ffffffff1663ffffffff168152602001908152602001600020600001545b935050505092915050565b6000600360008363ffffffff1663ffffffff16815260200190815260200160002060040160049054906101000a900460ff169050919050565b6120e1612dbc565b73ffffffffffffffffffffffffffffffffffffffff1660008054906101000a900473ffffffffffffffffffffffffffffffffffffffff1673ffffffffffffffffffffffffffffffffffffffff16146121a1576040517f08c379a00000000000000000000000000000000000000000000000000000000081526004018080602001828103825260208152602001807f4f776e61626c653a2063616c6c6572206973206e6f7420746865206f776e657281525060200191505060405180910390fd5b6040518061016001604052808a81526020018981526020018881526020018781526020018663ffffffff1681526020016001151581526020018563ffffffff1681526020018463ffffffff1681526020018363ffffffff1681526020018263ffffffff1681526020014281525060036000600960009054906101000a900463ffffffff1663ffffffff1663ffffffff1681526020019081526020016000206000820151816000015560208201518160010155604082015181600201556060820151816003015560808201518160040160006101000a81548163ffffffff021916908363ffffffff16021790555060a08201518160040160046101000a81548160ff02191690831515021790555060c08201518160040160056101000a81548163ffffffff021916908363ffffffff16021790555060e08201518160040160096101000a81548163ffffffff021916908363ffffffff16021790555061010082015181600401600d6101000a81548163ffffffff021916908363ffffffff1602179055506101208201518160040160116101000a81548163ffffffff021916908363ffffffff16021790555061014082015181600501559050507f19bb034335e290edb4dfdd4b94706d99fb766d7512bd8836347f261943bd98e2600960009054906101000a900463ffffffff168a8a88604051808563ffffffff1681526020018481526020018381526020018263ffffffff16815260200194505050505060405180910390a16009600081819054906101000a900463ffffffff168092919060010191906101000a81548163ffffffff021916908363ffffffff16021790555050505050505050505050565b600a6020528060005260406000206000915090505481565b61242d612dbc565b73ffffffffffffffffffffffffffffffffffffffff1660008054906101000a900473ffffffffffffffffffffffffffffffffffffffff1673ffffffffffffffffffffffffffffffffffffffff16146124ed576040517f08c379a00000000000000000000000000000000000000000000000000000000081526004018080602001828103825260208152602001807f4f776e61626c653a2063616c6c6572206973206e6f7420746865206f776e657281525060200191505060405180910390fd5b600073ffffffffffffffffffffffffffffffffffffffff1660008054906101000a900473ffffffffffffffffffffffffffffffffffffffff1673ffffffffffffffffffffffffffffffffffffffff167f8be0079c531659141344cd1fd0a4f28419497f9722a3daafe3b4186f6b6457e060405160405180910390a360008060006101000a81548173ffffffffffffffffffffffffffffffffffffffff021916908373ffffffffffffffffffffffffffffffffffffffff160217905550565b6008602052816000526040600020602052806000526040600020600091509150505481565b60008060009054906101000a900473ffffffffffffffffffffffffffffffffffffffff16905090565b6000600360008563ffffffff1663ffffffff16815260200190815260200160002060040160049054906101000a900460ff1661269d576040517f08c379a00000000000000000000000000000000000000000000000000000000081526004018080602001828103825260148152602001807f506f6c696379206973206e6f742061637469766500000000000000000000000081525060200191505060405180910390fd5b60006126a98585611ec1565b905060006126b88686866129fb565b8402905060008183019050600360008863ffffffff1663ffffffff1681526020019081526020016000206000015481116126f25780612716565b600360008863ffffffff1663ffffffff168152602001908152602001600020600001545b93505050509392505050565b61272a612dbc565b73ffffffffffffffffffffffffffffffffffffffff1660008054906101000a900473ffffffffffffffffffffffffffffffffffffffff1673ffffffffffffffffffffffffffffffffffffffff16146127ea576040517f08c379a00000000000000000000000000000000000000000000000000000000081526004018080602001828103825260208152602001807f4f776e61626c653a2063616c6c6572206973206e6f7420746865206f776e657281525060200191505060405180910390fd5b6000600360008363ffffffff1663ffffffff16815260200190815260200160002060040160046101000a81548160ff0219169083151502179055507fc5dfab0962c70e9a4416c78094b25bf915c7d3198f89974c6ddc52306e4df42481604051808263ffffffff16815260200191505060405180910390a150565b61286d612dbc565b73ffffffffffffffffffffffffffffffffffffffff1660008054906101000a900473ffffffffffffffffffffffffffffffffffffffff1673ffffffffffffffffffffffffffffffffffffffff161461292d576040517f08c379a00000000000000000000000000000000000000000000000000000000081526004018080602001828103825260208152602001807f4f776e61626c653a2063616c6c6572206973206e6f7420746865206f776e657281525060200191505060405180910390fd5b80600260006101000a81548173ffffffffffffffffffffffffffffffffffffffff021916908373ffffffffffffffffffffffffffffffffffffffff16021790555050565b600960009054906101000a900463ffffffff1681565b6000600460008463ffffffff1663ffffffff16815260200190815260200160002060008373ffffffffffffffffffffffffffffffffffffffff1673ffffffffffffffffffffffffffffffffffffffff16815260200190815260200160002060009054906101000a900460ff16905092915050565b600080600360008663ffffffff1663ffffffff16815260200190815260200160002060405180610160016040529081600082015481526020016001820154815260200160028201548152602001600382015481526020016004820160009054906101000a900463ffffffff1663ffffffff1663ffffffff1681526020016004820160049054906101000a900460ff161515151581526020016004820160059054906101000a900463ffffffff1663ffffffff1663ffffffff1681526020016004820160099054906101000a900463ffffffff1663ffffffff1663ffffffff16815260200160048201600d9054906101000a900463ffffffff1663ffffffff1663ffffffff1681526020016004820160119054906101000a900463ffffffff1663ffffffff1663ffffffff16815260200160058201548152505090506000612b488261014001514203612e93565b60010190506000612b598786612ec4565b905080820293505050509392505050565b612b72612dbc565b73ffffffffffffffffffffffffffffffffffffffff1660008054906101000a900473ffffffffffffffffffffffffffffffffffffffff1673ffffffffffffffffffffffffffffffffffffffff1614612c32576040517f08c379a00000000000000000000000000000000000000000000000000000000081526004018080602001828103825260208152602001807f4f776e61626c653a2063616c6c6572206973206e6f7420746865206f776e657281525060200191505060405180910390fd5b600073ffffffffffffffffffffffffffffffffffffffff168173ffffffffffffffffffffffffffffffffffffffff161415612cb8576040517f08c379a0000000000000000000000000000000000000000000000000000000008152600401808060200182810382526026815260200180612f396026913960400191505060405180910390fd5b8073ffffffffffffffffffffffffffffffffffffffff1660008054906101000a900473ffffffffffffffffffffffffffffffffffffffff1673ffffffffffffffffffffffffffffffffffffffff167f8be0079c531659141344cd1fd0a4f28419497f9722a3daafe3b4186f6b6457e060405160405180910390a3806000806101000a81548173ffffffffffffffffffffffffffffffffffffffff021916908373ffffffffffffffffffffffffffffffffffffffff16021790555050565b60046020528160005260406000206020528060005260406000206000915091509054906101000a900460ff1681565b600b6020528060005260406000206000915090505481565b600033905090565b60006064600360008463ffffffff1663ffffffff16815260200190815260200160002060020154600360008563ffffffff1663ffffffff168152602001908152602001600020600001540281612e1657fe5b049050919050565b600080612e2c8585856129fb565b9050600360008663ffffffff1663ffffffff168152602001908152602001600020600101548311612e61576000915050612e8c565b80600360008763ffffffff1663ffffffff168152602001908152602001600020600101548403029150505b9392505050565b60008062278d008381612ea257fe5b04905060006064600a830202905060648181612eba57fe5b0492505050919050565b600080600360008563ffffffff1663ffffffff1681526020019081526020016000206000015490506000816064850281612efa57fe5b04905060648181612f0757fe5b04925050509291505056fe506f6c69637920646f6573206e6f74206578697374206f72206973206e6f74206163746976654f776e61626c653a206e6577206f776e657220697320746865207a65726f2061646472657373416c7265616479206120636c61696d616e74206f66207468697320706f6c696379a26469706673582212207a2614155dea002c32f7c2e75f6ce9cbf7f13ac17bd6d31a9f9166df71f113f864736f6c63430007060033",
  "linkReferences": {},
  "deployedLinkReferences": {}
}