{
  "_format": "hh-sol-artifact-1",
  "contractName": "PolicyMaker",
  "sourceName": "contracts/PolicyMaker.sol",
  "abi": [
    {
      "inputs": [
        {
          "internalType": "address",
          "name": "initialOwner",
          "type": "address"
        }
      ],
      "stateMutability": "nonpayable",
      "type": "constructor"
    },
    {
      "anonymous": false,
      "inputs": [
        {
          "indexed": true,
          "internalType": "address",
          "name": "previousOwner",
          "type": "address"
        },
        {
          "indexed": true,
          "internalType": "address",
          "name": "newOwner",
          "type": "address"
        }
      ],
      "name": "OwnershipTransferred",
      "type": "event"
    },
    {
      "anonymous": false,
      "inputs": [
        {
          "indexed": false,
          "internalType": "uint32",
          "name": "policyId",
          "type": "uint32"
        },
        {
          "indexed": false,
          "internalType": "uint256",
          "name": "coverageAmount",
          "type": "uint256"
        },
        {
          "indexed": false,
          "internalType": "uint256",
          "name": "initialPremiumFee",
          "type": "uint256"
        },
        {
          "indexed": false,
          "internalType": "uint32",
          "name": "duration",
          "type": "uint32"
        }
      ],
      "name": "PolicyCreated",
      "type": "event"
    },
    {
      "anonymous": false,
      "inputs": [
        {
          "indexed": false,
          "internalType": "uint32",
          "name": "policyId",
          "type": "uint32"
        }
      ],
      "name": "PolicyDeactivated",
      "type": "event"
    },
    {
      "anonymous": false,
      "inputs": [
        {
          "indexed": false,
          "internalType": "uint32",
          "name": "policyId",
          "type": "uint32"
        },
        {
          "indexed": false,
          "internalType": "uint256",
          "name": "coverageAmount",
          "type": "uint256"
        },
        {
          "indexed": false,
          "internalType": "uint256",
          "name": "initialPremiumFee",
          "type": "uint256"
        },
        {
          "indexed": false,
          "internalType": "uint32",
          "name": "duration",
          "type": "uint32"
        }
      ],
      "name": "PolicyUpdated",
      "type": "event"
    },
    {
      "anonymous": false,
      "inputs": [
        {
          "indexed": true,
          "internalType": "uint32",
          "name": "policyId",
          "type": "uint32"
        },
        {
          "indexed": true,
          "internalType": "address",
          "name": "claimant",
          "type": "address"
        },
        {
          "indexed": false,
          "internalType": "uint256",
          "name": "amount",
          "type": "uint256"
        },
        {
          "indexed": false,
          "internalType": "bool",
          "name": "isPremium",
          "type": "bool"
        }
      ],
      "name": "PremiumPaid",
      "type": "event"
    },
    {
      "inputs": [],
      "name": "calculateCoverageFactor",
      "outputs": [
        {
          "internalType": "uint256",
          "name": "",
          "type": "uint256"
        }
      ],
      "stateMutability": "pure",
      "type": "function"
    },
    {
      "inputs": [
        {
          "internalType": "uint32",
          "name": "_policyId",
          "type": "uint32"
        },
        {
          "internalType": "address",
          "name": "_policyHolder",
          "type": "address"
        }
      ],
      "name": "calculatePremium",
      "outputs": [
        {
          "internalType": "uint256",
          "name": "",
          "type": "uint256"
        }
      ],
      "stateMutability": "view",
      "type": "function"
    },
    {
      "inputs": [
        {
          "internalType": "uint32",
          "name": "_policyId",
          "type": "uint32"
        },
        {
          "internalType": "address",
          "name": "_policyHolder",
          "type": "address"
        }
      ],
      "name": "calculateTotalCoverage",
      "outputs": [
        {
          "internalType": "uint256",
          "name": "",
          "type": "uint256"
        }
      ],
      "stateMutability": "view",
      "type": "function"
    },
    {
      "inputs": [
        {
          "internalType": "uint32",
          "name": "",
          "type": "uint32"
        }
      ],
      "name": "coverageFundBalance",
      "outputs": [
        {
          "internalType": "uint256",
          "name": "",
          "type": "uint256"
        }
      ],
      "stateMutability": "view",
      "type": "function"
    },
    {
      "inputs": [
        {
          "internalType": "uint256",
          "name": "_coverageAmount",
          "type": "uint256"
        },
        {
          "internalType": "uint256",
          "name": "_initialPremiumFee",
          "type": "uint256"
        },
        {
          "internalType": "uint256",
          "name": "_initialCoveragePercentage",
          "type": "uint256"
        },
        {
          "internalType": "uint256",
          "name": "_premiumRate",
          "type": "uint256"
        },
        {
          "internalType": "uint32",
          "name": "_duration",
          "type": "uint32"
        },
        {
          "internalType": "uint32",
          "name": "_penaltyRate",
          "type": "uint32"
        },
        {
          "internalType": "uint32",
          "name": "_monthsGracePeriod",
          "type": "uint32"
        },
        {
          "internalType": "uint32",
          "name": "_coverageFundPercentage",
          "type": "uint32"
        },
        {
          "internalType": "uint32",
          "name": "_investmentFundPercentage",
          "type": "uint32"
        }
      ],
      "name": "createPolicy",
      "outputs": [],
      "stateMutability": "nonpayable",
      "type": "function"
    },
    {
      "inputs": [
        {
          "internalType": "uint32",
          "name": "_policyId",
          "type": "uint32"
        }
      ],
      "name": "deactivatePolicy",
      "outputs": [],
      "stateMutability": "nonpayable",
      "type": "function"
    },
    {
      "inputs": [
        {
          "internalType": "uint32",
          "name": "policyId",
          "type": "uint32"
        },
        {
          "internalType": "address",
          "name": "policyHolder",
          "type": "address"
        },
        {
          "internalType": "uint256",
          "name": "payoutAmount",
          "type": "uint256"
        }
      ],
      "name": "handlePayout",
      "outputs": [],
      "stateMutability": "nonpayable",
      "type": "function"
    },
    {
      "inputs": [
        {
          "internalType": "uint32",
          "name": "",
          "type": "uint32"
        }
      ],
      "name": "investmentFundBalance",
      "outputs": [
        {
          "internalType": "uint256",
          "name": "",
          "type": "uint256"
        }
      ],
      "stateMutability": "view",
      "type": "function"
    },
    {
      "inputs": [
        {
          "internalType": "uint32",
          "name": "_policyId",
          "type": "uint32"
        }
      ],
      "name": "isActive",
      "outputs": [
        {
          "internalType": "bool",
          "name": "",
          "type": "bool"
        }
      ],
      "stateMutability": "view",
      "type": "function"
    },
    {
      "inputs": [
        {
          "internalType": "uint32",
          "name": "_policyId",
          "type": "uint32"
        },
        {
          "internalType": "address",
          "name": "_claimant",
          "type": "address"
        }
      ],
      "name": "isPolicyOwner",
      "outputs": [
        {
          "internalType": "bool",
          "name": "",
          "type": "bool"
        }
      ],
      "stateMutability": "view",
      "type": "function"
    },
    {
      "inputs": [
        {
          "internalType": "uint32",
          "name": "",
          "type": "uint32"
        },
        {
          "internalType": "address",
          "name": "",
          "type": "address"
        }
      ],
      "name": "lastPremiumPaidTime",
      "outputs": [
        {
          "internalType": "uint256",
          "name": "",
          "type": "uint256"
        }
      ],
      "stateMutability": "view",
      "type": "function"
    },
    {
      "inputs": [],
      "name": "nextPolicyId",
      "outputs": [
        {
          "internalType": "uint32",
          "name": "",
          "type": "uint32"
        }
      ],
      "stateMutability": "view",
      "type": "function"
    },
    {
      "inputs": [],
      "name": "owner",
      "outputs": [
        {
          "internalType": "address",
          "name": "",
          "type": "address"
        }
      ],
      "stateMutability": "view",
      "type": "function"
    },
    {
      "inputs": [
        {
          "internalType": "uint32",
          "name": "_policyId",
          "type": "uint32"
        }
      ],
      "name": "payInitialPremium",
      "outputs": [],
      "stateMutability": "payable",
      "type": "function"
    },
    {
      "inputs": [
        {
          "internalType": "uint32",
          "name": "_policyId",
          "type": "uint32"
        }
      ],
      "name": "payPremium",
      "outputs": [],
      "stateMutability": "payable",
      "type": "function"
    },
    {
      "inputs": [
        {
          "internalType": "uint32",
          "name": "",
          "type": "uint32"
        }
      ],
      "name": "policies",
      "outputs": [
        {
          "internalType": "uint256",
          "name": "coverageAmount",
          "type": "uint256"
        },
        {
          "internalType": "uint256",
          "name": "initialPremiumFee",
          "type": "uint256"
        },
        {
          "internalType": "uint256",
          "name": "initialCoveragePercentage",
          "type": "uint256"
        },
        {
          "internalType": "uint256",
          "name": "premiumRate",
          "type": "uint256"
        },
        {
          "internalType": "uint32",
          "name": "duration",
          "type": "uint32"
        },
        {
          "internalType": "bool",
          "name": "isActive",
          "type": "bool"
        },
        {
          "internalType": "uint32",
          "name": "penaltyRate",
          "type": "uint32"
        },
        {
          "internalType": "uint32",
          "name": "monthsGracePeriod",
          "type": "uint32"
        },
        {
          "internalType": "uint32",
          "name": "coverageFundPercentage",
          "type": "uint32"
        },
        {
          "internalType": "uint32",
          "name": "investmentFundPercentage",
          "type": "uint32"
        }
      ],
      "stateMutability": "view",
      "type": "function"
    },
    {
      "inputs": [
        {
          "internalType": "uint32",
          "name": "",
          "type": "uint32"
        },
        {
          "internalType": "address",
          "name": "",
          "type": "address"
        }
      ],
      "name": "policyOwners",
      "outputs": [
        {
          "internalType": "bool",
          "name": "",
          "type": "bool"
        }
      ],
      "stateMutability": "view",
      "type": "function"
    },
    {
      "inputs": [
        {
          "internalType": "uint32",
          "name": "",
          "type": "uint32"
        },
        {
          "internalType": "address",
          "name": "",
          "type": "address"
        }
      ],
      "name": "premiumsPaid",
      "outputs": [
        {
          "internalType": "uint256",
          "name": "",
          "type": "uint256"
        }
      ],
      "stateMutability": "view",
      "type": "function"
    },
    {
      "inputs": [],
      "name": "renounceOwnership",
      "outputs": [],
      "stateMutability": "nonpayable",
      "type": "function"
    },
    {
      "inputs": [
        {
          "internalType": "address",
          "name": "_payoutContract",
          "type": "address"
        }
      ],
      "name": "setPayoutContract",
      "outputs": [],
      "stateMutability": "nonpayable",
      "type": "function"
    },
    {
      "inputs": [
        {
          "internalType": "address",
          "name": "newOwner",
          "type": "address"
        }
      ],
      "name": "transferOwnership",
      "outputs": [],
      "stateMutability": "nonpayable",
      "type": "function"
    },
    {
      "inputs": [
        {
          "internalType": "uint32",
          "name": "_policyId",
          "type": "uint32"
        },
        {
          "internalType": "uint256",
          "name": "_coverageAmount",
          "type": "uint256"
        },
        {
          "internalType": "uint256",
          "name": "_initialPremiumFee",
          "type": "uint256"
        },
        {
          "internalType": "uint32",
          "name": "_duration",
          "type": "uint32"
        },
        {
          "internalType": "uint32",
          "name": "_monthsGracePeriod",
          "type": "uint32"
        },
        {
          "internalType": "uint32",
          "name": "_penaltyRate",
          "type": "uint32"
        }
      ],
      "name": "updatePolicy",
      "outputs": [],
      "stateMutability": "nonpayable",
      "type": "function"
    }
  ],
  "bytecode": "0x60806040526001600760006101000a81548163ffffffff021916908363ffffffff16021790555034801561003257600080fd5b50604051620029a3380380620029a38339818101604052602081101561005757600080fd5b8101908080519060200190929190505050600061007861012360201b60201c565b9050806000806101000a81548173ffffffffffffffffffffffffffffffffffffffff021916908373ffffffffffffffffffffffffffffffffffffffff1602179055508073ffffffffffffffffffffffffffffffffffffffff16600073ffffffffffffffffffffffffffffffffffffffff167f8be0079c531659141344cd1fd0a4f28419497f9722a3daafe3b4186f6b6457e060405160405180910390a350600180819055505061012b565b600033905090565b612868806200013b6000396000f3fe6080604052600436106101355760003560e01c8063715018a6116100ab578063cd8ee73a1161006f578063cd8ee73a14610720578063ec2e866f1461078b578063f207aa1014610802578063f2fde38b1461082d578063f352ac941461087e578063f720b558146108f557610135565b8063715018a6146106055780638da5cb5b1461061c578063b5bd6c051461065d578063b92b2dc71461069e578063cad0b8db146106ef57610135565b80632d68fd36116100fd5780632d68fd36146103405780634153cd3a146103b55780635bb67c671461043a5780635e19b305146104af57806366f79e7614610506578063709d8a08146105b057610135565b80630c32b25a1461013a5780630dce26511461016e578063160f71c1146101e35780631e7192ae1461021757806328ab58fb146102cb575b600080fd5b61016c6004803603602081101561015057600080fd5b81019080803563ffffffff16906020019092919050505061094a565b005b34801561017a57600080fd5b506101cd6004803603604081101561019157600080fd5b81019080803563ffffffff169060200190929190803573ffffffffffffffffffffffffffffffffffffffff169060200190929190505050610ce6565b6040518082815260200191505060405180910390f35b610215600480360360208110156101f957600080fd5b81019080803563ffffffff1690602001909291905050506110b1565b005b34801561022357600080fd5b506102566004803603602081101561023a57600080fd5b81019080803563ffffffff16906020019092919050505061147c565b604051808b81526020018a81526020018981526020018881526020018763ffffffff16815260200186151581526020018563ffffffff1681526020018463ffffffff1681526020018363ffffffff1681526020018263ffffffff1681526020019a505050505050505050505060405180910390f35b3480156102d757600080fd5b5061032a600480360360408110156102ee57600080fd5b81019080803563ffffffff169060200190929190803573ffffffffffffffffffffffffffffffffffffffff16906020019092919050505061152d565b6040518082815260200191505060405180910390f35b34801561034c57600080fd5b5061039f6004803603604081101561036357600080fd5b81019080803563ffffffff169060200190929190803573ffffffffffffffffffffffffffffffffffffffff169060200190929190505050611552565b6040518082815260200191505060405180910390f35b3480156103c157600080fd5b50610438600480360360c08110156103d857600080fd5b81019080803563ffffffff1690602001909291908035906020019092919080359060200190929190803563ffffffff169060200190929190803563ffffffff169060200190929190803563ffffffff169060200190929190505050611577565b005b34801561044657600080fd5b506104996004803603604081101561045d57600080fd5b81019080803563ffffffff169060200190929190803573ffffffffffffffffffffffffffffffffffffffff1690602001909291905050506117b3565b6040518082815260200191505060405180910390f35b3480156104bb57600080fd5b506104ee600480360360208110156104d257600080fd5b81019080803563ffffffff169060200190929190505050611a07565b60405180821515815260200191505060405180910390f35b34801561051257600080fd5b506105ae600480360361012081101561052a57600080fd5b8101908080359060200190929190803590602001909291908035906020019092919080359060200190929190803563ffffffff169060200190929190803563ffffffff169060200190929190803563ffffffff169060200190929190803563ffffffff169060200190929190803563ffffffff169060200190929190505050611a40565b005b3480156105bc57600080fd5b506105ef600480360360208110156105d357600080fd5b81019080803563ffffffff169060200190929190505050611d63565b6040518082815260200191505060405180910390f35b34801561061157600080fd5b5061061a611d7b565b005b34801561062857600080fd5b50610631611f01565b604051808273ffffffffffffffffffffffffffffffffffffffff16815260200191505060405180910390f35b34801561066957600080fd5b5061069c6004803603602081101561068057600080fd5b81019080803563ffffffff169060200190929190505050611f2a565b005b3480156106aa57600080fd5b506106ed600480360360208110156106c157600080fd5b81019080803573ffffffffffffffffffffffffffffffffffffffff16906020019092919050505061206d565b005b3480156106fb57600080fd5b50610704612179565b604051808263ffffffff16815260200191505060405180910390f35b34801561072c57600080fd5b506107896004803603606081101561074357600080fd5b81019080803563ffffffff169060200190929190803573ffffffffffffffffffffffffffffffffffffffff1690602001909291908035906020019092919050505061218f565b005b34801561079757600080fd5b506107ea600480360360408110156107ae57600080fd5b81019080803563ffffffff169060200190929190803573ffffffffffffffffffffffffffffffffffffffff1690602001909291905050506124e3565b60405180821515815260200191505060405180910390f35b34801561080e57600080fd5b50610817612557565b6040518082815260200191505060405180910390f35b34801561083957600080fd5b5061087c6004803603602081101561085057600080fd5b81019080803573ffffffffffffffffffffffffffffffffffffffff16906020019092919050505061256b565b005b34801561088a57600080fd5b506108dd600480360360408110156108a157600080fd5b81019080803563ffffffff169060200190929190803573ffffffffffffffffffffffffffffffffffffffff169060200190929190505050612776565b60405180821515815260200191505060405180910390f35b34801561090157600080fd5b506109346004803603602081101561091857600080fd5b81019080803563ffffffff1690602001909291905050506127a5565b6040518082815260200191505060405180910390f35b600360008263ffffffff1663ffffffff16815260200190815260200160002060040160049054906101000a900460ff166109cf576040517f08c379a00000000000000000000000000000000000000000000000000000000081526004018080602001828103825260268152602001806127c66026913960400191505060405180910390fd5b6109d98133610ce6565b341015610a4e576040517f08c379a000000000000000000000000000000000000000000000000000000000815260040180806020018281038252601b8152602001807f496e73756666696369656e74207072656d69756d20616d6f756e74000000000081525060200191505060405180910390fd5b610a5881336124e3565b610aca576040517f08c379a000000000000000000000000000000000000000000000000000000000815260040180806020018281038252601d8152602001807f4e6f74206120636c61696d616e74206f66207468697320706f6c69637900000081525060200191505060405180910390fd5b34600560008363ffffffff1663ffffffff16815260200190815260200160002060003373ffffffffffffffffffffffffffffffffffffffff1673ffffffffffffffffffffffffffffffffffffffff1681526020019081526020016000206000828254019250508190555042600660008363ffffffff1663ffffffff16815260200190815260200160002060003373ffffffffffffffffffffffffffffffffffffffff1673ffffffffffffffffffffffffffffffffffffffff1681526020019081526020016000208190555060006064600360008463ffffffff1663ffffffff168152602001908152602001600020600401600d9054906101000a900463ffffffff1663ffffffff16340281610bdb57fe5b04905060006064600360008563ffffffff1663ffffffff16815260200190815260200160002060040160119054906101000a900463ffffffff1663ffffffff16340281610c2457fe5b04905081600860008563ffffffff1663ffffffff1681526020019081526020016000206000828254019250508190555080600960008563ffffffff1663ffffffff168152602001908152602001600020600082825401925050819055503373ffffffffffffffffffffffffffffffffffffffff168363ffffffff167fcb56b790741c56fe9689db9a11c7acfbbe5aa3e1eafa48a4eedb4969868814373460006040518083815260200182151581526020019250505060405180910390a3505050565b6000610cf283336124e3565b610d64576040517f08c379a00000000000000000000000000000000000000000000000000000000081526004018080602001828103825260138152602001807f4e6f74206120706f6c696379206f776e6572210000000000000000000000000081525060200191505060405180910390fd5b600360008463ffffffff1663ffffffff16815260200190815260200160002060040160049054906101000a900460ff16610e06576040517f08c379a00000000000000000000000000000000000000000000000000000000081526004018080602001828103825260148152602001807f506f6c6963792069736e2774206163746976652100000000000000000000000081525060200191505060405180910390fd5b6000600660008563ffffffff1663ffffffff16815260200190815260200160002060008473ffffffffffffffffffffffffffffffffffffffff1673ffffffffffffffffffffffffffffffffffffffff1681526020019081526020016000205411610ed8576040517f08c379a00000000000000000000000000000000000000000000000000000000081526004018080602001828103825260198152602001807f4e6f2070726576696f7573207061796d656e7420666f756e640000000000000081525060200191505060405180910390fd5b6000600660008563ffffffff1663ffffffff16815260200190815260200160002060008473ffffffffffffffffffffffffffffffffffffffff1673ffffffffffffffffffffffffffffffffffffffff168152602001908152602001600020544203905060006018603c808481610f4a57fe5b0481610f5257fe5b0481610f5a57fe5b0490506000601e600360008863ffffffff1663ffffffff1681526020019081526020016000206003015481610f8b57fe5b049050600081830290506000600360008963ffffffff1663ffffffff16815260200190815260200160002060030154905081810190506000601e8581610fcd57fe5b049050600360008a63ffffffff1663ffffffff16815260200190815260200160002060040160099054906101000a900463ffffffff1663ffffffff168111156110a2576000600360008b63ffffffff1663ffffffff16815260200190815260200160002060040160059054906101000a900463ffffffff1663ffffffff1690506000600360008c63ffffffff1663ffffffff16815260200190815260200160002060040160099054906101000a900463ffffffff1663ffffffff1683039050606481838602028161109a57fe5b048401935050505b81965050505050505092915050565b600360008263ffffffff1663ffffffff16815260200190815260200160002060040160049054906101000a900460ff16611153576040517f08c379a00000000000000000000000000000000000000000000000000000000081526004018080602001828103825260148152602001807f506f6c696379206973206e6f742061637469766500000000000000000000000081525060200191505060405180910390fd5b600360008263ffffffff1663ffffffff168152602001908152602001600020600101543410156111eb576040517f08c379a00000000000000000000000000000000000000000000000000000000081526004018080602001828103825260168152602001807f43616e2774206166666f7264207468652072617465210000000000000000000081525060200191505060405180910390fd5b34600560008363ffffffff1663ffffffff16815260200190815260200160002060003373ffffffffffffffffffffffffffffffffffffffff1673ffffffffffffffffffffffffffffffffffffffff168152602001908152602001600020600082825401925050819055506001600460008363ffffffff1663ffffffff16815260200190815260200160002060003373ffffffffffffffffffffffffffffffffffffffff1673ffffffffffffffffffffffffffffffffffffffff16815260200190815260200160002060006101000a81548160ff02191690831515021790555042600660008363ffffffff1663ffffffff16815260200190815260200160002060003373ffffffffffffffffffffffffffffffffffffffff1673ffffffffffffffffffffffffffffffffffffffff1681526020019081526020016000208190555060006064600360008463ffffffff1663ffffffff168152602001908152602001600020600401600d9054906101000a900463ffffffff1663ffffffff1634028161137157fe5b04905060006064600360008563ffffffff1663ffffffff16815260200190815260200160002060040160119054906101000a900463ffffffff1663ffffffff163402816113ba57fe5b04905081600860008563ffffffff1663ffffffff1681526020019081526020016000206000828254019250508190555080600960008563ffffffff1663ffffffff168152602001908152602001600020600082825401925050819055503373ffffffffffffffffffffffffffffffffffffffff168363ffffffff167fcb56b790741c56fe9689db9a11c7acfbbe5aa3e1eafa48a4eedb4969868814373460016040518083815260200182151581526020019250505060405180910390a3505050565b60036020528060005260406000206000915090508060000154908060010154908060020154908060030154908060040160009054906101000a900463ffffffff16908060040160049054906101000a900460ff16908060040160059054906101000a900463ffffffff16908060040160099054906101000a900463ffffffff169080600401600d9054906101000a900463ffffffff16908060040160119054906101000a900463ffffffff1690508a565b6006602052816000526040600020602052806000526040600020600091509150505481565b6005602052816000526040600020602052806000526040600020600091509150505481565b61157f6127bd565b73ffffffffffffffffffffffffffffffffffffffff1660008054906101000a900473ffffffffffffffffffffffffffffffffffffffff1673ffffffffffffffffffffffffffffffffffffffff161461163f576040517f08c379a00000000000000000000000000000000000000000000000000000000081526004018080602001828103825260208152602001807f4f776e61626c653a2063616c6c6572206973206e6f7420746865206f776e657281525060200191505060405180910390fd5b84600360008863ffffffff1663ffffffff1681526020019081526020016000206000018190555083600360008863ffffffff1663ffffffff1681526020019081526020016000206001018190555082600360008863ffffffff1663ffffffff16815260200190815260200160002060040160006101000a81548163ffffffff021916908363ffffffff16021790555080600360008863ffffffff1663ffffffff16815260200190815260200160002060040160056101000a81548163ffffffff021916908363ffffffff16021790555081600360008863ffffffff1663ffffffff16815260200190815260200160002060040160096101000a81548163ffffffff021916908363ffffffff1602179055507fbe829975d2c0d9995edbd0abc0cbd073add0fde193595b70af3c8e9094c00ac886868686604051808563ffffffff1681526020018481526020018381526020018263ffffffff16815260200194505050505060405180910390a1505050505050565b600080600360008563ffffffff1663ffffffff16815260200190815260200160002060405180610140016040529081600082015481526020016001820154815260200160028201548152602001600382015481526020016004820160009054906101000a900463ffffffff1663ffffffff1663ffffffff1681526020016004820160049054906101000a900460ff161515151581526020016004820160059054906101000a900463ffffffff1663ffffffff1663ffffffff1681526020016004820160099054906101000a900463ffffffff1663ffffffff1663ffffffff16815260200160048201600d9054906101000a900463ffffffff1663ffffffff1663ffffffff1681526020016004820160119054906101000a900463ffffffff1663ffffffff1663ffffffff168152505090508060a0015161195b576040517f08c379a00000000000000000000000000000000000000000000000000000000081526004018080602001828103825260148152602001807f506f6c696379206973206e6f742061637469766500000000000000000000000081525060200191505060405180910390fd5b6000816040015182602001518360000151028161197457fe5b0490506000600560008763ffffffff1663ffffffff16815260200190815260200160002060008673ffffffffffffffffffffffffffffffffffffffff1673ffffffffffffffffffffffffffffffffffffffff16815260200190815260200160002054905060006119e2612557565b9050600081856020015184030290506000818501905080965050505050505092915050565b6000600360008363ffffffff1663ffffffff16815260200190815260200160002060040160049054906101000a900460ff169050919050565b611a486127bd565b73ffffffffffffffffffffffffffffffffffffffff1660008054906101000a900473ffffffffffffffffffffffffffffffffffffffff1673ffffffffffffffffffffffffffffffffffffffff1614611b08576040517f08c379a00000000000000000000000000000000000000000000000000000000081526004018080602001828103825260208152602001807f4f776e61626c653a2063616c6c6572206973206e6f7420746865206f776e657281525060200191505060405180910390fd5b6040518061014001604052808a81526020018981526020018881526020018781526020018663ffffffff1681526020016001151581526020018563ffffffff1681526020018463ffffffff1681526020018363ffffffff1681526020018263ffffffff1681525060036000600760009054906101000a900463ffffffff1663ffffffff1663ffffffff1681526020019081526020016000206000820151816000015560208201518160010155604082015181600201556060820151816003015560808201518160040160006101000a81548163ffffffff021916908363ffffffff16021790555060a08201518160040160046101000a81548160ff02191690831515021790555060c08201518160040160056101000a81548163ffffffff021916908363ffffffff16021790555060e08201518160040160096101000a81548163ffffffff021916908363ffffffff16021790555061010082015181600401600d6101000a81548163ffffffff021916908363ffffffff1602179055506101208201518160040160116101000a81548163ffffffff021916908363ffffffff1602179055509050507f19bb034335e290edb4dfdd4b94706d99fb766d7512bd8836347f261943bd98e2600760009054906101000a900463ffffffff168a8a88604051808563ffffffff1681526020018481526020018381526020018263ffffffff16815260200194505050505060405180910390a16007600081819054906101000a900463ffffffff168092919060010191906101000a81548163ffffffff021916908363ffffffff16021790555050505050505050505050565b60086020528060005260406000206000915090505481565b611d836127bd565b73ffffffffffffffffffffffffffffffffffffffff1660008054906101000a900473ffffffffffffffffffffffffffffffffffffffff1673ffffffffffffffffffffffffffffffffffffffff1614611e43576040517f08c379a00000000000000000000000000000000000000000000000000000000081526004018080602001828103825260208152602001807f4f776e61626c653a2063616c6c6572206973206e6f7420746865206f776e657281525060200191505060405180910390fd5b600073ffffffffffffffffffffffffffffffffffffffff1660008054906101000a900473ffffffffffffffffffffffffffffffffffffffff1673ffffffffffffffffffffffffffffffffffffffff167f8be0079c531659141344cd1fd0a4f28419497f9722a3daafe3b4186f6b6457e060405160405180910390a360008060006101000a81548173ffffffffffffffffffffffffffffffffffffffff021916908373ffffffffffffffffffffffffffffffffffffffff160217905550565b60008060009054906101000a900473ffffffffffffffffffffffffffffffffffffffff16905090565b611f326127bd565b73ffffffffffffffffffffffffffffffffffffffff1660008054906101000a900473ffffffffffffffffffffffffffffffffffffffff1673ffffffffffffffffffffffffffffffffffffffff1614611ff2576040517f08c379a00000000000000000000000000000000000000000000000000000000081526004018080602001828103825260208152602001807f4f776e61626c653a2063616c6c6572206973206e6f7420746865206f776e657281525060200191505060405180910390fd5b6000600360008363ffffffff1663ffffffff16815260200190815260200160002060040160046101000a81548160ff0219169083151502179055507fc5dfab0962c70e9a4416c78094b25bf915c7d3198f89974c6ddc52306e4df42481604051808263ffffffff16815260200191505060405180910390a150565b6120756127bd565b73ffffffffffffffffffffffffffffffffffffffff1660008054906101000a900473ffffffffffffffffffffffffffffffffffffffff1673ffffffffffffffffffffffffffffffffffffffff1614612135576040517f08c379a00000000000000000000000000000000000000000000000000000000081526004018080602001828103825260208152602001807f4f776e61626c653a2063616c6c6572206973206e6f7420746865206f776e657281525060200191505060405180910390fd5b80600260006101000a81548173ffffffffffffffffffffffffffffffffffffffff021916908373ffffffffffffffffffffffffffffffffffffffff16021790555050565b600760009054906101000a900463ffffffff1681565b60026001541415612208576040517f08c379a000000000000000000000000000000000000000000000000000000000815260040180806020018281038252601f8152602001807f5265656e7472616e637947756172643a207265656e7472616e742063616c6c0081525060200191505060405180910390fd5b6002600181905550600260009054906101000a900473ffffffffffffffffffffffffffffffffffffffff1673ffffffffffffffffffffffffffffffffffffffff163373ffffffffffffffffffffffffffffffffffffffff16146122b6576040517f08c379a00000000000000000000000000000000000000000000000000000000081526004018080602001828103825260218152602001806128126021913960400191505060405180910390fd5b600360008463ffffffff1663ffffffff16815260200190815260200160002060040160049054906101000a900460ff16612358576040517f08c379a00000000000000000000000000000000000000000000000000000000081526004018080602001828103825260148152602001807f506f6c696379206973206e6f742061637469766500000000000000000000000081525060200191505060405180910390fd5b600460008463ffffffff1663ffffffff16815260200190815260200160002060008373ffffffffffffffffffffffffffffffffffffffff1673ffffffffffffffffffffffffffffffffffffffff16815260200190815260200160002060009054906101000a900460ff16612434576040517f08c379a00000000000000000000000000000000000000000000000000000000081526004018080602001828103825260128152602001807f4e6f74206120706f6c696379206f776e6572000000000000000000000000000081525060200191505060405180910390fd5b8173ffffffffffffffffffffffffffffffffffffffff166108fc600560008663ffffffff1663ffffffff16815260200190815260200160002060008573ffffffffffffffffffffffffffffffffffffffff1673ffffffffffffffffffffffffffffffffffffffff168152602001908152602001600020549081150290604051600060405180830381858888f193505050501580156124d6573d6000803e3d6000fd5b5060018081905550505050565b6000600460008463ffffffff1663ffffffff16815260200190815260200160002060008373ffffffffffffffffffffffffffffffffffffffff1673ffffffffffffffffffffffffffffffffffffffff16815260200190815260200160002060009054906101000a900460ff16905092915050565b600080600290506000819050809250505090565b6125736127bd565b73ffffffffffffffffffffffffffffffffffffffff1660008054906101000a900473ffffffffffffffffffffffffffffffffffffffff1673ffffffffffffffffffffffffffffffffffffffff1614612633576040517f08c379a00000000000000000000000000000000000000000000000000000000081526004018080602001828103825260208152602001807f4f776e61626c653a2063616c6c6572206973206e6f7420746865206f776e657281525060200191505060405180910390fd5b600073ffffffffffffffffffffffffffffffffffffffff168173ffffffffffffffffffffffffffffffffffffffff1614156126b9576040517f08c379a00000000000000000000000000000000000000000000000000000000081526004018080602001828103825260268152602001806127ec6026913960400191505060405180910390fd5b8073ffffffffffffffffffffffffffffffffffffffff1660008054906101000a900473ffffffffffffffffffffffffffffffffffffffff1673ffffffffffffffffffffffffffffffffffffffff167f8be0079c531659141344cd1fd0a4f28419497f9722a3daafe3b4186f6b6457e060405160405180910390a3806000806101000a81548173ffffffffffffffffffffffffffffffffffffffff021916908373ffffffffffffffffffffffffffffffffffffffff16021790555050565b60046020528160005260406000206020528060005260406000206000915091509054906101000a900460ff1681565b60096020528060005260406000206000915090505481565b60003390509056fe506f6c69637920646f6573206e6f74206578697374206f72206973206e6f74206163746976654f776e61626c653a206e6577206f776e657220697320746865207a65726f206164647265737343616c6c6572206973206e6f7420746865205061796f757420636f6e7472616374a26469706673582212205b2a39c4382092a52bfea9de4bd5ad6c6a054d5591eed431ff98e8451307ca0964736f6c63430007060033",
  "linkReferences": {},
  "deployedLinkReferences": {}
}