{
  "_format": "hh-sol-artifact-1",
  "contractName": "PolicyMaker",
  "sourceName": "contracts/PolicyMaker.sol",
  "abi": [
    {
      "inputs": [
        {
          "internalType": "address",
          "name": "initialOwner",
          "type": "address"
        },
        {
          "internalType": "address",
          "name": "_addressesProvider",
          "type": "address"
        }
      ],
      "stateMutability": "nonpayable",
      "type": "constructor"
    },
    {
      "inputs": [
        {
          "internalType": "address",
          "name": "owner",
          "type": "address"
        }
      ],
      "name": "OwnableInvalidOwner",
      "type": "error"
    },
    {
      "inputs": [
        {
          "internalType": "address",
          "name": "account",
          "type": "address"
        }
      ],
      "name": "OwnableUnauthorizedAccount",
      "type": "error"
    },
    {
      "inputs": [],
      "name": "ReentrancyGuardReentrantCall",
      "type": "error"
    },
    {
      "anonymous": false,
      "inputs": [
        {
          "indexed": true,
          "internalType": "address",
          "name": "previousOwner",
          "type": "address"
        },
        {
          "indexed": true,
          "internalType": "address",
          "name": "newOwner",
          "type": "address"
        }
      ],
      "name": "OwnershipTransferred",
      "type": "event"
    },
    {
      "anonymous": false,
      "inputs": [
        {
          "indexed": false,
          "internalType": "uint32",
          "name": "policyId",
          "type": "uint32"
        },
        {
          "indexed": false,
          "internalType": "uint256",
          "name": "coverageAmount",
          "type": "uint256"
        },
        {
          "indexed": false,
          "internalType": "uint256",
          "name": "initialPremiumFee",
          "type": "uint256"
        },
        {
          "indexed": false,
          "internalType": "uint32",
          "name": "duration",
          "type": "uint32"
        }
      ],
      "name": "PolicyCreated",
      "type": "event"
    },
    {
      "anonymous": false,
      "inputs": [
        {
          "indexed": false,
          "internalType": "uint32",
          "name": "policyId",
          "type": "uint32"
        }
      ],
      "name": "PolicyDeactivated",
      "type": "event"
    },
    {
      "anonymous": false,
      "inputs": [
        {
          "indexed": false,
          "internalType": "uint32",
          "name": "policyId",
          "type": "uint32"
        },
        {
          "indexed": false,
          "internalType": "uint256",
          "name": "coverageAmount",
          "type": "uint256"
        },
        {
          "indexed": false,
          "internalType": "uint256",
          "name": "initialPremiumFee",
          "type": "uint256"
        },
        {
          "indexed": false,
          "internalType": "uint32",
          "name": "duration",
          "type": "uint32"
        }
      ],
      "name": "PolicyUpdated",
      "type": "event"
    },
    {
      "anonymous": false,
      "inputs": [
        {
          "indexed": true,
          "internalType": "uint32",
          "name": "policyId",
          "type": "uint32"
        },
        {
          "indexed": true,
          "internalType": "address",
          "name": "claimant",
          "type": "address"
        },
        {
          "indexed": false,
          "internalType": "uint256",
          "name": "amount",
          "type": "uint256"
        },
        {
          "indexed": false,
          "internalType": "bool",
          "name": "isPremium",
          "type": "bool"
        }
      ],
      "name": "PremiumPaid",
      "type": "event"
    },
    {
      "inputs": [],
      "name": "WETH_ADDRESS",
      "outputs": [
        {
          "internalType": "address",
          "name": "",
          "type": "address"
        }
      ],
      "stateMutability": "view",
      "type": "function"
    },
    {
      "inputs": [
        {
          "internalType": "uint32",
          "name": "",
          "type": "uint32"
        },
        {
          "internalType": "address",
          "name": "",
          "type": "address"
        }
      ],
      "name": "amountClaimed",
      "outputs": [
        {
          "internalType": "uint256",
          "name": "",
          "type": "uint256"
        }
      ],
      "stateMutability": "view",
      "type": "function"
    },
    {
      "inputs": [
        {
          "internalType": "uint32",
          "name": "_policyId",
          "type": "uint32"
        },
        {
          "internalType": "address",
          "name": "_policyHolder",
          "type": "address"
        },
        {
          "internalType": "uint256",
          "name": "inputPremium",
          "type": "uint256"
        }
      ],
      "name": "calculateDynamicCoverageFactor",
      "outputs": [
        {
          "internalType": "uint256",
          "name": "",
          "type": "uint256"
        }
      ],
      "stateMutability": "view",
      "type": "function"
    },
    {
      "inputs": [
        {
          "internalType": "uint32",
          "name": "_policyId",
          "type": "uint32"
        },
        {
          "internalType": "address",
          "name": "_policyHolder",
          "type": "address"
        },
        {
          "internalType": "uint256",
          "name": "_inputPremium",
          "type": "uint256"
        }
      ],
      "name": "calculatePotentialCoverage",
      "outputs": [
        {
          "internalType": "uint256",
          "name": "",
          "type": "uint256"
        }
      ],
      "stateMutability": "view",
      "type": "function"
    },
    {
      "inputs": [
        {
          "internalType": "uint32",
          "name": "_policyId",
          "type": "uint32"
        },
        {
          "internalType": "address",
          "name": "_policyHolder",
          "type": "address"
        }
      ],
      "name": "calculatePremium",
      "outputs": [
        {
          "internalType": "uint256",
          "name": "",
          "type": "uint256"
        }
      ],
      "stateMutability": "view",
      "type": "function"
    },
    {
      "inputs": [
        {
          "internalType": "uint32",
          "name": "_policyId",
          "type": "uint32"
        },
        {
          "internalType": "uint256",
          "name": "_premiumAmount",
          "type": "uint256"
        }
      ],
      "name": "calculatePremiumAllocation",
      "outputs": [
        {
          "internalType": "uint256",
          "name": "",
          "type": "uint256"
        },
        {
          "internalType": "uint256",
          "name": "",
          "type": "uint256"
        }
      ],
      "stateMutability": "view",
      "type": "function"
    },
    {
      "inputs": [
        {
          "internalType": "uint32",
          "name": "_policyId",
          "type": "uint32"
        },
        {
          "internalType": "uint256",
          "name": "inputPremium",
          "type": "uint256"
        }
      ],
      "name": "calculatePremiumSizeFactor",
      "outputs": [
        {
          "internalType": "uint256",
          "name": "",
          "type": "uint256"
        }
      ],
      "stateMutability": "view",
      "type": "function"
    },
    {
      "inputs": [
        {
          "internalType": "uint32",
          "name": "_policyId",
          "type": "uint32"
        },
        {
          "internalType": "address",
          "name": "_policyHolder",
          "type": "address"
        }
      ],
      "name": "calculateTotalCoverage",
      "outputs": [
        {
          "internalType": "uint256",
          "name": "",
          "type": "uint256"
        }
      ],
      "stateMutability": "view",
      "type": "function"
    },
    {
      "inputs": [],
      "name": "convertEthToWeth",
      "outputs": [],
      "stateMutability": "payable",
      "type": "function"
    },
    {
      "inputs": [
        {
          "internalType": "uint32",
          "name": "",
          "type": "uint32"
        }
      ],
      "name": "coverageFundBalance",
      "outputs": [
        {
          "internalType": "uint256",
          "name": "",
          "type": "uint256"
        }
      ],
      "stateMutability": "view",
      "type": "function"
    },
    {
      "inputs": [
        {
          "internalType": "uint32",
          "name": "",
          "type": "uint32"
        },
        {
          "internalType": "address",
          "name": "",
          "type": "address"
        }
      ],
      "name": "coverageFundTokenBalance",
      "outputs": [
        {
          "internalType": "uint256",
          "name": "",
          "type": "uint256"
        }
      ],
      "stateMutability": "view",
      "type": "function"
    },
    {
      "inputs": [
        {
          "internalType": "uint32",
          "name": "",
          "type": "uint32"
        },
        {
          "internalType": "address",
          "name": "",
          "type": "address"
        }
      ],
      "name": "coverageFunded",
      "outputs": [
        {
          "internalType": "uint256",
          "name": "",
          "type": "uint256"
        }
      ],
      "stateMutability": "view",
      "type": "function"
    },
    {
      "inputs": [
        {
          "internalType": "uint256",
          "name": "_coverageAmount",
          "type": "uint256"
        },
        {
          "internalType": "uint256",
          "name": "_initialPremiumFee",
          "type": "uint256"
        },
        {
          "internalType": "uint256",
          "name": "_initialCoveragePercentage",
          "type": "uint256"
        },
        {
          "internalType": "uint256",
          "name": "_premiumRate",
          "type": "uint256"
        },
        {
          "internalType": "uint32",
          "name": "_duration",
          "type": "uint32"
        },
        {
          "internalType": "uint32",
          "name": "_penaltyRate",
          "type": "uint32"
        },
        {
          "internalType": "uint32",
          "name": "_monthsGracePeriod",
          "type": "uint32"
        },
        {
          "internalType": "uint32",
          "name": "_coverageFundPercentage",
          "type": "uint32"
        },
        {
          "internalType": "uint32",
          "name": "_investmentFundPercentage",
          "type": "uint32"
        }
      ],
      "name": "createPolicy",
      "outputs": [],
      "stateMutability": "nonpayable",
      "type": "function"
    },
    {
      "inputs": [
        {
          "internalType": "uint32",
          "name": "_policyId",
          "type": "uint32"
        }
      ],
      "name": "deactivatePolicy",
      "outputs": [],
      "stateMutability": "nonpayable",
      "type": "function"
    },
    {
      "inputs": [
        {
          "internalType": "uint32",
          "name": "policyId",
          "type": "uint32"
        },
        {
          "internalType": "uint256",
          "name": "claimAmount",
          "type": "uint256"
        }
      ],
      "name": "handlePayout",
      "outputs": [],
      "stateMutability": "nonpayable",
      "type": "function"
    },
    {
      "inputs": [
        {
          "internalType": "uint32",
          "name": "policyId",
          "type": "uint32"
        },
        {
          "internalType": "uint256",
          "name": "amount",
          "type": "uint256"
        }
      ],
      "name": "investInAavePool",
      "outputs": [],
      "stateMutability": "nonpayable",
      "type": "function"
    },
    {
      "inputs": [
        {
          "internalType": "uint32",
          "name": "",
          "type": "uint32"
        }
      ],
      "name": "investmentFundBalance",
      "outputs": [
        {
          "internalType": "uint256",
          "name": "",
          "type": "uint256"
        }
      ],
      "stateMutability": "view",
      "type": "function"
    },
    {
      "inputs": [
        {
          "internalType": "uint32",
          "name": "",
          "type": "uint32"
        },
        {
          "internalType": "address",
          "name": "",
          "type": "address"
        }
      ],
      "name": "investmentFundTokenBalance",
      "outputs": [
        {
          "internalType": "uint256",
          "name": "",
          "type": "uint256"
        }
      ],
      "stateMutability": "view",
      "type": "function"
    },
    {
      "inputs": [
        {
          "internalType": "uint32",
          "name": "",
          "type": "uint32"
        },
        {
          "internalType": "address",
          "name": "",
          "type": "address"
        }
      ],
      "name": "investmentFunded",
      "outputs": [
        {
          "internalType": "uint256",
          "name": "",
          "type": "uint256"
        }
      ],
      "stateMutability": "view",
      "type": "function"
    },
    {
      "inputs": [
        {
          "internalType": "uint32",
          "name": "_policyId",
          "type": "uint32"
        }
      ],
      "name": "isActive",
      "outputs": [
        {
          "internalType": "bool",
          "name": "",
          "type": "bool"
        }
      ],
      "stateMutability": "view",
      "type": "function"
    },
    {
      "inputs": [
        {
          "internalType": "uint32",
          "name": "_policyId",
          "type": "uint32"
        },
        {
          "internalType": "address",
          "name": "_claimant",
          "type": "address"
        }
      ],
      "name": "isPolicyOwner",
      "outputs": [
        {
          "internalType": "bool",
          "name": "",
          "type": "bool"
        }
      ],
      "stateMutability": "view",
      "type": "function"
    },
    {
      "inputs": [
        {
          "internalType": "uint32",
          "name": "",
          "type": "uint32"
        },
        {
          "internalType": "address",
          "name": "",
          "type": "address"
        }
      ],
      "name": "lastPremiumPaidTime",
      "outputs": [
        {
          "internalType": "uint256",
          "name": "",
          "type": "uint256"
        }
      ],
      "stateMutability": "view",
      "type": "function"
    },
    {
      "inputs": [],
      "name": "nextPolicyId",
      "outputs": [
        {
          "internalType": "uint32",
          "name": "",
          "type": "uint32"
        }
      ],
      "stateMutability": "view",
      "type": "function"
    },
    {
      "inputs": [],
      "name": "owner",
      "outputs": [
        {
          "internalType": "address",
          "name": "",
          "type": "address"
        }
      ],
      "stateMutability": "view",
      "type": "function"
    },
    {
      "inputs": [
        {
          "internalType": "uint32",
          "name": "_policyId",
          "type": "uint32"
        },
        {
          "internalType": "uint256",
          "name": "investmentFundPercentage",
          "type": "uint256"
        },
        {
          "internalType": "uint256",
          "name": "amount",
          "type": "uint256"
        }
      ],
      "name": "payCustomPremium",
      "outputs": [],
      "stateMutability": "payable",
      "type": "function"
    },
    {
      "inputs": [
        {
          "internalType": "uint32",
          "name": "_policyId",
          "type": "uint32"
        },
        {
          "internalType": "uint256",
          "name": "amount",
          "type": "uint256"
        }
      ],
      "name": "payInitialPremium",
      "outputs": [],
      "stateMutability": "nonpayable",
      "type": "function"
    },
    {
      "inputs": [
        {
          "internalType": "uint32",
          "name": "_policyId",
          "type": "uint32"
        },
        {
          "internalType": "uint256",
          "name": "amount",
          "type": "uint256"
        }
      ],
      "name": "payPremium",
      "outputs": [],
      "stateMutability": "payable",
      "type": "function"
    },
    {
      "inputs": [
        {
          "internalType": "uint32",
          "name": "",
          "type": "uint32"
        }
      ],
      "name": "policies",
      "outputs": [
        {
          "internalType": "uint256",
          "name": "coverageAmount",
          "type": "uint256"
        },
        {
          "internalType": "uint256",
          "name": "initialPremiumFee",
          "type": "uint256"
        },
        {
          "internalType": "uint256",
          "name": "initialCoveragePercentage",
          "type": "uint256"
        },
        {
          "internalType": "uint256",
          "name": "premiumRate",
          "type": "uint256"
        },
        {
          "internalType": "uint32",
          "name": "duration",
          "type": "uint32"
        },
        {
          "internalType": "bool",
          "name": "isActive",
          "type": "bool"
        },
        {
          "internalType": "uint32",
          "name": "penaltyRate",
          "type": "uint32"
        },
        {
          "internalType": "uint32",
          "name": "monthsGracePeriod",
          "type": "uint32"
        },
        {
          "internalType": "uint32",
          "name": "coverageFundPercentage",
          "type": "uint32"
        },
        {
          "internalType": "uint32",
          "name": "investmentFundPercentage",
          "type": "uint32"
        },
        {
          "internalType": "uint256",
          "name": "startTime",
          "type": "uint256"
        }
      ],
      "stateMutability": "view",
      "type": "function"
    },
    {
      "inputs": [
        {
          "internalType": "uint32",
          "name": "",
          "type": "uint32"
        },
        {
          "internalType": "address",
          "name": "",
          "type": "address"
        }
      ],
      "name": "policyOwners",
      "outputs": [
        {
          "internalType": "bool",
          "name": "",
          "type": "bool"
        }
      ],
      "stateMutability": "view",
      "type": "function"
    },
    {
      "inputs": [
        {
          "internalType": "uint32",
          "name": "",
          "type": "uint32"
        },
        {
          "internalType": "address",
          "name": "",
          "type": "address"
        }
      ],
      "name": "premiumsPaid",
      "outputs": [
        {
          "internalType": "uint256",
          "name": "",
          "type": "uint256"
        }
      ],
      "stateMutability": "view",
      "type": "function"
    },
    {
      "inputs": [],
      "name": "renounceOwnership",
      "outputs": [],
      "stateMutability": "nonpayable",
      "type": "function"
    },
    {
      "inputs": [
        {
          "internalType": "address",
          "name": "_payoutContract",
          "type": "address"
        }
      ],
      "name": "setPayoutContract",
      "outputs": [],
      "stateMutability": "nonpayable",
      "type": "function"
    },
    {
      "inputs": [
        {
          "internalType": "uint32",
          "name": "",
          "type": "uint32"
        },
        {
          "internalType": "address",
          "name": "",
          "type": "address"
        }
      ],
      "name": "timesPaid",
      "outputs": [
        {
          "internalType": "uint32",
          "name": "",
          "type": "uint32"
        }
      ],
      "stateMutability": "view",
      "type": "function"
    },
    {
      "inputs": [
        {
          "internalType": "address",
          "name": "newOwner",
          "type": "address"
        }
      ],
      "name": "transferOwnership",
      "outputs": [],
      "stateMutability": "nonpayable",
      "type": "function"
    },
    {
      "inputs": [
        {
          "internalType": "uint32",
          "name": "_policyId",
          "type": "uint32"
        },
        {
          "internalType": "uint256",
          "name": "_coverageAmount",
          "type": "uint256"
        },
        {
          "internalType": "uint256",
          "name": "_initialPremiumFee",
          "type": "uint256"
        },
        {
          "internalType": "uint32",
          "name": "_duration",
          "type": "uint32"
        },
        {
          "internalType": "uint32",
          "name": "_monthsGracePeriod",
          "type": "uint32"
        },
        {
          "internalType": "uint32",
          "name": "_penaltyRate",
          "type": "uint32"
        }
      ],
      "name": "updatePolicy",
      "outputs": [],
      "stateMutability": "nonpayable",
      "type": "function"
    },
    {
      "inputs": [],
      "name": "weth",
      "outputs": [
        {
          "internalType": "contract IWETH",
          "name": "",
          "type": "address"
        }
      ],
      "stateMutability": "view",
      "type": "function"
    },
    {
      "inputs": [
        {
          "internalType": "address",
          "name": "asset",
          "type": "address"
        },
        {
          "internalType": "uint256",
          "name": "amount",
          "type": "uint256"
        }
      ],
      "name": "withdrawFromAavePool",
      "outputs": [],
      "stateMutability": "nonpayable",
      "type": "function"
    },
    {
      "inputs": [
        {
          "internalType": "uint256",
          "name": "amount",
          "type": "uint256"
        }
      ],
      "name": "withdrawWethAsEth",
      "outputs": [],
      "stateMutability": "nonpayable",
      "type": "function"
    }
  ],
  "bytecode": "0x60806040526001600c60006101000a81548163ffffffff021916908363ffffffff1602179055503480156200003357600080fd5b5060405162004fb638038062004fb6833981810160405281019062000059919062000388565b81600073ffffffffffffffffffffffffffffffffffffffff168173ffffffffffffffffffffffffffffffffffffffff1603620000cf5760006040517f1e4fbdf7000000000000000000000000000000000000000000000000000000008152600401620000c69190620003e0565b60405180910390fd5b620000e0816200025a60201b60201c565b506001808190555080601160006101000a81548173ffffffffffffffffffffffffffffffffffffffff021916908373ffffffffffffffffffffffffffffffffffffffff160217905550601160009054906101000a900473ffffffffffffffffffffffffffffffffffffffff1673ffffffffffffffffffffffffffffffffffffffff1663026b1d5f6040518163ffffffff1660e01b8152600401602060405180830381865afa15801562000197573d6000803e3d6000fd5b505050506040513d601f19601f82011682018060405250810190620001bd9190620003fd565b601260006101000a81548173ffffffffffffffffffffffffffffffffffffffff021916908373ffffffffffffffffffffffffffffffffffffffff16021790555073c02aaa39b223fe8d0a0e5c4f27ead9083c756cc2600260006101000a81548173ffffffffffffffffffffffffffffffffffffffff021916908373ffffffffffffffffffffffffffffffffffffffff16021790555050506200042f565b60008060009054906101000a900473ffffffffffffffffffffffffffffffffffffffff169050816000806101000a81548173ffffffffffffffffffffffffffffffffffffffff021916908373ffffffffffffffffffffffffffffffffffffffff1602179055508173ffffffffffffffffffffffffffffffffffffffff168173ffffffffffffffffffffffffffffffffffffffff167f8be0079c531659141344cd1fd0a4f28419497f9722a3daafe3b4186f6b6457e060405160405180910390a35050565b600080fd5b600073ffffffffffffffffffffffffffffffffffffffff82169050919050565b6000620003508262000323565b9050919050565b620003628162000343565b81146200036e57600080fd5b50565b600081519050620003828162000357565b92915050565b60008060408385031215620003a257620003a16200031e565b5b6000620003b28582860162000371565b9250506020620003c58582860162000371565b9150509250929050565b620003da8162000343565b82525050565b6000602082019050620003f76000830184620003cf565b92915050565b6000602082840312156200041657620004156200031e565b5b6000620004268482850162000371565b91505092915050565b614b77806200043f6000396000f3fe6080604052600436106102255760003560e01c80636562f86f11610123578063a325694f116100ab578063ee259d9c1161006f578063ee259d9c1461088f578063f2fde38b146108cc578063f352ac94146108f5578063f720b55814610932578063fe4cfccc1461096f57610225565b8063a325694f146107b9578063b5bd6c05146107d5578063b92b2dc7146107fe578063cad0b8db14610827578063ec2e866f1461085257610225565b806387095de9116100f257806387095de9146106e15780638da5cb5b1461071e5780639949f0c8146107495780639b59223214610753578063a1ed5ec91461077c57610225565b80636562f86f1461064857806366f79e7614610664578063709d8a081461068d578063715018a6146106ca57610225565b80632d68fd36116101b15780634153cd3a116101755780634153cd3a1461052b5780634eecc909146105545780635bb67c67146105915780635e19b305146105ce5780635f6d607d1461060b57610225565b80632d68fd36146104205780633292cfc71461045d578063348964691461049a5780633a7e870d146104c35780633fc8cef31461050057610225565b80631658081d116101f85780631658081d146102f85780631e7192ae1461032157806327b05d871461036857806328ab58fb146103a55780632ac887e7146103e257610225565b8063040141e51461022a5780630dbadfb8146102555780630dce265114610292578063159117ee146102cf575b600080fd5b34801561023657600080fd5b5061023f610998565b60405161024c9190613a53565b60405180910390f35b34801561026157600080fd5b5061027c60048036038101906102779190613ae5565b6109b0565b6040516102899190613b34565b60405180910390f35b34801561029e57600080fd5b506102b960048036038101906102b49190613b7b565b610a6e565b6040516102c69190613b34565b60405180910390f35b3480156102db57600080fd5b506102f660048036038101906102f19190613ae5565b610deb565b005b34801561030457600080fd5b5061031f600480360381019061031a9190613ae5565b6110b3565b005b34801561032d57600080fd5b5061034860048036038101906103439190613bbb565b611761565b60405161035f9b9a99989796959493929190613c12565b60405180910390f35b34801561037457600080fd5b5061038f600480360381019061038a9190613b7b565b611818565b60405161039c9190613b34565b60405180910390f35b3480156103b157600080fd5b506103cc60048036038101906103c79190613b7b565b61183d565b6040516103d99190613b34565b60405180910390f35b3480156103ee57600080fd5b5061040960048036038101906104049190613ae5565b611862565b604051610417929190613cbd565b60405180910390f35b34801561042c57600080fd5b5061044760048036038101906104429190613b7b565b611940565b6040516104549190613b34565b60405180910390f35b34801561046957600080fd5b50610484600480360381019061047f9190613b7b565b611965565b6040516104919190613ce6565b60405180910390f35b3480156104a657600080fd5b506104c160048036038101906104bc9190613ae5565b611997565b005b3480156104cf57600080fd5b506104ea60048036038101906104e59190613b7b565b611c87565b6040516104f79190613b34565b60405180910390f35b34801561050c57600080fd5b50610515611cac565b6040516105229190613d60565b60405180910390f35b34801561053757600080fd5b50610552600480360381019061054d9190613d7b565b611cd2565b005b34801561056057600080fd5b5061057b60048036038101906105769190613b7b565b611e30565b6040516105889190613b34565b60405180910390f35b34801561059d57600080fd5b506105b860048036038101906105b39190613b7b565b611e55565b6040516105c59190613b34565b60405180910390f35b3480156105da57600080fd5b506105f560048036038101906105f09190613bbb565b61220e565b6040516106029190613e08565b60405180910390f35b34801561061757600080fd5b50610632600480360381019061062d9190613b7b565b612247565b60405161063f9190613b34565b60405180910390f35b610662600480360381019061065d9190613ae5565b61226c565b005b34801561067057600080fd5b5061068b60048036038101906106869190613e23565b61274f565b005b34801561069957600080fd5b506106b460048036038101906106af9190613bbb565b6129ab565b6040516106c19190613b34565b60405180910390f35b3480156106d657600080fd5b506106df6129c3565b005b3480156106ed57600080fd5b5061070860048036038101906107039190613b7b565b6129d7565b6040516107159190613b34565b60405180910390f35b34801561072a57600080fd5b506107336129fc565b6040516107409190613a53565b60405180910390f35b610751612a25565b005b34801561075f57600080fd5b5061077a60048036038101906107759190613eed565b612aed565b005b34801561078857600080fd5b506107a3600480360381019061079e9190613f1a565b612b7d565b6040516107b09190613b34565b60405180910390f35b6107d360048036038101906107ce9190613f6d565b612ccf565b005b3480156107e157600080fd5b506107fc60048036038101906107f79190613bbb565b61318d565b005b34801561080a57600080fd5b5061082560048036038101906108209190613fc0565b61320a565b005b34801561083357600080fd5b5061083c613256565b6040516108499190613ce6565b60405180910390f35b34801561085e57600080fd5b5061087960048036038101906108749190613b7b565b61326c565b6040516108869190613e08565b60405180910390f35b34801561089b57600080fd5b506108b660048036038101906108b19190613f1a565b6132e0565b6040516108c39190613b34565b60405180910390f35b3480156108d857600080fd5b506108f360048036038101906108ee9190613fc0565b613489565b005b34801561090157600080fd5b5061091c60048036038101906109179190613b7b565b61350f565b6040516109299190613e08565b60405180910390f35b34801561093e57600080fd5b5061095960048036038101906109549190613bbb565b61353e565b6040516109669190613b34565b60405180910390f35b34801561097b57600080fd5b5061099660048036038101906109919190613fed565b613556565b005b73c02aaa39b223fe8d0a0e5c4f27ead9083c756cc281565b600080600460008563ffffffff1663ffffffff168152602001908152602001600020600001549050808311806109e65750600083145b156109f5576000915050610a68565b600081606485610a05919061405c565b610a0f91906140cd565b9050600a811015610a2557600192505050610a68565b6032811015610a3957600292505050610a68565b6032811015610a4d57600292505050610a68565b604b811015610a6157600392505050610a68565b6003925050505b92915050565b6000610a7a833361326c565b610ab9576040517f08c379a0000000000000000000000000000000000000000000000000000000008152600401610ab09061415b565b60405180910390fd5b600460008463ffffffff1663ffffffff16815260200190815260200160002060040160049054906101000a900460ff16610b28576040517f08c379a0000000000000000000000000000000000000000000000000000000008152600401610b1f906141c7565b60405180910390fd5b6000600a60008563ffffffff1663ffffffff16815260200190815260200160002060008473ffffffffffffffffffffffffffffffffffffffff1673ffffffffffffffffffffffffffffffffffffffff1681526020019081526020016000205411610bc7576040517f08c379a0000000000000000000000000000000000000000000000000000000008152600401610bbe90614233565b60405180910390fd5b6000600a60008563ffffffff1663ffffffff16815260200190815260200160002060008473ffffffffffffffffffffffffffffffffffffffff1673ffffffffffffffffffffffffffffffffffffffff1681526020019081526020016000205442610c319190614253565b905060006018603c8084610c4591906140cd565b610c4f91906140cd565b610c5991906140cd565b90506000601e600460008863ffffffff1663ffffffff16815260200190815260200160002060030154610c8c91906140cd565b905060008183610c9c919061405c565b90506000600460008963ffffffff1663ffffffff1681526020019081526020016000206003015490508181610cd19190614287565b90506000601e85610ce291906140cd565b9050600460008a63ffffffff1663ffffffff16815260200190815260200160002060040160099054906101000a900463ffffffff1663ffffffff16811115610ddc576000600460008b63ffffffff1663ffffffff16815260200190815260200160002060040160059054906101000a900463ffffffff1663ffffffff1690506000600460008c63ffffffff1663ffffffff16815260200190815260200160002060040160099054906101000a900463ffffffff1663ffffffff1683610da79190614253565b90506064818386610db8919061405c565b610dc2919061405c565b610dcc91906140cd565b84610dd79190614287565b935050505b81965050505050505092915050565b8073c02aaa39b223fe8d0a0e5c4f27ead9083c756cc273ffffffffffffffffffffffffffffffffffffffff166370a08231306040518263ffffffff1660e01b8152600401610e399190613a53565b602060405180830381865afa158015610e56573d6000803e3d6000fd5b505050506040513d601f19601f82011682018060405250810190610e7a91906142d0565b1015610ebb576040517f08c379a0000000000000000000000000000000000000000000000000000000008152600401610eb290614349565b60405180910390fd5b80600e60008463ffffffff1663ffffffff1681526020019081526020016000205411610f1c576040517f08c379a0000000000000000000000000000000000000000000000000000000008152600401610f13906143b5565b60405180910390fd5b73c02aaa39b223fe8d0a0e5c4f27ead9083c756cc273ffffffffffffffffffffffffffffffffffffffff1663095ea7b3601260009054906101000a900473ffffffffffffffffffffffffffffffffffffffff16836040518363ffffffff1660e01b8152600401610f8d9291906143d5565b6020604051808303816000875af1158015610fac573d6000803e3d6000fd5b505050506040513d601f19601f82011682018060405250810190610fd0919061442a565b50601260009054906101000a900473ffffffffffffffffffffffffffffffffffffffff1673ffffffffffffffffffffffffffffffffffffffff1663e8eda9df73c02aaa39b223fe8d0a0e5c4f27ead9083c756cc2833060006040518563ffffffff1660e01b815260040161104794939291906144a0565b600060405180830381600087803b15801561106157600080fd5b505af1158015611075573d6000803e3d6000fd5b5050505080600e60008463ffffffff1663ffffffff16815260200190815260200160002060008282546110a89190614253565b925050819055505050565b6110f16040518060400160405280600681526020017f62656c6c6f6f00000000000000000000000000000000000000000000000000008152506135fd565b6110fb823361326c565b1561113b576040517f08c379a000000000000000000000000000000000000000000000000000000000815260040161113290614557565b60405180910390fd5b600460008363ffffffff1663ffffffff16815260200190815260200160002060040160049054906101000a900460ff166111aa576040517f08c379a00000000000000000000000000000000000000000000000000000000081526004016111a1906145c3565b60405180910390fd5b600460008363ffffffff1663ffffffff1681526020019081526020016000206001015481101561120f576040517f08c379a00000000000000000000000000000000000000000000000000000000081526004016112069061462f565b60405180910390fd5b61124d6040518060400160405280600581526020017f68656c6c6f0000000000000000000000000000000000000000000000000000008152506135fd565b600260009054906101000a900473ffffffffffffffffffffffffffffffffffffffff1673ffffffffffffffffffffffffffffffffffffffff166323b872dd3330846040518463ffffffff1660e01b81526004016112ac9392919061464f565b6020604051808303816000875af11580156112cb573d6000803e3d6000fd5b505050506040513d601f19601f820116820180604052508101906112ef919061442a565b61132e576040517f08c379a0000000000000000000000000000000000000000000000000000000008152600401611325906146d2565b60405180910390fd5b80600660008463ffffffff1663ffffffff16815260200190815260200160002060003373ffffffffffffffffffffffffffffffffffffffff1673ffffffffffffffffffffffffffffffffffffffff168152602001908152602001600020600082825461139a9190614287565b925050819055506001600560008463ffffffff1663ffffffff16815260200190815260200160002060003373ffffffffffffffffffffffffffffffffffffffff1673ffffffffffffffffffffffffffffffffffffffff16815260200190815260200160002060006101000a81548160ff02191690831515021790555042600a60008463ffffffff1663ffffffff16815260200190815260200160002060003373ffffffffffffffffffffffffffffffffffffffff1673ffffffffffffffffffffffffffffffffffffffff168152602001908152602001600020819055506064600460008463ffffffff1663ffffffff168152602001908152602001600020600401600d9054906101000a900463ffffffff1663ffffffff16826114bd919061405c565b6114c791906140cd565b600d60008463ffffffff1663ffffffff16815260200190815260200160002060008282546114f59190614287565b925050819055506064600460008463ffffffff1663ffffffff16815260200190815260200160002060040160119054906101000a900463ffffffff1663ffffffff1682611542919061405c565b61154c91906140cd565b600e60008463ffffffff1663ffffffff168152602001908152602001600020600082825461157a9190614287565b925050819055506064600460008463ffffffff1663ffffffff168152602001908152602001600020600401600d9054906101000a900463ffffffff1663ffffffff16826115c7919061405c565b6115d191906140cd565b600760008463ffffffff1663ffffffff16815260200190815260200160002060003373ffffffffffffffffffffffffffffffffffffffff1673ffffffffffffffffffffffffffffffffffffffff168152602001908152602001600020600082825461163c9190614287565b925050819055506064600460008463ffffffff1663ffffffff16815260200190815260200160002060040160119054906101000a900463ffffffff1663ffffffff1682611689919061405c565b61169391906140cd565b600860008463ffffffff1663ffffffff16815260200190815260200160002060003373ffffffffffffffffffffffffffffffffffffffff1673ffffffffffffffffffffffffffffffffffffffff16815260200190815260200160002060008282546116fe9190614287565b925050819055503373ffffffffffffffffffffffffffffffffffffffff168263ffffffff167fcb56b790741c56fe9689db9a11c7acfbbe5aa3e1eafa48a4eedb4969868814378360016040516117559291906146f2565b60405180910390a35050565b60046020528060005260406000206000915090508060000154908060010154908060020154908060030154908060040160009054906101000a900463ffffffff16908060040160049054906101000a900460ff16908060040160059054906101000a900463ffffffff16908060040160099054906101000a900463ffffffff169080600401600d9054906101000a900463ffffffff16908060040160119054906101000a900463ffffffff1690806005015490508b565b6010602052816000526040600020602052806000526040600020600091509150505481565b600a602052816000526040600020602052806000526040600020600091509150505481565b6000806000600460008663ffffffff1663ffffffff168152602001908152602001600020905060006064600460008863ffffffff1663ffffffff168152602001908152602001600020600401600d9054906101000a900463ffffffff1663ffffffff16866118d0919061405c565b6118da91906140cd565b905060006064600460008963ffffffff1663ffffffff16815260200190815260200160002060040160119054906101000a900463ffffffff1663ffffffff1687611924919061405c565b61192e91906140cd565b90508181945094505050509250929050565b6006602052816000526040600020602052806000526040600020600091509150505481565b60096020528160005260406000206020528060005260406000206000915091509054906101000a900463ffffffff1681565b61199f613696565b600460008363ffffffff1663ffffffff16815260200190815260200160002060040160049054906101000a900460ff16611a0e576040517f08c379a0000000000000000000000000000000000000000000000000000000008152600401611a05906145c3565b60405180910390fd5b600560008363ffffffff1663ffffffff16815260200190815260200160002060003373ffffffffffffffffffffffffffffffffffffffff1673ffffffffffffffffffffffffffffffffffffffff16815260200190815260200160002060009054906101000a900460ff16611ab7576040517f08c379a0000000000000000000000000000000000000000000000000000000008152600401611aae90614767565b60405180910390fd5b600d60008363ffffffff1663ffffffff16815260200190815260200160002054811115611b19576040517f08c379a0000000000000000000000000000000000000000000000000000000008152600401611b10906147d3565b60405180910390fd5b611b238233611e55565b811115611b65576040517f08c379a0000000000000000000000000000000000000000000000000000000008152600401611b5c906147d3565b60405180910390fd5b6000611b718333611e55565b8211611b7d5781611b88565b611b878333611e55565b5b905080600d60008563ffffffff1663ffffffff1681526020019081526020016000206000828254611bb99190614253565b9250508190555080600b60008563ffffffff1663ffffffff16815260200190815260200160002060003373ffffffffffffffffffffffffffffffffffffffff1673ffffffffffffffffffffffffffffffffffffffff1681526020019081526020016000206000828254611c2c9190614287565b925050819055503373ffffffffffffffffffffffffffffffffffffffff166108fc829081150290604051600060405180830381858888f19350505050158015611c79573d6000803e3d6000fd5b5050611c836136dc565b5050565b600f602052816000526040600020602052806000526040600020600091509150505481565b600260009054906101000a900473ffffffffffffffffffffffffffffffffffffffff1681565b611cda6136e5565b84600460008863ffffffff1663ffffffff1681526020019081526020016000206000018190555083600460008863ffffffff1663ffffffff1681526020019081526020016000206001018190555082600460008863ffffffff1663ffffffff16815260200190815260200160002060040160006101000a81548163ffffffff021916908363ffffffff16021790555080600460008863ffffffff1663ffffffff16815260200190815260200160002060040160056101000a81548163ffffffff021916908363ffffffff16021790555081600460008863ffffffff1663ffffffff16815260200190815260200160002060040160096101000a81548163ffffffff021916908363ffffffff1602179055507fbe829975d2c0d9995edbd0abc0cbd073add0fde193595b70af3c8e9094c00ac886868686604051611e2094939291906147f3565b60405180910390a1505050505050565b6007602052816000526040600020602052806000526040600020600091509150505481565b6000600460008463ffffffff1663ffffffff16815260200190815260200160002060040160049054906101000a900460ff16611ec6576040517f08c379a0000000000000000000000000000000000000000000000000000000008152600401611ebd906145c3565b60405180910390fd5b6000611ed18461376c565b90506000611f3c8585600660008963ffffffff1663ffffffff16815260200190815260200160002060008873ffffffffffffffffffffffffffffffffffffffff1673ffffffffffffffffffffffffffffffffffffffff168152602001908152602001600020546137d1565b90506000611f53828461385890919063ffffffff16565b91505080600b60008863ffffffff1663ffffffff16815260200190815260200160002060008773ffffffffffffffffffffffffffffffffffffffff1673ffffffffffffffffffffffffffffffffffffffff168152602001908152602001600020541115611fc65760009350505050612208565b6000612037600b60008963ffffffff1663ffffffff16815260200190815260200160002060008873ffffffffffffffffffffffffffffffffffffffff1673ffffffffffffffffffffffffffffffffffffffff168152602001908152602001600020548361388790919063ffffffff16565b9150506000600460008963ffffffff1663ffffffff1681526020019081526020016000206000015490506000600760008a63ffffffff1663ffffffff16815260200190815260200160002060008973ffffffffffffffffffffffffffffffffffffffff1673ffffffffffffffffffffffffffffffffffffffff16815260200190815260200160002054111561215e57600061212f8989600760008d63ffffffff1663ffffffff16815260200190815260200160002060008c73ffffffffffffffffffffffffffffffffffffffff1673ffffffffffffffffffffffffffffffffffffffff168152602001908152602001600020546137d1565b9050808211156121575761214c818361388790919063ffffffff16565b90508092505061215c565b600091505b505b600460008963ffffffff1663ffffffff1681526020019081526020016000206000015482106121ff576000600460008a63ffffffff1663ffffffff16815260200190815260200160002060000154836121b79190614253565b90508181600460008c63ffffffff1663ffffffff168152602001908152602001600020600001546121e89190614287565b6121f29190614287565b9650505050505050612208565b81955050505050505b92915050565b6000600460008363ffffffff1663ffffffff16815260200190815260200160002060040160049054906101000a900460ff169050919050565b6008602052816000526040600020602052806000526040600020600091509150505481565b612276823361326c565b6122b5576040517f08c379a00000000000000000000000000000000000000000000000000000000081526004016122ac90614767565b60405180910390fd5b600460008363ffffffff1663ffffffff16815260200190815260200160002060040160049054906101000a900460ff16612324576040517f08c379a000000000000000000000000000000000000000000000000000000000815260040161231b906145c3565b60405180910390fd5b600460008363ffffffff1663ffffffff168152602001908152602001600020600001546123518333611e55565b10612391576040517f08c379a0000000000000000000000000000000000000000000000000000000008152600401612388906148aa565b60405180910390fd5b600260009054906101000a900473ffffffffffffffffffffffffffffffffffffffff1673ffffffffffffffffffffffffffffffffffffffff166323b872dd3330846040518463ffffffff1660e01b81526004016123f09392919061464f565b6020604051808303816000875af115801561240f573d6000803e3d6000fd5b505050506040513d601f19601f82011682018060405250810190612433919061442a565b612472576040517f08c379a0000000000000000000000000000000000000000000000000000000008152600401612469906146d2565b60405180910390fd5b600061247e8333611e55565b90506000600460008563ffffffff1663ffffffff16815260200190815260200160002060000154905060008282116124b75760006124c4565b82826124c39190614253565b5b90506000806064600460008963ffffffff1663ffffffff168152602001908152602001600020600401600d9054906101000a900463ffffffff1663ffffffff168761250f919061405c565b61251991906140cd565b915081866125279190614253565b905081600d60008963ffffffff1663ffffffff16815260200190815260200160002060008282546125589190614287565b9250508190555080600e60008963ffffffff1663ffffffff168152602001908152602001600020600082825461258e9190614287565b9250508190555085600660008963ffffffff1663ffffffff16815260200190815260200160002060003373ffffffffffffffffffffffffffffffffffffffff1673ffffffffffffffffffffffffffffffffffffffff16815260200190815260200160002060008282546126019190614287565b9250508190555081600760008963ffffffff1663ffffffff16815260200190815260200160002060003373ffffffffffffffffffffffffffffffffffffffff1673ffffffffffffffffffffffffffffffffffffffff16815260200190815260200160002060008282546126749190614287565b9250508190555080600860008963ffffffff1663ffffffff16815260200190815260200160002060003373ffffffffffffffffffffffffffffffffffffffff1673ffffffffffffffffffffffffffffffffffffffff16815260200190815260200160002060008282546126e79190614287565b925050819055503373ffffffffffffffffffffffffffffffffffffffff168763ffffffff167fcb56b790741c56fe9689db9a11c7acfbbe5aa3e1eafa48a4eedb49698688143788600060405161273e9291906146f2565b60405180910390a350505050505050565b6127576136e5565b6040518061016001604052808a81526020018981526020018881526020018781526020018663ffffffff1681526020016001151581526020018563ffffffff1681526020018463ffffffff1681526020018363ffffffff1681526020018263ffffffff1681526020014281525060046000600c60009054906101000a900463ffffffff1663ffffffff1663ffffffff1681526020019081526020016000206000820151816000015560208201518160010155604082015181600201556060820151816003015560808201518160040160006101000a81548163ffffffff021916908363ffffffff16021790555060a08201518160040160046101000a81548160ff02191690831515021790555060c08201518160040160056101000a81548163ffffffff021916908363ffffffff16021790555060e08201518160040160096101000a81548163ffffffff021916908363ffffffff16021790555061010082015181600401600d6101000a81548163ffffffff021916908363ffffffff1602179055506101208201518160040160116101000a81548163ffffffff021916908363ffffffff16021790555061014082015181600501559050507f19bb034335e290edb4dfdd4b94706d99fb766d7512bd8836347f261943bd98e2600c60009054906101000a900463ffffffff168a8a8860405161295794939291906147f3565b60405180910390a1600c600081819054906101000a900463ffffffff1680929190612981906148ca565b91906101000a81548163ffffffff021916908363ffffffff16021790555050505050505050505050565b600d6020528060005260406000206000915090505481565b6129cb6136e5565b6129d560006138af565b565b600b602052816000526040600020602052806000526040600020600091509150505481565b60008060009054906101000a900473ffffffffffffffffffffffffffffffffffffffff16905090565b60003411612a68576040517f08c379a0000000000000000000000000000000000000000000000000000000008152600401612a5f90614942565b60405180910390fd5b600260009054906101000a900473ffffffffffffffffffffffffffffffffffffffff1673ffffffffffffffffffffffffffffffffffffffff1663d0e30db0346040518263ffffffff1660e01b81526004016000604051808303818588803b158015612ad257600080fd5b505af1158015612ae6573d6000803e3d6000fd5b5050505050565b600260009054906101000a900473ffffffffffffffffffffffffffffffffffffffff1673ffffffffffffffffffffffffffffffffffffffff16632e1a7d4d826040518263ffffffff1660e01b8152600401612b489190613b34565b600060405180830381600087803b158015612b6257600080fd5b505af1158015612b76573d6000803e3d6000fd5b5050505050565b6000600460008563ffffffff1663ffffffff16815260200190815260200160002060040160049054906101000a900460ff16612bee576040517f08c379a0000000000000000000000000000000000000000000000000000000008152600401612be5906145c3565b60405180910390fd5b6000612bfa8585611e55565b90506000612c098686866132e0565b84612c14919061405c565b905060008183612c249190614287565b9050600460008863ffffffff1663ffffffff16815260200190815260200160002060000154811015612c565780612cc3565b600082600460008a63ffffffff1663ffffffff16815260200190815260200160002060000154612c869190614253565b1015612cc0576002600460008963ffffffff1663ffffffff16815260200190815260200160002060000154612cbb919061405c565b612cc2565b815b5b93505050509392505050565b612cd9833361326c565b612d18576040517f08c379a0000000000000000000000000000000000000000000000000000000008152600401612d0f90614767565b60405180910390fd5b600460008463ffffffff1663ffffffff16815260200190815260200160002060040160049054906101000a900460ff16612d87576040517f08c379a0000000000000000000000000000000000000000000000000000000008152600401612d7e906145c3565b60405180910390fd5b6064821115612dcb576040517f08c379a0000000000000000000000000000000000000000000000000000000008152600401612dc2906149ae565b60405180910390fd5b600460008463ffffffff1663ffffffff16815260200190815260200160002060000154612df88433611e55565b1015612e39576040517f08c379a0000000000000000000000000000000000000000000000000000000008152600401612e3090614a1a565b60405180910390fd5b600260009054906101000a900473ffffffffffffffffffffffffffffffffffffffff1673ffffffffffffffffffffffffffffffffffffffff166323b872dd3330846040518463ffffffff1660e01b8152600401612e989392919061464f565b6020604051808303816000875af1158015612eb7573d6000803e3d6000fd5b505050506040513d601f19601f82011682018060405250810190612edb919061442a565b612f1a576040517f08c379a0000000000000000000000000000000000000000000000000000000008152600401612f11906146d2565b60405180910390fd5b600060648383612f2a919061405c565b612f3491906140cd565b905060008183612f449190614253565b9050828211612f535781612f55565b825b9150828111612f645780612f67565b60005b905080600d60008763ffffffff1663ffffffff1681526020019081526020016000206000828254612f989190614287565b9250508190555080600760008763ffffffff1663ffffffff16815260200190815260200160002060003373ffffffffffffffffffffffffffffffffffffffff1673ffffffffffffffffffffffffffffffffffffffff168152602001908152602001600020600082825461300b9190614287565b9250508190555081600e60008763ffffffff1663ffffffff16815260200190815260200160002060008282546130419190614287565b9250508190555081600860008763ffffffff1663ffffffff16815260200190815260200160002060003373ffffffffffffffffffffffffffffffffffffffff1673ffffffffffffffffffffffffffffffffffffffff16815260200190815260200160002060008282546130b49190614287565b9250508190555082600660008763ffffffff1663ffffffff16815260200190815260200160002060003373ffffffffffffffffffffffffffffffffffffffff1673ffffffffffffffffffffffffffffffffffffffff16815260200190815260200160002060008282546131279190614287565b925050819055503373ffffffffffffffffffffffffffffffffffffffff168563ffffffff167fcb56b790741c56fe9689db9a11c7acfbbe5aa3e1eafa48a4eedb49698688143785600060405161317e9291906146f2565b60405180910390a35050505050565b6131956136e5565b6000600460008363ffffffff1663ffffffff16815260200190815260200160002060040160046101000a81548160ff0219169083151502179055507fc5dfab0962c70e9a4416c78094b25bf915c7d3198f89974c6ddc52306e4df424816040516131ff9190613ce6565b60405180910390a150565b6132126136e5565b80600360006101000a81548173ffffffffffffffffffffffffffffffffffffffff021916908373ffffffffffffffffffffffffffffffffffffffff16021790555050565b600c60009054906101000a900463ffffffff1681565b6000600560008463ffffffff1663ffffffff16815260200190815260200160002060008373ffffffffffffffffffffffffffffffffffffffff1673ffffffffffffffffffffffffffffffffffffffff16815260200190815260200160002060009054906101000a900460ff16905092915050565b600080600460008663ffffffff1663ffffffff16815260200190815260200160002060405180610160016040529081600082015481526020016001820154815260200160028201548152602001600382015481526020016004820160009054906101000a900463ffffffff1663ffffffff1663ffffffff1681526020016004820160049054906101000a900460ff161515151581526020016004820160059054906101000a900463ffffffff1663ffffffff1663ffffffff1681526020016004820160099054906101000a900463ffffffff1663ffffffff1663ffffffff16815260200160048201600d9054906101000a900463ffffffff1663ffffffff1663ffffffff1681526020016004820160119054906101000a900463ffffffff1663ffffffff1663ffffffff16815260200160058201548152505090506000613436826101400151426134319190614253565b613973565b60016134429190614287565b9050600061345087866109b0565b90506000811480156134625750600085115b61346c578061346f565b60015b9050808261347d919061405c565b93505050509392505050565b6134916136e5565b600073ffffffffffffffffffffffffffffffffffffffff168173ffffffffffffffffffffffffffffffffffffffff16036135035760006040517f1e4fbdf70000000000000000000000000000000000000000000000000000000081526004016134fa9190613a53565b60405180910390fd5b61350c816138af565b50565b60056020528160005260406000206020528060005260406000206000915091509054906101000a900460ff1681565b600e6020528060005260406000206000915090505481565b601260009054906101000a900473ffffffffffffffffffffffffffffffffffffffff1673ffffffffffffffffffffffffffffffffffffffff166369328dec8383306040518463ffffffff1660e01b81526004016135b593929190614a3a565b6020604051808303816000875af11580156135d4573d6000803e3d6000fd5b505050506040513d601f19601f820116820180604052508101906135f891906142d0565b505050565b613693816040516024016136119190614af0565b6040516020818303038152906040527f41304fac000000000000000000000000000000000000000000000000000000007bffffffffffffffffffffffffffffffffffffffffffffffffffffffff19166020820180517bffffffffffffffffffffffffffffffffffffffffffffffffffffffff83818316178352505050506139ba565b50565b6002600154036136d2576040517f3ee5aeb500000000000000000000000000000000000000000000000000000000815260040160405180910390fd5b6002600181905550565b60018081905550565b6136ed6139d4565b73ffffffffffffffffffffffffffffffffffffffff1661370b6129fc565b73ffffffffffffffffffffffffffffffffffffffff161461376a5761372e6139d4565b6040517f118cdaa70000000000000000000000000000000000000000000000000000000081526004016137619190613a53565b60405180910390fd5b565b60006064600460008463ffffffff1663ffffffff16815260200190815260200160002060020154600460008563ffffffff1663ffffffff168152602001908152602001600020600001546137c0919061405c565b6137ca91906140cd565b9050919050565b6000806137df8585856132e0565b9050600460008663ffffffff1663ffffffff168152602001908152602001600020600101548311613814576000915050613851565b80600460008763ffffffff1663ffffffff16815260200190815260200160002060010154846138439190614253565b61384d919061405c565b9150505b9392505050565b6000806000838501905084811015613877576000809250925050613880565b60018192509250505b9250929050565b6000808383111561389e57600080915091506138a8565b6001838503915091505b9250929050565b60008060009054906101000a900473ffffffffffffffffffffffffffffffffffffffff169050816000806101000a81548173ffffffffffffffffffffffffffffffffffffffff021916908373ffffffffffffffffffffffffffffffffffffffff1602179055508173ffffffffffffffffffffffffffffffffffffffff168173ffffffffffffffffffffffffffffffffffffffff167f8be0079c531659141344cd1fd0a4f28419497f9722a3daafe3b4186f6b6457e060405160405180910390a35050565b60008062278d008361398591906140cd565b905060006064600a83613998919061405c565b6139a2919061405c565b90506064816139b191906140cd565b92505050919050565b6139d1816139c96139dc6139fd565b63ffffffff16565b50565b600033905090565b60006a636f6e736f6c652e6c6f679050600080835160208501845afa505050565b613a08819050919050565b613a10614b12565b565b600073ffffffffffffffffffffffffffffffffffffffff82169050919050565b6000613a3d82613a12565b9050919050565b613a4d81613a32565b82525050565b6000602082019050613a686000830184613a44565b92915050565b600080fd5b600063ffffffff82169050919050565b613a8c81613a73565b8114613a9757600080fd5b50565b600081359050613aa981613a83565b92915050565b6000819050919050565b613ac281613aaf565b8114613acd57600080fd5b50565b600081359050613adf81613ab9565b92915050565b60008060408385031215613afc57613afb613a6e565b5b6000613b0a85828601613a9a565b9250506020613b1b85828601613ad0565b9150509250929050565b613b2e81613aaf565b82525050565b6000602082019050613b496000830184613b25565b92915050565b613b5881613a32565b8114613b6357600080fd5b50565b600081359050613b7581613b4f565b92915050565b60008060408385031215613b9257613b91613a6e565b5b6000613ba085828601613a9a565b9250506020613bb185828601613b66565b9150509250929050565b600060208284031215613bd157613bd0613a6e565b5b6000613bdf84828501613a9a565b91505092915050565b613bf181613a73565b82525050565b60008115159050919050565b613c0c81613bf7565b82525050565b600061016082019050613c28600083018e613b25565b613c35602083018d613b25565b613c42604083018c613b25565b613c4f606083018b613b25565b613c5c608083018a613be8565b613c6960a0830189613c03565b613c7660c0830188613be8565b613c8360e0830187613be8565b613c91610100830186613be8565b613c9f610120830185613be8565b613cad610140830184613b25565b9c9b505050505050505050505050565b6000604082019050613cd26000830185613b25565b613cdf6020830184613b25565b9392505050565b6000602082019050613cfb6000830184613be8565b92915050565b6000819050919050565b6000613d26613d21613d1c84613a12565b613d01565b613a12565b9050919050565b6000613d3882613d0b565b9050919050565b6000613d4a82613d2d565b9050919050565b613d5a81613d3f565b82525050565b6000602082019050613d756000830184613d51565b92915050565b60008060008060008060c08789031215613d9857613d97613a6e565b5b6000613da689828a01613a9a565b9650506020613db789828a01613ad0565b9550506040613dc889828a01613ad0565b9450506060613dd989828a01613a9a565b9350506080613dea89828a01613a9a565b92505060a0613dfb89828a01613a9a565b9150509295509295509295565b6000602082019050613e1d6000830184613c03565b92915050565b60008060008060008060008060006101208a8c031215613e4657613e45613a6e565b5b6000613e548c828d01613ad0565b9950506020613e658c828d01613ad0565b9850506040613e768c828d01613ad0565b9750506060613e878c828d01613ad0565b9650506080613e988c828d01613a9a565b95505060a0613ea98c828d01613a9a565b94505060c0613eba8c828d01613a9a565b93505060e0613ecb8c828d01613a9a565b925050610100613edd8c828d01613a9a565b9150509295985092959850929598565b600060208284031215613f0357613f02613a6e565b5b6000613f1184828501613ad0565b91505092915050565b600080600060608486031215613f3357613f32613a6e565b5b6000613f4186828701613a9a565b9350506020613f5286828701613b66565b9250506040613f6386828701613ad0565b9150509250925092565b600080600060608486031215613f8657613f85613a6e565b5b6000613f9486828701613a9a565b9350506020613fa586828701613ad0565b9250506040613fb686828701613ad0565b9150509250925092565b600060208284031215613fd657613fd5613a6e565b5b6000613fe484828501613b66565b91505092915050565b6000806040838503121561400457614003613a6e565b5b600061401285828601613b66565b925050602061402385828601613ad0565b9150509250929050565b7f4e487b7100000000000000000000000000000000000000000000000000000000600052601160045260246000fd5b600061406782613aaf565b915061407283613aaf565b925082820261408081613aaf565b915082820484148315176140975761409661402d565b5b5092915050565b7f4e487b7100000000000000000000000000000000000000000000000000000000600052601260045260246000fd5b60006140d882613aaf565b91506140e383613aaf565b9250826140f3576140f261409e565b5b828204905092915050565b600082825260208201905092915050565b7f4e6f74206120706f6c696379206f776e65722100000000000000000000000000600082015250565b60006141456013836140fe565b91506141508261410f565b602082019050919050565b6000602082019050818103600083015261417481614138565b9050919050565b7f506f6c6963792069736e27742061637469766521000000000000000000000000600082015250565b60006141b16014836140fe565b91506141bc8261417b565b602082019050919050565b600060208201905081810360008301526141e0816141a4565b9050919050565b7f4e6f2070726576696f7573207061796d656e7420666f756e6400000000000000600082015250565b600061421d6019836140fe565b9150614228826141e7565b602082019050919050565b6000602082019050818103600083015261424c81614210565b9050919050565b600061425e82613aaf565b915061426983613aaf565b92508282039050818111156142815761428061402d565b5b92915050565b600061429282613aaf565b915061429d83613aaf565b92508282019050808211156142b5576142b461402d565b5b92915050565b6000815190506142ca81613ab9565b92915050565b6000602082840312156142e6576142e5613a6e565b5b60006142f4848285016142bb565b91505092915050565b7f496e73756666696369656e7420574554482062616c616e636500000000000000600082015250565b60006143336019836140fe565b915061433e826142fd565b602082019050919050565b6000602082019050818103600083015261436281614326565b9050919050565b7f496e73756666696369656e7420696e766573746d656e742066756e6473210000600082015250565b600061439f601e836140fe565b91506143aa82614369565b602082019050919050565b600060208201905081810360008301526143ce81614392565b9050919050565b60006040820190506143ea6000830185613a44565b6143f76020830184613b25565b9392505050565b61440781613bf7565b811461441257600080fd5b50565b600081519050614424816143fe565b92915050565b6000602082840312156144405761443f613a6e565b5b600061444e84828501614415565b91505092915050565b6000819050919050565b600061ffff82169050919050565b600061448a61448561448084614457565b613d01565b614461565b9050919050565b61449a8161446f565b82525050565b60006080820190506144b56000830187613a44565b6144c26020830186613b25565b6144cf6040830185613a44565b6144dc6060830184614491565b95945050505050565b7f416c7265616479206120636c61696d616e74206f66207468697320706f6c696360008201527f7900000000000000000000000000000000000000000000000000000000000000602082015250565b60006145416021836140fe565b915061454c826144e5565b604082019050919050565b6000602082019050818103600083015261457081614534565b9050919050565b7f506f6c696379206973206e6f7420616374697665000000000000000000000000600082015250565b60006145ad6014836140fe565b91506145b882614577565b602082019050919050565b600060208201905081810360008301526145dc816145a0565b9050919050565b7f43616e2774206166666f72642074686520726174652100000000000000000000600082015250565b60006146196016836140fe565b9150614624826145e3565b602082019050919050565b600060208201905081810360008301526146488161460c565b9050919050565b60006060820190506146646000830186613a44565b6146716020830185613a44565b61467e6040830184613b25565b949350505050565b7f57455448207472616e73666572206661696c6564000000000000000000000000600082015250565b60006146bc6014836140fe565b91506146c782614686565b602082019050919050565b600060208201905081810360008301526146eb816146af565b9050919050565b60006040820190506147076000830185613b25565b6147146020830184613c03565b9392505050565b7f4e6f74206120706f6c696379206f776e65720000000000000000000000000000600082015250565b60006147516012836140fe565b915061475c8261471b565b602082019050919050565b6000602082019050818103600083015261478081614744565b9050919050565b7f496e73756666696369656e7420636f7665726167652066756e64000000000000600082015250565b60006147bd601a836140fe565b91506147c882614787565b602082019050919050565b600060208201905081810360008301526147ec816147b0565b9050919050565b60006080820190506148086000830187613be8565b6148156020830186613b25565b6148226040830185613b25565b61482f6060830184613be8565b95945050505050565b7f46756c6c20636f7665726167652061636869657665642c20757365207061794360008201527f7573746f6d5072656d69756d0000000000000000000000000000000000000000602082015250565b6000614894602c836140fe565b915061489f82614838565b604082019050919050565b600060208201905081810360008301526148c381614887565b9050919050565b60006148d582613a73565b915063ffffffff82036148eb576148ea61402d565b5b600182019050919050565b7f496e73756666696369656e74204554482062616c616e63650000000000000000600082015250565b600061492c6018836140fe565b9150614937826148f6565b602082019050919050565b6000602082019050818103600083015261495b8161491f565b9050919050565b7f496e76616c69642070657263656e746167652076616c75650000000000000000600082015250565b60006149986018836140fe565b91506149a382614962565b602082019050919050565b600060208201905081810360008301526149c78161498b565b9050919050565b7f436f766572616765206973206e6f742079657420636f6d706c65746500000000600082015250565b6000614a04601c836140fe565b9150614a0f826149ce565b602082019050919050565b60006020820190508181036000830152614a33816149f7565b9050919050565b6000606082019050614a4f6000830186613a44565b614a5c6020830185613b25565b614a696040830184613a44565b949350505050565b600081519050919050565b60005b83811015614a9a578082015181840152602081019050614a7f565b60008484015250505050565b6000601f19601f8301169050919050565b6000614ac282614a71565b614acc81856140fe565b9350614adc818560208601614a7c565b614ae581614aa6565b840191505092915050565b60006020820190508181036000830152614b0a8184614ab7565b905092915050565b7f4e487b7100000000000000000000000000000000000000000000000000000000600052605160045260246000fdfea2646970667358221220840845d9d975469a0cb4b26e1f84873585d67661df2828b06e9b1075a14a65b264736f6c63430008140033",
  "linkReferences": {},
  "deployedLinkReferences": {}
}