{
  "_format": "hh-sol-artifact-1",
  "contractName": "PolicyMaker",
  "sourceName": "contracts/PolicyMaker.sol",
  "abi": [
    {
      "inputs": [
        {
          "internalType": "address",
          "name": "initialOwner",
          "type": "address"
        },
        {
          "internalType": "address",
          "name": "_addressesProvider",
          "type": "address"
        }
      ],
      "stateMutability": "nonpayable",
      "type": "constructor"
    },
    {
      "inputs": [
        {
          "internalType": "address",
          "name": "owner",
          "type": "address"
        }
      ],
      "name": "OwnableInvalidOwner",
      "type": "error"
    },
    {
      "inputs": [
        {
          "internalType": "address",
          "name": "account",
          "type": "address"
        }
      ],
      "name": "OwnableUnauthorizedAccount",
      "type": "error"
    },
    {
      "inputs": [],
      "name": "ReentrancyGuardReentrantCall",
      "type": "error"
    },
    {
      "anonymous": false,
      "inputs": [
        {
          "indexed": true,
          "internalType": "address",
          "name": "previousOwner",
          "type": "address"
        },
        {
          "indexed": true,
          "internalType": "address",
          "name": "newOwner",
          "type": "address"
        }
      ],
      "name": "OwnershipTransferred",
      "type": "event"
    },
    {
      "anonymous": false,
      "inputs": [
        {
          "indexed": false,
          "internalType": "uint32",
          "name": "policyId",
          "type": "uint32"
        },
        {
          "indexed": false,
          "internalType": "uint256",
          "name": "coverageAmount",
          "type": "uint256"
        },
        {
          "indexed": false,
          "internalType": "uint256",
          "name": "initialPremiumFee",
          "type": "uint256"
        },
        {
          "indexed": false,
          "internalType": "uint32",
          "name": "duration",
          "type": "uint32"
        }
      ],
      "name": "PolicyCreated",
      "type": "event"
    },
    {
      "anonymous": false,
      "inputs": [
        {
          "indexed": false,
          "internalType": "uint32",
          "name": "policyId",
          "type": "uint32"
        }
      ],
      "name": "PolicyDeactivated",
      "type": "event"
    },
    {
      "anonymous": false,
      "inputs": [
        {
          "indexed": false,
          "internalType": "uint32",
          "name": "policyId",
          "type": "uint32"
        },
        {
          "indexed": false,
          "internalType": "uint256",
          "name": "coverageAmount",
          "type": "uint256"
        },
        {
          "indexed": false,
          "internalType": "uint256",
          "name": "initialPremiumFee",
          "type": "uint256"
        },
        {
          "indexed": false,
          "internalType": "uint32",
          "name": "duration",
          "type": "uint32"
        }
      ],
      "name": "PolicyUpdated",
      "type": "event"
    },
    {
      "anonymous": false,
      "inputs": [
        {
          "indexed": true,
          "internalType": "uint32",
          "name": "policyId",
          "type": "uint32"
        },
        {
          "indexed": true,
          "internalType": "address",
          "name": "claimant",
          "type": "address"
        },
        {
          "indexed": false,
          "internalType": "uint256",
          "name": "amount",
          "type": "uint256"
        },
        {
          "indexed": false,
          "internalType": "bool",
          "name": "isPremium",
          "type": "bool"
        }
      ],
      "name": "PremiumPaid",
      "type": "event"
    },
    {
      "inputs": [],
      "name": "AWETH_ADDRESS",
      "outputs": [
        {
          "internalType": "address",
          "name": "",
          "type": "address"
        }
      ],
      "stateMutability": "view",
      "type": "function"
    },
    {
      "inputs": [],
      "name": "WETH_ADDRESS",
      "outputs": [
        {
          "internalType": "address",
          "name": "",
          "type": "address"
        }
      ],
      "stateMutability": "view",
      "type": "function"
    },
    {
      "inputs": [],
      "name": "aWeth",
      "outputs": [
        {
          "internalType": "contract IERC20",
          "name": "",
          "type": "address"
        }
      ],
      "stateMutability": "view",
      "type": "function"
    },
    {
      "inputs": [
        {
          "internalType": "uint32",
          "name": "",
          "type": "uint32"
        },
        {
          "internalType": "address",
          "name": "",
          "type": "address"
        }
      ],
      "name": "amountClaimed",
      "outputs": [
        {
          "internalType": "uint256",
          "name": "",
          "type": "uint256"
        }
      ],
      "stateMutability": "view",
      "type": "function"
    },
    {
      "inputs": [
        {
          "internalType": "uint32",
          "name": "_policyId",
          "type": "uint32"
        },
        {
          "internalType": "address",
          "name": "_policyHolder",
          "type": "address"
        },
        {
          "internalType": "uint256",
          "name": "_amount",
          "type": "uint256"
        }
      ],
      "name": "calculateAdditionalCoverage",
      "outputs": [
        {
          "internalType": "uint256",
          "name": "",
          "type": "uint256"
        }
      ],
      "stateMutability": "view",
      "type": "function"
    },
    {
      "inputs": [
        {
          "internalType": "uint32",
          "name": "policyId",
          "type": "uint32"
        },
        {
          "internalType": "uint256",
          "name": "timeSinceLastPayment",
          "type": "uint256"
        }
      ],
      "name": "calculateDecayFactor",
      "outputs": [
        {
          "internalType": "uint256",
          "name": "",
          "type": "uint256"
        }
      ],
      "stateMutability": "view",
      "type": "function"
    },
    {
      "inputs": [
        {
          "internalType": "uint32",
          "name": "_policyId",
          "type": "uint32"
        },
        {
          "internalType": "address",
          "name": "_policyHolder",
          "type": "address"
        },
        {
          "internalType": "uint256",
          "name": "inputPremium",
          "type": "uint256"
        }
      ],
      "name": "calculateDynamicCoverageFactor",
      "outputs": [
        {
          "internalType": "uint256",
          "name": "",
          "type": "uint256"
        }
      ],
      "stateMutability": "view",
      "type": "function"
    },
    {
      "inputs": [
        {
          "internalType": "uint32",
          "name": "_policyId",
          "type": "uint32"
        }
      ],
      "name": "calculateInitialCoverage",
      "outputs": [
        {
          "internalType": "uint256",
          "name": "",
          "type": "uint256"
        }
      ],
      "stateMutability": "view",
      "type": "function"
    },
    {
      "inputs": [
        {
          "internalType": "uint32",
          "name": "_policyId",
          "type": "uint32"
        },
        {
          "internalType": "address",
          "name": "_policyHolder",
          "type": "address"
        },
        {
          "internalType": "uint256",
          "name": "_amount",
          "type": "uint256"
        }
      ],
      "name": "calculatePotentialCoverage",
      "outputs": [
        {
          "internalType": "uint256",
          "name": "",
          "type": "uint256"
        }
      ],
      "stateMutability": "view",
      "type": "function"
    },
    {
      "inputs": [
        {
          "internalType": "uint32",
          "name": "_policyId",
          "type": "uint32"
        },
        {
          "internalType": "address",
          "name": "_policyHolder",
          "type": "address"
        }
      ],
      "name": "calculatePremium",
      "outputs": [
        {
          "internalType": "uint256",
          "name": "",
          "type": "uint256"
        }
      ],
      "stateMutability": "view",
      "type": "function"
    },
    {
      "inputs": [
        {
          "internalType": "uint32",
          "name": "_policyId",
          "type": "uint32"
        },
        {
          "internalType": "uint256",
          "name": "_premiumAmount",
          "type": "uint256"
        }
      ],
      "name": "calculatePremiumAllocation",
      "outputs": [
        {
          "internalType": "uint256",
          "name": "",
          "type": "uint256"
        },
        {
          "internalType": "uint256",
          "name": "",
          "type": "uint256"
        }
      ],
      "stateMutability": "view",
      "type": "function"
    },
    {
      "inputs": [
        {
          "internalType": "uint32",
          "name": "_policyId",
          "type": "uint32"
        },
        {
          "internalType": "uint256",
          "name": "premium",
          "type": "uint256"
        },
        {
          "internalType": "uint256",
          "name": "remainingCoverageNeeded",
          "type": "uint256"
        }
      ],
      "name": "calculatePremiumForCoverageFund",
      "outputs": [
        {
          "internalType": "uint256",
          "name": "",
          "type": "uint256"
        }
      ],
      "stateMutability": "view",
      "type": "function"
    },
    {
      "inputs": [
        {
          "internalType": "uint32",
          "name": "_policyId",
          "type": "uint32"
        },
        {
          "internalType": "uint256",
          "name": "inputPremium",
          "type": "uint256"
        }
      ],
      "name": "calculatePremiumSizeFactor",
      "outputs": [
        {
          "internalType": "uint256",
          "name": "",
          "type": "uint256"
        }
      ],
      "stateMutability": "view",
      "type": "function"
    },
    {
      "inputs": [
        {
          "internalType": "uint32",
          "name": "policyId",
          "type": "uint32"
        }
      ],
      "name": "calculateTotalAccrued",
      "outputs": [
        {
          "internalType": "uint256",
          "name": "",
          "type": "uint256"
        }
      ],
      "stateMutability": "view",
      "type": "function"
    },
    {
      "inputs": [
        {
          "internalType": "uint32",
          "name": "_policyId",
          "type": "uint32"
        },
        {
          "internalType": "address",
          "name": "_policyHolder",
          "type": "address"
        }
      ],
      "name": "calculateTotalCoverage",
      "outputs": [
        {
          "internalType": "uint256",
          "name": "",
          "type": "uint256"
        }
      ],
      "stateMutability": "view",
      "type": "function"
    },
    {
      "inputs": [],
      "name": "convertEthToWeth",
      "outputs": [],
      "stateMutability": "payable",
      "type": "function"
    },
    {
      "inputs": [
        {
          "internalType": "uint32",
          "name": "",
          "type": "uint32"
        }
      ],
      "name": "coverageFundBalance",
      "outputs": [
        {
          "internalType": "uint256",
          "name": "",
          "type": "uint256"
        }
      ],
      "stateMutability": "view",
      "type": "function"
    },
    {
      "inputs": [
        {
          "internalType": "uint32",
          "name": "",
          "type": "uint32"
        },
        {
          "internalType": "address",
          "name": "",
          "type": "address"
        }
      ],
      "name": "coverageFundTokenBalance",
      "outputs": [
        {
          "internalType": "uint256",
          "name": "",
          "type": "uint256"
        }
      ],
      "stateMutability": "view",
      "type": "function"
    },
    {
      "inputs": [
        {
          "internalType": "uint32",
          "name": "",
          "type": "uint32"
        },
        {
          "internalType": "address",
          "name": "",
          "type": "address"
        }
      ],
      "name": "coverageFunded",
      "outputs": [
        {
          "internalType": "uint256",
          "name": "",
          "type": "uint256"
        }
      ],
      "stateMutability": "view",
      "type": "function"
    },
    {
      "inputs": [
        {
          "internalType": "uint256",
          "name": "_coverageAmount",
          "type": "uint256"
        },
        {
          "internalType": "uint256",
          "name": "_initialPremiumFee",
          "type": "uint256"
        },
        {
          "internalType": "uint256",
          "name": "_initialCoveragePercentage",
          "type": "uint256"
        },
        {
          "internalType": "uint256",
          "name": "_premiumRate",
          "type": "uint256"
        },
        {
          "internalType": "uint32",
          "name": "_duration",
          "type": "uint32"
        },
        {
          "internalType": "uint32",
          "name": "_penaltyRate",
          "type": "uint32"
        },
        {
          "internalType": "uint32",
          "name": "_monthsGracePeriod",
          "type": "uint32"
        },
        {
          "internalType": "uint32",
          "name": "_coverageFundPercentage",
          "type": "uint32"
        },
        {
          "internalType": "uint32",
          "name": "_investmentFundPercentage",
          "type": "uint32"
        }
      ],
      "name": "createPolicy",
      "outputs": [],
      "stateMutability": "nonpayable",
      "type": "function"
    },
    {
      "inputs": [
        {
          "internalType": "uint32",
          "name": "_policyId",
          "type": "uint32"
        }
      ],
      "name": "deactivatePolicy",
      "outputs": [],
      "stateMutability": "nonpayable",
      "type": "function"
    },
    {
      "inputs": [
        {
          "internalType": "uint32",
          "name": "policyId",
          "type": "uint32"
        },
        {
          "internalType": "uint256",
          "name": "claimAmount",
          "type": "uint256"
        }
      ],
      "name": "handlePayout",
      "outputs": [],
      "stateMutability": "nonpayable",
      "type": "function"
    },
    {
      "inputs": [
        {
          "internalType": "uint32",
          "name": "policyId",
          "type": "uint32"
        },
        {
          "internalType": "uint256",
          "name": "amount",
          "type": "uint256"
        }
      ],
      "name": "investInAavePool",
      "outputs": [],
      "stateMutability": "nonpayable",
      "type": "function"
    },
    {
      "inputs": [
        {
          "internalType": "uint32",
          "name": "",
          "type": "uint32"
        }
      ],
      "name": "investmentFundBalance",
      "outputs": [
        {
          "internalType": "uint256",
          "name": "",
          "type": "uint256"
        }
      ],
      "stateMutability": "view",
      "type": "function"
    },
    {
      "inputs": [
        {
          "internalType": "uint32",
          "name": "",
          "type": "uint32"
        },
        {
          "internalType": "address",
          "name": "",
          "type": "address"
        }
      ],
      "name": "investmentFundTokenBalance",
      "outputs": [
        {
          "internalType": "uint256",
          "name": "",
          "type": "uint256"
        }
      ],
      "stateMutability": "view",
      "type": "function"
    },
    {
      "inputs": [
        {
          "internalType": "uint32",
          "name": "",
          "type": "uint32"
        },
        {
          "internalType": "address",
          "name": "",
          "type": "address"
        }
      ],
      "name": "investmentFunded",
      "outputs": [
        {
          "internalType": "uint256",
          "name": "",
          "type": "uint256"
        }
      ],
      "stateMutability": "view",
      "type": "function"
    },
    {
      "inputs": [
        {
          "internalType": "uint32",
          "name": "_policyId",
          "type": "uint32"
        }
      ],
      "name": "isActive",
      "outputs": [
        {
          "internalType": "bool",
          "name": "",
          "type": "bool"
        }
      ],
      "stateMutability": "view",
      "type": "function"
    },
    {
      "inputs": [
        {
          "internalType": "uint32",
          "name": "_policyId",
          "type": "uint32"
        },
        {
          "internalType": "address",
          "name": "_claimant",
          "type": "address"
        }
      ],
      "name": "isPolicyOwner",
      "outputs": [
        {
          "internalType": "bool",
          "name": "",
          "type": "bool"
        }
      ],
      "stateMutability": "view",
      "type": "function"
    },
    {
      "inputs": [
        {
          "internalType": "uint32",
          "name": "",
          "type": "uint32"
        },
        {
          "internalType": "address",
          "name": "",
          "type": "address"
        }
      ],
      "name": "lastPremiumPaidTime",
      "outputs": [
        {
          "internalType": "uint256",
          "name": "",
          "type": "uint256"
        }
      ],
      "stateMutability": "view",
      "type": "function"
    },
    {
      "inputs": [],
      "name": "nextPolicyId",
      "outputs": [
        {
          "internalType": "uint32",
          "name": "",
          "type": "uint32"
        }
      ],
      "stateMutability": "view",
      "type": "function"
    },
    {
      "inputs": [],
      "name": "owner",
      "outputs": [
        {
          "internalType": "address",
          "name": "",
          "type": "address"
        }
      ],
      "stateMutability": "view",
      "type": "function"
    },
    {
      "inputs": [
        {
          "internalType": "uint32",
          "name": "_policyId",
          "type": "uint32"
        },
        {
          "internalType": "uint256",
          "name": "investmentFundPercentage",
          "type": "uint256"
        },
        {
          "internalType": "uint256",
          "name": "amount",
          "type": "uint256"
        }
      ],
      "name": "payCustomPremium",
      "outputs": [],
      "stateMutability": "payable",
      "type": "function"
    },
    {
      "inputs": [
        {
          "internalType": "uint32",
          "name": "_policyId",
          "type": "uint32"
        }
      ],
      "name": "payInitialPremium",
      "outputs": [],
      "stateMutability": "nonpayable",
      "type": "function"
    },
    {
      "inputs": [
        {
          "internalType": "uint32",
          "name": "_policyId",
          "type": "uint32"
        },
        {
          "internalType": "uint256",
          "name": "amount",
          "type": "uint256"
        }
      ],
      "name": "payPremium",
      "outputs": [],
      "stateMutability": "payable",
      "type": "function"
    },
    {
      "inputs": [
        {
          "internalType": "uint32",
          "name": "",
          "type": "uint32"
        }
      ],
      "name": "policies",
      "outputs": [
        {
          "internalType": "uint256",
          "name": "coverageAmount",
          "type": "uint256"
        },
        {
          "internalType": "uint256",
          "name": "initialPremiumFee",
          "type": "uint256"
        },
        {
          "internalType": "uint256",
          "name": "initialCoveragePercentage",
          "type": "uint256"
        },
        {
          "internalType": "uint256",
          "name": "premiumRate",
          "type": "uint256"
        },
        {
          "internalType": "uint32",
          "name": "duration",
          "type": "uint32"
        },
        {
          "internalType": "bool",
          "name": "isActive",
          "type": "bool"
        },
        {
          "internalType": "uint32",
          "name": "penaltyRate",
          "type": "uint32"
        },
        {
          "internalType": "uint32",
          "name": "monthsGracePeriod",
          "type": "uint32"
        },
        {
          "internalType": "uint32",
          "name": "coverageFundPercentage",
          "type": "uint32"
        },
        {
          "internalType": "uint32",
          "name": "investmentFundPercentage",
          "type": "uint32"
        },
        {
          "internalType": "uint256",
          "name": "startTime",
          "type": "uint256"
        },
        {
          "internalType": "address",
          "name": "creator",
          "type": "address"
        }
      ],
      "stateMutability": "view",
      "type": "function"
    },
    {
      "inputs": [
        {
          "internalType": "uint32",
          "name": "",
          "type": "uint32"
        },
        {
          "internalType": "address",
          "name": "",
          "type": "address"
        }
      ],
      "name": "policyOwners",
      "outputs": [
        {
          "internalType": "bool",
          "name": "",
          "type": "bool"
        }
      ],
      "stateMutability": "view",
      "type": "function"
    },
    {
      "inputs": [
        {
          "internalType": "uint32",
          "name": "",
          "type": "uint32"
        },
        {
          "internalType": "address",
          "name": "",
          "type": "address"
        }
      ],
      "name": "premiumsPaid",
      "outputs": [
        {
          "internalType": "uint256",
          "name": "",
          "type": "uint256"
        }
      ],
      "stateMutability": "view",
      "type": "function"
    },
    {
      "inputs": [],
      "name": "renounceOwnership",
      "outputs": [],
      "stateMutability": "nonpayable",
      "type": "function"
    },
    {
      "inputs": [
        {
          "internalType": "address",
          "name": "_payoutContract",
          "type": "address"
        }
      ],
      "name": "setPayoutContract",
      "outputs": [],
      "stateMutability": "nonpayable",
      "type": "function"
    },
    {
      "inputs": [
        {
          "internalType": "uint32",
          "name": "",
          "type": "uint32"
        },
        {
          "internalType": "address",
          "name": "",
          "type": "address"
        }
      ],
      "name": "timesPaid",
      "outputs": [
        {
          "internalType": "uint32",
          "name": "",
          "type": "uint32"
        }
      ],
      "stateMutability": "view",
      "type": "function"
    },
    {
      "inputs": [
        {
          "internalType": "uint32",
          "name": "",
          "type": "uint32"
        }
      ],
      "name": "totalSupplied",
      "outputs": [
        {
          "internalType": "uint256",
          "name": "",
          "type": "uint256"
        }
      ],
      "stateMutability": "view",
      "type": "function"
    },
    {
      "inputs": [
        {
          "internalType": "address",
          "name": "newOwner",
          "type": "address"
        }
      ],
      "name": "transferOwnership",
      "outputs": [],
      "stateMutability": "nonpayable",
      "type": "function"
    },
    {
      "inputs": [
        {
          "internalType": "uint32",
          "name": "_policyId",
          "type": "uint32"
        },
        {
          "internalType": "uint256",
          "name": "_coverageAmount",
          "type": "uint256"
        },
        {
          "internalType": "uint256",
          "name": "_initialPremiumFee",
          "type": "uint256"
        },
        {
          "internalType": "uint32",
          "name": "_duration",
          "type": "uint32"
        },
        {
          "internalType": "uint32",
          "name": "_monthsGracePeriod",
          "type": "uint32"
        },
        {
          "internalType": "uint32",
          "name": "_penaltyRate",
          "type": "uint32"
        }
      ],
      "name": "updatePolicy",
      "outputs": [],
      "stateMutability": "nonpayable",
      "type": "function"
    },
    {
      "inputs": [],
      "name": "weth",
      "outputs": [
        {
          "internalType": "contract IWETH",
          "name": "",
          "type": "address"
        }
      ],
      "stateMutability": "view",
      "type": "function"
    },
    {
      "inputs": [
        {
          "internalType": "address",
          "name": "asset",
          "type": "address"
        },
        {
          "internalType": "uint256",
          "name": "amount",
          "type": "uint256"
        }
      ],
      "name": "withdrawFromAavePool",
      "outputs": [],
      "stateMutability": "nonpayable",
      "type": "function"
    },
    {
      "inputs": [
        {
          "internalType": "uint256",
          "name": "amount",
          "type": "uint256"
        }
      ],
      "name": "withdrawWethAsEth",
      "outputs": [],
      "stateMutability": "nonpayable",
      "type": "function"
    }
  ],
  "bytecode": "0x60806040526001601260006101000a81548163ffffffff021916908363ffffffff1602179055503480156200003357600080fd5b50604051620059e7380380620059e78339818101604052810190620000599190620003dd565b81600073ffffffffffffffffffffffffffffffffffffffff168173ffffffffffffffffffffffffffffffffffffffff1603620000cf5760006040517f1e4fbdf7000000000000000000000000000000000000000000000000000000008152600401620000c6919062000435565b60405180910390fd5b620000e081620002af60201b60201c565b506001808190555080601260046101000a81548173ffffffffffffffffffffffffffffffffffffffff021916908373ffffffffffffffffffffffffffffffffffffffff160217905550601260049054906101000a900473ffffffffffffffffffffffffffffffffffffffff1673ffffffffffffffffffffffffffffffffffffffff1663026b1d5f6040518163ffffffff1660e01b8152600401602060405180830381865afa15801562000197573d6000803e3d6000fd5b505050506040513d601f19601f82011682018060405250810190620001bd919062000452565b601360006101000a81548173ffffffffffffffffffffffffffffffffffffffff021916908373ffffffffffffffffffffffffffffffffffffffff16021790555073c02aaa39b223fe8d0a0e5c4f27ead9083c756cc2600260006101000a81548173ffffffffffffffffffffffffffffffffffffffff021916908373ffffffffffffffffffffffffffffffffffffffff160217905550734d5f47fa6a74757f35c14fd3a6ef8e3c9bc514e8600360006101000a81548173ffffffffffffffffffffffffffffffffffffffff021916908373ffffffffffffffffffffffffffffffffffffffff160217905550505062000484565b60008060009054906101000a900473ffffffffffffffffffffffffffffffffffffffff169050816000806101000a81548173ffffffffffffffffffffffffffffffffffffffff021916908373ffffffffffffffffffffffffffffffffffffffff1602179055508173ffffffffffffffffffffffffffffffffffffffff168173ffffffffffffffffffffffffffffffffffffffff167f8be0079c531659141344cd1fd0a4f28419497f9722a3daafe3b4186f6b6457e060405160405180910390a35050565b600080fd5b600073ffffffffffffffffffffffffffffffffffffffff82169050919050565b6000620003a58262000378565b9050919050565b620003b78162000398565b8114620003c357600080fd5b50565b600081519050620003d781620003ac565b92915050565b60008060408385031215620003f757620003f662000373565b5b60006200040785828601620003c6565b92505060206200041a85828601620003c6565b9150509250929050565b6200042f8162000398565b82525050565b60006020820190506200044c600083018462000424565b92915050565b6000602082840312156200046b576200046a62000373565b5b60006200047b84828501620003c6565b91505092915050565b61555380620004946000396000f3fe60806040526004361061027d5760003560e01c806366f79e761161014f578063bb0ab3cd116100c1578063ec2e866f1161007a578063ec2e866f14610a6f578063ee259d9c14610aac578063f2fde38b14610ae9578063f352ac9414610b12578063f720b55814610b4f578063fe4cfccc14610b8c5761027d565b8063bb0ab3cd14610925578063cad0b8db14610950578063d2a1d3391461097b578063d995a25f146109b8578063daa984fe146109f5578063e20600d914610a325761027d565b80639949f0c8116101135780639949f0c8146108475780639b59223214610851578063a1ed5ec91461087a578063a325694f146108b7578063b5bd6c05146108d3578063b92b2dc7146108fc5761027d565b806366f79e7614610762578063709d8a081461078b578063715018a6146107c857806387095de9146107df5780638da5cb5b1461081c5761027d565b806334896469116101f35780634eecc909116101ac5780634eecc909146106275780635bb67c67146106645780635cd9ce3e146106a15780635e19b305146106cc5780635f6d607d146107095780636562f86f146107465761027d565b806334896469146104f35780633a7e870d1461051c5780633fc8cef3146105595780634153cd3a14610584578063444d7680146105ad57806344a04595146105ea5761027d565b80631e7192ae116102455780631e7192ae1461037957806327b05d87146103c157806328ab58fb146103fe5780632ac887e71461043b5780632d68fd36146104795780633292cfc7146104b65761027d565b8063040141e5146102825780630dbadfb8146102ad5780630dce2651146102ea578063159117ee14610327578063160f71c114610350575b600080fd5b34801561028e57600080fd5b50610297610bb5565b6040516102a49190614379565b60405180910390f35b3480156102b957600080fd5b506102d460048036038101906102cf919061440b565b610bcd565b6040516102e1919061445a565b60405180910390f35b3480156102f657600080fd5b50610311600480360381019061030c91906144a1565b610c8b565b60405161031e919061445a565b60405180910390f35b34801561033357600080fd5b5061034e6004803603810190610349919061440b565b6110b1565b005b34801561035c57600080fd5b50610377600480360381019061037291906144e1565b611461565b005b34801561038557600080fd5b506103a0600480360381019061039b91906144e1565b611c1a565b6040516103b89c9b9a99989796959493929190614538565b60405180910390f35b3480156103cd57600080fd5b506103e860048036038101906103e391906144a1565b611cf7565b6040516103f5919061445a565b60405180910390f35b34801561040a57600080fd5b50610425600480360381019061042091906144a1565b611d1c565b604051610432919061445a565b60405180910390f35b34801561044757600080fd5b50610462600480360381019061045d919061440b565b611d41565b6040516104709291906145f2565b60405180910390f35b34801561048557600080fd5b506104a0600480360381019061049b91906144a1565b611e1f565b6040516104ad919061445a565b60405180910390f35b3480156104c257600080fd5b506104dd60048036038101906104d891906144a1565b611e44565b6040516104ea919061461b565b60405180910390f35b3480156104ff57600080fd5b5061051a6004803603810190610515919061440b565b611e76565b005b34801561052857600080fd5b50610543600480360381019061053e91906144a1565b612166565b604051610550919061445a565b60405180910390f35b34801561056557600080fd5b5061056e61218b565b60405161057b9190614695565b60405180910390f35b34801561059057600080fd5b506105ab60048036038101906105a691906146b0565b6121b1565b005b3480156105b957600080fd5b506105d460048036038101906105cf91906144e1565b61230f565b6040516105e1919061445a565b60405180910390f35b3480156105f657600080fd5b50610611600480360381019061060c919061473d565b61241e565b60405161061e919061445a565b60405180910390f35b34801561063357600080fd5b5061064e600480360381019061064991906144a1565b612478565b60405161065b919061445a565b60405180910390f35b34801561067057600080fd5b5061068b600480360381019061068691906144a1565b61249d565b604051610698919061445a565b60405180910390f35b3480156106ad57600080fd5b506106b6612819565b6040516106c391906147b1565b60405180910390f35b3480156106d857600080fd5b506106f360048036038101906106ee91906144e1565b61283f565b60405161070091906147cc565b60405180910390f35b34801561071557600080fd5b50610730600480360381019061072b91906144a1565b612878565b60405161073d919061445a565b60405180910390f35b610760600480360381019061075b919061440b565b61289d565b005b34801561076e57600080fd5b50610789600480360381019061078491906147e7565b612e2d565b005b34801561079757600080fd5b506107b260048036038101906107ad91906144e1565b6130e5565b6040516107bf919061445a565b60405180910390f35b3480156107d457600080fd5b506107dd6130fd565b005b3480156107eb57600080fd5b50610806600480360381019061080191906144a1565b613111565b604051610813919061445a565b60405180910390f35b34801561082857600080fd5b50610831613136565b60405161083e9190614379565b60405180910390f35b61084f61315f565b005b34801561085d57600080fd5b50610878600480360381019061087391906148b1565b613227565b005b34801561088657600080fd5b506108a1600480360381019061089c919061473d565b6132b7565b6040516108ae919061445a565b60405180910390f35b6108d160048036038101906108cc91906148de565b613403565b005b3480156108df57600080fd5b506108fa60048036038101906108f591906144e1565b6139f9565b005b34801561090857600080fd5b50610923600480360381019061091e9190614931565b613a76565b005b34801561093157600080fd5b5061093a613ac2565b6040516109479190614379565b60405180910390f35b34801561095c57600080fd5b50610965613ada565b604051610972919061461b565b60405180910390f35b34801561098757600080fd5b506109a2600480360381019061099d91906144e1565b613af0565b6040516109af919061445a565b60405180910390f35b3480156109c457600080fd5b506109df60048036038101906109da919061440b565b613b55565b6040516109ec919061445a565b60405180910390f35b348015610a0157600080fd5b50610a1c6004803603810190610a1791906148de565b613c40565b604051610a29919061445a565b60405180910390f35b348015610a3e57600080fd5b50610a596004803603810190610a5491906144e1565b613d20565b604051610a66919061445a565b60405180910390f35b348015610a7b57600080fd5b50610a966004803603810190610a9191906144a1565b613d38565b604051610aa391906147cc565b60405180910390f35b348015610ab857600080fd5b50610ad36004803603810190610ace919061473d565b613dac565b604051610ae0919061445a565b60405180910390f35b348015610af557600080fd5b50610b106004803603810190610b0b9190614931565b614022565b005b348015610b1e57600080fd5b50610b396004803603810190610b3491906144a1565b6140a8565b604051610b4691906147cc565b60405180910390f35b348015610b5b57600080fd5b50610b766004803603810190610b7191906144e1565b6140d7565b604051610b83919061445a565b60405180910390f35b348015610b9857600080fd5b50610bb36004803603810190610bae919061495e565b6140ef565b005b73c02aaa39b223fe8d0a0e5c4f27ead9083c756cc281565b600080600560008563ffffffff1663ffffffff16815260200190815260200160002060000154905080831180610c035750600083145b15610c12576000915050610c85565b600081606485610c2291906149cd565b610c2c9190614a3e565b9050600a811015610c4257600192505050610c85565b6032811015610c5657600292505050610c85565b6032811015610c6a57600292505050610c85565b604b811015610c7e57600392505050610c85565b6003925050505b92915050565b6000610c978333613d38565b610cd6576040517f08c379a0000000000000000000000000000000000000000000000000000000008152600401610ccd90614acc565b60405180910390fd5b600560008463ffffffff1663ffffffff16815260200190815260200160002060040160049054906101000a900460ff16610d45576040517f08c379a0000000000000000000000000000000000000000000000000000000008152600401610d3c90614b38565b60405180910390fd5b6000601060008563ffffffff1663ffffffff16815260200190815260200160002060008473ffffffffffffffffffffffffffffffffffffffff1673ffffffffffffffffffffffffffffffffffffffff1681526020019081526020016000205411610de4576040517f08c379a0000000000000000000000000000000000000000000000000000000008152600401610ddb90614ba4565b60405180910390fd5b6000601060008563ffffffff1663ffffffff16815260200190815260200160002060008473ffffffffffffffffffffffffffffffffffffffff1673ffffffffffffffffffffffffffffffffffffffff1681526020019081526020016000205442610e4e9190614bc4565b905060006018603c8084610e629190614a3e565b610e6c9190614a3e565b610e769190614a3e565b90506000601e600560008863ffffffff1663ffffffff16815260200190815260200160002060030154610ea99190614a3e565b905060008183610eb991906149cd565b90506000600560008963ffffffff1663ffffffff1681526020019081526020016000206003015490508181610eee9190614bf8565b90506000601e85610eff9190614a3e565b9050600560008a63ffffffff1663ffffffff16815260200190815260200160002060040160099054906101000a900463ffffffff1663ffffffff16811115610ff9576000600560008b63ffffffff1663ffffffff16815260200190815260200160002060040160059054906101000a900463ffffffff1663ffffffff1690506000600560008c63ffffffff1663ffffffff16815260200190815260200160002060040160099054906101000a900463ffffffff1663ffffffff1683610fc49190614bc4565b90506064818386610fd591906149cd565b610fdf91906149cd565b610fe99190614a3e565b84610ff49190614bf8565b935050505b6000600560008b63ffffffff1663ffffffff16815260200190815260200160002060010154600c60008c63ffffffff1663ffffffff16815260200190815260200160002060008b73ffffffffffffffffffffffffffffffffffffffff1673ffffffffffffffffffffffffffffffffffffffff168152602001908152602001600020546110859190614bc4565b905082811161109f57808361109a9190614bc4565b6110a2565b60005b97505050505050505092915050565b81600560008263ffffffff1663ffffffff16815260200190815260200160002060060160009054906101000a900473ffffffffffffffffffffffffffffffffffffffff1673ffffffffffffffffffffffffffffffffffffffff163373ffffffffffffffffffffffffffffffffffffffff1614611162576040517f08c379a000000000000000000000000000000000000000000000000000000000815260040161115990614c78565b60405180910390fd5b8173c02aaa39b223fe8d0a0e5c4f27ead9083c756cc273ffffffffffffffffffffffffffffffffffffffff166370a08231306040518263ffffffff1660e01b81526004016111b09190614379565b602060405180830381865afa1580156111cd573d6000803e3d6000fd5b505050506040513d601f19601f820116820180604052508101906111f19190614cad565b1015611232576040517f08c379a000000000000000000000000000000000000000000000000000000000815260040161122990614d26565b60405180910390fd5b81600760008563ffffffff1663ffffffff1681526020019081526020016000205411611293576040517f08c379a000000000000000000000000000000000000000000000000000000000815260040161128a90614d92565b60405180910390fd5b73c02aaa39b223fe8d0a0e5c4f27ead9083c756cc273ffffffffffffffffffffffffffffffffffffffff1663095ea7b3601360009054906101000a900473ffffffffffffffffffffffffffffffffffffffff16846040518363ffffffff1660e01b8152600401611304929190614db2565b6020604051808303816000875af1158015611323573d6000803e3d6000fd5b505050506040513d601f19601f820116820180604052508101906113479190614e07565b50601360009054906101000a900473ffffffffffffffffffffffffffffffffffffffff1673ffffffffffffffffffffffffffffffffffffffff1663e8eda9df73c02aaa39b223fe8d0a0e5c4f27ead9083c756cc2843060006040518563ffffffff1660e01b81526004016113be9493929190614e7d565b600060405180830381600087803b1580156113d857600080fd5b505af11580156113ec573d6000803e3d6000fd5b5050505081600760008563ffffffff1663ffffffff168152602001908152602001600020600082825461141f9190614bc4565b9250508190555081600860008563ffffffff1663ffffffff16815260200190815260200160002060008282546114559190614bf8565b92505081905550505050565b61146b8133613d38565b156114ab576040517f08c379a00000000000000000000000000000000000000000000000000000000081526004016114a290614f34565b60405180910390fd5b600560008263ffffffff1663ffffffff16815260200190815260200160002060040160049054906101000a900460ff1661151a576040517f08c379a000000000000000000000000000000000000000000000000000000000815260040161151190614fa0565b60405180910390fd5b600560008263ffffffff1663ffffffff16815260200190815260200160002060010154600260009054906101000a900473ffffffffffffffffffffffffffffffffffffffff1673ffffffffffffffffffffffffffffffffffffffff166370a08231336040518263ffffffff1660e01b81526004016115989190614379565b602060405180830381865afa1580156115b5573d6000803e3d6000fd5b505050506040513d601f19601f820116820180604052508101906115d99190614cad565b11611619576040517f08c379a00000000000000000000000000000000000000000000000000000000081526004016116109061500c565b60405180910390fd5b600260009054906101000a900473ffffffffffffffffffffffffffffffffffffffff1673ffffffffffffffffffffffffffffffffffffffff166323b872dd3330600560008663ffffffff1663ffffffff168152602001908152602001600020600101546040518463ffffffff1660e01b815260040161169a9392919061502c565b6020604051808303816000875af11580156116b9573d6000803e3d6000fd5b505050506040513d601f19601f820116820180604052508101906116dd9190614e07565b61171c576040517f08c379a0000000000000000000000000000000000000000000000000000000008152600401611713906150af565b60405180910390fd5b600560008263ffffffff1663ffffffff16815260200190815260200160002060010154600c60008363ffffffff1663ffffffff16815260200190815260200160002060003373ffffffffffffffffffffffffffffffffffffffff1673ffffffffffffffffffffffffffffffffffffffff16815260200190815260200160002060008282546117aa9190614bf8565b925050819055506001600b60008363ffffffff1663ffffffff16815260200190815260200160002060003373ffffffffffffffffffffffffffffffffffffffff1673ffffffffffffffffffffffffffffffffffffffff16815260200190815260200160002060006101000a81548160ff02191690831515021790555042601060008363ffffffff1663ffffffff16815260200190815260200160002060003373ffffffffffffffffffffffffffffffffffffffff1673ffffffffffffffffffffffffffffffffffffffff168152602001908152602001600020819055506064600560008363ffffffff1663ffffffff168152602001908152602001600020600401600d9054906101000a900463ffffffff1663ffffffff16600560008463ffffffff1663ffffffff168152602001908152602001600020600101546118ef91906149cd565b6118f99190614a3e565b600660008363ffffffff1663ffffffff16815260200190815260200160002060008282546119279190614bf8565b925050819055506064600560008363ffffffff1663ffffffff16815260200190815260200160002060040160119054906101000a900463ffffffff1663ffffffff16600560008463ffffffff1663ffffffff1681526020019081526020016000206001015461199691906149cd565b6119a09190614a3e565b600760008363ffffffff1663ffffffff16815260200190815260200160002060008282546119ce9190614bf8565b925050819055506064600560008363ffffffff1663ffffffff168152602001908152602001600020600401600d9054906101000a900463ffffffff1663ffffffff16600560008463ffffffff1663ffffffff16815260200190815260200160002060010154611a3d91906149cd565b611a479190614a3e565b600d60008363ffffffff1663ffffffff16815260200190815260200160002060003373ffffffffffffffffffffffffffffffffffffffff1673ffffffffffffffffffffffffffffffffffffffff1681526020019081526020016000206000828254611ab29190614bf8565b925050819055506064600560008363ffffffff1663ffffffff16815260200190815260200160002060040160119054906101000a900463ffffffff1663ffffffff16600560008463ffffffff1663ffffffff16815260200190815260200160002060010154611b2191906149cd565b611b2b9190614a3e565b600e60008363ffffffff1663ffffffff16815260200190815260200160002060003373ffffffffffffffffffffffffffffffffffffffff1673ffffffffffffffffffffffffffffffffffffffff1681526020019081526020016000206000828254611b969190614bf8565b925050819055503373ffffffffffffffffffffffffffffffffffffffff168163ffffffff167fcb56b790741c56fe9689db9a11c7acfbbe5aa3e1eafa48a4eedb496986881437600560008563ffffffff1663ffffffff168152602001908152602001600020600101546001604051611c0f9291906150cf565b60405180910390a350565b60056020528060005260406000206000915090508060000154908060010154908060020154908060030154908060040160009054906101000a900463ffffffff16908060040160049054906101000a900460ff16908060040160059054906101000a900463ffffffff16908060040160099054906101000a900463ffffffff169080600401600d9054906101000a900463ffffffff16908060040160119054906101000a900463ffffffff16908060050154908060060160009054906101000a900473ffffffffffffffffffffffffffffffffffffffff1690508c565b600a602052816000526040600020602052806000526040600020600091509150505481565b6010602052816000526040600020602052806000526040600020600091509150505481565b6000806000600560008663ffffffff1663ffffffff168152602001908152602001600020905060006064600560008863ffffffff1663ffffffff168152602001908152602001600020600401600d9054906101000a900463ffffffff1663ffffffff1686611daf91906149cd565b611db99190614a3e565b905060006064600560008963ffffffff1663ffffffff16815260200190815260200160002060040160119054906101000a900463ffffffff1663ffffffff1687611e0391906149cd565b611e0d9190614a3e565b90508181945094505050509250929050565b600c602052816000526040600020602052806000526040600020600091509150505481565b600f6020528160005260406000206020528060005260406000206000915091509054906101000a900463ffffffff1681565b611e7e614196565b600560008363ffffffff1663ffffffff16815260200190815260200160002060040160049054906101000a900460ff16611eed576040517f08c379a0000000000000000000000000000000000000000000000000000000008152600401611ee490614fa0565b60405180910390fd5b600b60008363ffffffff1663ffffffff16815260200190815260200160002060003373ffffffffffffffffffffffffffffffffffffffff1673ffffffffffffffffffffffffffffffffffffffff16815260200190815260200160002060009054906101000a900460ff16611f96576040517f08c379a0000000000000000000000000000000000000000000000000000000008152600401611f8d90615144565b60405180910390fd5b600660008363ffffffff1663ffffffff16815260200190815260200160002054811115611ff8576040517f08c379a0000000000000000000000000000000000000000000000000000000008152600401611fef906151b0565b60405180910390fd5b612002823361249d565b811115612044576040517f08c379a000000000000000000000000000000000000000000000000000000000815260040161203b906151b0565b60405180910390fd5b6000612050833361249d565b821161205c5781612067565b612066833361249d565b5b905080600660008563ffffffff1663ffffffff16815260200190815260200160002060008282546120989190614bc4565b9250508190555080601160008563ffffffff1663ffffffff16815260200190815260200160002060003373ffffffffffffffffffffffffffffffffffffffff1673ffffffffffffffffffffffffffffffffffffffff168152602001908152602001600020600082825461210b9190614bf8565b925050819055503373ffffffffffffffffffffffffffffffffffffffff166108fc829081150290604051600060405180830381858888f19350505050158015612158573d6000803e3d6000fd5b50506121626141dc565b5050565b6009602052816000526040600020602052806000526040600020600091509150505481565b600260009054906101000a900473ffffffffffffffffffffffffffffffffffffffff1681565b6121b96141e5565b84600560008863ffffffff1663ffffffff1681526020019081526020016000206000018190555083600560008863ffffffff1663ffffffff1681526020019081526020016000206001018190555082600560008863ffffffff1663ffffffff16815260200190815260200160002060040160006101000a81548163ffffffff021916908363ffffffff16021790555080600560008863ffffffff1663ffffffff16815260200190815260200160002060040160056101000a81548163ffffffff021916908363ffffffff16021790555081600560008863ffffffff1663ffffffff16815260200190815260200160002060040160096101000a81548163ffffffff021916908363ffffffff1602179055507fbe829975d2c0d9995edbd0abc0cbd073add0fde193595b70af3c8e9094c00ac8868686866040516122ff94939291906151d0565b60405180910390a1505050505050565b600080600360009054906101000a900473ffffffffffffffffffffffffffffffffffffffff1673ffffffffffffffffffffffffffffffffffffffff166370a08231306040518263ffffffff1660e01b815260040161236d9190614379565b602060405180830381865afa15801561238a573d6000803e3d6000fd5b505050506040513d601f19601f820116820180604052508101906123ae9190614cad565b90506000600860008563ffffffff1663ffffffff16815260200190815260200160002054826123dd9190614bc4565b10156123ea576000612416565b600860008463ffffffff1663ffffffff16815260200190815260200160002054816124159190614bc4565b5b915050919050565b6000600560008563ffffffff1663ffffffff1681526020019081526020016000206001015482116124525760009050612471565b600061245f858585613dac565b8361246a91906149cd565b9050809150505b9392505050565b600d602052816000526040600020602052806000526040600020600091509150505481565b6000600560008463ffffffff1663ffffffff16815260200190815260200160002060040160049054906101000a900460ff1661250e576040517f08c379a000000000000000000000000000000000000000000000000000000000815260040161250590614fa0565b60405180910390fd5b600061251984613af0565b90506064600560008663ffffffff1663ffffffff168152602001908152602001600020600401600d9054906101000a900463ffffffff1663ffffffff16600560008763ffffffff1663ffffffff1681526020019081526020016000206001015461258391906149cd565b61258d9190614a3e565b600d60008663ffffffff1663ffffffff16815260200190815260200160002060008573ffffffffffffffffffffffffffffffffffffffff1673ffffffffffffffffffffffffffffffffffffffff16815260200190815260200160002054036125f85780915050612813565b60006126dd85856064600560008a63ffffffff1663ffffffff168152602001908152602001600020600401600d9054906101000a900463ffffffff1663ffffffff16600560008b63ffffffff1663ffffffff1681526020019081526020016000206001015461266791906149cd565b6126719190614a3e565b600d60008a63ffffffff1663ffffffff16815260200190815260200160002060008973ffffffffffffffffffffffffffffffffffffffff1673ffffffffffffffffffffffffffffffffffffffff168152602001908152602001600020546126d89190614bc4565b61241e565b9050600081836126ed9190614bf8565b905080601160008863ffffffff1663ffffffff16815260200190815260200160002060008773ffffffffffffffffffffffffffffffffffffffff1673ffffffffffffffffffffffffffffffffffffffff16815260200190815260200160002054111561275f5760009350505050612813565b6000601160008863ffffffff1663ffffffff16815260200190815260200160002060008773ffffffffffffffffffffffffffffffffffffffff1673ffffffffffffffffffffffffffffffffffffffff16815260200190815260200160002054826127c99190614bc4565b905060006002600560008a63ffffffff1663ffffffff168152602001908152602001600020600001546127fc91906149cd565b90508082111561280a578091505b81955050505050505b92915050565b600360009054906101000a900473ffffffffffffffffffffffffffffffffffffffff1681565b6000600560008363ffffffff1663ffffffff16815260200190815260200160002060040160049054906101000a900460ff169050919050565b600e602052816000526040600020602052806000526040600020600091509150505481565b6128a78233613d38565b6128e6576040517f08c379a00000000000000000000000000000000000000000000000000000000081526004016128dd90615144565b60405180910390fd5b600560008363ffffffff1663ffffffff16815260200190815260200160002060040160049054906101000a900460ff16612955576040517f08c379a000000000000000000000000000000000000000000000000000000000815260040161294c90614fa0565b60405180910390fd5b600560008363ffffffff1663ffffffff16815260200190815260200160002060000154612982833361249d565b106129c2576040517f08c379a00000000000000000000000000000000000000000000000000000000081526004016129b990615287565b60405180910390fd5b6129cc8233610c8b565b811015612a0e576040517f08c379a0000000000000000000000000000000000000000000000000000000008152600401612a0590615319565b60405180910390fd5b600260009054906101000a900473ffffffffffffffffffffffffffffffffffffffff1673ffffffffffffffffffffffffffffffffffffffff166323b872dd3330846040518463ffffffff1660e01b8152600401612a6d9392919061502c565b6020604051808303816000875af1158015612a8c573d6000803e3d6000fd5b505050506040513d601f19601f82011682018060405250810190612ab09190614e07565b612aef576040517f08c379a0000000000000000000000000000000000000000000000000000000008152600401612ae6906150af565b60405180910390fd5b6000612afb833361249d565b90506000600560008563ffffffff1663ffffffff1681526020019081526020016000206000015490506000828211612b34576000612b41565b8282612b409190614bc4565b5b90506000806064600560008963ffffffff1663ffffffff168152602001908152602001600020600401600d9054906101000a900463ffffffff1663ffffffff1687612b8c91906149cd565b612b969190614a3e565b91508186612ba49190614bc4565b905081600660008963ffffffff1663ffffffff1681526020019081526020016000206000828254612bd59190614bf8565b9250508190555080600760008963ffffffff1663ffffffff1681526020019081526020016000206000828254612c0b9190614bf8565b9250508190555085600c60008963ffffffff1663ffffffff16815260200190815260200160002060003373ffffffffffffffffffffffffffffffffffffffff1673ffffffffffffffffffffffffffffffffffffffff1681526020019081526020016000206000828254612c7e9190614bf8565b9250508190555081600d60008963ffffffff1663ffffffff16815260200190815260200160002060003373ffffffffffffffffffffffffffffffffffffffff1673ffffffffffffffffffffffffffffffffffffffff1681526020019081526020016000206000828254612cf19190614bf8565b9250508190555080600e60008963ffffffff1663ffffffff16815260200190815260200160002060003373ffffffffffffffffffffffffffffffffffffffff1673ffffffffffffffffffffffffffffffffffffffff1681526020019081526020016000206000828254612d649190614bf8565b9250508190555042601060008963ffffffff1663ffffffff16815260200190815260200160002060003373ffffffffffffffffffffffffffffffffffffffff1673ffffffffffffffffffffffffffffffffffffffff168152602001908152602001600020819055503373ffffffffffffffffffffffffffffffffffffffff168763ffffffff167fcb56b790741c56fe9689db9a11c7acfbbe5aa3e1eafa48a4eedb496986881437886000604051612e1c9291906150cf565b60405180910390a350505050505050565b6040518061018001604052808a81526020018981526020018881526020018781526020018663ffffffff1681526020016001151581526020018563ffffffff1681526020018463ffffffff1681526020018363ffffffff1681526020018263ffffffff1681526020014281526020013373ffffffffffffffffffffffffffffffffffffffff1681525060056000601260009054906101000a900463ffffffff1663ffffffff1663ffffffff1681526020019081526020016000206000820151816000015560208201518160010155604082015181600201556060820151816003015560808201518160040160006101000a81548163ffffffff021916908363ffffffff16021790555060a08201518160040160046101000a81548160ff02191690831515021790555060c08201518160040160056101000a81548163ffffffff021916908363ffffffff16021790555060e08201518160040160096101000a81548163ffffffff021916908363ffffffff16021790555061010082015181600401600d6101000a81548163ffffffff021916908363ffffffff1602179055506101208201518160040160116101000a81548163ffffffff021916908363ffffffff16021790555061014082015181600501556101608201518160060160006101000a81548173ffffffffffffffffffffffffffffffffffffffff021916908373ffffffffffffffffffffffffffffffffffffffff1602179055509050507f19bb034335e290edb4dfdd4b94706d99fb766d7512bd8836347f261943bd98e2601260009054906101000a900463ffffffff168a8a8860405161309194939291906151d0565b60405180910390a16012600081819054906101000a900463ffffffff16809291906130bb90615339565b91906101000a81548163ffffffff021916908363ffffffff16021790555050505050505050505050565b60066020528060005260406000206000915090505481565b6131056141e5565b61310f600061426c565b565b6011602052816000526040600020602052806000526040600020600091509150505481565b60008060009054906101000a900473ffffffffffffffffffffffffffffffffffffffff16905090565b600034116131a2576040517f08c379a0000000000000000000000000000000000000000000000000000000008152600401613199906153b1565b60405180910390fd5b600260009054906101000a900473ffffffffffffffffffffffffffffffffffffffff1673ffffffffffffffffffffffffffffffffffffffff1663d0e30db0346040518263ffffffff1660e01b81526004016000604051808303818588803b15801561320c57600080fd5b505af1158015613220573d6000803e3d6000fd5b5050505050565b600260009054906101000a900473ffffffffffffffffffffffffffffffffffffffff1673ffffffffffffffffffffffffffffffffffffffff16632e1a7d4d826040518263ffffffff1660e01b8152600401613282919061445a565b600060405180830381600087803b15801561329c57600080fd5b505af11580156132b0573d6000803e3d6000fd5b5050505050565b6000600560008563ffffffff1663ffffffff16815260200190815260200160002060040160049054906101000a900460ff16613328576040517f08c379a000000000000000000000000000000000000000000000000000000000815260040161331f90614fa0565b60405180910390fd5b6000613334858561249d565b905060006002600560008863ffffffff1663ffffffff1681526020019081526020016000206000015461336791906149cd565b905080821061337a5780925050506133fc565b60006133d687876064600560008c63ffffffff1663ffffffff168152602001908152602001600020600401600d9054906101000a900463ffffffff1663ffffffff16896133c791906149cd565b6133d19190614a3e565b61241e565b9050600081846133e69190614bf8565b9050828111156133f4578290505b809450505050505b9392505050565b61340d8333613d38565b61344c576040517f08c379a000000000000000000000000000000000000000000000000000000000815260040161344390615144565b60405180910390fd5b600560008463ffffffff1663ffffffff16815260200190815260200160002060040160049054906101000a900460ff166134bb576040517f08c379a00000000000000000000000000000000000000000000000000000000081526004016134b290614fa0565b60405180910390fd5b60648211156134ff576040517f08c379a00000000000000000000000000000000000000000000000000000000081526004016134f69061541d565b60405180910390fd5b600560008463ffffffff1663ffffffff1681526020019081526020016000206000015461352c843361249d565b101561356d576040517f08c379a000000000000000000000000000000000000000000000000000000000815260040161356490615489565b60405180910390fd5b600260009054906101000a900473ffffffffffffffffffffffffffffffffffffffff1673ffffffffffffffffffffffffffffffffffffffff166323b872dd3330846040518463ffffffff1660e01b81526004016135cc9392919061502c565b6020604051808303816000875af11580156135eb573d6000803e3d6000fd5b505050506040513d601f19601f8201168201806040525081019061360f9190614e07565b61364e576040517f08c379a0000000000000000000000000000000000000000000000000000000008152600401613645906150af565b60405180910390fd5b6136588333610c8b565b81101561369a576040517f08c379a000000000000000000000000000000000000000000000000000000000815260040161369190615319565b60405180910390fd5b60006002600560008663ffffffff1663ffffffff168152602001908152602001600020600001546136cb91906149cd565b6136d5853361249d565b106136e057816136f9565b606483836136ee91906149cd565b6136f89190614a3e565b5b905060006002600560008763ffffffff1663ffffffff1681526020019081526020016000206000015461372c91906149cd565b613736863361249d565b1061374257600061374f565b818361374e9190614bc4565b5b905082821161375e5781613760565b825b915082811161376f5780613772565b60005b905080600660008763ffffffff1663ffffffff16815260200190815260200160002060008282546137a39190614bf8565b9250508190555080600d60008763ffffffff1663ffffffff16815260200190815260200160002060003373ffffffffffffffffffffffffffffffffffffffff1673ffffffffffffffffffffffffffffffffffffffff16815260200190815260200160002060008282546138169190614bf8565b9250508190555081600760008763ffffffff1663ffffffff168152602001908152602001600020600082825461384c9190614bf8565b9250508190555081600e60008763ffffffff1663ffffffff16815260200190815260200160002060003373ffffffffffffffffffffffffffffffffffffffff1673ffffffffffffffffffffffffffffffffffffffff16815260200190815260200160002060008282546138bf9190614bf8565b9250508190555042601060008763ffffffff1663ffffffff16815260200190815260200160002060003373ffffffffffffffffffffffffffffffffffffffff1673ffffffffffffffffffffffffffffffffffffffff1681526020019081526020016000208190555082600c60008763ffffffff1663ffffffff16815260200190815260200160002060003373ffffffffffffffffffffffffffffffffffffffff1673ffffffffffffffffffffffffffffffffffffffff16815260200190815260200160002060008282546139939190614bf8565b925050819055503373ffffffffffffffffffffffffffffffffffffffff168563ffffffff167fcb56b790741c56fe9689db9a11c7acfbbe5aa3e1eafa48a4eedb4969868814378560006040516139ea9291906150cf565b60405180910390a35050505050565b613a016141e5565b6000600560008363ffffffff1663ffffffff16815260200190815260200160002060040160046101000a81548160ff0219169083151502179055507fc5dfab0962c70e9a4416c78094b25bf915c7d3198f89974c6ddc52306e4df42481604051613a6b919061461b565b60405180910390a150565b613a7e6141e5565b80600460006101000a81548173ffffffffffffffffffffffffffffffffffffffff021916908373ffffffffffffffffffffffffffffffffffffffff16021790555050565b734d5f47fa6a74757f35c14fd3a6ef8e3c9bc514e881565b601260009054906101000a900463ffffffff1681565b60006064600560008463ffffffff1663ffffffff16815260200190815260200160002060020154600560008563ffffffff1663ffffffff16815260200190815260200160002060000154613b4491906149cd565b613b4e9190614a3e565b9050919050565b600080600560008563ffffffff1663ffffffff1681526020019081526020016000209050600062278d008260040160099054906101000a900463ffffffff16613b9e91906154a9565b63ffffffff169050600081600586613bb691906149cd565b613bc09190614a3e565b90506001811015613bde57670de0b6b3a76400009350505050613c3a565b6002811015613bfa57670b1a2bc2ec5000009350505050613c3a565b6003811015613c1657670853a0d2313c00009350505050613c3a565b6004811015613c325767058d15e1762800009350505050613c3a565b600093505050505b92915050565b600080600560008663ffffffff1663ffffffff16815260200190815260200160002060000154905080841180613c765750600084145b15613c85576000915050613d19565b600081606486613c9591906149cd565b613c9f9190614a3e565b90506000600a821015613cb55760019050613cf3565b6019821015613cc75760029050613cf2565b6032821015613cd95760039050613cf1565b604b821015613ceb5760049050613cf0565b600590505b5b5b5b60008187613d0191906149cd565b9050858111613d105780613d12565b855b9450505050505b9392505050565b60086020528060005260406000206000915090505481565b6000600b60008463ffffffff1663ffffffff16815260200190815260200160002060008373ffffffffffffffffffffffffffffffffffffffff1673ffffffffffffffffffffffffffffffffffffffff16815260200190815260200160002060009054906101000a900460ff16905092915050565b600080600560008663ffffffff1663ffffffff16815260200190815260200160002060405180610180016040529081600082015481526020016001820154815260200160028201548152602001600382015481526020016004820160009054906101000a900463ffffffff1663ffffffff1663ffffffff1681526020016004820160049054906101000a900460ff161515151581526020016004820160059054906101000a900463ffffffff1663ffffffff1663ffffffff1681526020016004820160099054906101000a900463ffffffff1663ffffffff1663ffffffff16815260200160048201600d9054906101000a900463ffffffff1663ffffffff1663ffffffff1681526020016004820160119054906101000a900463ffffffff1663ffffffff1663ffffffff168152602001600582015481526020016006820160009054906101000a900473ffffffffffffffffffffffffffffffffffffffff1673ffffffffffffffffffffffffffffffffffffffff1673ffffffffffffffffffffffffffffffffffffffff168152505090506000601060008763ffffffff1663ffffffff16815260200190815260200160002060008673ffffffffffffffffffffffffffffffffffffffff1673ffffffffffffffffffffffffffffffffffffffff1681526020019081526020016000205442613fa79190614bc4565b90506000613fb58786610bcd565b9050600081148015613fc75750600085115b613fd15780613fd4565b60015b90506000613fe28884613b55565b90506000670de0b6b3a7640000826001613ffc9190614bf8565b8461400791906149cd565b6140119190614a3e565b905080955050505050509392505050565b61402a6141e5565b600073ffffffffffffffffffffffffffffffffffffffff168173ffffffffffffffffffffffffffffffffffffffff160361409c5760006040517f1e4fbdf70000000000000000000000000000000000000000000000000000000081526004016140939190614379565b60405180910390fd5b6140a58161426c565b50565b600b6020528160005260406000206020528060005260406000206000915091509054906101000a900460ff1681565b60076020528060005260406000206000915090505481565b601360009054906101000a900473ffffffffffffffffffffffffffffffffffffffff1673ffffffffffffffffffffffffffffffffffffffff166369328dec8383306040518463ffffffff1660e01b815260040161414e939291906154e6565b6020604051808303816000875af115801561416d573d6000803e3d6000fd5b505050506040513d601f19601f820116820180604052508101906141919190614cad565b505050565b6002600154036141d2576040517f3ee5aeb500000000000000000000000000000000000000000000000000000000815260040160405180910390fd5b6002600181905550565b60018081905550565b6141ed614330565b73ffffffffffffffffffffffffffffffffffffffff1661420b613136565b73ffffffffffffffffffffffffffffffffffffffff161461426a5761422e614330565b6040517f118cdaa70000000000000000000000000000000000000000000000000000000081526004016142619190614379565b60405180910390fd5b565b60008060009054906101000a900473ffffffffffffffffffffffffffffffffffffffff169050816000806101000a81548173ffffffffffffffffffffffffffffffffffffffff021916908373ffffffffffffffffffffffffffffffffffffffff1602179055508173ffffffffffffffffffffffffffffffffffffffff168173ffffffffffffffffffffffffffffffffffffffff167f8be0079c531659141344cd1fd0a4f28419497f9722a3daafe3b4186f6b6457e060405160405180910390a35050565b600033905090565b600073ffffffffffffffffffffffffffffffffffffffff82169050919050565b600061436382614338565b9050919050565b61437381614358565b82525050565b600060208201905061438e600083018461436a565b92915050565b600080fd5b600063ffffffff82169050919050565b6143b281614399565b81146143bd57600080fd5b50565b6000813590506143cf816143a9565b92915050565b6000819050919050565b6143e8816143d5565b81146143f357600080fd5b50565b600081359050614405816143df565b92915050565b6000806040838503121561442257614421614394565b5b6000614430858286016143c0565b9250506020614441858286016143f6565b9150509250929050565b614454816143d5565b82525050565b600060208201905061446f600083018461444b565b92915050565b61447e81614358565b811461448957600080fd5b50565b60008135905061449b81614475565b92915050565b600080604083850312156144b8576144b7614394565b5b60006144c6858286016143c0565b92505060206144d78582860161448c565b9150509250929050565b6000602082840312156144f7576144f6614394565b5b6000614505848285016143c0565b91505092915050565b61451781614399565b82525050565b60008115159050919050565b6145328161451d565b82525050565b60006101808201905061454e600083018f61444b565b61455b602083018e61444b565b614568604083018d61444b565b614575606083018c61444b565b614582608083018b61450e565b61458f60a083018a614529565b61459c60c083018961450e565b6145a960e083018861450e565b6145b761010083018761450e565b6145c561012083018661450e565b6145d361014083018561444b565b6145e161016083018461436a565b9d9c50505050505050505050505050565b6000604082019050614607600083018561444b565b614614602083018461444b565b9392505050565b6000602082019050614630600083018461450e565b92915050565b6000819050919050565b600061465b61465661465184614338565b614636565b614338565b9050919050565b600061466d82614640565b9050919050565b600061467f82614662565b9050919050565b61468f81614674565b82525050565b60006020820190506146aa6000830184614686565b92915050565b60008060008060008060c087890312156146cd576146cc614394565b5b60006146db89828a016143c0565b96505060206146ec89828a016143f6565b95505060406146fd89828a016143f6565b945050606061470e89828a016143c0565b935050608061471f89828a016143c0565b92505060a061473089828a016143c0565b9150509295509295509295565b60008060006060848603121561475657614755614394565b5b6000614764868287016143c0565b93505060206147758682870161448c565b9250506040614786868287016143f6565b9150509250925092565b600061479b82614662565b9050919050565b6147ab81614790565b82525050565b60006020820190506147c660008301846147a2565b92915050565b60006020820190506147e16000830184614529565b92915050565b60008060008060008060008060006101208a8c03121561480a57614809614394565b5b60006148188c828d016143f6565b99505060206148298c828d016143f6565b985050604061483a8c828d016143f6565b975050606061484b8c828d016143f6565b965050608061485c8c828d016143c0565b95505060a061486d8c828d016143c0565b94505060c061487e8c828d016143c0565b93505060e061488f8c828d016143c0565b9250506101006148a18c828d016143c0565b9150509295985092959850929598565b6000602082840312156148c7576148c6614394565b5b60006148d5848285016143f6565b91505092915050565b6000806000606084860312156148f7576148f6614394565b5b6000614905868287016143c0565b9350506020614916868287016143f6565b9250506040614927868287016143f6565b9150509250925092565b60006020828403121561494757614946614394565b5b60006149558482850161448c565b91505092915050565b6000806040838503121561497557614974614394565b5b60006149838582860161448c565b9250506020614994858286016143f6565b9150509250929050565b7f4e487b7100000000000000000000000000000000000000000000000000000000600052601160045260246000fd5b60006149d8826143d5565b91506149e3836143d5565b92508282026149f1816143d5565b91508282048414831517614a0857614a0761499e565b5b5092915050565b7f4e487b7100000000000000000000000000000000000000000000000000000000600052601260045260246000fd5b6000614a49826143d5565b9150614a54836143d5565b925082614a6457614a63614a0f565b5b828204905092915050565b600082825260208201905092915050565b7f4e6f74206120706f6c696379206f776e65722100000000000000000000000000600082015250565b6000614ab6601383614a6f565b9150614ac182614a80565b602082019050919050565b60006020820190508181036000830152614ae581614aa9565b9050919050565b7f506f6c6963792069736e27742061637469766521000000000000000000000000600082015250565b6000614b22601483614a6f565b9150614b2d82614aec565b602082019050919050565b60006020820190508181036000830152614b5181614b15565b9050919050565b7f4e6f2070726576696f7573207061796d656e7420666f756e6400000000000000600082015250565b6000614b8e601983614a6f565b9150614b9982614b58565b602082019050919050565b60006020820190508181036000830152614bbd81614b81565b9050919050565b6000614bcf826143d5565b9150614bda836143d5565b9250828203905081811115614bf257614bf161499e565b5b92915050565b6000614c03826143d5565b9150614c0e836143d5565b9250828201905080821115614c2657614c2561499e565b5b92915050565b7f4e6f74207468652063726561746f722100000000000000000000000000000000600082015250565b6000614c62601083614a6f565b9150614c6d82614c2c565b602082019050919050565b60006020820190508181036000830152614c9181614c55565b9050919050565b600081519050614ca7816143df565b92915050565b600060208284031215614cc357614cc2614394565b5b6000614cd184828501614c98565b91505092915050565b7f496e73756666696369656e7420574554482062616c616e636500000000000000600082015250565b6000614d10601983614a6f565b9150614d1b82614cda565b602082019050919050565b60006020820190508181036000830152614d3f81614d03565b9050919050565b7f496e73756666696369656e7420696e766573746d656e742066756e6473210000600082015250565b6000614d7c601e83614a6f565b9150614d8782614d46565b602082019050919050565b60006020820190508181036000830152614dab81614d6f565b9050919050565b6000604082019050614dc7600083018561436a565b614dd4602083018461444b565b9392505050565b614de48161451d565b8114614def57600080fd5b50565b600081519050614e0181614ddb565b92915050565b600060208284031215614e1d57614e1c614394565b5b6000614e2b84828501614df2565b91505092915050565b6000819050919050565b600061ffff82169050919050565b6000614e67614e62614e5d84614e34565b614636565b614e3e565b9050919050565b614e7781614e4c565b82525050565b6000608082019050614e92600083018761436a565b614e9f602083018661444b565b614eac604083018561436a565b614eb96060830184614e6e565b95945050505050565b7f416c7265616479206120636c61696d616e74206f66207468697320706f6c696360008201527f7900000000000000000000000000000000000000000000000000000000000000602082015250565b6000614f1e602183614a6f565b9150614f2982614ec2565b604082019050919050565b60006020820190508181036000830152614f4d81614f11565b9050919050565b7f506f6c696379206973206e6f7420616374697665000000000000000000000000600082015250565b6000614f8a601483614a6f565b9150614f9582614f54565b602082019050919050565b60006020820190508181036000830152614fb981614f7d565b9050919050565b7f496e73756666696369656e742066756e64732100000000000000000000000000600082015250565b6000614ff6601383614a6f565b915061500182614fc0565b602082019050919050565b6000602082019050818103600083015261502581614fe9565b9050919050565b6000606082019050615041600083018661436a565b61504e602083018561436a565b61505b604083018461444b565b949350505050565b7f57455448207472616e73666572206661696c6564000000000000000000000000600082015250565b6000615099601483614a6f565b91506150a482615063565b602082019050919050565b600060208201905081810360008301526150c88161508c565b9050919050565b60006040820190506150e4600083018561444b565b6150f16020830184614529565b9392505050565b7f4e6f74206120706f6c696379206f776e65720000000000000000000000000000600082015250565b600061512e601283614a6f565b9150615139826150f8565b602082019050919050565b6000602082019050818103600083015261515d81615121565b9050919050565b7f496e73756666696369656e7420636f7665726167652066756e64000000000000600082015250565b600061519a601a83614a6f565b91506151a582615164565b602082019050919050565b600060208201905081810360008301526151c98161518d565b9050919050565b60006080820190506151e5600083018761450e565b6151f2602083018661444b565b6151ff604083018561444b565b61520c606083018461450e565b95945050505050565b7f46756c6c20636f7665726167652061636869657665642c20757365207061794360008201527f7573746f6d5072656d69756d0000000000000000000000000000000000000000602082015250565b6000615271602c83614a6f565b915061527c82615215565b604082019050919050565b600060208201905081810360008301526152a081615264565b9050919050565b7f416d6f756e74206e6565647320746f20626520686967686572207468616e207460008201527f68652063616c63756c61746564207072656d69756d2100000000000000000000602082015250565b6000615303603683614a6f565b915061530e826152a7565b604082019050919050565b60006020820190508181036000830152615332816152f6565b9050919050565b600061534482614399565b915063ffffffff820361535a5761535961499e565b5b600182019050919050565b7f496e73756666696369656e74204554482062616c616e63650000000000000000600082015250565b600061539b601883614a6f565b91506153a682615365565b602082019050919050565b600060208201905081810360008301526153ca8161538e565b9050919050565b7f496e76616c69642070657263656e746167652076616c75650000000000000000600082015250565b6000615407601883614a6f565b9150615412826153d1565b602082019050919050565b60006020820190508181036000830152615436816153fa565b9050919050565b7f4e65656420746f2062652066756c6c7920636f76657265642066697273742e00600082015250565b6000615473601f83614a6f565b915061547e8261543d565b602082019050919050565b600060208201905081810360008301526154a281615466565b9050919050565b60006154b482614399565b91506154bf83614399565b92508282026154cd81614399565b91508082146154df576154de61499e565b5b5092915050565b60006060820190506154fb600083018661436a565b615508602083018561444b565b615515604083018461436a565b94935050505056fea26469706673582212205a48307b432fb97f5dca08373d9816c5a418f66df49a4e90499ab8df14ab5f4164736f6c63430008140033",
  "linkReferences": {},
  "deployedLinkReferences": {}
}