{
  "_format": "hh-sol-artifact-1",
  "contractName": "PolicyMaker",
  "sourceName": "contracts/PolicyMaker.sol",
  "abi": [
    {
      "inputs": [
        {
          "internalType": "address",
          "name": "initialOwner",
          "type": "address"
        },
        {
          "internalType": "address",
          "name": "_addressesProvider",
          "type": "address"
        }
      ],
      "stateMutability": "nonpayable",
      "type": "constructor"
    },
    {
      "inputs": [
        {
          "internalType": "address",
          "name": "owner",
          "type": "address"
        }
      ],
      "name": "OwnableInvalidOwner",
      "type": "error"
    },
    {
      "inputs": [
        {
          "internalType": "address",
          "name": "account",
          "type": "address"
        }
      ],
      "name": "OwnableUnauthorizedAccount",
      "type": "error"
    },
    {
      "inputs": [],
      "name": "ReentrancyGuardReentrantCall",
      "type": "error"
    },
    {
      "anonymous": false,
      "inputs": [
        {
          "indexed": true,
          "internalType": "address",
          "name": "previousOwner",
          "type": "address"
        },
        {
          "indexed": true,
          "internalType": "address",
          "name": "newOwner",
          "type": "address"
        }
      ],
      "name": "OwnershipTransferred",
      "type": "event"
    },
    {
      "anonymous": false,
      "inputs": [
        {
          "indexed": false,
          "internalType": "uint32",
          "name": "policyId",
          "type": "uint32"
        },
        {
          "indexed": false,
          "internalType": "uint256",
          "name": "coverageAmount",
          "type": "uint256"
        },
        {
          "indexed": false,
          "internalType": "uint256",
          "name": "initialPremiumFee",
          "type": "uint256"
        },
        {
          "indexed": false,
          "internalType": "uint32",
          "name": "duration",
          "type": "uint32"
        }
      ],
      "name": "PolicyCreated",
      "type": "event"
    },
    {
      "anonymous": false,
      "inputs": [
        {
          "indexed": false,
          "internalType": "uint32",
          "name": "policyId",
          "type": "uint32"
        }
      ],
      "name": "PolicyDeactivated",
      "type": "event"
    },
    {
      "anonymous": false,
      "inputs": [
        {
          "indexed": false,
          "internalType": "uint32",
          "name": "policyId",
          "type": "uint32"
        },
        {
          "indexed": false,
          "internalType": "uint256",
          "name": "coverageAmount",
          "type": "uint256"
        },
        {
          "indexed": false,
          "internalType": "uint256",
          "name": "initialPremiumFee",
          "type": "uint256"
        },
        {
          "indexed": false,
          "internalType": "uint32",
          "name": "duration",
          "type": "uint32"
        }
      ],
      "name": "PolicyUpdated",
      "type": "event"
    },
    {
      "anonymous": false,
      "inputs": [
        {
          "indexed": true,
          "internalType": "uint32",
          "name": "policyId",
          "type": "uint32"
        },
        {
          "indexed": true,
          "internalType": "address",
          "name": "claimant",
          "type": "address"
        },
        {
          "indexed": false,
          "internalType": "uint256",
          "name": "amount",
          "type": "uint256"
        },
        {
          "indexed": false,
          "internalType": "bool",
          "name": "isPremium",
          "type": "bool"
        }
      ],
      "name": "PremiumPaid",
      "type": "event"
    },
    {
      "inputs": [],
      "name": "WETH_ADDRESS",
      "outputs": [
        {
          "internalType": "address",
          "name": "",
          "type": "address"
        }
      ],
      "stateMutability": "view",
      "type": "function"
    },
    {
      "inputs": [
        {
          "internalType": "uint32",
          "name": "",
          "type": "uint32"
        },
        {
          "internalType": "address",
          "name": "",
          "type": "address"
        }
      ],
      "name": "amountClaimed",
      "outputs": [
        {
          "internalType": "uint256",
          "name": "",
          "type": "uint256"
        }
      ],
      "stateMutability": "view",
      "type": "function"
    },
    {
      "inputs": [
        {
          "internalType": "uint32",
          "name": "_policyId",
          "type": "uint32"
        },
        {
          "internalType": "address",
          "name": "_policyHolder",
          "type": "address"
        },
        {
          "internalType": "uint256",
          "name": "inputPremium",
          "type": "uint256"
        }
      ],
      "name": "calculateDynamicCoverageFactor",
      "outputs": [
        {
          "internalType": "uint256",
          "name": "",
          "type": "uint256"
        }
      ],
      "stateMutability": "view",
      "type": "function"
    },
    {
      "inputs": [
        {
          "internalType": "uint32",
          "name": "_policyId",
          "type": "uint32"
        },
        {
          "internalType": "address",
          "name": "_policyHolder",
          "type": "address"
        },
        {
          "internalType": "uint256",
          "name": "_inputPremium",
          "type": "uint256"
        }
      ],
      "name": "calculatePotentialCoverage",
      "outputs": [
        {
          "internalType": "uint256",
          "name": "",
          "type": "uint256"
        }
      ],
      "stateMutability": "view",
      "type": "function"
    },
    {
      "inputs": [
        {
          "internalType": "uint32",
          "name": "_policyId",
          "type": "uint32"
        },
        {
          "internalType": "address",
          "name": "_policyHolder",
          "type": "address"
        }
      ],
      "name": "calculatePremium",
      "outputs": [
        {
          "internalType": "uint256",
          "name": "",
          "type": "uint256"
        }
      ],
      "stateMutability": "view",
      "type": "function"
    },
    {
      "inputs": [
        {
          "internalType": "uint32",
          "name": "_policyId",
          "type": "uint32"
        },
        {
          "internalType": "uint256",
          "name": "_premiumAmount",
          "type": "uint256"
        }
      ],
      "name": "calculatePremiumAllocation",
      "outputs": [
        {
          "internalType": "uint256",
          "name": "",
          "type": "uint256"
        },
        {
          "internalType": "uint256",
          "name": "",
          "type": "uint256"
        }
      ],
      "stateMutability": "view",
      "type": "function"
    },
    {
      "inputs": [
        {
          "internalType": "uint32",
          "name": "_policyId",
          "type": "uint32"
        },
        {
          "internalType": "uint256",
          "name": "inputPremium",
          "type": "uint256"
        }
      ],
      "name": "calculatePremiumSizeFactor",
      "outputs": [
        {
          "internalType": "uint256",
          "name": "",
          "type": "uint256"
        }
      ],
      "stateMutability": "view",
      "type": "function"
    },
    {
      "inputs": [
        {
          "internalType": "uint32",
          "name": "_policyId",
          "type": "uint32"
        },
        {
          "internalType": "address",
          "name": "_policyHolder",
          "type": "address"
        }
      ],
      "name": "calculateTotalCoverage",
      "outputs": [
        {
          "internalType": "uint256",
          "name": "",
          "type": "uint256"
        }
      ],
      "stateMutability": "view",
      "type": "function"
    },
    {
      "inputs": [],
      "name": "convertEthToWeth",
      "outputs": [],
      "stateMutability": "payable",
      "type": "function"
    },
    {
      "inputs": [
        {
          "internalType": "uint32",
          "name": "",
          "type": "uint32"
        }
      ],
      "name": "coverageFundBalance",
      "outputs": [
        {
          "internalType": "uint256",
          "name": "",
          "type": "uint256"
        }
      ],
      "stateMutability": "view",
      "type": "function"
    },
    {
      "inputs": [
        {
          "internalType": "uint32",
          "name": "",
          "type": "uint32"
        },
        {
          "internalType": "address",
          "name": "",
          "type": "address"
        }
      ],
      "name": "coverageFundTokenBalance",
      "outputs": [
        {
          "internalType": "uint256",
          "name": "",
          "type": "uint256"
        }
      ],
      "stateMutability": "view",
      "type": "function"
    },
    {
      "inputs": [
        {
          "internalType": "uint32",
          "name": "",
          "type": "uint32"
        },
        {
          "internalType": "address",
          "name": "",
          "type": "address"
        }
      ],
      "name": "coverageFunded",
      "outputs": [
        {
          "internalType": "uint256",
          "name": "",
          "type": "uint256"
        }
      ],
      "stateMutability": "view",
      "type": "function"
    },
    {
      "inputs": [
        {
          "internalType": "uint256",
          "name": "_coverageAmount",
          "type": "uint256"
        },
        {
          "internalType": "uint256",
          "name": "_initialPremiumFee",
          "type": "uint256"
        },
        {
          "internalType": "uint256",
          "name": "_initialCoveragePercentage",
          "type": "uint256"
        },
        {
          "internalType": "uint256",
          "name": "_premiumRate",
          "type": "uint256"
        },
        {
          "internalType": "uint32",
          "name": "_duration",
          "type": "uint32"
        },
        {
          "internalType": "uint32",
          "name": "_penaltyRate",
          "type": "uint32"
        },
        {
          "internalType": "uint32",
          "name": "_monthsGracePeriod",
          "type": "uint32"
        },
        {
          "internalType": "uint32",
          "name": "_coverageFundPercentage",
          "type": "uint32"
        },
        {
          "internalType": "uint32",
          "name": "_investmentFundPercentage",
          "type": "uint32"
        }
      ],
      "name": "createPolicy",
      "outputs": [],
      "stateMutability": "nonpayable",
      "type": "function"
    },
    {
      "inputs": [
        {
          "internalType": "uint32",
          "name": "_policyId",
          "type": "uint32"
        }
      ],
      "name": "deactivatePolicy",
      "outputs": [],
      "stateMutability": "nonpayable",
      "type": "function"
    },
    {
      "inputs": [
        {
          "internalType": "uint32",
          "name": "policyId",
          "type": "uint32"
        },
        {
          "internalType": "uint256",
          "name": "claimAmount",
          "type": "uint256"
        }
      ],
      "name": "handlePayout",
      "outputs": [],
      "stateMutability": "nonpayable",
      "type": "function"
    },
    {
      "inputs": [
        {
          "internalType": "uint32",
          "name": "policyId",
          "type": "uint32"
        },
        {
          "internalType": "uint256",
          "name": "amount",
          "type": "uint256"
        }
      ],
      "name": "investInAavePool",
      "outputs": [],
      "stateMutability": "nonpayable",
      "type": "function"
    },
    {
      "inputs": [
        {
          "internalType": "uint32",
          "name": "",
          "type": "uint32"
        }
      ],
      "name": "investmentFundBalance",
      "outputs": [
        {
          "internalType": "uint256",
          "name": "",
          "type": "uint256"
        }
      ],
      "stateMutability": "view",
      "type": "function"
    },
    {
      "inputs": [
        {
          "internalType": "uint32",
          "name": "",
          "type": "uint32"
        },
        {
          "internalType": "address",
          "name": "",
          "type": "address"
        }
      ],
      "name": "investmentFundTokenBalance",
      "outputs": [
        {
          "internalType": "uint256",
          "name": "",
          "type": "uint256"
        }
      ],
      "stateMutability": "view",
      "type": "function"
    },
    {
      "inputs": [
        {
          "internalType": "uint32",
          "name": "",
          "type": "uint32"
        },
        {
          "internalType": "address",
          "name": "",
          "type": "address"
        }
      ],
      "name": "investmentFunded",
      "outputs": [
        {
          "internalType": "uint256",
          "name": "",
          "type": "uint256"
        }
      ],
      "stateMutability": "view",
      "type": "function"
    },
    {
      "inputs": [
        {
          "internalType": "uint32",
          "name": "_policyId",
          "type": "uint32"
        }
      ],
      "name": "isActive",
      "outputs": [
        {
          "internalType": "bool",
          "name": "",
          "type": "bool"
        }
      ],
      "stateMutability": "view",
      "type": "function"
    },
    {
      "inputs": [
        {
          "internalType": "uint32",
          "name": "_policyId",
          "type": "uint32"
        },
        {
          "internalType": "address",
          "name": "_claimant",
          "type": "address"
        }
      ],
      "name": "isPolicyOwner",
      "outputs": [
        {
          "internalType": "bool",
          "name": "",
          "type": "bool"
        }
      ],
      "stateMutability": "view",
      "type": "function"
    },
    {
      "inputs": [
        {
          "internalType": "uint32",
          "name": "",
          "type": "uint32"
        },
        {
          "internalType": "address",
          "name": "",
          "type": "address"
        }
      ],
      "name": "lastPremiumPaidTime",
      "outputs": [
        {
          "internalType": "uint256",
          "name": "",
          "type": "uint256"
        }
      ],
      "stateMutability": "view",
      "type": "function"
    },
    {
      "inputs": [],
      "name": "nextPolicyId",
      "outputs": [
        {
          "internalType": "uint32",
          "name": "",
          "type": "uint32"
        }
      ],
      "stateMutability": "view",
      "type": "function"
    },
    {
      "inputs": [],
      "name": "owner",
      "outputs": [
        {
          "internalType": "address",
          "name": "",
          "type": "address"
        }
      ],
      "stateMutability": "view",
      "type": "function"
    },
    {
      "inputs": [
        {
          "internalType": "uint32",
          "name": "_policyId",
          "type": "uint32"
        },
        {
          "internalType": "uint256",
          "name": "investmentFundPercentage",
          "type": "uint256"
        },
        {
          "internalType": "uint256",
          "name": "amount",
          "type": "uint256"
        }
      ],
      "name": "payCustomPremium",
      "outputs": [],
      "stateMutability": "payable",
      "type": "function"
    },
    {
      "inputs": [
        {
          "internalType": "uint32",
          "name": "_policyId",
          "type": "uint32"
        },
        {
          "internalType": "uint256",
          "name": "amount",
          "type": "uint256"
        }
      ],
      "name": "payInitialPremium",
      "outputs": [],
      "stateMutability": "nonpayable",
      "type": "function"
    },
    {
      "inputs": [
        {
          "internalType": "uint32",
          "name": "_policyId",
          "type": "uint32"
        },
        {
          "internalType": "uint256",
          "name": "amount",
          "type": "uint256"
        }
      ],
      "name": "payPremium",
      "outputs": [],
      "stateMutability": "payable",
      "type": "function"
    },
    {
      "inputs": [
        {
          "internalType": "uint32",
          "name": "",
          "type": "uint32"
        }
      ],
      "name": "policies",
      "outputs": [
        {
          "internalType": "uint256",
          "name": "coverageAmount",
          "type": "uint256"
        },
        {
          "internalType": "uint256",
          "name": "initialPremiumFee",
          "type": "uint256"
        },
        {
          "internalType": "uint256",
          "name": "initialCoveragePercentage",
          "type": "uint256"
        },
        {
          "internalType": "uint256",
          "name": "premiumRate",
          "type": "uint256"
        },
        {
          "internalType": "uint32",
          "name": "duration",
          "type": "uint32"
        },
        {
          "internalType": "bool",
          "name": "isActive",
          "type": "bool"
        },
        {
          "internalType": "uint32",
          "name": "penaltyRate",
          "type": "uint32"
        },
        {
          "internalType": "uint32",
          "name": "monthsGracePeriod",
          "type": "uint32"
        },
        {
          "internalType": "uint32",
          "name": "coverageFundPercentage",
          "type": "uint32"
        },
        {
          "internalType": "uint32",
          "name": "investmentFundPercentage",
          "type": "uint32"
        },
        {
          "internalType": "uint256",
          "name": "startTime",
          "type": "uint256"
        }
      ],
      "stateMutability": "view",
      "type": "function"
    },
    {
      "inputs": [
        {
          "internalType": "uint32",
          "name": "",
          "type": "uint32"
        },
        {
          "internalType": "address",
          "name": "",
          "type": "address"
        }
      ],
      "name": "policyOwners",
      "outputs": [
        {
          "internalType": "bool",
          "name": "",
          "type": "bool"
        }
      ],
      "stateMutability": "view",
      "type": "function"
    },
    {
      "inputs": [
        {
          "internalType": "uint32",
          "name": "",
          "type": "uint32"
        },
        {
          "internalType": "address",
          "name": "",
          "type": "address"
        }
      ],
      "name": "premiumsPaid",
      "outputs": [
        {
          "internalType": "uint256",
          "name": "",
          "type": "uint256"
        }
      ],
      "stateMutability": "view",
      "type": "function"
    },
    {
      "inputs": [],
      "name": "renounceOwnership",
      "outputs": [],
      "stateMutability": "nonpayable",
      "type": "function"
    },
    {
      "inputs": [
        {
          "internalType": "address",
          "name": "_payoutContract",
          "type": "address"
        }
      ],
      "name": "setPayoutContract",
      "outputs": [],
      "stateMutability": "nonpayable",
      "type": "function"
    },
    {
      "inputs": [
        {
          "internalType": "uint32",
          "name": "",
          "type": "uint32"
        },
        {
          "internalType": "address",
          "name": "",
          "type": "address"
        }
      ],
      "name": "timesPaid",
      "outputs": [
        {
          "internalType": "uint32",
          "name": "",
          "type": "uint32"
        }
      ],
      "stateMutability": "view",
      "type": "function"
    },
    {
      "inputs": [
        {
          "internalType": "address",
          "name": "newOwner",
          "type": "address"
        }
      ],
      "name": "transferOwnership",
      "outputs": [],
      "stateMutability": "nonpayable",
      "type": "function"
    },
    {
      "inputs": [
        {
          "internalType": "uint32",
          "name": "_policyId",
          "type": "uint32"
        },
        {
          "internalType": "uint256",
          "name": "_coverageAmount",
          "type": "uint256"
        },
        {
          "internalType": "uint256",
          "name": "_initialPremiumFee",
          "type": "uint256"
        },
        {
          "internalType": "uint32",
          "name": "_duration",
          "type": "uint32"
        },
        {
          "internalType": "uint32",
          "name": "_monthsGracePeriod",
          "type": "uint32"
        },
        {
          "internalType": "uint32",
          "name": "_penaltyRate",
          "type": "uint32"
        }
      ],
      "name": "updatePolicy",
      "outputs": [],
      "stateMutability": "nonpayable",
      "type": "function"
    },
    {
      "inputs": [],
      "name": "weth",
      "outputs": [
        {
          "internalType": "contract IWETH",
          "name": "",
          "type": "address"
        }
      ],
      "stateMutability": "view",
      "type": "function"
    },
    {
      "inputs": [
        {
          "internalType": "address",
          "name": "asset",
          "type": "address"
        },
        {
          "internalType": "uint256",
          "name": "amount",
          "type": "uint256"
        }
      ],
      "name": "withdrawFromAavePool",
      "outputs": [],
      "stateMutability": "nonpayable",
      "type": "function"
    },
    {
      "inputs": [
        {
          "internalType": "uint256",
          "name": "amount",
          "type": "uint256"
        }
      ],
      "name": "withdrawWethAsEth",
      "outputs": [],
      "stateMutability": "nonpayable",
      "type": "function"
    }
  ],
  "bytecode": "0x60806040526001600c60006101000a81548163ffffffff021916908363ffffffff1602179055503480156200003357600080fd5b5060405162004fe938038062004fe9833981810160405281019062000059919062000388565b81600073ffffffffffffffffffffffffffffffffffffffff168173ffffffffffffffffffffffffffffffffffffffff1603620000cf5760006040517f1e4fbdf7000000000000000000000000000000000000000000000000000000008152600401620000c69190620003e0565b60405180910390fd5b620000e0816200025a60201b60201c565b506001808190555080601160006101000a81548173ffffffffffffffffffffffffffffffffffffffff021916908373ffffffffffffffffffffffffffffffffffffffff160217905550601160009054906101000a900473ffffffffffffffffffffffffffffffffffffffff1673ffffffffffffffffffffffffffffffffffffffff1663026b1d5f6040518163ffffffff1660e01b8152600401602060405180830381865afa15801562000197573d6000803e3d6000fd5b505050506040513d601f19601f82011682018060405250810190620001bd9190620003fd565b601260006101000a81548173ffffffffffffffffffffffffffffffffffffffff021916908373ffffffffffffffffffffffffffffffffffffffff16021790555073c02aaa39b223fe8d0a0e5c4f27ead9083c756cc2600260006101000a81548173ffffffffffffffffffffffffffffffffffffffff021916908373ffffffffffffffffffffffffffffffffffffffff16021790555050506200042f565b60008060009054906101000a900473ffffffffffffffffffffffffffffffffffffffff169050816000806101000a81548173ffffffffffffffffffffffffffffffffffffffff021916908373ffffffffffffffffffffffffffffffffffffffff1602179055508173ffffffffffffffffffffffffffffffffffffffff168173ffffffffffffffffffffffffffffffffffffffff167f8be0079c531659141344cd1fd0a4f28419497f9722a3daafe3b4186f6b6457e060405160405180910390a35050565b600080fd5b600073ffffffffffffffffffffffffffffffffffffffff82169050919050565b6000620003508262000323565b9050919050565b620003628162000343565b81146200036e57600080fd5b50565b600081519050620003828162000357565b92915050565b60008060408385031215620003a257620003a16200031e565b5b6000620003b28582860162000371565b9250506020620003c58582860162000371565b9150509250929050565b620003da8162000343565b82525050565b6000602082019050620003f76000830184620003cf565b92915050565b6000602082840312156200041657620004156200031e565b5b6000620004268482850162000371565b91505092915050565b614baa806200043f6000396000f3fe6080604052600436106102255760003560e01c80636562f86f11610123578063a325694f116100ab578063ee259d9c1161006f578063ee259d9c1461088f578063f2fde38b146108cc578063f352ac94146108f5578063f720b55814610932578063fe4cfccc1461096f57610225565b8063a325694f146107b9578063b5bd6c05146107d5578063b92b2dc7146107fe578063cad0b8db14610827578063ec2e866f1461085257610225565b806387095de9116100f257806387095de9146106e15780638da5cb5b1461071e5780639949f0c8146107495780639b59223214610753578063a1ed5ec91461077c57610225565b80636562f86f1461064857806366f79e7614610664578063709d8a081461068d578063715018a6146106ca57610225565b80632d68fd36116101b15780634153cd3a116101755780634153cd3a1461052b5780634eecc909146105545780635bb67c67146105915780635e19b305146105ce5780635f6d607d1461060b57610225565b80632d68fd36146104205780633292cfc71461045d578063348964691461049a5780633a7e870d146104c35780633fc8cef31461050057610225565b80631658081d116101f85780631658081d146102f85780631e7192ae1461032157806327b05d871461036857806328ab58fb146103a55780632ac887e7146103e257610225565b8063040141e51461022a5780630dbadfb8146102555780630dce265114610292578063159117ee146102cf575b600080fd5b34801561023657600080fd5b5061023f610998565b60405161024c9190613a86565b60405180910390f35b34801561026157600080fd5b5061027c60048036038101906102779190613b18565b6109b0565b6040516102899190613b67565b60405180910390f35b34801561029e57600080fd5b506102b960048036038101906102b49190613bae565b610a6e565b6040516102c69190613b67565b60405180910390f35b3480156102db57600080fd5b506102f660048036038101906102f19190613b18565b610deb565b005b34801561030457600080fd5b5061031f600480360381019061031a9190613b18565b6110b3565b005b34801561032d57600080fd5b5061034860048036038101906103439190613bee565b611761565b60405161035f9b9a99989796959493929190613c45565b60405180910390f35b34801561037457600080fd5b5061038f600480360381019061038a9190613bae565b611818565b60405161039c9190613b67565b60405180910390f35b3480156103b157600080fd5b506103cc60048036038101906103c79190613bae565b61183d565b6040516103d99190613b67565b60405180910390f35b3480156103ee57600080fd5b5061040960048036038101906104049190613b18565b611862565b604051610417929190613cf0565b60405180910390f35b34801561042c57600080fd5b5061044760048036038101906104429190613bae565b611940565b6040516104549190613b67565b60405180910390f35b34801561046957600080fd5b50610484600480360381019061047f9190613bae565b611965565b6040516104919190613d19565b60405180910390f35b3480156104a657600080fd5b506104c160048036038101906104bc9190613b18565b611997565b005b3480156104cf57600080fd5b506104ea60048036038101906104e59190613bae565b611c87565b6040516104f79190613b67565b60405180910390f35b34801561050c57600080fd5b50610515611cac565b6040516105229190613d93565b60405180910390f35b34801561053757600080fd5b50610552600480360381019061054d9190613dae565b611cd2565b005b34801561056057600080fd5b5061057b60048036038101906105769190613bae565b611e30565b6040516105889190613b67565b60405180910390f35b34801561059d57600080fd5b506105b860048036038101906105b39190613bae565b611e55565b6040516105c59190613b67565b60405180910390f35b3480156105da57600080fd5b506105f560048036038101906105f09190613bee565b61220e565b6040516106029190613e3b565b60405180910390f35b34801561061757600080fd5b50610632600480360381019061062d9190613bae565b612247565b60405161063f9190613b67565b60405180910390f35b610662600480360381019061065d9190613b18565b61226c565b005b34801561067057600080fd5b5061068b60048036038101906106869190613e56565b61274f565b005b34801561069957600080fd5b506106b460048036038101906106af9190613bee565b6129ab565b6040516106c19190613b67565b60405180910390f35b3480156106d657600080fd5b506106df6129c3565b005b3480156106ed57600080fd5b5061070860048036038101906107039190613bae565b6129d7565b6040516107159190613b67565b60405180910390f35b34801561072a57600080fd5b506107336129fc565b6040516107409190613a86565b60405180910390f35b610751612a25565b005b34801561075f57600080fd5b5061077a60048036038101906107759190613f20565b612aed565b005b34801561078857600080fd5b506107a3600480360381019061079e9190613f4d565b612b7d565b6040516107b09190613b67565b60405180910390f35b6107d360048036038101906107ce9190613fa0565b612d02565b005b3480156107e157600080fd5b506107fc60048036038101906107f79190613bee565b6131c0565b005b34801561080a57600080fd5b5061082560048036038101906108209190613ff3565b61323d565b005b34801561083357600080fd5b5061083c613289565b6040516108499190613d19565b60405180910390f35b34801561085e57600080fd5b5061087960048036038101906108749190613bae565b61329f565b6040516108869190613e3b565b60405180910390f35b34801561089b57600080fd5b506108b660048036038101906108b19190613f4d565b613313565b6040516108c39190613b67565b60405180910390f35b3480156108d857600080fd5b506108f360048036038101906108ee9190613ff3565b6134bc565b005b34801561090157600080fd5b5061091c60048036038101906109179190613bae565b613542565b6040516109299190613e3b565b60405180910390f35b34801561093e57600080fd5b5061095960048036038101906109549190613bee565b613571565b6040516109669190613b67565b60405180910390f35b34801561097b57600080fd5b5061099660048036038101906109919190614020565b613589565b005b73c02aaa39b223fe8d0a0e5c4f27ead9083c756cc281565b600080600460008563ffffffff1663ffffffff168152602001908152602001600020600001549050808311806109e65750600083145b156109f5576000915050610a68565b600081606485610a05919061408f565b610a0f9190614100565b9050600a811015610a2557600192505050610a68565b6032811015610a3957600292505050610a68565b6032811015610a4d57600292505050610a68565b604b811015610a6157600392505050610a68565b6003925050505b92915050565b6000610a7a833361329f565b610ab9576040517f08c379a0000000000000000000000000000000000000000000000000000000008152600401610ab09061418e565b60405180910390fd5b600460008463ffffffff1663ffffffff16815260200190815260200160002060040160049054906101000a900460ff16610b28576040517f08c379a0000000000000000000000000000000000000000000000000000000008152600401610b1f906141fa565b60405180910390fd5b6000600a60008563ffffffff1663ffffffff16815260200190815260200160002060008473ffffffffffffffffffffffffffffffffffffffff1673ffffffffffffffffffffffffffffffffffffffff1681526020019081526020016000205411610bc7576040517f08c379a0000000000000000000000000000000000000000000000000000000008152600401610bbe90614266565b60405180910390fd5b6000600a60008563ffffffff1663ffffffff16815260200190815260200160002060008473ffffffffffffffffffffffffffffffffffffffff1673ffffffffffffffffffffffffffffffffffffffff1681526020019081526020016000205442610c319190614286565b905060006018603c8084610c459190614100565b610c4f9190614100565b610c599190614100565b90506000601e600460008863ffffffff1663ffffffff16815260200190815260200160002060030154610c8c9190614100565b905060008183610c9c919061408f565b90506000600460008963ffffffff1663ffffffff1681526020019081526020016000206003015490508181610cd191906142ba565b90506000601e85610ce29190614100565b9050600460008a63ffffffff1663ffffffff16815260200190815260200160002060040160099054906101000a900463ffffffff1663ffffffff16811115610ddc576000600460008b63ffffffff1663ffffffff16815260200190815260200160002060040160059054906101000a900463ffffffff1663ffffffff1690506000600460008c63ffffffff1663ffffffff16815260200190815260200160002060040160099054906101000a900463ffffffff1663ffffffff1683610da79190614286565b90506064818386610db8919061408f565b610dc2919061408f565b610dcc9190614100565b84610dd791906142ba565b935050505b81965050505050505092915050565b8073c02aaa39b223fe8d0a0e5c4f27ead9083c756cc273ffffffffffffffffffffffffffffffffffffffff166370a08231306040518263ffffffff1660e01b8152600401610e399190613a86565b602060405180830381865afa158015610e56573d6000803e3d6000fd5b505050506040513d601f19601f82011682018060405250810190610e7a9190614303565b1015610ebb576040517f08c379a0000000000000000000000000000000000000000000000000000000008152600401610eb29061437c565b60405180910390fd5b80600e60008463ffffffff1663ffffffff1681526020019081526020016000205411610f1c576040517f08c379a0000000000000000000000000000000000000000000000000000000008152600401610f13906143e8565b60405180910390fd5b73c02aaa39b223fe8d0a0e5c4f27ead9083c756cc273ffffffffffffffffffffffffffffffffffffffff1663095ea7b3601260009054906101000a900473ffffffffffffffffffffffffffffffffffffffff16836040518363ffffffff1660e01b8152600401610f8d929190614408565b6020604051808303816000875af1158015610fac573d6000803e3d6000fd5b505050506040513d601f19601f82011682018060405250810190610fd0919061445d565b50601260009054906101000a900473ffffffffffffffffffffffffffffffffffffffff1673ffffffffffffffffffffffffffffffffffffffff1663617ba03773c02aaa39b223fe8d0a0e5c4f27ead9083c756cc2833060006040518563ffffffff1660e01b815260040161104794939291906144d3565b600060405180830381600087803b15801561106157600080fd5b505af1158015611075573d6000803e3d6000fd5b5050505080600e60008463ffffffff1663ffffffff16815260200190815260200160002060008282546110a89190614286565b925050819055505050565b6110f16040518060400160405280600681526020017f62656c6c6f6f0000000000000000000000000000000000000000000000000000815250613630565b6110fb823361329f565b1561113b576040517f08c379a00000000000000000000000000000000000000000000000000000000081526004016111329061458a565b60405180910390fd5b600460008363ffffffff1663ffffffff16815260200190815260200160002060040160049054906101000a900460ff166111aa576040517f08c379a00000000000000000000000000000000000000000000000000000000081526004016111a1906145f6565b60405180910390fd5b600460008363ffffffff1663ffffffff1681526020019081526020016000206001015481101561120f576040517f08c379a000000000000000000000000000000000000000000000000000000000815260040161120690614662565b60405180910390fd5b61124d6040518060400160405280600581526020017f68656c6c6f000000000000000000000000000000000000000000000000000000815250613630565b600260009054906101000a900473ffffffffffffffffffffffffffffffffffffffff1673ffffffffffffffffffffffffffffffffffffffff166323b872dd3330846040518463ffffffff1660e01b81526004016112ac93929190614682565b6020604051808303816000875af11580156112cb573d6000803e3d6000fd5b505050506040513d601f19601f820116820180604052508101906112ef919061445d565b61132e576040517f08c379a000000000000000000000000000000000000000000000000000000000815260040161132590614705565b60405180910390fd5b80600660008463ffffffff1663ffffffff16815260200190815260200160002060003373ffffffffffffffffffffffffffffffffffffffff1673ffffffffffffffffffffffffffffffffffffffff168152602001908152602001600020600082825461139a91906142ba565b925050819055506001600560008463ffffffff1663ffffffff16815260200190815260200160002060003373ffffffffffffffffffffffffffffffffffffffff1673ffffffffffffffffffffffffffffffffffffffff16815260200190815260200160002060006101000a81548160ff02191690831515021790555042600a60008463ffffffff1663ffffffff16815260200190815260200160002060003373ffffffffffffffffffffffffffffffffffffffff1673ffffffffffffffffffffffffffffffffffffffff168152602001908152602001600020819055506064600460008463ffffffff1663ffffffff168152602001908152602001600020600401600d9054906101000a900463ffffffff1663ffffffff16826114bd919061408f565b6114c79190614100565b600d60008463ffffffff1663ffffffff16815260200190815260200160002060008282546114f591906142ba565b925050819055506064600460008463ffffffff1663ffffffff16815260200190815260200160002060040160119054906101000a900463ffffffff1663ffffffff1682611542919061408f565b61154c9190614100565b600e60008463ffffffff1663ffffffff168152602001908152602001600020600082825461157a91906142ba565b925050819055506064600460008463ffffffff1663ffffffff168152602001908152602001600020600401600d9054906101000a900463ffffffff1663ffffffff16826115c7919061408f565b6115d19190614100565b600760008463ffffffff1663ffffffff16815260200190815260200160002060003373ffffffffffffffffffffffffffffffffffffffff1673ffffffffffffffffffffffffffffffffffffffff168152602001908152602001600020600082825461163c91906142ba565b925050819055506064600460008463ffffffff1663ffffffff16815260200190815260200160002060040160119054906101000a900463ffffffff1663ffffffff1682611689919061408f565b6116939190614100565b600860008463ffffffff1663ffffffff16815260200190815260200160002060003373ffffffffffffffffffffffffffffffffffffffff1673ffffffffffffffffffffffffffffffffffffffff16815260200190815260200160002060008282546116fe91906142ba565b925050819055503373ffffffffffffffffffffffffffffffffffffffff168263ffffffff167fcb56b790741c56fe9689db9a11c7acfbbe5aa3e1eafa48a4eedb496986881437836001604051611755929190614725565b60405180910390a35050565b60046020528060005260406000206000915090508060000154908060010154908060020154908060030154908060040160009054906101000a900463ffffffff16908060040160049054906101000a900460ff16908060040160059054906101000a900463ffffffff16908060040160099054906101000a900463ffffffff169080600401600d9054906101000a900463ffffffff16908060040160119054906101000a900463ffffffff1690806005015490508b565b6010602052816000526040600020602052806000526040600020600091509150505481565b600a602052816000526040600020602052806000526040600020600091509150505481565b6000806000600460008663ffffffff1663ffffffff168152602001908152602001600020905060006064600460008863ffffffff1663ffffffff168152602001908152602001600020600401600d9054906101000a900463ffffffff1663ffffffff16866118d0919061408f565b6118da9190614100565b905060006064600460008963ffffffff1663ffffffff16815260200190815260200160002060040160119054906101000a900463ffffffff1663ffffffff1687611924919061408f565b61192e9190614100565b90508181945094505050509250929050565b6006602052816000526040600020602052806000526040600020600091509150505481565b60096020528160005260406000206020528060005260406000206000915091509054906101000a900463ffffffff1681565b61199f6136c9565b600460008363ffffffff1663ffffffff16815260200190815260200160002060040160049054906101000a900460ff16611a0e576040517f08c379a0000000000000000000000000000000000000000000000000000000008152600401611a05906145f6565b60405180910390fd5b600560008363ffffffff1663ffffffff16815260200190815260200160002060003373ffffffffffffffffffffffffffffffffffffffff1673ffffffffffffffffffffffffffffffffffffffff16815260200190815260200160002060009054906101000a900460ff16611ab7576040517f08c379a0000000000000000000000000000000000000000000000000000000008152600401611aae9061479a565b60405180910390fd5b600d60008363ffffffff1663ffffffff16815260200190815260200160002054811115611b19576040517f08c379a0000000000000000000000000000000000000000000000000000000008152600401611b1090614806565b60405180910390fd5b611b238233611e55565b811115611b65576040517f08c379a0000000000000000000000000000000000000000000000000000000008152600401611b5c90614806565b60405180910390fd5b6000611b718333611e55565b8211611b7d5781611b88565b611b878333611e55565b5b905080600d60008563ffffffff1663ffffffff1681526020019081526020016000206000828254611bb99190614286565b9250508190555080600b60008563ffffffff1663ffffffff16815260200190815260200160002060003373ffffffffffffffffffffffffffffffffffffffff1673ffffffffffffffffffffffffffffffffffffffff1681526020019081526020016000206000828254611c2c91906142ba565b925050819055503373ffffffffffffffffffffffffffffffffffffffff166108fc829081150290604051600060405180830381858888f19350505050158015611c79573d6000803e3d6000fd5b5050611c8361370f565b5050565b600f602052816000526040600020602052806000526040600020600091509150505481565b600260009054906101000a900473ffffffffffffffffffffffffffffffffffffffff1681565b611cda613718565b84600460008863ffffffff1663ffffffff1681526020019081526020016000206000018190555083600460008863ffffffff1663ffffffff1681526020019081526020016000206001018190555082600460008863ffffffff1663ffffffff16815260200190815260200160002060040160006101000a81548163ffffffff021916908363ffffffff16021790555080600460008863ffffffff1663ffffffff16815260200190815260200160002060040160056101000a81548163ffffffff021916908363ffffffff16021790555081600460008863ffffffff1663ffffffff16815260200190815260200160002060040160096101000a81548163ffffffff021916908363ffffffff1602179055507fbe829975d2c0d9995edbd0abc0cbd073add0fde193595b70af3c8e9094c00ac886868686604051611e209493929190614826565b60405180910390a1505050505050565b6007602052816000526040600020602052806000526040600020600091509150505481565b6000600460008463ffffffff1663ffffffff16815260200190815260200160002060040160049054906101000a900460ff16611ec6576040517f08c379a0000000000000000000000000000000000000000000000000000000008152600401611ebd906145f6565b60405180910390fd5b6000611ed18461379f565b90506000611f3c8585600660008963ffffffff1663ffffffff16815260200190815260200160002060008873ffffffffffffffffffffffffffffffffffffffff1673ffffffffffffffffffffffffffffffffffffffff16815260200190815260200160002054613804565b90506000611f53828461388b90919063ffffffff16565b91505080600b60008863ffffffff1663ffffffff16815260200190815260200160002060008773ffffffffffffffffffffffffffffffffffffffff1673ffffffffffffffffffffffffffffffffffffffff168152602001908152602001600020541115611fc65760009350505050612208565b6000612037600b60008963ffffffff1663ffffffff16815260200190815260200160002060008873ffffffffffffffffffffffffffffffffffffffff1673ffffffffffffffffffffffffffffffffffffffff16815260200190815260200160002054836138ba90919063ffffffff16565b9150506000600460008963ffffffff1663ffffffff1681526020019081526020016000206000015490506000600760008a63ffffffff1663ffffffff16815260200190815260200160002060008973ffffffffffffffffffffffffffffffffffffffff1673ffffffffffffffffffffffffffffffffffffffff16815260200190815260200160002054111561215e57600061212f8989600760008d63ffffffff1663ffffffff16815260200190815260200160002060008c73ffffffffffffffffffffffffffffffffffffffff1673ffffffffffffffffffffffffffffffffffffffff16815260200190815260200160002054613804565b9050808211156121575761214c81836138ba90919063ffffffff16565b90508092505061215c565b600091505b505b600460008963ffffffff1663ffffffff1681526020019081526020016000206000015482106121ff576000600460008a63ffffffff1663ffffffff16815260200190815260200160002060000154836121b79190614286565b90508181600460008c63ffffffff1663ffffffff168152602001908152602001600020600001546121e891906142ba565b6121f291906142ba565b9650505050505050612208565b81955050505050505b92915050565b6000600460008363ffffffff1663ffffffff16815260200190815260200160002060040160049054906101000a900460ff169050919050565b6008602052816000526040600020602052806000526040600020600091509150505481565b612276823361329f565b6122b5576040517f08c379a00000000000000000000000000000000000000000000000000000000081526004016122ac9061479a565b60405180910390fd5b600460008363ffffffff1663ffffffff16815260200190815260200160002060040160049054906101000a900460ff16612324576040517f08c379a000000000000000000000000000000000000000000000000000000000815260040161231b906145f6565b60405180910390fd5b600460008363ffffffff1663ffffffff168152602001908152602001600020600001546123518333611e55565b10612391576040517f08c379a0000000000000000000000000000000000000000000000000000000008152600401612388906148dd565b60405180910390fd5b600260009054906101000a900473ffffffffffffffffffffffffffffffffffffffff1673ffffffffffffffffffffffffffffffffffffffff166323b872dd3330846040518463ffffffff1660e01b81526004016123f093929190614682565b6020604051808303816000875af115801561240f573d6000803e3d6000fd5b505050506040513d601f19601f82011682018060405250810190612433919061445d565b612472576040517f08c379a000000000000000000000000000000000000000000000000000000000815260040161246990614705565b60405180910390fd5b600061247e8333611e55565b90506000600460008563ffffffff1663ffffffff16815260200190815260200160002060000154905060008282116124b75760006124c4565b82826124c39190614286565b5b90506000806064600460008963ffffffff1663ffffffff168152602001908152602001600020600401600d9054906101000a900463ffffffff1663ffffffff168761250f919061408f565b6125199190614100565b915081866125279190614286565b905081600d60008963ffffffff1663ffffffff168152602001908152602001600020600082825461255891906142ba565b9250508190555080600e60008963ffffffff1663ffffffff168152602001908152602001600020600082825461258e91906142ba565b9250508190555085600660008963ffffffff1663ffffffff16815260200190815260200160002060003373ffffffffffffffffffffffffffffffffffffffff1673ffffffffffffffffffffffffffffffffffffffff168152602001908152602001600020600082825461260191906142ba565b9250508190555081600760008963ffffffff1663ffffffff16815260200190815260200160002060003373ffffffffffffffffffffffffffffffffffffffff1673ffffffffffffffffffffffffffffffffffffffff168152602001908152602001600020600082825461267491906142ba565b9250508190555080600860008963ffffffff1663ffffffff16815260200190815260200160002060003373ffffffffffffffffffffffffffffffffffffffff1673ffffffffffffffffffffffffffffffffffffffff16815260200190815260200160002060008282546126e791906142ba565b925050819055503373ffffffffffffffffffffffffffffffffffffffff168763ffffffff167fcb56b790741c56fe9689db9a11c7acfbbe5aa3e1eafa48a4eedb49698688143788600060405161273e929190614725565b60405180910390a350505050505050565b612757613718565b6040518061016001604052808a81526020018981526020018881526020018781526020018663ffffffff1681526020016001151581526020018563ffffffff1681526020018463ffffffff1681526020018363ffffffff1681526020018263ffffffff1681526020014281525060046000600c60009054906101000a900463ffffffff1663ffffffff1663ffffffff1681526020019081526020016000206000820151816000015560208201518160010155604082015181600201556060820151816003015560808201518160040160006101000a81548163ffffffff021916908363ffffffff16021790555060a08201518160040160046101000a81548160ff02191690831515021790555060c08201518160040160056101000a81548163ffffffff021916908363ffffffff16021790555060e08201518160040160096101000a81548163ffffffff021916908363ffffffff16021790555061010082015181600401600d6101000a81548163ffffffff021916908363ffffffff1602179055506101208201518160040160116101000a81548163ffffffff021916908363ffffffff16021790555061014082015181600501559050507f19bb034335e290edb4dfdd4b94706d99fb766d7512bd8836347f261943bd98e2600c60009054906101000a900463ffffffff168a8a886040516129579493929190614826565b60405180910390a1600c600081819054906101000a900463ffffffff1680929190612981906148fd565b91906101000a81548163ffffffff021916908363ffffffff16021790555050505050505050505050565b600d6020528060005260406000206000915090505481565b6129cb613718565b6129d560006138e2565b565b600b602052816000526040600020602052806000526040600020600091509150505481565b60008060009054906101000a900473ffffffffffffffffffffffffffffffffffffffff16905090565b60003411612a68576040517f08c379a0000000000000000000000000000000000000000000000000000000008152600401612a5f90614975565b60405180910390fd5b600260009054906101000a900473ffffffffffffffffffffffffffffffffffffffff1673ffffffffffffffffffffffffffffffffffffffff1663d0e30db0346040518263ffffffff1660e01b81526004016000604051808303818588803b158015612ad257600080fd5b505af1158015612ae6573d6000803e3d6000fd5b5050505050565b600260009054906101000a900473ffffffffffffffffffffffffffffffffffffffff1673ffffffffffffffffffffffffffffffffffffffff16632e1a7d4d826040518263ffffffff1660e01b8152600401612b489190613b67565b600060405180830381600087803b158015612b6257600080fd5b505af1158015612b76573d6000803e3d6000fd5b5050505050565b6000600460008563ffffffff1663ffffffff16815260200190815260200160002060040160049054906101000a900460ff16612bee576040517f08c379a0000000000000000000000000000000000000000000000000000000008152600401612be5906145f6565b60405180910390fd5b6000612bfa8585611e55565b90506000612c09868686613313565b84612c14919061408f565b9050600081600460008963ffffffff1663ffffffff16815260200190815260200160002060000154612c469190614286565b905060008284612c5691906142ba565b9050600460008963ffffffff1663ffffffff16815260200190815260200160002060000154811015612c885780612cf5565b600083600460008b63ffffffff1663ffffffff16815260200190815260200160002060000154612cb89190614286565b1015612cf2576002600460008a63ffffffff1663ffffffff16815260200190815260200160002060000154612ced919061408f565b612cf4565b825b5b9450505050509392505050565b612d0c833361329f565b612d4b576040517f08c379a0000000000000000000000000000000000000000000000000000000008152600401612d429061479a565b60405180910390fd5b600460008463ffffffff1663ffffffff16815260200190815260200160002060040160049054906101000a900460ff16612dba576040517f08c379a0000000000000000000000000000000000000000000000000000000008152600401612db1906145f6565b60405180910390fd5b6064821115612dfe576040517f08c379a0000000000000000000000000000000000000000000000000000000008152600401612df5906149e1565b60405180910390fd5b600460008463ffffffff1663ffffffff16815260200190815260200160002060000154612e2b8433611e55565b1015612e6c576040517f08c379a0000000000000000000000000000000000000000000000000000000008152600401612e6390614a4d565b60405180910390fd5b600260009054906101000a900473ffffffffffffffffffffffffffffffffffffffff1673ffffffffffffffffffffffffffffffffffffffff166323b872dd3330846040518463ffffffff1660e01b8152600401612ecb93929190614682565b6020604051808303816000875af1158015612eea573d6000803e3d6000fd5b505050506040513d601f19601f82011682018060405250810190612f0e919061445d565b612f4d576040517f08c379a0000000000000000000000000000000000000000000000000000000008152600401612f4490614705565b60405180910390fd5b600060648383612f5d919061408f565b612f679190614100565b905060008183612f779190614286565b9050828211612f865781612f88565b825b9150828111612f975780612f9a565b60005b905080600d60008763ffffffff1663ffffffff1681526020019081526020016000206000828254612fcb91906142ba565b9250508190555080600760008763ffffffff1663ffffffff16815260200190815260200160002060003373ffffffffffffffffffffffffffffffffffffffff1673ffffffffffffffffffffffffffffffffffffffff168152602001908152602001600020600082825461303e91906142ba565b9250508190555081600e60008763ffffffff1663ffffffff168152602001908152602001600020600082825461307491906142ba565b9250508190555081600860008763ffffffff1663ffffffff16815260200190815260200160002060003373ffffffffffffffffffffffffffffffffffffffff1673ffffffffffffffffffffffffffffffffffffffff16815260200190815260200160002060008282546130e791906142ba565b9250508190555082600660008763ffffffff1663ffffffff16815260200190815260200160002060003373ffffffffffffffffffffffffffffffffffffffff1673ffffffffffffffffffffffffffffffffffffffff168152602001908152602001600020600082825461315a91906142ba565b925050819055503373ffffffffffffffffffffffffffffffffffffffff168563ffffffff167fcb56b790741c56fe9689db9a11c7acfbbe5aa3e1eafa48a4eedb4969868814378560006040516131b1929190614725565b60405180910390a35050505050565b6131c8613718565b6000600460008363ffffffff1663ffffffff16815260200190815260200160002060040160046101000a81548160ff0219169083151502179055507fc5dfab0962c70e9a4416c78094b25bf915c7d3198f89974c6ddc52306e4df424816040516132329190613d19565b60405180910390a150565b613245613718565b80600360006101000a81548173ffffffffffffffffffffffffffffffffffffffff021916908373ffffffffffffffffffffffffffffffffffffffff16021790555050565b600c60009054906101000a900463ffffffff1681565b6000600560008463ffffffff1663ffffffff16815260200190815260200160002060008373ffffffffffffffffffffffffffffffffffffffff1673ffffffffffffffffffffffffffffffffffffffff16815260200190815260200160002060009054906101000a900460ff16905092915050565b600080600460008663ffffffff1663ffffffff16815260200190815260200160002060405180610160016040529081600082015481526020016001820154815260200160028201548152602001600382015481526020016004820160009054906101000a900463ffffffff1663ffffffff1663ffffffff1681526020016004820160049054906101000a900460ff161515151581526020016004820160059054906101000a900463ffffffff1663ffffffff1663ffffffff1681526020016004820160099054906101000a900463ffffffff1663ffffffff1663ffffffff16815260200160048201600d9054906101000a900463ffffffff1663ffffffff1663ffffffff1681526020016004820160119054906101000a900463ffffffff1663ffffffff1663ffffffff16815260200160058201548152505090506000613469826101400151426134649190614286565b6139a6565b600161347591906142ba565b9050600061348387866109b0565b90506000811480156134955750600085115b61349f57806134a2565b60015b905080826134b0919061408f565b93505050509392505050565b6134c4613718565b600073ffffffffffffffffffffffffffffffffffffffff168173ffffffffffffffffffffffffffffffffffffffff16036135365760006040517f1e4fbdf700000000000000000000000000000000000000000000000000000000815260040161352d9190613a86565b60405180910390fd5b61353f816138e2565b50565b60056020528160005260406000206020528060005260406000206000915091509054906101000a900460ff1681565b600e6020528060005260406000206000915090505481565b601260009054906101000a900473ffffffffffffffffffffffffffffffffffffffff1673ffffffffffffffffffffffffffffffffffffffff166369328dec8383306040518463ffffffff1660e01b81526004016135e893929190614a6d565b6020604051808303816000875af1158015613607573d6000803e3d6000fd5b505050506040513d601f19601f8201168201806040525081019061362b9190614303565b505050565b6136c6816040516024016136449190614b23565b6040516020818303038152906040527f41304fac000000000000000000000000000000000000000000000000000000007bffffffffffffffffffffffffffffffffffffffffffffffffffffffff19166020820180517bffffffffffffffffffffffffffffffffffffffffffffffffffffffff83818316178352505050506139ed565b50565b600260015403613705576040517f3ee5aeb500000000000000000000000000000000000000000000000000000000815260040160405180910390fd5b6002600181905550565b60018081905550565b613720613a07565b73ffffffffffffffffffffffffffffffffffffffff1661373e6129fc565b73ffffffffffffffffffffffffffffffffffffffff161461379d57613761613a07565b6040517f118cdaa70000000000000000000000000000000000000000000000000000000081526004016137949190613a86565b60405180910390fd5b565b60006064600460008463ffffffff1663ffffffff16815260200190815260200160002060020154600460008563ffffffff1663ffffffff168152602001908152602001600020600001546137f3919061408f565b6137fd9190614100565b9050919050565b600080613812858585613313565b9050600460008663ffffffff1663ffffffff168152602001908152602001600020600101548311613847576000915050613884565b80600460008763ffffffff1663ffffffff16815260200190815260200160002060010154846138769190614286565b613880919061408f565b9150505b9392505050565b60008060008385019050848110156138aa5760008092509250506138b3565b60018192509250505b9250929050565b600080838311156138d157600080915091506138db565b6001838503915091505b9250929050565b60008060009054906101000a900473ffffffffffffffffffffffffffffffffffffffff169050816000806101000a81548173ffffffffffffffffffffffffffffffffffffffff021916908373ffffffffffffffffffffffffffffffffffffffff1602179055508173ffffffffffffffffffffffffffffffffffffffff168173ffffffffffffffffffffffffffffffffffffffff167f8be0079c531659141344cd1fd0a4f28419497f9722a3daafe3b4186f6b6457e060405160405180910390a35050565b60008062278d00836139b89190614100565b905060006064600a836139cb919061408f565b6139d5919061408f565b90506064816139e49190614100565b92505050919050565b613a04816139fc613a0f613a30565b63ffffffff16565b50565b600033905090565b60006a636f6e736f6c652e6c6f679050600080835160208501845afa505050565b613a3b819050919050565b613a43614b45565b565b600073ffffffffffffffffffffffffffffffffffffffff82169050919050565b6000613a7082613a45565b9050919050565b613a8081613a65565b82525050565b6000602082019050613a9b6000830184613a77565b92915050565b600080fd5b600063ffffffff82169050919050565b613abf81613aa6565b8114613aca57600080fd5b50565b600081359050613adc81613ab6565b92915050565b6000819050919050565b613af581613ae2565b8114613b0057600080fd5b50565b600081359050613b1281613aec565b92915050565b60008060408385031215613b2f57613b2e613aa1565b5b6000613b3d85828601613acd565b9250506020613b4e85828601613b03565b9150509250929050565b613b6181613ae2565b82525050565b6000602082019050613b7c6000830184613b58565b92915050565b613b8b81613a65565b8114613b9657600080fd5b50565b600081359050613ba881613b82565b92915050565b60008060408385031215613bc557613bc4613aa1565b5b6000613bd385828601613acd565b9250506020613be485828601613b99565b9150509250929050565b600060208284031215613c0457613c03613aa1565b5b6000613c1284828501613acd565b91505092915050565b613c2481613aa6565b82525050565b60008115159050919050565b613c3f81613c2a565b82525050565b600061016082019050613c5b600083018e613b58565b613c68602083018d613b58565b613c75604083018c613b58565b613c82606083018b613b58565b613c8f608083018a613c1b565b613c9c60a0830189613c36565b613ca960c0830188613c1b565b613cb660e0830187613c1b565b613cc4610100830186613c1b565b613cd2610120830185613c1b565b613ce0610140830184613b58565b9c9b505050505050505050505050565b6000604082019050613d056000830185613b58565b613d126020830184613b58565b9392505050565b6000602082019050613d2e6000830184613c1b565b92915050565b6000819050919050565b6000613d59613d54613d4f84613a45565b613d34565b613a45565b9050919050565b6000613d6b82613d3e565b9050919050565b6000613d7d82613d60565b9050919050565b613d8d81613d72565b82525050565b6000602082019050613da86000830184613d84565b92915050565b60008060008060008060c08789031215613dcb57613dca613aa1565b5b6000613dd989828a01613acd565b9650506020613dea89828a01613b03565b9550506040613dfb89828a01613b03565b9450506060613e0c89828a01613acd565b9350506080613e1d89828a01613acd565b92505060a0613e2e89828a01613acd565b9150509295509295509295565b6000602082019050613e506000830184613c36565b92915050565b60008060008060008060008060006101208a8c031215613e7957613e78613aa1565b5b6000613e878c828d01613b03565b9950506020613e988c828d01613b03565b9850506040613ea98c828d01613b03565b9750506060613eba8c828d01613b03565b9650506080613ecb8c828d01613acd565b95505060a0613edc8c828d01613acd565b94505060c0613eed8c828d01613acd565b93505060e0613efe8c828d01613acd565b925050610100613f108c828d01613acd565b9150509295985092959850929598565b600060208284031215613f3657613f35613aa1565b5b6000613f4484828501613b03565b91505092915050565b600080600060608486031215613f6657613f65613aa1565b5b6000613f7486828701613acd565b9350506020613f8586828701613b99565b9250506040613f9686828701613b03565b9150509250925092565b600080600060608486031215613fb957613fb8613aa1565b5b6000613fc786828701613acd565b9350506020613fd886828701613b03565b9250506040613fe986828701613b03565b9150509250925092565b60006020828403121561400957614008613aa1565b5b600061401784828501613b99565b91505092915050565b6000806040838503121561403757614036613aa1565b5b600061404585828601613b99565b925050602061405685828601613b03565b9150509250929050565b7f4e487b7100000000000000000000000000000000000000000000000000000000600052601160045260246000fd5b600061409a82613ae2565b91506140a583613ae2565b92508282026140b381613ae2565b915082820484148315176140ca576140c9614060565b5b5092915050565b7f4e487b7100000000000000000000000000000000000000000000000000000000600052601260045260246000fd5b600061410b82613ae2565b915061411683613ae2565b925082614126576141256140d1565b5b828204905092915050565b600082825260208201905092915050565b7f4e6f74206120706f6c696379206f776e65722100000000000000000000000000600082015250565b6000614178601383614131565b915061418382614142565b602082019050919050565b600060208201905081810360008301526141a78161416b565b9050919050565b7f506f6c6963792069736e27742061637469766521000000000000000000000000600082015250565b60006141e4601483614131565b91506141ef826141ae565b602082019050919050565b60006020820190508181036000830152614213816141d7565b9050919050565b7f4e6f2070726576696f7573207061796d656e7420666f756e6400000000000000600082015250565b6000614250601983614131565b915061425b8261421a565b602082019050919050565b6000602082019050818103600083015261427f81614243565b9050919050565b600061429182613ae2565b915061429c83613ae2565b92508282039050818111156142b4576142b3614060565b5b92915050565b60006142c582613ae2565b91506142d083613ae2565b92508282019050808211156142e8576142e7614060565b5b92915050565b6000815190506142fd81613aec565b92915050565b60006020828403121561431957614318613aa1565b5b6000614327848285016142ee565b91505092915050565b7f496e73756666696369656e7420574554482062616c616e636500000000000000600082015250565b6000614366601983614131565b915061437182614330565b602082019050919050565b6000602082019050818103600083015261439581614359565b9050919050565b7f496e73756666696369656e7420696e766573746d656e742066756e6473210000600082015250565b60006143d2601e83614131565b91506143dd8261439c565b602082019050919050565b60006020820190508181036000830152614401816143c5565b9050919050565b600060408201905061441d6000830185613a77565b61442a6020830184613b58565b9392505050565b61443a81613c2a565b811461444557600080fd5b50565b60008151905061445781614431565b92915050565b60006020828403121561447357614472613aa1565b5b600061448184828501614448565b91505092915050565b6000819050919050565b600061ffff82169050919050565b60006144bd6144b86144b38461448a565b613d34565b614494565b9050919050565b6144cd816144a2565b82525050565b60006080820190506144e86000830187613a77565b6144f56020830186613b58565b6145026040830185613a77565b61450f60608301846144c4565b95945050505050565b7f416c7265616479206120636c61696d616e74206f66207468697320706f6c696360008201527f7900000000000000000000000000000000000000000000000000000000000000602082015250565b6000614574602183614131565b915061457f82614518565b604082019050919050565b600060208201905081810360008301526145a381614567565b9050919050565b7f506f6c696379206973206e6f7420616374697665000000000000000000000000600082015250565b60006145e0601483614131565b91506145eb826145aa565b602082019050919050565b6000602082019050818103600083015261460f816145d3565b9050919050565b7f43616e2774206166666f72642074686520726174652100000000000000000000600082015250565b600061464c601683614131565b915061465782614616565b602082019050919050565b6000602082019050818103600083015261467b8161463f565b9050919050565b60006060820190506146976000830186613a77565b6146a46020830185613a77565b6146b16040830184613b58565b949350505050565b7f57455448207472616e73666572206661696c6564000000000000000000000000600082015250565b60006146ef601483614131565b91506146fa826146b9565b602082019050919050565b6000602082019050818103600083015261471e816146e2565b9050919050565b600060408201905061473a6000830185613b58565b6147476020830184613c36565b9392505050565b7f4e6f74206120706f6c696379206f776e65720000000000000000000000000000600082015250565b6000614784601283614131565b915061478f8261474e565b602082019050919050565b600060208201905081810360008301526147b381614777565b9050919050565b7f496e73756666696369656e7420636f7665726167652066756e64000000000000600082015250565b60006147f0601a83614131565b91506147fb826147ba565b602082019050919050565b6000602082019050818103600083015261481f816147e3565b9050919050565b600060808201905061483b6000830187613c1b565b6148486020830186613b58565b6148556040830185613b58565b6148626060830184613c1b565b95945050505050565b7f46756c6c20636f7665726167652061636869657665642c20757365207061794360008201527f7573746f6d5072656d69756d0000000000000000000000000000000000000000602082015250565b60006148c7602c83614131565b91506148d28261486b565b604082019050919050565b600060208201905081810360008301526148f6816148ba565b9050919050565b600061490882613aa6565b915063ffffffff820361491e5761491d614060565b5b600182019050919050565b7f496e73756666696369656e74204554482062616c616e63650000000000000000600082015250565b600061495f601883614131565b915061496a82614929565b602082019050919050565b6000602082019050818103600083015261498e81614952565b9050919050565b7f496e76616c69642070657263656e746167652076616c75650000000000000000600082015250565b60006149cb601883614131565b91506149d682614995565b602082019050919050565b600060208201905081810360008301526149fa816149be565b9050919050565b7f436f766572616765206973206e6f742079657420636f6d706c65746500000000600082015250565b6000614a37601c83614131565b9150614a4282614a01565b602082019050919050565b60006020820190508181036000830152614a6681614a2a565b9050919050565b6000606082019050614a826000830186613a77565b614a8f6020830185613b58565b614a9c6040830184613a77565b949350505050565b600081519050919050565b60005b83811015614acd578082015181840152602081019050614ab2565b60008484015250505050565b6000601f19601f8301169050919050565b6000614af582614aa4565b614aff8185614131565b9350614b0f818560208601614aaf565b614b1881614ad9565b840191505092915050565b60006020820190508181036000830152614b3d8184614aea565b905092915050565b7f4e487b7100000000000000000000000000000000000000000000000000000000600052605160045260246000fdfea2646970667358221220abe2318c1fc360c25c4466e13793a4f1bea42f0942acd1383bde0b98c5230b7a64736f6c63430008140033",
  "linkReferences": {},
  "deployedLinkReferences": {}
}